S0130000464C4153485F53414D34452E73726563EA
S214400000C0FA0120CD6F4200C96F4200C96F42005E
S214400010C96F4200C96F4200C96F4200000000002D
S21440002000000000000000000000000059094200E7
S214400030C96F420000000000CD0942001D0A420080
S214400040C96F4200C96F4200C96F4200C96F420083
S214400050C96F4200C96F4200C96F4200A596410071
S214400060C96F420049844100598441006984410077
S214400070798441008984410035D4410001D441004F
S214400080C96F4200C96F4200C96F4200C96F420043
S214400090C96F4200C96F4200C96F4200C96F420033
S2144000A051CD4100C96F4200C96F4200C96F42003E
S2144000B0C96F4200C96F4200C96F4200C96F420013
S2144000C0C96F4200C96F4200C96F4200C96F420003
S2144000D0C96F4200C96F4200C96F4200C96F4200F3
S2144000E0C96F4200C96F4200C96F4200C96F4200E3
S2144000F0557A4100C96F420010B5054C237833B994
S214400100044B13B10448AFF300800123237010BDA5
S214400110E809002000000000002A43000C4B43B1D1
S2144001200C480D4910B5AFF300800C48036823B95E
S21440013010BD0A48036833B97047094B002BF7D007
S214400140BDE810401847064B002BF5D0184700BFB7
S21440015000000000002A4300EC090020002A43006B
S214400160000000002DE9F04186B0002405460A460E
S2144001700F4603A81449154E03940494ADF8144052
S214400180B04721464FF4FA72114B1248DFF86080B0
S2144001909847114B0093012203AB29460D48C047B0
S2144001A022460E4B0B490E4C284698473B462A465D
S2144001B038B90C490C48B0470B48A04706B0BDE8D4
S2144001C0F0810A49F6E700BFE7124300798B420008
S2144001D055874200040A0020E3ED4200F9994100A9
S2144001E0713D42007BC942007CB001209EC942005E
S2144001F0A987410030B54FF4FA7285B00546144BD6
S21440020014480C46002198474FF4FA721149124B95
S21440021028469847C8B901900290ADF80C0001AA4C
S2144002200E490C480E4B984701A80E4B984700B213
S214400230208023880C490D4C0D482A461BB2A04707
S2144002400B480C4B984705B030BD00232380F0E7A1
S21440025055874200040A00209D99410056C9420035
S214400260913A4200BD4342005AC94200798B42004F
S2144002707CB00120713D420010B5084C084B214629
S2144002800C2098470748084B98472146074B0C20B8
S2144002909847074BBDE81040184700BF53C9420077
S2144002A005CA4100389401209DC8410079CA4100E2
S2144002B0D9C9410008B5024B9847002008BD00BF89
S2144002C02DC8410013B500230A46044600938DF816
S2144002D004300749074B6846984768460421064B52
S2144002E0984769462046054B984702B010BD00BF68
S2144002F050C94200798B4200E58E4100C58B4200D2
S21440030013B50446084602A9002321F8023D044BD3
S2144003109847BDF90610034B2046984702B010BDDB
S21440032059D14100C502400070B5032104461A4D1C
S2144003301A4EA84720460221A84720460121A84732
S21440034020460021A84720460521A84720460421EC
S214400350A847134B134D1988204609B2A847124B9D
S2144003601988204609B2A847104B1988204609B27A
S214400370A8470F4B1988204609B2A847F16B20467C
S214400380C1F30041A847F16B20462B46C1F3C0514C
S214400390BDE87040184700BF01034000000E0E4005
S2144003A078940120C5024000769401207494012080
S2144003B07A940120004B1847F1C7410010B5074B0F
S2144003C0074C1988074809B2A047074B07481988C1
S2144003D0234609B2BDE81040184700BF7494012078
S2144003E065014000BCC942007A940120C8C9420059
S2144003F010B5054C05490648A0472346054906481A
S214400400BDE81040184700BFF50140007494012035
S214400410BCC942007A940120C8C9420030B50020C9
S21440042085B00D4B0D4D984700240D4B02930D4A59
S2144004300D4803942346012101940094A8470B4B92
S2144004400B4D98473C23009322460A4B0A482146C8
S214400450A847204605B030BDC18C41002DC44100A0
S214400460290340006DC942003894012071C64100FE
S214400470B134420079024000B5024000F0B518B3EE
S21440048011B301230370851C002343702C4604F8E7
S214400490013B0133B3F5807FF9D1002400F5817E1E
S2144004A02346CE5C2F783E443444E4B206190133EA
S2144004B096F802C005F801CB934228BF0023AE450C
S2144004C0B770EED10020F0BD6FF0AC00F0BDF0B5D7
S2144004D000B3F9B1F2B10578447801391344871C6A
S2144004E09A4203D1057044700020F0BD7E5D12F83C
S2144004F001EB3444E4B217F804C007F805C03E5593
S2144005006644F6B20135BE5D8EEA0606EDB201F8E7
S214400510016FE5E76FF0AC00F0BD18B1C0F804110C
S214400520002070476FF0AC007047704770B5146895
S21440053005680B5D0A26303B06FB035321440360E7
S214400540497830390B4402340360146070BD0B6840
S21440055030B5DC1C94420FD8C55C012D03F1010276
S2144005600DD1825C012A03F1020308D1C05C0C6005
S214400570003018BF012030BD6FF0830030BD6FF0F3
S2144005808B0030BD30B54B6942699A4229DC2AD18E
S21440059002690B699A4224DC25D1C268CB689A422C
S2144005A01FDC03D185688C68A5421ADC9A4207D1C5
S2144005B085688C68A54203D145684C68A54210DC26
S2144005C09A4210D182688B689A420CD142684B6836
S2144005D09A4208D100680B689842D4BF0020012098
S2144005E030BD012030BD002030BD000007B50023DF
S2144005F0019313600D2919D8DFE811F00E003D0075
S2144006008800940098001800B300E800F100F80055
S214400610FD001B0121013401B0F5D07F29D009D857
S214400620B0F5CF7F21D022D858281AD0019803B0F1
S2144006305DF804FB40F2862398420CD040F28923B2
S21440064098420CD040F2A1139842EFD1924B0193BE
S21440065009231360EAE7914B01930823F9E7904B8F
S214400660FAE7904B01930523F3E78F4BEFE78F4B69
S214400670EDE78F4BEBE740F28623984234D016D80E
S21440068040F20D2398423DD007D8B0F5027F35D0D2
S214400690B0F5037FCAD1874BDEE740F20E2398427F
S2144006A032D040F20F239842C0D1834BD4E740F279
S2144006B08F2398421CD0B0F5247F08D2B0F5227F15
S2144006C014D040F289239842B0D17C4BBFE740F229
S2144006D09123984210D0B0F5247F0BD940F2922354
S2144006E09842A3D1764BB2E7764BB0E7764BAEE76F
S2144006F0764BACE7764BAAE7764BA8E7764B01936A
S2144007000723A6E7754BA7E7754BA5E740F20623F8
S214400710984205D040F28523984287D1714B96E7A0
S214400720714BECE701A9714B98477FE7B0F5D97F4D
S21440073011D007D8452812D0B0F5CF7F7FF476AFDA
S2144007406B4B84E7B0F5E37F07D0B0F5237F7FF4AB
S2144007506DAF684B80E7684B79E7684B77E7684B47
S21440076080E7902830D012D8812829D006D845284E
S21440077022D080287FF45AAF624B05E0832817D0FA
S21440078085287FF453AF604B0193032361E7952898
S21440079014D006D891280DD092287FF447AF5B4BF3
S2144007A0F2E797280ED0A8287FF440AF584BEBE7E7
S2144007B0584BE9E7584BE7E7584B4DE7584BE3E7CC
S2144007C0584BE1E7584BDFE7584BDDE7742804D039
S2144007D075287FF42BAF564B3EE7564B3CE79228A6
S2144007E07FF424AF544B0193042332E74F287FF421
S2144007F01DAF524B30E74A2817D007D8482810D0AC
S21440080011D847287FF412AF4D4B25E74F280ED01E
S214400810972804D04E287FF409AF4A4B1CE74A4B32
S214400820E1E74A4B18E74A4B16E74A4B14E74A4B70
S21440083012E7B0F5257F7FF4F9AE484B07E740F264
S214400840B51398420AD040F2C913984208D040F2F5
S214400850A11398427FF4EAAE414BF8E6414BF6E6E8
S214400860414BF4E6BE2813D006D8BC280CD0BD2891
S2144008707FF4DCAE3D4B08E0BF280BD0B0F5E87FF8
S2144008807FF4D4AE3A4BE2E63A4B01930623E0E6D9
S214400890394BFAE7394BF8E7ECCA4200D7CA420070
S2144008A0DFCA4200E7CA4200F5CA4200FECA42001A
S2144008B007CB42005CCB42004BCB420042CB4200CF
S2144008C053CB420029CB420032CB420064CB42009D
S2144008D075CB420086CB42003BCB42006DCB4200FC
S2144008E07ECB420017CB420010CB4200814C4000EA
S2144008F018CA420033CA420021CA42002ACA4200ED
S2144009003BCA4200D4CA420087CA42008ECA42004E
S214400910CBCA420069CA420091CA42007CCA420021
S21440092084CA4200CECA4200B8CA4200D1CA420077
S2144009306CCA420074CA42008ACA420061CA420077
S214400940BBCA4200C3CA420094CA420098CA420088
S214400950A0CA4200A8CA4200B0CA420020CB420009
S2144009608FCB420098CB4200A1CB42004FCA4200F8
S21440097040CA420049CA420055CA42005BCA4200C9
S21440098007B502AA002142F8041D074B98470028E5
S21440099007DB019B002B08BF6FF0840003B05DF8B7
S2144009A004FB6FF08400F9E7814C40002DE9F047E6
S2144009B0089D0E461446984613B90020BDE8F087B9
S2144009C0002DFADD0029F8D0002AF6DD0B782E2B14
S2144009D0F3D09542F1DC431E012BEED8012898F85F
S2144009E0000017D12E2806D0002318F80320402AEE
S2144009F00ED09D420AD133460022194601330F7865
S214400A00402F2FD0954205D00132F6E70133ECE770
S214400A109D42F0DD2E2804BF641B3619DFF8509047
S214400A2008BF2C46B246A4EB0A033344002B02DC34
S214400A300120BDE8F0871AF8017BC847384418F80B
S214400A40015B437803F00303012B08BF2037C847F8
S214400A502844437803F00303012B08BF2035AF42F8
S214400A60E1D0AAE79542D5DD01324E1CA41AD1E763
S214400A70417F4200F0B50D686C1C00279C42176011
S214400A8019D84619405D050608D500F07F052C4468
S214400A90A34210D3384615F1FF3507D20519AB42AD
S214400AA009D300280C6008DD1060F0BD16F8017F01
S214400AB047EA0020EFE76FF08300F0BDF7B5144635
S214400AC012681E46089B551C9D4212D8825C0095B3
S214400AD08A4203D06FF08B0003B0F0BD01AA69468E
S214400AE0054DA8470028F5DB0198009B3060236041
S214400AF0F2E76FF08300EFE7750A4000F7B50C4663
S214400B00009315461346114F0A4602210646B8473B
S214400B10002814DB2968002915DD2368F25C82B9B9
S214400B2001290ED0013323602B68013B002B2B603C
S214400B3009DD2368F356002B05DB6FF08B0003B00E
S214400B40F0BD1306F9D40020F9E700BFBD0A400007
S214400B5073B515460A680C46511C994210D8825CFB
S214400B600091062A0FD101AA69460A4EB0470028CE
S214400B700CDB019B2B60009B2360002002B070BD05
S214400B806FF08300FAE76FF08F00F7E76FF08B00A7
S214400B90F4E700BF750A400037B50B6800930C4673
S214400BA01346694601AA044DA84718B99DE80C00AB
S214400BB01344236003B030BD510B40002DE9F34190
S214400BC014460A680F46511C9942054604D96FF0F0
S214400BD0830002B0BDE8F081825C0091032A27D1F1
S214400BE001AA6946164EB047002824DB019A002A1F
S214400BF0EDDD0099481C8342E9D3089E6B5C1EB12C
S214400C0083B16FF09100E4E7072B14D853B1154435
S214400C100D44C3F1080315F8011C01FA03F313F061
S214400C20FF0F08D1013A386044B122600020D0E777
S214400C306FF09200CDE76FF08B00CAE72046C8E71A
S214400C40750A400013B5044C009313460A463021FB
S214400C50A04702B010BD00BFBD0A400013B5044C0B
S214400C60009313460A463121A04702B010BD00BF8C
S214400C70BD0A40002DE9F04F8BB00446019109BBF8
S214400C8000F1700600F14807D4F87402D4F87832C0
S214400C90C35C062B04F51E7819D0DFF81093D4F801
S214400CA07C32D4F87402D4F8785206AA4146C84733
S214400CB00028CDF8089012DA6FF08B0B58460BB030
S214400CC0BDE8F08F00F5B87600F13407DCE7D4F8DD
S214400CD07C22A54B414698470028DEDAECE7069B87
S214400CE0D4F87812D4F8740219443A46491B28447A
S214400CF09E4B984783460028E0D1069AD4F878124F
S214400D0053180693019B012B01BFD4F87432C4F8E4
S214400D1010235B18C4F80C330025D4F87822069BC1
S214400D209A4202D300237355C8E7D4F87C32904FDA
S214400D30D4F8740207AA4146B847D4F87C32D4F8AF
S214400D407402029F07AA4146B847002832DD08AA27
S214400D50D4F87C32D4F87402864F4146B8470246EF
S214400D60002840F0FA80D4F87812D4F87C3201F1AA
S214400D70020E9E451ED8D4F87402475AADF8147039
S214400D80FFB2552F40F08A809DF81570042F40F032
S214400D90E680CA1CC4F87822043110F80E70C4F8F5
S214400DA07812009710F80290734F09AA4146B84748
S214400DB0002802DA6FF08B02CFE0009ADDF824A01C
S214400DC0032A0AF10D00C5F5807313D1019A012A52
S214400DD009D1D4F87422D4F87812C4F864A00A442E
S214400DE0226684F86890984221DA644B1B687351F7
S214400DF0043512E0009A042A03D1984217DA604B71
S214400E00F4E7009A062A18D1984210DA5D4B721918
S214400E1019889B78715393700335D4F87832D4F898
S214400E207412701919445246574B98475544D4F893
S214400E3078325344C4F878326FE7009A072A04D1D0
S214400E409842F4DA7219514BE2E7009A082A03D125
S214400E509842ECDA4E4BC9E7009A0A2A04D19842E7
S214400E60E5DA72194B4BD3E7009A0B2A03D1984226
S214400E70DDDA494BBAE7009A052AD8D19842D6DA45
S214400E80464B721903F10C0153F8040B42F8040B5D
S214400E908B42F9D11B8813800E35BEE72A2F0AD124
S214400EA09DF81570A7F1860EDEF1000747EB0E079A
S214400EB0009791460AE0092F51D19DF8159000926F
S214400EC0A9F19207D7F1000949EB0709089A2A4F7A
S214400ED001321144C4F8781209AA4146B84700289E
S214400EE0FFF668AF099B0098C5F580729A42ACBF82
S214400EF000210121002800F09F8003F10D0082426E
S214400F0010DD9A422DDB264B721903F10C0153F883
S214400F10040B42F8040B8B42F9D11B881380002344
S214400F200E3500931F4BD4F8801203931D220820E1
S214400F309847824678B10998D4F88012039B1D22C0
S214400F4001309847CAF8040090BB1D22D4F880129E
S214400F50154B504698476FF07C029346AEE600929B
S214400F60A7E70091DEE700BF990B4000E94C400040
S214400F705D0C4000510B4000750A4000D4C9420049
S214400F80D9C94200DEC9420059854200E2C9420042
S214400F90E6C94200EBC94200EFC94200F4C942002C
S214400FA003CA4200B9F74000C1F74000450C400074
S214400FB0D4F87832D4F87412099A19441F4B039324
S214400FC09847099ADAF80410039B00208854A26ACE
S214400FD0CAF80020009AC4F828A052B9DDF824A028
S214400FE0D4F87402D4F878125246014470199847DF
S214400FF05544B9F1000F1AD0DDF82490C5F580733A
S21440100009F104029A4212DA009B83B90C4B72191A
S214401010196871511B791371D4F87832D4F8741268
S2144010200535194470194A46044B98474D44D4F840
S2144010307832099A1344FDE60091DAE75985420072
S21440104012CA420070B50C68E51C9D420ED8065D7B
S214401050022E04F1010309D1C35C012B04F1020402
S21440106007D1035D13600D60106870BD6FF08B0094
S21440107070BD6FF08C0070BDF7B50E461546126811
S2144010800092044601AA694630460E4FB84778B9E2
S21440109020460D4B984790B99DE8060020463144BF
S2144010A00A4B984730B12046094B98476FF08D0061
S2144010B003B0F0BD9DE80C0013442B60F8E76FF0DA
S2144010C06D00F5E7FD0A40006F504000B156400005
S2144010D0A15040002DE9FF4799460B680293002334
S2144010E013608A4616460C9B1C4C01AA02A907466A
S2144010F0A047054630BB029B019C07EB03082344F0
S21440110041461F4402468F4220D14FF0FF310191A5
S21440111002B10293029BCAF80030B9F10E0F11D00B
S214401120494603AA30680E4B9847014650B1039B88
S21440113024EAE4729A4203D140460A4B984708B1E3
S2144011406FF09305284604B0BDE8F08711F8010B10
S2144011503268024432600122D5E700BF510B40009E
S214401160ED054000F98442002DE9F04385B09846ED
S2144011700C9D0B680393002313600E4617462B46C0
S21440118002AA03A9DFF858900446C847002819DB8E
S2144011903A460095434603A92046104FB8470028D4
S2144011A013DB039BE25C052A06D19A1C95420FD3BB
S2144011B01C4463787BB90392039B3360002005B0E0
S2144011C0BDE8F0836FF08B00F9E76FF08F00F6E72D
S2144011D06FF08300F3E76FF09100F0E7D510400022
S2144011E0450C40002DE9F3410646154698460F4605
S2144011F0002957D001AA2E4CA047002804DA6FF0E9
S2144012008B0002B0BDE8F08143466A463946304618
S214401210284CA0470028F2DB0123C5F888303A4620
S214401220434631462846244CA047002837DB4346F1
S2144012303A46314605F11000A04700282FDB4346CA
S2144012403A46314605F12000A047002827DB4346B2
S2144012503A46314605F13000A04700281FDB43469A
S2144012603A46314605F14000A047002817DB434682
S2144012703A46314605F15000A04700280FDB43466A
S2144012803A46314605F16000A047002807DB434652
S2144012903A46314605F17000A047002805DA6FF05F
S2144012A08E00AEE76FF0AC00ABE70020A9E700BFCA
S2144012B0450C400045104000791040002DE9F043B1
S2144012C00C4685B017461E46054600285FD00029C6
S2144012D05DD0002A5BD003AADFF8CC80C047002848
S2144012E004DA6FF08B0005B0BDE8F0830023C7F842
S2144012F0883023685A1C964202D26FF08300F2E789
S214401300EB5C022B0BD13346224629463846DFF8A3
S2144013109C80C04700282EDA6FF08E00E3E7334605
S21440132003AA21462846C0470028DADB3246214633
S21440133028461B4B98470028D3DB2368EA5C052ADF
S21440134006D19A1C9642D8D32B445B7813BB2260B6
S214401350012300930022334621462846DFF850906A
S214401360C8470028BFD1334603AA21462846C0476F
S2144013700028C8DAB5E733462246294607F110006A
S214401380C047002809DA3846064B9847C4E76FF04E
S214401390AC00A8E76FF09100A5E70020A3E700BFE8
S2144013A0990B4000A1504000450C40007910400089
S2144013B0BD0B4000F8B5084E04460D4604B9F8BDCE
S2144013C0606827681D222946B04720461D222946C8
S2144013D0B0473C46F2E700BFC1F74000F8B5084EBC
S2144013E004460D4604B9F8BD606827681D222946A4
S2144013F0B04720461D222946B0473C46F2E700BF8C
S214401400C1F74000F8B514460F4606461D4624224E
S21440141000212046244B9847172F2ED13378303B57
S214401420042B8CBF40F26C734FF4FA6363611F4F1A
S2144014302A46314604F11400B8476369A3F26C7338
S21440144063612A46314604F11000B8472369013BE0
S21440145023612A46314604F10C00B8472A463146F5
S21440146004F10800B8472A463146201DB8472046B2
S2144014702A463146B8470120F8BD2B686269F35CBE
S2144014804FF47A71303B01FB032363612B680133D1
S2144014902B60F35C6269303B642101FB032363618C
S2144014A02B6801332B60C2E7558742002D0540006C
S2144014B0F0B500248FB00546234B029420460F46D5
S2144014C016460394049498473946019002AB05AA01
S2144014D028461E4FB84710B900200FB0F0BD029AFC
S2144014E0AB5C2B2B01D02D2B28D101322B2B184C4B
S2144014F00292294602AA03A80CBF01274FF0FF37E5
S214401500A04702AA294604A8A047049A039B3C2465
S21440151004FB03235F437C43019B0EA81C1B40F83F
S214401520344D0C4B984701460028D5D00A4B46B957
S21440153005A89847B0FA80F04009CEE75A2BCBD1A1
S214401540EAE705A9F5E700BF3DAC420005144000B8
S2144015502D0540000D7D4200850540002DE9F043F5
S21440156004468BB02A4B0F462022002102A89847FB
S214401570D4F87402D4F878628319002F37D1C4F8AF
S214401580FC32731CC4F8783210F80680A8F11703B2
S214401590012B32D8D4F87C321E4D01AA04F51E71B8
S2144015A0A84700282CDB019DA5F10D03132B2AD854
S2144015B0D4F87892D4F87412174B2A4649444D44CE
S2144015C002A89847C4F87852AD1B9FB9C4F8005398
S2144015D03A46414602A8114B9847B8B9002F0CBF6F
S2144015E06FF095006FF096000BB0BDE8F083C4F83E
S2144015F00433C6E7C4F80853EAE76FF09800F3E709
S2144016006FF08B00F0E76FF09400EDE70020EBE71B
S21440161055874200750A400059854200B114400083
S2144016207F2810B502D80870012010BD030E16D1D1
S214401630030C16D1030A0CBF0123022363F07F027A
S2144016400A7003F10052013AD20020FA02F4083A36
S21440165012F1080F01F8014FF7D1581C10BD0423B2
S214401660ECE70323EAE700002DE9F041164B0E466F
S21440167007469847154B054638469847002D04467A
S2144016804FF0020314BF01302046337006F10101CB
S2144016900F4B14BF6FF07F084FF000089847B8F123
S2144016A0000F00F10105BEBF00237355851C71195C
S2144016B03846084B984710B96019BDE8F0816FF07E
S2144016C07000BDE8F08100BF0D6340004952400005
S2144016D0211640005563400008B5302301F8013B11
S2144016E0014B9847013008BD211640002DE9F047D0
S2144016F086B000240F46984601941146002A4AD0E8
S214401700012A3FD1B0F5027F03D0A0F50373022B28
S21440171044D801AA244B9847064600283DD00DF1F0
S2144017201809062309F8103D0DF109011F4B0198D1
S214401730DFF880A09847451C01981D4B4044204444
S21440174004A92844984704A9804602463846D0470C
S2144017502A46494607EB0800D0474544DDF8048052
S214401760314642467819D04734B105EB0803FA189B
S2144017700521F9540023537004EB0800284406B0B2
S214401780BDE8F087022AC4D140F28524A0420CBFAF
S21440179002240024BDE70224BBE7F0E7B0F5807FD3
S2144017A014BF02240024B4E7ED0540002116400093
S2144017B0D9164000598542002DE9F0439BB081463A
S2144017C0DFF85C808DF81D201C460DF11E000423BA
S2144017D015468DF81C30C04700231A4602A92046FD
S2144017E00D4CA047023547190C4B0446694638460F
S2144017F098476946064602464846C047224602A9DA
S21440180009EB0600C047A0192A4607A94844C04726
S214401810B8191BB0BDE8F083ED164000D91640005D
S2144018205985420070B50D461646044628B12C220E
S2144018300021024B9847A661256070BD558742003F
S2144018402DE9F0410F4616461D460446D8B14FF4E2
S214401850517200210D4B98470C2384F868300023C2
S21440186084F8703084F87031C4F87472C4F87C62BE
S214401870C4F88052294604F546706FF00102044BC6
S214401880BDE8F0411847BDE8F08100BF55874200EB
S2144018902518400010B5044628B3406828B1144BBC
S2144018A021684822984700236360E06828B1104BBF
S2144018B021682B2298470023E360606988B1A36AB9
S2144018C040F2062293420FD040F28522934206D140
S2144018D0084B98470A2221686069054B98470023C1
S2144018E063610023E36110BD034B98472522F2E76E
S2144018F0C1F74000058740000143400010B5C36E65
S214401900012B044605D1D0F88012174B006E0522F5
S2144019109847A368012B05D10622D4F88012206888
S214401920114B984794F8F2322BB1606A18B1D4F84C
S21440193080120E4B9847A06A18B1D4F880120B4B11
S2144019409847E06A18B1D4F88012094B9847206B44
S21440195018B1D4F88012064B984704F54670054BEC
S214401960BDE81040184700BFC1F74000B51340001F
S214401970DD1340009518400008B5014607224C206C
S214401980074B984750B1002303604360C360036130
S21440199043618361C361C3728372836408BD00BFC1
S2144019A0B9F7400070B505460E46052240690B4C17
S2144019B0A047E86806223146A047A86910B13146DC
S2144019C0074B9847E86910B13146054B9847314672
S2144019D0284623460722BDE870401847C1F7400016
S2144019E0DD1340002DE9F843DFF828800E46174601
S2144019F0051F0024B44201DBBDE8F88355F8040F08
S214401A0010B928600134F5E7D0F848903946C04709
S214401A104846F5E7A51940002DE9F0411E468046A8
S214401A200D46069B1746CAB1C0B1BEB10A68013220
S214401A309A4216D80E4C3246A047044658B93268E9
S214401A40202A11DC29680B4B4144384698472B68BE
S214401A50326813442B602046BDE8F0816FF0AC043A
S214401A60F9E76FF08304F6E76FF08B04F3E700BF07
S214401A70FD0A4000598542002DE9F04F00F51E76DC
S214401A8085B0D0F87C328F4F0446894603AA31464B
S214401A90D0F87402B847002824DBD4F87832E360E4
S214401AA003AAD4F87C32D4F874023146B8470028EA
S214401AB018DBD4F87822039BD4F8740213442361CD
S214401AC0D4F87C32511C8B420CD3815CA0290CD1BB
S214401AD00232C4F87822314604F120027A4DA847F3
S214401AE0002804DA6FF08B05DCE000232362D4F88C
S214401AF07C32009304F5217204F529733146D4F8FC
S214401B007402724DA8470028ECDBD4F87C32009370
S214401B1004F1180201233146D4F87402DFF8C8A154
S214401B20D047051EC0F2BE8000212046DFF8BCB17B
S214401B30D847051EC0F2B680D4F87C32D4F874027A
S214401B4003AA3146B8470028C0F2B080002120469C
S214401B505F4DA847002865DAB9F1000F14BF6FF053
S214401B6095084FF0000801212046A847002804DACF
S214401B70B9F1000F18BF6FF0960801212046D847EC
S214401B80051EC0F28F80D4F87C32D4F8740202AAC4
S214401B903146B8470028A5DBD4F87C32009304F1E0
S214401BA01C0202233146D4F87402D047002899DB41
S214401BB0E36940F2062293423BD040F285229342AC
S214401BC077D101230093434DD4F87C32D4F8740285
S214401BD000223146A8470546002861D1D4F87C3219
S214401BE0D4F87402D4F8789203AA3146B84700284D
S214401BF0FFF678AFD4F87822039BA2EB0902134491
S214401C00013A511CD4F878120FD1D4F8742263608C
S214401C100A4422600B44C4F87832B8F1000F18BF6B
S214401C2045463FE04FF000089DE70139C4F878127A
S214401C30E6E7D4F87C32009304F53E72032331463F
S214401C40D4F87402244DA8470028FFF64BAFD4F8CA
S214401C50F802224B984700282EDB01271D4D00979F
S214401C60D4F87C32D4F8740202AA3146A847054616
S214401C70B0B90622D4F880120298194B98472060D3
S214401C80E8B1D4F87832D4F87412029A1944154B55
S214401C909847029AD4F87832A76062601344BAE74D
S214401CA0002DBADA284605B0BDE8F08F6FF08B08F5
S214401CB063E76FF09305F5E76FF0AB05F2E76FF07B
S214401CC07C05EFE7450C400045104000191A4000DF
S214401CD05D154000BD0B4000D51040008109400016
S214401CE0B9F740005985420069114000750C400024
S214401CF02DE9F04F97B08346069103920B9310B9A7
S214401D006FF0AC0A30E0D0F83443002C40F06686E2
S214401D100399A94B9847B0F1000A29DA0AF19703CC
S214401D20012B21D8CDF810A0DBF87832DBF8101064
S214401D308B4280F02984DBF82020012A40F3358648
S214401D40DBF87422CBF8B032C91AD418CBF8A842C4
S214401D500291CBF8AC12002CD2D001210D91D35C6D
S214401D60A32B07D06FF08B0A504617B0BDE8F08F14
S214401D700494D9E7029B914D0EAA0DA92046A84788
S214401D800028EFDB029B8E4D0EAA0DA92046A847E1
S214401D900028E7DB00230593A8460D9B029A9A424B
S214401DA006D8059B002B40F03982DDF814A037E2B8
S214401DB0029B0EAA0DA92046C0470028D2DB16AAD1
S214401DC0029B804D002742F81C7D0DA900932046BB
S214401DD00623A847B0F1000AC0F2FA850D9BE35CE3
S214401DE0012B0AD1029A784B0DA920469847B0F1AC
S214401DF0000AC0F2ED855FFA8AF7029B00930DAAAF
S214401E000EAB04212046714DA847B0F1000AC0F23F
S214401E10DF850F9B902B00F0278347D8812B00F05F
S214401E20A5820BD8452B00F0D380802B00F0F081A4
S214401E30002F059B18BF0123059340E0832B0D9D83
S214401E400E9E00F00D81852BF2D116AA0023254464
S214401E50149342F8043D14A933462846C047002848
S214401E6080DB159B5BB3324614A92846564B9847F1
S214401E700028FFF677AF149B8BF8EF029E421ED9E0
S214401E80DA1C9642FFF46EAFE95C022903F10102C8
S214401E907FF468AFAA5C012A03F102037FF462AFC5
S214401EA0EB5C8BF8F1328BF8F02208E0952B0D9D19
S214401EB000F06C8108D8912B0BD0922BB8D10D9B9B
S214401EC00E9A13440D9368E7972B00F06F82A82B69
S214401ED0F4E716AF002347F8043D0E9E14932544BE
S214401EE033463A4614A92846C0470028FFF63AAF7C
S214401EF033463A4614A92846C0470028FFF632AF74
S214401F00149BEA5CA02A2FD1013314933A463346F9
S214401F1014A92846294FB8470028FFF623AF149B3C
S214401F20EA5CA02A46D10133149315AA334614A975
S214401F302846B8470028FFF615AF149BEA5C862A69
S214401F4038D10133149315AA334614A92846B84706
S214401F500028FFF607AF149A159BCBF8C032A91895
S214401F60CBF8BC1213441493149B9E4211D9EA5CDE
S214401F70A12A0ED10133149315AA334614A9284634
S214401F800E4FB8470028FFF6EDAE149B159A134443
S214401F901493149B9E4292D9EA5CA22A8FD10133B5
S214401FA014932846334615AA14A9044DA84700287A
S214401FB085DAD7E6159AD5E7791A4000750A4000C3
S214401FC0450C4000D51040004F054000BD0A40007B
S214401FD00D9D0E9E16AA00232544139342F8083DF5
S214401FE013A933462846C0470028FFF6BBAE824FAB
S214401FF0DFF810A2139B9E427FF661AF334614AAC9
S21440200013A92846C0470028FFF6ACAE16AA002300
S21440201042F8043D13A9009607232846B8470028EF
S214402020FFF6A0AE139B5A1C139215F8039014AA01
S214402030334613A92846D0470028FFF693AEB9F199
S214402040860F139B149A08D11599742905D11D44FF
S214402050CBF8B822CBF8B45231E713441393C9E710
S21440206016AA00232544139342F8083D13A9334685
S2144020702846C0470028FFF675AE0123DFF8849156
S214402080DFF888A18BF8F232149B002B7FF717AF4E
S214402090139A571C1397AA5C013B822A1493334623
S2144020A039D115AA13A92846C8470028FFF65AAEC4
S2144020B0139BDBF88012FF1A149B1D223B4408201A
S2144020C01493D047074600283FF44CAE1598DBF8EB
S2144020D080121D220130D047786030B91D22DBF8CF
S2144020E08012464B384698473CE61399159A444B1F
S2144020F029449847159B7A680021D154DBF8243050
S2144021003B60CBF824701599149A139B521A14927C
S2144021100B441393B8E7812A13A915AA284629D158
S214402120C8470028FFF61EAE139BDBF88012FF1A46
S214402130149B1D223B4408201493D0470746002892
S2144021403FF410AE1598DBF880121D220130D047C0
S21440215078600028C2D01399159A294B294498478D
S214402160159B7A680021D154DBF828303B60CBF8C9
S2144021702870C8E7C8470028FFF6F4AD139A159BA9
S2144021801344149A1744FF1A1497C2E7012316AE55
S2144021908BF8ED32002346F8043D0E9F14932544F9
S2144021A03B46324614A92846C0470028FFF6DAAD1B
S2144021B0149B5A1C1492EB5C802B7FF480AE324604
S2144021C03B4614A928460F4EB04700287FF7CAADB5
S2144021D01599149814290BF2D92209D1054405F112
S2144021E0140355F8041B42F8041B9D42F9D166E6D9
S2144021F02844054B9847DAE6D5104000C1F7400022
S21440220059854200750A4000E94C4000B9F7400045
S21440221001238BF8D832002F00F085806FF09F0A9C
S214402220DBF81030CBF87832DBF87C3200930BF5D5
S2144022301E74012314AA2146DBF87402844DA84775
S2144022400028C0F2B683012300932146DBF87C3297
S214402250804CDBF8740215AAA047041E40F0978114
S214402260DBF87812159BDBF87422CBF814300A445E
S2144022700B44CBF85C20CBF87832DBF81820149B64
S2144022809A4240F099839BF8D8326BB9DBF800004D
S21440229050B1DBF8041039B10BF531726E4B9847EC
S2144022A00446002840F07581039B002B00F0CA824C
S2144022B0069B052B00F0C6820F2B00F0C38200233E
S2144022C0CBF814339BF8ED3233B10BF2D9210B988F
S2144022D0624B9847CBF81403DBF8143333B90BF151
S2144022E048010B985E4B9847CBF81403DBF8143341
S2144022F0002B00F093839BF8EF22002A00F08E8399
S214402300DA7A002A00F08A839B7A4BB19BF8F02257
S214402310002A00F083839BF8F1229A42C0F07E8325
S2144023206FF0ED0A20E50E9B0D9E1497002B264479
S21440233015977FF717AD009314AA15AB04213046C6
S214402340A8470028FFF60EAD1599149814290BF5EA
S214402350317209D1064406F1140356F8041B42F8BC
S214402360041B9E42F9D1AAE5304442E70D9D394E02
S21440237001238BF8F332254400231493009315AAC7
S2144023800E9B14A92846B04700287FF411AE149A35
S2144023901599AB5CABF8F43202297FF490AD154446
S2144023A06A7843EA0223ABF8F43288E501230E9EAE
S2144023B08BF8F63225440023139315AA334613A907
S2144023C02846C0470028FFF6CDAC264F139B9E42BA
S2144023D07FF675AD00960A2314AA13A92846B84777
S2144023E00028FFF6BFAC149B4A2B26D009D8482BB2
S2144023F019D01DD8472BE9D19BF8F73243F002039A
S2144024000EE04F2B1ED0972B06D04E2BDED19BF8DE
S214402410F73243F0200303E09BF8F73243F0010322
S2144024208BF8F732D2E79BF8F73243F00403F7E72E
S2144024309BF8F73243F00803F2E79BF8F73243F095
S2144024401003EDE79BF8F73243F04003E8E700BFA0
S21440245069114000BD0B4000E94C4000DDEF4000F4
S2144024603DF04000D510400001238BF8EE320D9B26
S21440247016AA04EB030A0E9B07930023109342F818
S214402480143D10A9079B5046C0470028FFF66AAC8B
S214402490109B079A9A427FF612AD5A1C10921AF871
S2144024A00350AF4E079B11AA10A95046B0470028CC
S2144024B07FF758ACA02D39D10BF12C09109DDBF8D5
S2144024C08032119F0893554400231293129B9F42DB
S2144024D027D93B4613AA12A92846C047002820DB26
S2144024E0129B9F4E5A1C1592EB5C0A9314AA3B46CD
S2144024F015A92846B047002813DD0A9B03F00F03B2
S2144025000993013B012B02D9099B042B38D10A9B26
S2144025109B0611D41D220899924B102098470646D8
S21440252090B9109B119A13441093B1E7A12D7FF4F4
S21440253019AC0BF13009C1E73B4614AA15A9284649
S214402540C0470028E6DAECE71D2208991498854B28
S2144025509847706028B91D220899834B30469847A3
S214402560DFE71599814B149A29449847149BB3602A
S2144025709DF824303373D9F800303360C9F80060D2
S214402580139A129B1344A0E74FF0000A4CE6BFF69E
S21440259074AEA246FFF7E8BB4822DBF81813714B2F
S2144025A020209847CBF81C0388B96FF07C050BF5C4
S2144025B046706F4B9847002D40F0CF80DBF8146391
S2144025C0002E40F039816FF0C50AFFF7CDBB0123DE
S2144025D0CBF83433B5F5027FDBF81C2308D07BD824
S2144025E0B5F5807F12D040F205239D4240F06B82C5
S2144025F0414603985F4B98470546002840F0A68022
S2144026005823CBF838331423CBF83C330223CBF88B
S214402610343340F206239C42CBF8404377D040F216
S21440262085239C4240F0528200230A22DBF818138E
S2144026304C4D15939820A8472B22CBF82C03DBF85B
S21440264018134FF40070A847DBF82C33CBF824035C
S214402650002BAAD00028A8D01846DBF83023DBF899
S2144026601813454B98470546002840F0D280B6F5EB
S214402670007F49D8414DDBF82C233B4615A94846F8
S214402680A8470546002840F0C48032460299DBF849
S2144026902403364B9847CBF820530323CBF83433E8
S2144026A040F206239C4273D040F285239C427ED162
S2144026B0DBF82C33DBF82403314D0BF548723146FA
S2144026C0A8470028054673DA10F16C0540F0AF8045
S2144026D06FF06B0AFFF748BB40F289239D4287D0D4
S2144026E040F28F239D4203D0B5F5037F40F0EB8147
S2144026F041460398234B9847054638BB4FF4CF7363
S214402700CBF8383320237FE76FF083054FE700236D
S214402710CBF828332522DBF81813124B582098475D
S214402720CBF82C0300283FF440AFDBF83023DBF82F
S2144027301813154B9847051E08DBDBF82C23134B64
S21440274039464846984705460028A6D015F16C0FEE
S214402750BED00BF54670064B9847AA46FFF704BB1B
S214402760750A4000B9F74000C1F74000598542005D
S21440277095184000E94C40008D864000BD12400050
S214402780198D4000454D4000B9424000F94B40008D
S214402790DBF82C3301930BF54A730093DBF83C339C
S2144027A0DBF81C230298904D3146A84789E7002560
S2144027B00423CBF8343340F206239C4233D040F215
S2144027C085239C427FF4F3AE2622DBF81813874B12
S2144027D04FF400709847044600283FF4E6AEDBF816
S2144027E03833DBF83C23DBF81C13814EB047A84255
S2144027F016D12A462146DBF820037E4B9847051E15
S21440280018BF6FF09A052622DBF818137A4B20463D
S214402810984715F16C0F3FF45BAFC8E60025D3E749
S2144028206FF09A05EFE7DBF82833012B02D06FF004
S2144028309A05BCE60025BAE6F4696CB9B569002D80
S2144028404BD10024049B002B40F0BE80BAF1000F11
S21440285008BFA246FFF788BA684FDFF8A481237BFB
S214402860022B16D0042B2BD0012B15D1DBF8285089
S21440287095B1D5F804904846B847A36800930246F9
S214402880636849460120C04700287FF49CAE2D6807
S214402890EEE7DBF824501DB92468002CDFD1CDE7E5
S2144028A0D5F804904846B847A36800930246636844
S2144028B049460220C04700287FF485AE2D68EAE7E7
S2144028C0A268DBF810339342E6DB6168DBF80C0362
S2144028D0484B98470028DFD175E600263446B04678
S2144028E00596B14603962B7B022B1FD0042B4DD06A
S2144028F0012B35D1DBF828300293002B30D0029BD9
S2144029003F4FD3F804803D4B40469847AB68009312
S2144029106B68024641460220B847029B1B680293FA
S2144029208046002BEBD10123059319E0DBF82430D9
S2144029300293ABB1029B324FD3F804902F4B4846DC
S2144029409847AB6800936B68024649460220B847F2
S214402950029B1B6802938146002BEBD10123039315
S2144029602D68002DBFD1039B1BB1B9F1000F3FF47A
S2144029702AAE059B1BB1B8F1000F3FF424AE002CE5
S2144029803FF460AF002E7FF45CAF1CE6DBF80C0330
S21440299048B1AA68DBF81033934204DB6968154BEC
S2144029A0984700B901260124DAE76FF08C0AFFF752
S2144029B0DBB98246FFF7D8B96FF0970AFFF7D4B96C
S2144029C06FF0BB0AFFF7D0B9DDF810A0FFF7CCB91F
S2144029D01AF1A00F3FF424ACFFF7C6B9039B8BB99E
S2144029E04FF0000AFFF7C0B915494000B9F740005C
S2144029F0B9174000F9844200C1F74000C190420038
S214402A00AD094000069B052BEAD0069B0F2B4FF0E6
S214402A10000A3FF4A9A9CDF810A05446DBF81433B9
S214402A20002BCDD0039A22F00202012A7FF40AAF8F
S214402A30DBF80C20DBF87402DBF81010D3F80C90AF
S214402A401F685C68DBF85C3002938318A1EB0208D1
S214402A50DBF81460DBF8185003933FF451A9B8F143
S214402A60000F3FF44DA9B9F1000F3FF449A9002FDC
S214402A703FF446A9029B002B3FF442A9002E3FF4A8
S214402A803FA9DBF83433042B3FF6D4AE01A252F80C
S214402A9023F000BF99254000D5254000132640006E
S214402AA0A1264000A92A400040F206239C423FF45B
S214402AB0BAAE40F285239C423FF4B0AE0BF546706A
S214402AC0044B98477AE56FF0E70570E56FF093059D
S214402AD06DE500BF9518400070B51C4D0446A847EC
S214402AE0051E0CDB606E002815DD0522D4F880122A
S214402AF0174B01309847064618B96FF07C052846B4
S214402B0070BD626E134B216E9847636E0022F2547E
S214402B1001232666E366E26940F285239A42EED1B7
S214402B202368002BEBD060680028E8D00622D4F853
S214402B308012074B984706460028DED0054B94E89F
S214402B400600984701232660A360D8E7F11C4000A2
S214402B50B9F74000598542002DE9F84FDFF87490E8
S214402B60064610461D4617468846C8470446284629
S214402B70C847DFF8649082463846C84783462846AA
S214402B80C8475C44044404EB0A03D8F80020181DE8
S214402B9006339A4215D331460C4B984731180446B3
S214402BA038460B4FB84700280DDB044431192846F9
S214402BB0B847002807DB2044C8F800000020BDE8DE
S214402BC0F88F6FF08300BDE8F88F00BFD91640003D
S214402BD0691640000D634000495240002DE9F74316
S214402BE0164602AA00240D46984642F8044D0B4667
S214402BF0DFF84890009469460746C847A04204DA82
S214402C006FF0AA0003B0BDE8F083009B019AEB1A70
S214402C109342F5D330462B466A463946064EB04771
S214402C200028EDDB2B466A4639464046B04700282A
S214402C30E6DB2046E6E700BF79104000450C400042
S214402C402DE9F04F89B00C4602921E4605460028F4
S214402C5000F0BB80002900F0B880002A00F0B58064
S214402C60002B00F0B28007AA5F4FB847002805DA6D
S214402C706FF08B0B584609B0BDE8F08F334606AA76
S214402C8021462846594FB8470028F1DB2268AB5CFE
S214402C900132042B226002D0063B012BE8D8334693
S214402CA007AA21462846DFF85891C8470028DFDBA8
S214402CB0079B422B00F38C80262200214320DFF81E
S214402CC04481C047074650B1262200218620C0478F
S214402CD0804638B9014626223846454B98476FF01D
S214402CE07C0BC7E7DDF81CA02168DFF81CB1524614
S214402CF029443846D8472368079ACDF80CB0134481
S214402D005A1C9642236066D9EB5CA02B63D12260A6
S214402D10334607AA21462846C847002843DD009682
S214402D200E2305AA21462846DFF8E090C84783468A
S214402D3000283AD105982F4B9847B0F100094CDA55
S214402D406FF0AB0B31E0AA5C2360A12A37D1334643
S214402D5007AA21462846DFF8A8B0D847002822DD33
S214402D600023009307AA334621462846224EB04702
S214402D708346D0B9079E852E24DC2168039B3246C5
S214402D802944404698472368079A1344236042469E
S214402D90029B0093CDF80490334651463846174C74
S214402DA0A047834601E06FF08B0B38462622002171
S214402DB00F4CA047262200214046A0475AE76FF016
S214402DC0AA0BF2E76FF0830BEFE76FF0AC0B51E71F
S214402DD06FF0830B4EE74FF000092268531C9E426B
S214402DE0B1D800221646D3E7450C400045104000B7
S214402DF0C1F7400081094000BD0B40000D4C40002B
S214402E00750A4000B9F7400059854200D510400089
S214402E1010B5044628B390F82430DB0702D5406846
S214402E20104B984794F82430980702D5A0680D4B6D
S214402E30984794F82430190702D5E068094B98471C
S214402E4094F82430DA0602D52069064B984794F861
S214402E5024309B0602D56069024B9847002384F8CD
S214402E60243010BDA15040002DE9F04114461D46C7
S214402E70136AD269934207460E4614D2A0695A1C7A
S214402E8000EB031022620A4B0860984768B994F832
S214402E9024301D4384F8245039463068054B1022B0
S214402EA0BDE8F04118476FF0A900BDE8F08100BFCB
S214402EB06F504000317D40002DE9F0410746002824
S214402EC04DD000294BD00D682B68286098421CBF17
S214402ED0002385F8243095F8243022EA030633434D
S214402EE016F0010485F8243006D01E4CC068012335
S214402EF02A46291DA0470446B00708D502232A467D
S214402F0005F108013869DFF85C80C04704443107A2
S214402F1008D508232A4605F10C01B869DFF8448035
S214402F20C0470444F20607D510232A46E918F86934
S214402F30DFF83080C0470444B30607D520232A462E
S214402F4005F11401386A074EB047044424B12846B8
S214402F50054B98476FF06E042046BDE8F0816FF051
S214402F60AC04F9E7692E4000112E40000029F0B568
S214402F7004DC002A04DA6FF0AC00F0BD422920DC05
S214402F80436801334FF0000315D00F4E4360036192
S214402F904FF0340E34460EFB03F5AF5917B96FF0B9
S214402FA0AB00F0BD002A08DD77197F68BA4206D12B
S214402FB02C44436004610020F0BDB942F8DD013383
S214402FC0E9E76FF0A900F0BDE0CB42002DE9F04FF5
S214402FD00E468DB01D468046002800F0BA81002976
S214402FE000F0B781002B00F0B48100231A4601930D
S214402FF0009308A904A8A44CA0470246002852D132
S21440300031464046DFF8A092C8470246002843D1E2
S21440301006F11004214608F11000C8470246002871
S2144030203AD106F12007394608F12000C847024643
S214403030002831D104A93846DFF87092C8470246C6
S21440304050BB169ADFF85C82294604A8C047024661
S21440305010BB3A4621463846DFF844A2D0470246DF
S214403060D0B9169A29463846C0470246A0B93A46CD
S21440307039463846DFF820B2D847024660B9834B17
S2144030802946384698470130814B10D108AA04A9F2
S214403090304698470246A0B104A87E4C0392A0470B
S2144030A008A8A047039A10460DB0BDE8F08F3A46F0
S2144030B02946384603939847039B02460028E5D0A6
S2144030C0EAE70A9B002B40F0D58004AA104631461A
S2144030D0D84702460028DFD1294604A86B4B9847BC
S2144030E0013040F0E58008AA114604A8D0470246C1
S2144030F00028D1D1169A294608A8C047024600287B
S214403100CAD108A904AA0846634FB8470246002811
S214403110C2D1294604A8DFF874B1D847013040F040
S214403120D18004AA104608A9B84702460028B3D161
S214403130294604A8D847013040F0CE802246214692
S2144031402046B84702460028A6D129462046D847FA
S214403150013040F0CB8021462046C8470246002832
S2144031609AD1169A29462046C0470246002893D14F
S21440317008A92046C847024600288DD1169A2946F7
S21440318008A8C0470246002886D1089B002B00F3BB
S214403190B78008A90846414B9847024600287FF466
S2144031A07BAF224631462046D047024600287FF471
S2144031B073AF169A29462046C047024600287FF439
S2144031C06BAF314604A8C847024600287FF464AF78
S2144031D0169A29463046C047024600287FF45CAF20
S2144031E0324621463046DFF8A880C04702460028CF
S2144031F07FF452AFB368002B40F0908032462146B1
S2144032003046C047024600287FF446AFB368002BDE
S21440321040F08D80224631462046C0470246002870
S2144032207FF43AAFB369002B40F08A80224604A967
S21440323020461B4B9847024600287FF42DAF169A2F
S214403240184B294620469847024600287FF424AF6C
S214403250224608A92046C047024600287FF41CAFF5
S214403260B269002A3FF418AF224629462046B8479E
S214403270024611E708AA10462946D84702460028C3
S2144032807FF40AAF21E700BFD15040007D57400091
S214403290915D4000A1504000FD594000115840004B
S2144032A0216E4000ED5B4000D1524000096D400069
S2144032B004AA10462946284B9847024600283FF461
S2144032C012AFE9E604AA10462946234B9847024621
S2144032D000283FF426AFDFE604AA104629461E4BD8
S2144032E09847024600283FF429AFD5E622462946AD
S2144032F02046194B9847024600283FF42CAFCBE6B1
S2144033000B9B1B68DB077FF544AF08AA104629468F
S214403310B847024600287FF4BFAE3AE73246294611
S2144033203046B847024600287FF4B6AE66E73246D7
S21440333029463046B847024600287FF4ADAE69E7D6
S214403340224629462046B847024600287FF4A4AEC7
S2144033506CE76FF0A902A6E6915D40002DE9F04FBC
S2144033608DB08B4614461E46169D179F80460028F5
S21440337000F09382002900F09082002A00F08D82AF
S214403380002D00F08A82914204BF03469B464FF0D0
S214403390000308BF8846019300931A4608A904A86C
S2144033A0DFF86C91C8470346002831D10BF1100A6C
S2144033B0514B04AA5146284698470346002852D106
S2144033C059464046DFF84C91C84750BB0BF12001A8
S2144033D008464A4B02919847029910B308F12000DC
S2144033E0C847F0B908F11003184651460293C8473B
S2144033F0029B88B904A8DFF81091C84708A8C847B8
S2144034002B4621460097324640463D4CA047034651
S21440341018460DB0BDE8F08F04A91846C8470028E6
S214403420E8D021464046DFF8F090C8470346D0B97A
S21440343004F11006314608F11000C847034690B91B
S21440344004F12003194608F120000293C8470346BA
S21440345048B9DBF8203073B92A4B029804A998473C
S214403460034600285CD004A8274C0293A04708A82F
S214403470A047029BCCE70BF120030393184604A910
S214403480204B984703460028EDD13A46294604A8E3
S214403490DFF87890C84703460028E4D12246214604
S2144034A004A8DFF87880C04703460028DBD13A46B8
S2144034B029462046C84703460028D4D104AA1146C8
S2144034C00398C04703460028CDD13A46294604A86B
S2144034D0C84703460028C6D13246314604A8C047EE
S2144034E003460028BFD13A4629463046C8470346D9
S2144034F00028B8D1B0E700BF915D400031A8400039
S214403500CD2F4000096D4000A1504000ED5B4000CB
S214403510D15040007D574000D1524000216E4000BF
S2144035203A46294604A8DFF87883C0470346002871
S21440353099D108AA04A95846DFF86893C8470346B5
S214403540002890D13A46294608A8C0470346002896
S21440355089D104AA11460298C8470346002882D15A
S2144035603A46294604A8C047034600287FF47BAF66
S21440357004AA11465046C847034600287FF473AF56
S2144035803A46294604A8C047034600287FF46BAF56
S214403590324604A93046DFF81083C0470346002869
S2144035A07FF461AFA369DFF80893002B40F00D81EC
S2144035B004AA11461046C847034600287FF453AF76
S2144035C0294604A8DFF8ECA2D047013040F0068137
S2144035D004AA31461046C847034600287FF443AF46
S2144035E0294604A8D047013040F00181224608A968
S2144035F02046C047034600287FF435AFA368002B1B
S21440360040F0FE8008AA11461046C84703460028E8
S2144036107FF429AF294608A8DFF898A2D0470130A2
S21440362040F0F78008AA21461046C84703460028BF
S2144036307FF419AF294608A8D047013040F0F28001
S214403640DBF82030DFF85CA28BB1029A0BF1200148
S2144036501046D047034600287FF405AF904B0298AB
S2144036603A4629469847034600287FF4FCAE029A1D
S21440367021461046D047034600287FF4F4AE884BD8
S21440368002983A4629469847034600287FF4EBAE10
S21440369004AA21461046D047034600287FF4E3AEEE
S2144036A07F4B3A46294604A89847034600287FF4AD
S2144036B0DAAE21462046DFF800B2D8470346002857
S2144036C07FF4D1AE764B3A46294620469847034685
S2144036D000287FF4C8AE08AA21461046D0470346C5
S2144036E000287FF4C0AE6E4B3A46294608A8984755
S2144036F0034600287FF4B7AE04AA21461046D047BA
S214403700034600287FF4AFAE654B3A46294604A8E8
S2144037109847034600287FF4A6AE21463046D84751
S214403720034600287FF49FAE3A4629462046DFF8F7
S21440373070A1D047034600287FF495AE224608A9DC
S2144037402046C047034600287FF48DAEA368002B72
S21440375071D108AA21461046C047034600287FF488
S21440376082AE0A9B002B6FD108AA21461046C0475E
S214403770034600287FF477AE0A9B002B6DD108AA3B
S214403780484B314610469847034600287FF46BAEB8
S2144037903A46294608A8D047034600287FF463AE39
S2144037A0414B324604A908A89847034600287FF4B0
S2144037B05AAEA369002B59D12369002B5FDC3B4BE3
S2144037C031463046984703464DE63246294630460F
S2144037D0C847034600287FF446AEE9E604AA2946D1
S2144037E01046C047034600283FF4F2AE3BE604AA24
S2144037F029461046C047034600283FF4F7AE32E657
S214403800224629462046C847034600287FF42BAE6A
S214403810F8E608AA29461046C047034600283FF463
S21440382001AF20E608AA29461046C04703460028AE
S2144038303FF406AF17E6224629462046C8470346C9
S21440384000287FF410AE84E708AA29461046C847E9
S214403850034600287FF407AE86E708AA29461046A6
S214403860C847034600287FF4FEAD88E7104B324633
S214403870294630469847034600289DD0F3E5E3693D
S2144038801B68DB079BD50A4B32462946304698478D
S214403890034600287FF4E7AD91E76FF0A903B7E54C
S2144038A0ED5B4000216E4000915D400011584000A5
S2144038B0FD5940007D574000096D40002DE9F04F0E
S2144038C00E468BB092460546002878D0002976D022
S2144038D000F12007002138463C4B9847014690B9F6
S2144038E028463B4EB047044648B9014605F110000D
S2144038F0B047044618B901213846B047044620462A
S2144039000BB0BDE8F08F0023019300931A4606A93A
S21440391002A8304CA047002854D15246314638467B
S214403920DFF8C080C0470446002842D102AA31468C
S2144039303846294B9847044600283AD106A902A89B
S214403940264B98470446002833D106AA31461046EF
S214403950DFF894B0D847044658BB02AA06A91046DA
S214403960DFF88890C847044618BB02AA314610467E
S214403970D8470446E8B92A4606A92846C847044612
S214403980B8B9524631462846C047044688B910352D
S2144039902A4602A92846C847044650B952463146E8
S2144039A02846C047044620B901213846084B984768
S2144039B0044602A80A4DA84706A8A8479FE76FF006
S2144039C0A9049CE76FF07C0499E700BFAD57400020
S2144039D0E1574000D150400045694000096D400025
S2144039E0A1504000ED5B4000B1634000216E4000B6
S2144039F0F7B5104B01460646252230209847044628
S214403A00A8B10025302200210B4B0C4F984701955A
S214403A1000952B4604F1200204F110012046B847D9
S214403A2028B1204625223146054B98472C4620464D
S214403A3003B0F0BDB9F7400055874200D150400072
S214403A40C1F7400070B50E46044670B1074DA84712
S214403A5004F11000A84704F12000A847314620464C
S214403A602522034BBDE87040184770BDA15040006A
S214403A70C1F740002DE9F04F97B00F4615469A46DD
S214403A80DDF880B00790002800F09781002900F00C
S214403A909481002A00F09181BBF1000F00F08D81E7
S214403AA00DF13808202200219F4B4046984709A92F
S214403AB058469E4B9847044670B90AA89C4B984770
S214403AC0044648B959460AA89A4B9847059038B1D3
S214403AD00AA8994B9847059C204617B0BDE8F08F3A
S214403AE0059CDFF870922298C847064648F824009E
S214403AF0A0B90AA8904B98476FF07C0430462299AC
S214403B008E4DA8470EAE059B229956F82300A8472F
S214403B10059B0133082B0593F5D1DDE70134082CCE
S214403B20E1D12298C8470646002840F049816FF008
S214403B307C0413E031463846DFF80C82C047044622
S214403B4060B906F1100107F11000C047044628B9D5
S214403B5006F1200107F12000C04704460AA8764B2C
S214403B609847002CCAD10E9F099B009352465B464D
S214403B7039463046DFF8D481C04704460028BDD1D8
S214403B80099B009352465B4639463846C047044632
S214403B900028B3D1099B009352465B4639463846C7
S214403BA0C04704460028A9D1DFF8A4910EAF0DF116
S214403BB05408099B38680193CDF800B0534657F82F
S214403BC0042F3146C8470446002897D1B845F0D15F
S214403BD05B4B079898474FF00108431E04940394A4
S214403BE00294A1460693444601E002230493B8F1AA
S214403BF001080DD1069B5A1C00F00781194607980C
S214403C00504B9847069B013B814606934FF01C0855
S214403C10049AC9F3C0634FEA4909002A35D1002BFC
S214403C20E4D0039A01320392C2F104029340029A0E
S214403C301A43039B0292042BD7D1012C37D1029B07
S214403C40414F16AA02EB8303294653F8403C0293A1
S214403C501846B847044600287FF450AF029B05F14B
S214403C60100103F11000B847044600287FF446AF21
S214403C70029B05F1200103F12000B8470446002CC2
S214403C807FF43CAF039402940FE0049A012AC8D113
S214403C90002BC6D1099B009352465B4629462846D0
S214403CA02A4FB847002840F0868001239EE7039FAE
S214403CB0099B0093254C5B46524629462846A0471A
S214403CC0044600287FF41AAF013FF1D1029BCDF89D
S214403CD000B016AA02EB8301099B01932A4653467D
S214403CE051F8401C1A4C2846A047C7E7DFF85890C2
S214403CF04746A046B8F1000F09D0029B5B000293EE
S214403D00DB0629D4039B0137BB42F3D184E0099BF1
S214403D1000930E4C5B46524629462846A04704462A
S214403D200028EAD0EAE600BF55874200036040001C
S214403D306F5040005D6F4000A1504000453A400043
S214403D4031A8400037A84000D1524000CD2F400057
S214403D505D334000F1394000B8F1010F1BD12946D0
S214403D603046C847044600287FF4C8AE05F1100127
S214403D7006F11000C847044600287FF4BFAE05F1A0
S214403D80200106F12000C847044600287FF4B6AE5E
S214403D904FF00008B6E7099B0193CDF800B05346B4
S214403DA02A46314628461F4CA047EDE7099A1E4B47
S214403DB05946284698470446A0E66FF0A9048BE685
S214403DC001210AA8194B984700283FF4B3AE334662
S214403DD05A460AA93846DFF85880C04704460028A5
S214403DE07FF4BCAE06F110035A460AA907F110004C
S214403DF0C047044600287FF4B1AE06F120035A4679
S214403E000AA907F12000C047A7E6049B022B03D16E
S214403E10039B002B7FF46AAF219B002BC6D11C4628
S214403E206CE600BF5D334000BD384000AD574000F3
S214403E30756E40002DE9F047A4B0424B06468846D2
S214403E4006A89146002128220590984710AB0C936F
S214403E5005230D936EB3B9F1000F1ED1032306F16F
S214403E6018073360B8F1000F19D0CDF8148000253C
S214403E70354C019500952B4607F1200207F11001BD
S214403E803846A047044600283BD170692F4B9847D8
S214403E90054688B96FF07C0433E04F46E2E73B22A4
S214403EA005A930692A4B984704460028DFD0454686
S214403EB027E06FF0AC0440E0059BDFF8ACA001467D
S214403EC01869D0470446E0B9059B05F110015869CA
S214403ED0D0470446A8B9012105F120001D4B98475C
S214403EE0044670B972690292059B1B4C01220192EE
S214403EF05A6800929B683A46294606F14800A04711
S214403F0004467169154B2846984744B13846144DC7
S214403F10A84707F11000A84707F12000A847B8F1C6
S214403F20000F02D105980F4B98473368032B04D1F6
S214403F30B9F1000F01D102233360204624B0BDE81A
S214403F40F08700BF55874200D1504000F13940000D
S214403F50B92E4000E1574000753A4000453A4000CF
S214403F60A1504000112E4000D1524000094910B5E2
S214403F700022342404FB02F35B5833B9411C06DBB1
S214403F808242D4BF0020012010BD0132F2E718461D
S214403F9010BD00BFE0CB42002DE9F04F99B005467A
S214403FA08B460EA8904600212822DFF8D4A0059024
S214403FB09946D04706AB149302231593002D42D062
S214403FC0BBF1000F3FD0B8F1000F3CD0B9F1000F65
S214403FD039D0032205A92869234B9847044648BB95
S214403FE06869224B059F984705F14804064638B352
S214403FF06B690293012301937B6800930246BB687A
S214404000204659461A4CA0470446B8B97868DFF8A7
S21440401074B0D847D9F800309842074616D96FF0A2
S2144040208304C9F800706969124B30469847059872
S214404030114B9847204619B0BDE8F08F0027F0E7AF
S2144040406FF07C04F3E76FF0AC04F3E702462146DA
S2144040504046D0473046D847391A41443046074B49
S21440406098470446DDE700BFB92E4000F1394000CE
S214404070753A4000453A4000112E400055634000D6
S2144040805587420049524000F8B50D4616461F4631
S214404090044640B339B332B32BB300680238012824
S2144040A024D86068134B984700B3A068002803DB09
S2144040B0012804DD02280CD06FF0BF000AE001237F
S2144040C0A36029463B46324620460B4DA84700286B
S2144040D002DB0020002304E010F16C0FFAD1A36845
S2144040E00133A360F8BD6FF0AC00F8BD6FF0A900D7
S2144040F0F8BD00BF6D3F4000993F40002DE9F041BC
S2144041000D4616461F460446F0B1E9B1E2B1DBB1B2
S2144041100368023B012B1BD84068DFF84080C0474D
S214404120B0B16868C04798B122692B6952685B682D
S2144041309A420DD12046084C3B46324605F11801BE
S214404140A446BDE8F04160476FF0AC00BDE8F081A2
S2144041506FF0A900BDE8F081894040006D3F400007
S2144041602DE9F047A0B082460C4602A815461E46EA
S21440417028223F4B0190002198470CAB089305231B
S2144041800993002D6AD0BAF1000F67D00023AB60C8
S214404190214632462846374B98470446002853D196
S2144041A005F148063046344B9847044600285AD115
S2144041B03B2201A92869314B98470446002852D132
S2144041C02B69D3F80080019B0146D3F80C902C4B0A
S2144041D055224A2098470746002842D008F108084A
S2144041E0014642465046274B98470446A0B94246A9
S2144041F039463046244B9847044668B9AB6C3BB3C7
S21440420049463046214B9847013005D0324649460C
S21440421030461F4B9847044607F142023B46002172
S214404220934218D15522002138461A4B9847D4B9A4
S21440423022460199184B28469847044698B90223C7
S2144042402B600198154B9847204620B0BDE8F08774
S2144042506FF07804E0E719700133E1E76FF0AC04E3
S214404260F2E76FF07C0430460D4B9847E9E700BF15
S214404270558742006D2F40006F504000B92E4000D9
S214404280B9F740001D834000B15640007D574000BE
S214404290B1634000C1F74000353E4000112E40005B
S2144042A0F551400010B4034C0023A4465DF8044B7F
S2144042B0604700BF6141400073B50D460446A8B153
S2144042C0582200210C4B0D4E98470023A36004F162
S2144042D028020193009304F1180104F1380304F115
S2144042E04800B04728B9656102B070BD6FF0AC00B9
S2144042F0FAE76FF07C00F7E755874200D150400060
S21440430070B5044670B1084D1830A84704F128002F
S214404310A84704F13800A84704F14800034BBDE81D
S2144043207040184770BD00BFA1504000F551400096
S2144043302DE9F04FADB0824688460CA891461D4602
S2144043402822604B369E379C03900021984708AB46
S214404350129301231393BAF1000F00F0B080002EA1
S21440436000F0AD80002C00F0AA80002D00F0A78061
S214404370B9F1000F00F0A3802B68023B012B00F23E
S2144043809E806868504B9847012840F0988004A863
S2144043904E4B98478346002840F08A80082203A95F
S2144043A028694B4B9847834600287BD1039BD868A7
S2144043B0484B9847B0EBC80F3CBF00F107084FEAA0
S2144043C0D80807464246514604A8434B984783467A
S2144043D0002867D1B7EBC80F06D207F00701C1F136
S2144043E0080104A83D4A90476FF0010269693C4FB6
S2144043F016A8B847002855D14123DFF80481019319
S214404400019B013B019357D02969364F4B68096899
S21440441016AA4846B8478346002840D1039B3246F2
S214404420D9681CA8C0478346002838D133685BB992
S214404430DFF8C4A01CA8D04720A8D04724A8D0475F
S21440444028A8294B9847DBE7039B28AAD968274B1F
S21440445010469847834610BB039ADFF8A8A0D26858
S2144044602346314605F14800D0478346B8B9224630
S214404470214604A81E4B9847834680B9039B224694
S214404480D9682046C047834648B9039A2346D2682F
S21440449028A92046D04722688346002AB0D016A8CE
S2144044A0144A904704A8144A90470398134A9047E2
S2144044B058462DB0BDE8F08F6FF0C60BEFE76FF0B3
S2144044C0A90BF5E7558742006D3F40006F5040000E
S2144044D0B92E400025524000B15640009D53400042
S2144044E0B942400061414000F551400045694000F6
S2144044F0FD59400001434000A1504000112E4000AD
S214404500B1634000756E40002DE9F04F8BB08A468F
S21440451017469846159C8146002854D0002A52D00B
S214404520002B50D0002C4ED0149B002B4BD0A368B1
S214404530032B02AD03D0042B24D0002B3AD1032307
S214404540A360DFF894B01022002106AE2846D84774
S214404550102200213046D8470023DFF880B0019370
S21440456000931A4631462846D8478346C0B98DE858
S21440457060002346149A154E51464846B047B0F15F
S214404580000B0DDB0423A3602A4606AB4146104EC3
S2144045903846B0470F4E83462846B04706A8B04731
S2144045A01BF16C0F08D1A3680133A36058460BB0CB
S2144045B0BDE8F08F6FF0BF0B2846064DA84706A80B
S2144045C0A8470023F1E76FF0A90BEFE7314340001F
S2144045D0592B4000A150400055874200D150400022
S2144045E02DE9F04FB9B0824689461AA816461D46B0
S2144045F02822544B439F04900021984724AB209395
S21440460005232193BAF1000F05D16FF0A904204687
S21440461039B0BDE8F08FB9F1000FF6D0002EF4D0D7
S214404620429B002BF1D0002FEFD000241C6078680E
S214404630454B984701288046E7D13B68032B07D077
S21440464016A8424B9847044658B16FF07C04DEE704
S2144046502246214638463E4B984704460028EFD02F
S214404660D5E73B2204A938693A4B9847002840F0E2
S2144046703281DAF80030F3B94FF000084546464636
S2144046806FF0780430467969334EB04728467969EA
S214404690324DB04716A8A847B8F1000F07D006A875
S2144046A0A8470AA8A8470EA8A84712A8A84704984B
S2144046B02B4B9847ABE7D9F80030002BDCD0049B57
S2144046C0284CD9685046A0470130D5D1049B48466F
S2144046D0D968A0470130CFD1049BD868224B984771
S2144046E0B0EBC50F834602D20BF10705ED081F4C11
S2144046F02A46314616A8A0470446002840F0F080D7
S214404700BBEBC50F06D20BF00701C1F1080116A896
S214404710174B984700250195009512AB0EAA0AA99B
S21440472006A8144CA047002840F0DD80124C78695B
S214404730A04706467869A047054600B1F6B96FF02F
S2144047407C049FE7558742006D3F40006F50400015
S214404750353E4000B92E4000453A4000A15040004A
S214404760112E40007D57400025524000B156400073
S2144047709D534000D1504000F1394000049B0AAAA6
S214404780D9685A4B48469847044600287FF47AAF83
S214404790049ADFF87491D2680EAB0AA916A8C847E7
S2144047A0044600287FF46EAF049A12ABD2680AA97A
S2144047B05046C847044600287FF464AF049BDFF8A1
S2144047C04C9118693146C847044600287FF45AAFD2
S2144047D0049B06F110015869C847044600287FF438
S2144047E051AF012106F12000414B9847044600286E
S2144047F07FF448AF294607F11800C847044600280A
S2144048007FF440AF05F1100107F12800C847044681
S21440481000287FF437AF05F1200107F13800C8477C
S214404820044600287FF42EAF7A69049B01900292DA
S2144048305A6800929B68DFF8D890324631460EA8F8
S214404840C847044600287FF41DAF7A69049B019050
S21440485002925A6800929B682A46294612A8C84780
S214404860044600287FF40EAF049B05A95868214BE8
S2144048709847044600287FF405AF049B059A0192AA
S2144048805A6800921C4C9B68324631462846A047E0
S214404890044600287FF4F6AE049B059A5968174BE9
S2144048A030469847044600287FF4ECAE049B06AAA0
S2144048B0D968134B30469847044600287FF4E2AE4A
S2144048C0514606A80F4B984700287FF4DBAE429A25
S2144048D001231360D6E6A046044645464646D1E642
S2144048E04FF00008F9E72E4629E700BF456940002B
S2144048F0E1574000036040005D334000BD38400053
S214404900B16340007D574000756E4000D152400074
S214404910753A40002DE9F04F8BB08B4617469A46C5
S214404920149E159D804600284CD0002A4AD0002E62
S21440493048D0002D46D0AB68072B40D8DFE803F0C0
S214404940043F3F3F3F041A2605230024AB60214620
S21440495034601022DFF8809002A8C8472146102213
S21440496006A8C847194C06AB02AA59464046A04777
S214404970041E1ADB0623AB60154C01950096534681
S2144049803A4606A902A8A047041E0EDB0723114C90
S214404990AB6002A8A04706A8A047002402A80D4E78
S2144049A0B04706A8B047002304E014F16C0FF5D1D9
S2144049B0AB680133AB6020460BB0BDE8F08F6FF0BC
S2144049C0BF04EBE76FF0A904F5E700BFDD2B40001E
S2144049D0E1454000A1504000558742002DE9F04F88
S2144049E0894685B017460446002877D061B9002A24
S2144049F074D003691B685B00013313606FF0C90A0B
S214404A00504605B0BDE8F08F002A67D00368032BF8
S214404A1061D04068344B984700285FD023691D68B2
S214404A203B684FEA450808F10108434504D2C7F8F9
S214404A3000806FF0830AE3E704F1180B2B4E5846CC
S214404A40B047283482462046B04755450190F0D3BB
S214404A508542EED3042389F80030552200214FF4D6
S214404A608070234B9847064600283AD0214B029345
S214404A704FF4807200219847A5EB0A01584631440E
S214404A80DFF878B0D847029BCDF808B08246E0B948
S214404A902A46314609F10100DFF864B00393D8474F
S214404AA04FF480720021039B30469847019BE91AD9
S214404AB031442046029B9847824630B9681C2A46B5
S214404AC031464844D847C7F8008055220021304632
S214404AD0094B984794E76FF0F50A91E76FF0A90AFB
S214404AE08EE76FF07C0A8BE76D3F400049524000EE
S214404AF0B9F7400055874200C1F740005563400073
S214404B00598542002DE9F04F85B0154603919B46E6
S214404B10064600285CD0002A5AD00B46DB075AD5FA
S214404B20002302F1480A02F1180902F1380702F19F
S214404B302808936049460193009342463B465046B8
S214404B40284CA0470346002848D13278042A05D08E
S214404B50022A03D0032A18BF6FF08B03023A012AB9
S214404B6033D91BBB039B5C1E64085A461E4B21462A
S214404B70284698474FF0010BC5F800B00346A8B941
S214404B80224606EB0B014846184DA847034668B92F
S214404B9004EB0B01224631444046A847034628B959
S214404BA0134B594638469847034650B1114C039329
S214404BB04846A0474046A0473846A0475046A047EC
S214404BC0039B184605B0BDE8F08F6FF0AD03EDE7E8
S214404BD06FF0AC03F5E76FF0A903F2E76FF07C03E4
S214404BE0EFE700BFD15040006D2F4000B156400067
S214404BF0E1574000A150400010B4034C0023A446A7
S214404C005DF8044B604700BF054B40002DE9F0417E
S214404C10069C05461F460E46079B104672B139460F
S214404C2022460D4FB8470223236090B932462946A4
S214404C3004F14800094BBDE8F04118473CB135B196
S214404C40A26020461A46064B98470323ECE76FF0CF
S214404C50AC00BDE8F08100BF054B4000B1564000B7
S214404C606D2F400008B103691868704708B5034BBC
S214404C7098470028C4BF0530400008BD654C40003A
S214404C80F0B5F8B1114D00244FF0340E2E460EFB11
S214404C9004F35F5917B96FF0AD00F0BD2B44DF6ADF
S214404CA0B8420DD10AB19B6A136021B1342303FB8D
S214404CB004635B6A0B60342303FB04646068F0BDE6
S214404CC00134E4E76FF0AC00F0BD00BFE0CB42003B
S214404CD00338C0B206289ABF024B33F910006FF073
S214404CE0AC00704778DB42002DE9F041104B074698
S214404CF08846164600212622642098470546A0B1DD
S214404D000C4B9847044640B939460B4B424628461A
S214404D10984731462846094B984726220021284680
S214404D20074B98472046BDE8F0816FF07C04F9E7D2
S214404D30B9F7400089A1400009A040009DA040006E
S214404D40C1F740002DE9F041124B0746884616460B
S214404D5000212622702098470546B8B10E4B98474A
S214404D60044658B94246394628460C4B98470446AE
S214404D7020B9314628460A4B984704462622002149
S214404D802846084B98472046BDE8F0816FF07C04E3
S214404D90F9E700BFB9F74000ADA74000A1A5400025
S214404DA099A64000C1F7400070B50D4611461A4618
S214404DB00F4B049E04469847B04213D8E01E062880
S214404DC005D8DFE800F012070C12121212006FF03E
S214404DD0AC0070BD074B2846BDE8704018472846D3
S214404DE0054BF9E76FF0830070BD6FF0E70070BDCC
S214404DF0D14C4000E94C4000454D400010B590F87D
S214404E001431012B044606D0022B0CD0012384F823
S214404E101531002006E0064B402200F1700198470D
S214404E200028F3D010BD402200F17001014BF6E798
S214404E3009A04000A1A540002DE9F04117461E46B6
S214404E40044630B302B923BB082922D840F2B71330
S214404E50CB40DB4313F001031BD1012984F8153105
S214404E6084F8141104D0022916D06FF0AC0503E084
S214404E702C4B2046984705460023C4F81031002D99
S214404E803CD194F81431012B04F1700807D0022B62
S214404E9037D06FF0AC0531E02046234BEAE7402E92
S214404EA008D827B1324639464046204B98473F2ED1
S214404EB013D80BE03246394620461D4B984778BB00
S214404EC0414620461B4B984750BB1426C6F140022D
S214404ED0002108EB0600184B984704F16F0304F1D5
S214404EE0AF02EF34597881F05C0102F8011F59781F
S214404EF0A24281F0360103F8011FF3D12846BDE8EF
S214404F00F081402ECDD93246394620460B4B984745
S214404F1030B9414620460A4B984708B92026D5E77F
S214404F200546EBE789A14000ADA740005985420001
S214404F3009A040009DA0400055874200A1A5400022
S214404F4099A6400070B50D4616460446F0B101B924
S214404F50E2B994F815313BB194F81431012B09D0DD
S214404F60022B0ED0002070BD20460A4B98470028E2
S214404F70F2D070BD084B324629462046BDE8704008
S214404F801847324629462046044BF7E76FF0AC00F8
S214404F9070BD00BFFD4D400009A04000A1A54000E7
S214404FA02DE9F0410D46044648B141B190F815311F
S214404FB04BB194F81431012B0BD0022B28D06FF054
S214404FC0AC00BDE8F0811B4B98470028F1D0BDE807
S214404FD0F08104F1F00841462046174EB0470028BD
S214404FE0EFD1402204F1B0012046144FB8470028C4
S214404FF0E7D1142241462046B8470028E1D1294649
S2144050002046B0470028DCD184F81501BDE8F08181
S21440501004F1F00841462046094EB0470028D0D15A
S214405020402204F1B0012046064FB8470028C8D1B8
S2144050302022DFE7FD4D40009DA0400009A0400033
S21440504099A64000A1A5400038B50D46044640B19B
S2144050504FF48C720021044B9847C4F8105100203E
S21440506038BD6FF0AC0038BD55874200704730B150
S2144050700023C360036043608360184670476FF048
S2144050800200704710B50446C06828B1034B092299
S214405090002198470023E36010BD00BFC1F74000E1
S2144050A038B5044660B1C36853B100231D46226834
S2144050B0934206DB2046054B984725606560A56011
S2144050C038BDE26842F823500133F0E7855040008F
S2144050D02DE9F047DDF820A0DDF824900D46164671
S2144050E09846074618B1102200213F4B984725B1F5
S2144050F01022002128463C4B984726B1102200211A
S2144051003046394B9847B8F1000F04D010220021A2
S2144051104046354B9847BAF1000F04D01022002184
S2144051205046314B9847B9F1000F04D01022002169
S21440513048462D4B984767B9A5B9EEB130462B4B3C
S21440514098470446C0B13846294EB0472846B0472F
S21440515005E03846254B984704460028ECD02046C4
S214405160BDE8F0872846214B984704460028E4D0FF
S21440517038461F4B9847F2E7B8F1000F0CD0404630
S2144051801A4B9847044638B13846194FB847284610
S214405190B8473046B847E2E7BAF1000F0DD0504660
S2144051A0124B9847044640B13846114FB8472846F8
S2144051B0B8473046B8474046ECE7B9F1000F10D044
S2144051C048460A4B984704460028C8D03846084FF9
S2144051D0B8472846B8473046B8474046B84750468E
S2144051E0D8E74C46BBE700BF558742006F504000AB
S2144051F0A150400038B5044670B1C3684BB1026850
S214405200002503EB8202934207D12046044B984781
S21440521065600023A360236038BD1D700133F2E74C
S2144052208550400003684BB1591E03F18043013B53
S214405230C26852F823201C234B430AB918467047CD
S21440524001335208F9E7000008B5054B984710F0BF
S214405250070318BF0123082290FBF2F0184408BD4C
S2144052602552400070B543688B42044602DB09B1C4
S214405270002070BD8E1C09220021B000124BE5684C
S2144052809847E8B1E06045B100236268934210DB7E
S2144052900922002128460D4B9847636866609A00AD
S2144052A0002061688B42E3DAE168013388500432BB
S2144052B0F7E7E26855F8231042F823100133E4E795
S2144052C06FF0010070BD00BFB9F74000C1F7400065
S2144052D070B50C46054650B349B3884215D04B6866
S2144052E001688B4213DB93B1EE68E26800232868BE
S2144052F08342114611DB00202268934201DAE268BD
S2144053008AB92B682360AB68A360002070BD204636
S214405310084B98470028E7D070BD56F8231042F84F
S214405320041B0133E3E741F8040B0133E4E76FF075
S214405330020070BD6552400010B538B10023C16808
S214405340836003601C464268934200DB10BD41F810
S21440535023400133F7E710B56FF040440368002B55
S21440536008DD1A19C16851F8222002B110BD013B70
S2144053700360F3E708BF836010BD7FB50C46064662
S2144053800FC88DE80F0094E80F0086E80F009DE8F0
S2144053900F0084E80F0004B070BD00000368C268C8
S2144053A0F0B503F180450124013D8C4002EB8502B7
S2144053B0013CC1F11C0E013B0025002B03DA084BD3
S2144053C0BDE8F0401847176805FA0EF527FA01F6CB
S2144053D0354342F80459013B04EA0705EDE700BFB0
S2144053E057534000002970B4044614DD03689942C0
S2144053F002DB0F4B70BC1847C268002302EB8106E5
S2144054002068401A8342154607DB002022689342F4
S21440541009DB521A226070BC704756F8230042F8E7
S214405420040B0133ECE745F8040B0133EEE700BF0D
S214405430395340002DE9F0410E1E154606DC104655
S2144054401B4B984700273846BDE8F08103681C246C
S21440545063439E421146174B02DBBDE8F0411847B6
S214405460984707460028EED196FBF4F204FB1263F9
S214405470002B0CBF1346531C98003C4629688B42B1
S214405480E96810DB1C20B6FBF0F300FB1366012333
S21440549051F82200B340013B034041F822302846F1
S2144054A0054B9847CFE70C5001330430E6E700BF82
S2144054B039534000D1524000575340002DE9F04345
S2144054C00F1E85B0814616461D460BDC11461E4B08
S2144054D09847044615B128461C4B9847204605B0C9
S2144054E0BDE8F08300230393009301930293DFF813
S2144054F074803DB16A46164B9847044610B16846DC
S214405500C047EBE7314648460F4B984704460028CD
S214405510F5D11B2F05DD1C21304697FBF1F10D4BD5
S21440552098471C2397FBF3F103FB117111B13046EA
S214405530094B98473046094B9847002DDFD02946FF
S2144055406846074B9847DAE7D15240003953400047
S21440555035544000E55340009D53400057534000AB
S2144055607B534000A1504000F8B50C4F05460C4612
S2144055701618002322680AB91846F8BDE3681B6867
S21440558006F8013B2246002308212046B84701354D
S2144055902B460028EED00346EEE700BFBD54400041
S2144055A070B50D1E044601DC002070BD01684368DE
S2144055B029448B4218DB2368E268E9186FF04046BE
S2144055C021603344481E314402EB830302EB8102E0
S2144055D00432A8420DDA0023E268194642F8231046
S2144055E001339D42FAD1DFE7054B98470028E2D0C9
S2144055F070BD53F8041942F8041D0138E9E700BFAE
S214405600655240008242F8B50E4614460DD12168D8
S21440561063681C2596FBF5F5294499420BDB01315E
S21440562020461F4B984730B1F8BD11461D4B984752
S2144056300028ECD0F8BD1B2E05DD294620461A4B27
S214405640984700B1F8BD1C2396FBF3F103FB1161AC
S21440565021B92046154B98470020F8BD01238B40C2
S2144056600025E768013BC1F11C0E2846226895429A
S21440567007DB0028EDD0E368511C216043F8220088
S214405680E7E73E6806FA01F2024322F0704247F826
S214405690042B26FA0EF2013502EA0300E6E700BFC5
S2144056A065524000D1524000A1554000575340003B
S2144056B02DE9F0414368012B04460E4617460FDDA0
S2144056C02046134BDFF85480984735467B1B3344BF
S2144056D0002B0CDC20460F4B98470020BDE8F0819D
S2144056E002210D4B98470028EAD0BDE8F0812246BB
S2144056F008212046C0470028F0D1E26815F8011B73
S21440570013680B431360236801332360DEE700BF52
S21440571039534000575340006552400005564000FC
S214405720814210B50C4602D10020A06010BD024B4D
S21440573098470028F8D010BDD152400030B50468D4
S2144057400B689C4214DC15DBC268A30018461A445A
S214405750CB6800210344A14201DB002030BD52F853
S214405760045D53F8040D854202D803D30131F2E7B5
S214405770012030BD4FF0FF3030BD000030B48368AC
S2144057808D68AB420A4607D1012B08BF0146064B3F
S21440579008BF104630BC1847012B0CBF4FF0FF30F7
S2144057A0012030BC704700BF3D574000036823B916
S2144057B0081C18BF0120404270478268012A0AD060
S2144057C0012B0BDCC3681B68994207D38CBF4FF094
S2144057D0FF30002070474FF0FF3070470120704781
S2144057E038B5094B0D46044698470121074B984764
S2144057F048B9E36825F070451D60E3681B680033D0
S21440580018BF0123236038BD39534000655240001D
S214405810F8B50C46016863688B4205461CDB2B686E
S2144058202068236003F18042013AE968E668920006
S21440583011441644013B0022002B13DA2368E26829
S214405840002102EB8302834217DBAB68A36020464D
S2144058500C4B98470020F8BD20460B4B9847002835
S214405860DDD0F8BD51F80479D20642EA570246F830
S2144058700429013B07F00102DEE742F8041B01332E
S214405880E1E700BF57534000655240002DE9F0471E
S21440589005680E68B542DEBF33462E461D46536841
S2144058A0D4BF0F4607469D4280468946144605F1BA
S2144058B0010A22DAD4F800C0C4F800A00022D8F8C2
S2144058C00C80D9F80C90E368964696421DDC26EA92
S2144058D0E6718A00AE42134402D0D61A8D4224DCCA
S2144058E0C3F800E01A1D23680021634529DB2046E3
S2144058F0164B98470020BDE8F08751461046144B9B
S21440590098470028D6D0BDE8F08758F822100846B9
S21440591059F822100844014671444FEA117E21F09E
S214405920704143F822100132CFE7F868184401313D
S214405930825972444FEA127E22F0704243F8042B9A
S214405940CCE742F8041B0133CFE700BF5753400073
S214405950655240002DE9F84306685368D1F8009038
S2144059609E4280460F46144605DCE3685BB96FF0FE
S2144059700200BDE8F883314610461E4B9847002883
S214405980F3D0BDE8F883D4F800E026600022D8F8CB
S2144059900CC0FF6810464A4511DB29EAE9729100BF
S2144059A00CEB01050B44B24216DB2268002172451F
S2144059B01CDB2046104B98470020BDE8F8835CF877
S2144059C0221057F82250491B091AC80F21F070417F
S2144059D043F822100132DEE755F8041B091AC80FB7
S2144059E021F0704143F8041B0132DCE743F8041B06
S2144059F00132DCE765524000575340002DE9F04144
S214405A008768D1F80880474505460E46144604D1B7
S214405A100A4B9760BDE8F0411847094B984701305C
S214405A20084B01BFC4F808802246294630461FBFAF
S214405A30A760224631462846ECE700BF8D58400016
S214405A403D574000555940002DE9F04F87B0036858
S214405A5003930C46436809680592994205460ADA5C
S214405A60092200214FF480505A4B9847064650B9B9
S214405A706FF0010004E00131574B98470028EFD003
S214405A8007B0BDE8F08F0027E9680246BC462B68A1
S214405A909F42964639DB002200232168B7EB410F30
S214405AA03ADD0021236899423ADBCB00F7180833E9
S214405AB001F1010E33442268510001318E4565DD07
S214405AC0E96806EBC2020023206883420F4673DD76
S214405AD0002203998B4277DB236801332B602846EC
S214405AE03E4B98470922002130463D4B9847214679
S214405AF028463C4B984701306AD03B4B2A462146C5
S214405B00284607B0BDE8F04F184751F82730013710
S214405B1082E808100832BAE7EEE802230137BCE70D
S214405B208446059ADCF80030E768534323F0704318
S214405B30083004934FF0000E23689E4516DB50F85D
S214405B40083C50F8042C1B0F43EA02130093130F33
S214405B500193DDE90078D0E90023BF1848EB03083D
S214405B603A464346C0E9002301319BE7FCE802235E
S214405B709046994657F82E20049BE2FB03894246FE
S214405B804B464CE902230EF1010ED5E7083757F88D
S214405B90082C57F8041C4FEA127A4AEA011A4FEAD0
S214405BA0117BF3E8020110EB0A0841EB0B0943E9CD
S214405BB002890EF1010E7EE752F8080B20F0704085
S214405BC041F8040B01337FE747F8042B013380E7A5
S214405BD0002055E7B9F74000655240005753400053
S214405BE0C1F740003D574000555940002DE9F04769
S214405BF00B685E000136B6F5007F04460D469046BB
S214405C0005DAFF2B03DC2D4BBDE8F04718476368E9
S214405C109E4216DC266000202B68984219DB204600
S214405C20274B98472968274B2046984729462046C1
S214405C30254B984701303DD0224629462046234BE7
S214405C40E2E731462046224B98470028E2D0BDE89E
S214405C50F087E368D5F80CE003EB800153F820307A
S214405C60002603FB08FC2CF0704C37462B689F42FE
S214405C7002DBBEB90130CFE70B68B14619EB030231
S214405C805EF827604FF0000A4AF10003E6FB0C235B
S214405C904FEA127922F0704249EA031641F8042B83
S214405CA00137E3E70B6833441E0F23F0704341F897
S214405CB0043BDEE70020BDE8F08700BF495A4000BD
S214405CC057534000E55340003D574000555940006B
S214405CD0655240002DE9F84F0D6843680E4669004E
S214405CE08B420446914629DB25EAE578DFF89CB0EE
S214405CF04FEA850A4FEA8808E068002200EB0A0C63
S214405D0086461746AF421FDB00EB080340F80820E4
S214405D1004336A1C21688A4229DB2046D84731462C
S214405D202046174B9847013026D02246314620461B
S214405D30144B98470028DFD0BDE8F88F124B9847A1
S214405D400028D1D0BDE8F88FDEF8001000235218A6
S214405D505CF8271043F10003E9FB012322F0704171
S214405D60120F4EF8041B42EA03120137CAE700211D
S214405D7043F8041B0132CDE70020BDE8F88F00BF92
S214405D803D5740005559400065524000575340002B
S214405D902DE9F04184688B689C4207460E461546BE
S214405DA004D00B4B9460BDE8F0411847094B984728
S214405DB00130094B04D0AC602A4631463846F2E7FB
S214405DC0B4FA84F46409AC602A4639463046EAE7B9
S214405DD08D5840003D574000555940002DE9F04F42
S214405DE01E460B6893B0814688461746002B00F047
S214405DF09A804E4B984701300FD166B1314648469F
S214405E004B4B9847044617B138464A4B984720466E
S214405E1013B0BDE8F08F3446F5E7002301930093B6
S214405E20454C0EAB0AAA06A902A8A047044600287D
S214405E30EDD101210AA8414B984704460028E6D1F7
S214405E403F4CDFF810A14846A04705464046A047CD
S214405E5002A983464846D0470446002832D106A9C0
S214405E604046D047044668BB06AAA5EB0B05294624
S214405E701046DFF8E4A0D047044618BB0AAA2946D5
S214405E801046D0470446E8B9DFF8D0B0002D23DAF4
S214405E90D9F8085067B12B4BD8F808800EA9384679
S214405EA098473B681BB1B5EB080318BF0123BB609E
S214405EB046B1244B02A9304698473368002B08BFAA
S214405EC00025B560204D02A8A84706A8A8470AA8FE
S214405ED0A8470EA8A8479AE702A906A81B4B9847CA
S214405EE001280AD106AA002301211046DFF870A037
S214405EF0D047034678B10446E4E702AA06A910460E
S214405F00134B984728B90EAA0AA91046D847002826
S214405F10E8D00446D6E70AAA01211046D047013DFC
S214405F200028B3D0F5E76FF0020470E73D57400015
S214405F30D152400039534000D1504000E157400014
S214405F40255240007B534000A15040007D57400002
S214405F50915D40002157400005564000FD594000E5
S214405F60BD54400030B50368A3B1012B12D013DDF9
S214405F70C268002102EB83006FF0704452F8045B65
S214405F80A54208BF01318242F8D1B1EB630FACBFE6
S214405F9001230023184630BD0023FBE738B50368CD
S214405FA005464BB1012B06DD0B4B984701221446A4
S214405FB01C21884202DC0123184638BDEB6853F8A2
S214405FC024301340F8D05200B2F1805F24BF013431
S214405FD001220131EDE700BF2552400010B50268AE
S214405FE0012A0CDDC16801236FF0704051F8234050
S214405FF0844204D101339A42F8D1012010BD0020DA
S21440600010BDC3681B68DA0716D59A1C520002F00A
S21440601008021A4402FB03F0C0F10200504300FBA2
S21440602003F2C2F1020242435343023B534323F07E
S21440603070430B60002070476FF00200704700000E
S214406040F8B503681C2491FBF4F49C4206460D46C2
S21440605005DB671C39460A4B984778B937601C23DE
S214406060F16895FBF3F203FB1252012303FA02F2A6
S21440607051F82430134341F824300020F8BD00BFC7
S2144060806552400070B5044B0D4698472946034B71
S214406090BDE87040184700BF39534000416040009B
S2144060A0F0B585B0002303930093019302930E4B03
S2144060B00E4D0E46074698470D4B01466846984794
S2144060C0044620B16846A847204605B0F0BD6A465B
S2144060D039466846074B984704460028F2D1039B4A
S2144060E01B683360EEE700BF25524000A1504000D9
S2144060F085604000555940002DE9F0410E465368F2
S21440610001689942054614461FDAAB68A3604FF013
S21440611000082768D5F80CC0D4F80CE042462B6837
S21440612098450EF1040008F1010116DBCEF8002078
S2144061300B4600229F421FDC2B680133236020461B
S2144061400F4B98470020BDE8F081013110460D4BBB
S21440615098470028D9D0BDE8F0815CF828E00023B5
S214406160E6FB0E23864622F07040120F4EF8040CD3
S21440617042EA03128846D2E740F8042B0133D9E7B7
S21440618057534000655240002DE9F04F85B000233C
S214406190039300930193029305461C4BDFF87C90D3
S2144061A0DFF87CA0DFF87CB008460E4617469847D6
S2144061B080462B466A4641462846C847044638B974
S2144061C0012F0CD12A4669462846D847044670B166
S2144061D068460F4B9847204605B0BDE8F08F6A46A4
S2144061E039466846D04704460028EBD0F0E73146AB
S2144061F02846084B98470130EAD02A46314628467A
S214406200054B984704460028D3D0E1E72552400086
S214406210A15040003D57400055594000BD544000F5
S214406220F96040008D584000F8B50C460168636838
S214406230994205461ADA2B6826682360EF68E168BB
S21440624000231A462868824217DB23B101230B60DD
S2144062502368013323602368E268002102EB83024F
S214406260B34215DBAB68A3600020F8BD0131204681
S214406270094B98470028DED0F8BD57F8220043EA7D
S214406280400323F0704341F8043B0132C30ED9E784
S21440629042F8041B0133E3E76552400038B58D1CD5
S2144062A0044609220021A8000A4B9847E06068B1DE
S2144062B0002384E82800A3601A46AB4201DB002096
S2144062C038BDE16841F823200133F6E76FF001005E
S2144062D038BD00BFB9F7400070B5094B0E46096897
S2144062E005469847044640B929463046054B9847E8
S2144062F0044610B12846044B9847204670BD00BF60
S2144063009D624000D1524000A150400030B585B05B
S21440631001460D4B68469847044608B1002410E0F5
S2144063200A4D009B53B1039B1C686A460023082114
S2144063306846C4F3C014A8470028F2D06846044B09
S2144063409847204605B030BDD9624000BD54400055
S214406350A15040007FB50D46124B0146684698470F
S214406360064648B92A4669460F4B9847041E06DA41
S21440637068460E4B98472646304604B070BD631EAE
S2144063802B442A46511B581B814203DB6846074B69
S2144063909847F1E71178187802F8010B03F80119CD
S2144063A0F0E700BFD962400069554000A150400068
S2144063B0F0B585B006460D4668460968124B174646
S2144063C09847044650B90246104C30466B4629461C
S2144063D0A0470F4E044620B16846B047204605B059
S2144063E0F0BD009B1BB1AB68029A9A4204D1394675
S2144063F06846084B9847EFE73A4669462846064BB4
S21440640098470446E8E700BF9D624000DD5D4000D7
S214406410A15040007B534000FD5940002DE9F04F0D
S2144064200B68002B9DB081460E46924604DDCB6835
S2144064301B68DC0740F19E8018AC14AD10AB01948D
S21440644000950CAA08A904A8714FB847034600282F
S21440645040F0B08004A930466E4FB8470346002847
S21440646040F099806C4B08AA314648469847034608
S214406470002840F090800CA904A8B847034600289E
S21440648040F0898010A908A8B8470346002840F085
S2144064908280624B012120469847034600287AD1E5
S2144064A05F4F80460C9B002B03DD0F9B1B68D90774
S2144064B063D5DFF870B190E0179B1B68D80764D5AA
S2144064C0584B2A4604A928469847034600285CD0DD
S2144064D061E01B9B1B68DA0779D5224604A9204653
S2144064E0D8470346002872D055E00CAA10A910469B
S2144064F0D847034600284ED12A4621462846D84744
S2144065000346002847D10C9BE3B9012110A8464B0F
S2144065109847E0B9D9F80870DFF81C811A9B012B20
S21440652018D0DFF81881DFF8FC9031462046C04787
S214406530013017D13D4B514620469847CAF808705F
S214406540002328E008F10108B8F5805FAADD6FF067
S214406550020320E0224631462046C0470346002834
S214406560DCD018E0224631462046C847034600287D
S214406570DBD010E06FF002031CE00CA90846B847D9
S214406580034640B9149B002B96DC29462846B8475C
S2144065900346002886D0264C039304A8A04708A8A4
S2144065A0A0470CA8A04710A8A0472846A04718A870
S2144065B0A047039B18461DB0BDE8F08F10A90846BB
S2144065C0B84703460028E6D1189B002B81DC2146BD
S2144065D02046B84703460028DDD1109B002B03DD3C
S2144065E0139B1B68DB07E9D510A90CA8114BDFF8F5
S2144065F034B0984701307FF478AF10AA0CA9104603
S214406600D84703460028C6D122462946204676E784
S214406610D1504000D1524000B1634000E1574000A5
S21440662011584000915D4000AD5740007B534000FC
S214406630A15040007D574000FD5940003D57400066
S2144066402DE9F04F8B68012BA3B0824688469146D1
S21440665000F0DD800B68002B00F0D98016AE12AF3C
S214406660019600970EAB0AAA06A902A8864DA8472F
S2144066700446A8B901900090034602461EA91AA8EF
S214406680A847044680B1814D02A8A84706A8A84757
S2144066900AA8A8470EA8A8473846A8473046A8479D
S2144066A0204623B0BDE8F08F02AA41465046784BBC
S2144066B098470446002840F0D58006A94046754DC8
S2144066C0A8470446002840F0CD80029B002B04DDFE
S2144066D0059B1B68D90740F19D800AA902A8A847D8
S2144066E00446002840F0BE800EA906A8A8470446E7
S2144066F0002840F0B780012112A8674DA8470446FD
S214406700002840F0AF8001211EA8A8470446002874
S21440671040F0A880614DDFF894B10A9B002B04DD61
S2144067200D9B1B68D80740F18180DFF874A1E3E039
S2144067303A4606A93846D8470446002840F0928094
S214406740324602A93046564B98470446002800F089
S214406750828087E016A90846A84704460028DCD071
S21440676080E01AAA06A91046D8470446002879D1E0
S2144067701EAA02A91046D0470446002800F0B08062
S21440678070E00AAA0EA91046D0470446002869D1F0
S2144067903A461AA93846D0470446002862D13246BF
S2144067A01EA93046D047044600285BD10A9B002BE2
S2144067B0B3D101210EA83B4CA047002833D1DFF8C7
S2144067C0ECB01AADA24600212846D04701300ED084
S2144067D0DFF8DCA0DFF8C8B041462846D047013095
S2144067E00DD149462846304B984700243AE02A4681
S2144067F041462846D84704460028E4D032E02A4698
S21440680041462846D84704460028E5D02AE06FF09F
S214406810020445E7069B002B7FF75FAF099B1B688A
S214406820DA073FF55AAF6FF002041BE00AA90846A4
S214406830A8470446B0B9129B002B04DD159B1B6885
S214406840DB073FF575AF169B002B04DD199B1B68D5
S214406850DC073FF56DAF12A90846A8470446002856
S2144068603FF478AF094D02A8A84706A8A8470AA84B
S214406870A8470EA8A8473846A8473046A8471AA8AB
S214406880A8471EA80BE700BFD1504000A1504000CB
S214406890B1634000D1524000E157400011584000DB
S2144068A0915D4000AD5740007B534000FD5940008D
S2144068B03D5740000EA90846A84704460028D1D1B7
S2144068C01A9B002B04DD1D9B1B68D9073FF549AF7B
S2144068D01E9B002B04DD219B1B68DA073FF541AF6A
S2144068E01AA90846A84704460028BBD11EA9084650
S2144068F0A84704460028B5D10E9B002B03DD119B0C
S2144069001B68DB07D6D50EA90AA80C4BDFF830A0CB
S214406910984701307FF435AF0EAA0AA91046D047F3
S214406920044600289ED11AAA12A91046D04704460B
S214406930002897D11EAA16A9104633E77D57400077
S214406940915D400070B58B68012B05460C46164697
S21440695019D00B68002B16D003DDCB681B68DB070D
S21440696004D4324621462846084B09E001212046F9
S214406970074B98470028F4D0064B32462146284617
S214406980BDE8704018476FF0020070BD4166400099
S214406990AD5740001D6440002DE9F74F04684B6832
S2144069A064009C4280460D4605DCB4F5007F0BDD56
S2144069B06FF0030005E021462846414B98470028E3
S2144069C0F3D003B0BDE8F08F092200214FF40060F9
S2144069D03C4B9847064600286FD04FF0000A4FF0D1
S2144069E0000B0022A242D8F8003017DB5B00286874
S2144069F02B60EB680022A24253DB24EAE47403EBEC
S214406A0084030022844254DB28462F4B9847304666
S214406A10092200212D4B98470020D2E79A42ACBF6E
S214406A2003F1FF311146D8F80CE0571A0EEB8700F9
S214406A300090D81B8142B8BF481C0EEB8109C91B89
S214406A4001314B108342A8BF03460193002000212A
S214406A504FF0000C019B9C4518DB0018494110EB99
S214406A600A0041EB0B01D3075EBF53105EF823309C
S214406A70E3FB030120F070434FEA107A46F82230D9
S214406A804AEA011A4FEA117B0132ABE7009F57F8FA
S214406A902C703B4659F804790CF1010CE7FB0301D6
S214406AA0D8E756F8221021F0704143F82210013200
S214406AB0A1E743F8042B0134A4E76FF0010080E718
S214406AC065524000B9F7400057534000C1F74000B8
S214406AD02DE9F84F1E465368B3420746884615468A
S214406AE00DDB3C68D8F800301C44B442A8BF34469E
S214406AF0B4F5007F0BDD6FF00300BDE8F88F31463C
S214406B001046364B98470028EBD0BDE8F88F092250
S214406B1000214FF40060324B98470646002858D074
S214406B20002200234FF00009A14517DBEB682968D7
S214406B302C600022A24242DB24EAE47403EB840386
S214406B4000228C4241DB2846264B98473046092295
S214406B500021254B98470020BDE8F88FD8F8001054
S214406B6038688945ACBF01F1FF3CCC46F968A9EBD3
S214406B700C0EA0EB0E0001EB8E0AD8F80C108445E4
S214406B8001EB8C0BB8BF0CF101004FF0000C8445B4
S214406B900CDB22F0704146F82910110F41EA031130
S214406BA0180F0A46034609F10109BDE75AF82C10AA
S214406BB05BF804E90CF1010CEEFB0123E7E756F81D
S214406BC0220043F822000132B4E743F8042B013494
S214406BD0B7E76FF00100BDE8F88F00BF6552400090
S214406BE0B9F7400057534000C1F740002DE9F04F39
S214406BF0D0F80080404B8BB04FEA480401340191F6
S214406C000746214606A89847064688B94FEA8803AD
S214406C10043B06940146059341450DDB06A8374BD9
S214406C20984706A8364B0199984706A8354B98478B
S214406C3030460BB0BDE8F08F099AFB6852F83140F9
S214406C401B580025E3FB034524F0704342F83130DF
S214406C50FB681B5800934FEAC109099B09F10409D8
S214406C60994400F1040B220F0131ABEB090342EAD1
S214406C700512CE468C460493C44505D1059B1B1A87
S214406C8099444ABB0430C7E7FB68049C7344924669
S214406C901C59009B4FF0000BA3FB0445DEF8003068
S214406CA0CDE902AB9A46DDE9022312EB0A0243F134
S214406CB0000312EB040A43EB050B1AEB04024BEB02
S214406CC005031D4622F07043120F4EF8043B42EA7D
S214406CD005120CF1010CCFE7D9F80040002312EB67
S214406CE0040A43F1000B2AF070444FEA1A7249F83E
S214406CF0044B42EA0B12C4E79D62400057534000E3
S214406D007B534000A150400038B502685500B5F5A9
S214406D10FF7F03460C4606DC7F2A04DC044B98477C
S214406D200023A36038BD18462146024BF7E700BF54
S214406D3099694000ED6B40002DE9F04F89B0B3F5FE
S214406D40007F0546884603921C460DDA0E680768A3
S214406D50BE42A8BF3E46FF2E06DC2C4CA047064649
S214406D60304609B0BDE8F08F214604A8284B984726
S214406D7006460028F4D12B68009304940346009AF4
S214406D8093420ADB04A8234B984704A80399224B56
S214406D90984704A8214B9847E2E7D8F80020A4EB90
S214406DA003099145A8BF9146EA6852F8232001920C
S214406DB0079A002702EB830AD8F80C200292D646A0
S214406DC038464F4509DB29EAE97903EB0902944244
S214406DD0C8BF4AF829000133D1E7DEF8002010EB9F
S214406DE0020B029A52F827204FF0000141F1000CA6
S214406DF01146019AE1FB02BC58462BF07042000F48
S214406E004EF8042B40EA0C100137DAE7D16A40000E
S214406E109D624000575340007B534000A1504000C5
S214406E20F8B58B6884680568D1F800C0E41A05EBAD
S214406E300C0303F1010318BF0124B3F5007F074696
S214406E408E4616460DDA6545A8BF6546B5F5807F81
S214406E5007DC064DA8473368002BD8BF0024B46033
S214406E60F8BD324671463846014DF3E7D16A4000D8
S214406E70396D40002DE9FF41074688461E46116899
S214406E800C4B684615469847044678B96A464146CC
S214406E903846094B9847044628B93246294668463C
S214406EA0064B984704466846054B9847204604B02C
S214406EB0BDE8F0819D624000216E4000B163400015
S214406EC0A15040002DE9F04F85B000230393009376
S214406ED00193029305461A4BDFF87490DFF874A0CE
S214406EE0DFF874B008460E469046984707462B464D
S214406EF06A4639462846C8470446C8B96A4641469F
S214406F006846D047044698B92A4669462846D84730
S214406F10044668B9314628460A4B9847013007D0A0
S214406F202A4631462846084B984704460028DED075
S214406F306846064B9847204605B0BDE8F08F00BF30
S214406F40255240003D57400055594000A150400052
S214406F50BD544000216E40008D5840002DE9F0475A
S214406F600F461F4B0646084698473B68012B10DDE8
S214406F701C21013B90FBF1F401FB140401FB03418F
S214406F8001393046174B9847054650B12846BDE86C
S214406F90F08701213046144B984705460028F5D126
S214406FA00124DFF84890DFF848A0DFF84880013C2D
S214406FB031463046C84705460028E7D13946304670
S214406FC0D047013003D101341C2CF1D1DEE73246E4
S214406FD039463046C0470028F5D00546D6E700BFBC
S214406FE02552400085604000E1574000296240003D
S214406FF03D574000555940002DE9F04F91B00646A8
S214407000089109931446002126224FF40070A74B9E
S21440701098470390002800F0D6810898A44B9847DC
S214407020072819DD242819DD8D28B4BF042305233D
S2144070300593039B6168DFF88C92103318460493DF
S214407040C847074660B1262200210398994CA047BE
S214407050384611B0BDE8F08F0223E9E70323E7E79F
S214407060059B03F1FF38012303FA08F20192059AC3
S214407070019D93400793039A102303FA08F3D3180D
S21440708002939A46079B9D42C0F2BD801A9B002BF6
S21440709040F0D2800BA92046874B984707460028E9
S2144070A040F0768123685A00B2F5FF7F00F3D8801F
S2144070B0824A834DFF2BD8BF15466168814B0CA88A
S2144070C098470746002840F063811A9B002B40F003
S2144070D0C98021460CA87C4B98470746002840F0BC
S2144070E054813046049B794E22460CA9B047074649
S2144070F0002840F04A81039B0498102606FA08F6BA
S2144071001E443146724B98470746002840F03D8162
S214407110DFF8C091824631463046C84707460028C9
S21440712040F033810B9A21463046A847002840F06D
S21440713048810AF1010AD045EDDC019B029EDFF84A
S214407140988103F10109079B9945C0F29980089BF5
S2144071501B684FF0000B03F1FF3AD8465F46012606
S214407160CDF818B0013E0BD1BAF1FF3F00F0D78002
S214407170089BDA6852F82A3006930AF1FF3A1C2632
S214407180069BC3F3C0625B000693BBF1000F40F062
S214407190B180002A00F08880059B08F10108A3EB27
S2144071A0080902FA09F9434549EA07097AD14FF036
S2144071B000080CA90846474B98470746002840F069
S2144071C0E4800B9A21460CA8A8470746002840F0C2
S2144071D0DC80059B08F101084345EADC039B0CAACA
S2144071E003EB091110463C4B98470746002840F0F1
S2144071F0CC800B9A21460CA8A8470746002840F0AA
S214407200C480804689E050466168C8470AF1100A43
S214407210074678B1314C07E00298A047019B0133FE
S2144072200193029B10330293019B9D42F4DC049829
S214407230A04708E7013525E71A9B012B06D1E368EE
S214407240274D1B68C3F180530B9336E70BA92046A6
S214407250244B98470746002840F09A80224D2CE75A
S214407260174D2AE701210CA8204B984707460028CF
S21440727040F08B80049A1E4B21463046984736E7AE
S2144072803046103632460499C047074600287CD11F
S2144072900B9A21463046A8470746002875D109F183
S2144072A0010950E74F46022293465BE7B9F7400094
S2144072B025524000C1F7400003604000495A400054
S2144072C0ED5B40009D6240005D6F4000756E400083
S2144072D0D1524000096D4000216E4000A150400050
S2144072E0D55C4000A160400089614000E157400005
S2144072F0B1634000BBF1010F7FF44EAF002A7FF42C
S2144073004BAF0CA90846314B9847002859D10B9AE9
S21440731021460CA8A847002853D10122C4E7BBF158
S214407320020F08D01A9B002B43D00999284B0CA873
S2144073309847002729E0B8F1000FF3DDDFF88CA06E
S214407340DFF894B0B9460CA90846D0470746E0B9DE
S2144073500B9A21460CA8A8470746B0B9079B4FEAA8
S214407360490913EA090F03D10136B045EBD1D9E7F5
S2144073700CAA04991046D847074630B90B9A2146BE
S2144073800CA8A84707460028EED00CA8114A9047FC
S2144073900498104CA047019B079A9342BFF653AE01
S2144073A00298A047019B01330193029B103302933E
S2144073B0F1E70B9A21460CA8A84707460028B4D008
S2144073C0E3E70746E1E76FF0010741E6096D400055
S2144073D07B534000A1504000216E400070B50B68C2
S2144073E00C4638215943074B05469847034638B95B
S2144073F02146054C2A462846A446BDE870406047CC
S21440740070BD00BF85604000DD5D40007FB5002355
S21440741003930093019302930A4B0E460546984702
S214407420094B014668469847044628B932462946DD
S2144074306846064B984704466846054B984720469C
S21440744004B070BD2552400085604000555940004C
S214407450A15040002DE9F04FADF50F7D80460493D6
S21440746008469D4B989C8A4616469847072840F300
S214407470C280242840F3C2808D28B4BF4FF0040950
S2144074804FF005090023159312931393149309F1B3
S214407490FF3B012303FA0BF5904A03FA09F30393E3
S2144074A02F46039B9F42C0F2AC8000230D930A9365
S2144074B00B930C93002C40F0BF80894B31460AA8B2
S2144074C098470346002840F0F680864F864B12AA1F
S2144074D03146404698470346002840F0EC804FF03F
S2144074E010080EAB08FA0BF8984441467F4B12A89A
S2144074F098470346002840F0DE8004467C4B4146D1
S214407500404698470346002840F0D5800AAA3146B0
S2144075104046B8470346002840F0CD800134A34596
S214407520ECDC744C05F1010B039B9B45C0F28D804F
S2144075300023099306930793089301216E4B06A8F0
S21440754098470346002840F0B680DAF800200190BD
S21440755002F1FF3B0122044680460292029A013A1B
S21440756002920CD1BBF1FF3F00F09980DAF80C2074
S21440757052F82B2001921C220BF1FF3B02920199FC
S214407580019A4900C2F3C0620191002C73D1002ACF
S2144075906FD008F10108A9EB080402FA04F4C145CB
S2144075A044EA030463D14FF0000806A9504B08464E
S2144075B098470346002879D10AAA314606A8B84714
S2144075C00346002872D108F10108C145EDDC06AA41
S2144075D00EAB03EB04111046464B98470346002873
S2144075E064D10AAA314606A8B847034600285DD1AA
S2144075F0804601223DE04FF0020943E74FF0030981
S21440760040E70EAB03EB07109047034690B13B4C68
S2144076100193AF4207DC12A8A047019B18460DF520
S2144076200F7DBDE8F08F0EAB03EB0510A04701358C
S214407630019BEDE7013734E7314B0AA930469847BE
S2144076400346002837D12F4F40E7404608F1100840
S214407650424612A9A047034600282CD10AAA314622
S2144076604046B847034630BB0BF1010B5CE7234668
S2144076700222144672E7012C8BD1002A89D106A932
S214407680059308461A4B984700286ED10AAA3146F9
S21440769006A8B847002868D12246059BE9E7022C91
S2144076A034D0194B049906A89847002306A8134AD5
S2144076B001939047019B114C01930AA8A04712A83A
S2144076C0A047039A019B9542A8DA01930EAB03EBC1
S2144076D00510A0470135F4E7255240006F504000A2
S2144076E0DD7340006D7A4000B1634000D1524000E7
S2144076F0096D4000216E4000E1574000A150400017
S2144077000D744000C56E40007B534000B8F1000F3A
S214407710C7DDDDF80890DFF858A0DFF858B01C4603
S21440772006A90846D04703460028BFD10AAA3146D4
S21440773006A8B84703460028B8D1039B64002342F6
S21440774004D109F10109C845EAD1AAE706AA12A957
S2144077501046D84703460028A8D10AAA314606A8AC
S214407760B84703460028ECD0A0E703469EE700BF94
S214407770096D4000216E40002DE9F041984693681F
S214407780012B8AB004460E4615464ED08B68012B18
S21440779027D10023059302930393049302AA294614
S2144077A0254B264F9847044628B102A8B84720469E
S2144077B00AB0BDE8F081099006900790089006A9A7
S2144077C030461F4B9847044618B102A8B84706A84B
S2144077D0ECE743462A4606A902A8FFF7CDFF044633
S2144077E0F3E71046174B9847012806D100904346CA
S2144077F020462A463146144C14E02846134B9847F8
S21440780018B92846124B984740002B68002B0FDDCE
S214407810EB681B68DB070BD5009020460D4C4346B3
S2144078202A463146A0470446C1E76FF00204BEE749
S2144078300028F1D1DAE700BF45694000A15040007A
S21440784021574000655F400055744000DD5F4000B2
S2144078509D5F4000F96F40002DE9F74F1C46C36816
S214407860064688461546002B7BD00B6807681F44A3
S21440787053689F4205DCB7F5007F0BDD6FF00300D1
S21440788005E0394610463A4B98470028F3D003B0F7
S214407890BDE8F08F092200214FF40060354B984731
S2144078A00746002860D03268D8F80030A44602EB7D
S2144078B0030900220023CC4515DBEB682968C5F890
S2144078C0009003EB84034C451A4640DB00238C4271
S2144078D043DB2846284B9847384609220021274B49
S2144078E098470020D3E7D8F80010F0688C45B4BF1E
S2144078F0E24601F1FF3AACEB0A0E00EB8E0BD8F8ED
S2144079000C0000EB8A0101913168A1EB0E018A451B
S214407910B8BF0AF101014FF0000A8A450CDB22F09D
S214407920704147F82C10110F41EA0311180F0A4610
S21440793003460CF1010CBEE7019850F804E90190AB
S2144079405BF82A000AF1010AEEFB0023E5E757F848
S214407950242043F8042B0134B5E742F8043B0134B5
S214407960B5E76FF0020092E76FF001008FE700BFC7
S21440797065524000B9F7400057534000C1F74000F9
S2144079802DE9F04F0768D1F800C007EB0C0EBEF5A6
S214407990FF7F89B004460D4693461E460BDC67457E
S2144079A0A8BF6746FF2F06DC2B4CA0470746384645
S2144079B009B0BDE8F08F0EF1010104A8274B9847A7
S2144079C007460028F3D1D4F800A0D5F800800AEB8B
S2144079D0080301330493B30003938646D64501DA81
S2144079E0E36853B904A81E4B984704A859461D4B54
S2144079F0984704A81C4B9847D9E753F82E30029373
S214407A000799039BCB180193EB68A6EB0E0C03EB90
S214407A108C090022C44504DB019B0EF1010E1A605E
S214407A20DCE7104600210A46029B014659F8040B43
S214407A30E0FB031213460A4601990868121822F022
S214407A40704041F8040B43F10003120F019142EAE3
S214407A5003120CF1010CDDE7597840009D624000AE
S214407A60575340007B534000A15040002DE9F0435F
S214407A7085B00E68344B05460F460146684690462C
S214407A809847044600283AD1304C711E6846A047B5
S214407A90B6F1006FA14636D96A46414668462C4B39
S214407AA09847044640BB013631466846C8471C21C5
S214407AB02A4671432846274B98470446E0B9264C49
S214407AC033466A4639466846A0470446A0B92A4621
S214407AD069462846214B9847044668B90146204BDC
S214407AE028469847013015D01E4EDFF8908039461C
S214407AF02846B047013020D168461B4B9847204661
S214407B0005B0BDE8F08333466A4641466846174CA2
S214407B10A047C6E701216846154B984758B93146F5
S214407B206846144B984730B92A4669462846124B51
S214407B3098470028D8D00446DEE72A4639462846E5
S214407B40C0470028D3D0F6E7D9624000E55340004E
S214407B50216E400035544000396D4000915D400034
S214407B60AD5740007D574000A1504000817940000D
S214407B70E1574000A1554000FD594000555940008E
S214407B802DE9F0410E465368016899420546144671
S214407B9014DAD5F80880B8F1010F19D10023AB608C
S214407BA0224631462846264B9847C4F80880074662
S214407BB0C5F808802046234B984706E0013110461A
S214407BC0214B984707460028E3D03846BDE8F08169
S214407BD02968E3682068EF68012903F104021AD196
S214407BE039688E421BD20021A1602968216039681D
S214407BF0891BCE0F21F070411960012329688B4202
S214407C0012DA57F82310891BCE0F21F0704142F844
S214407C10041B0133F2E70029E5D11E6001E0711A2A
S214407C2019600123A36023600021984204DC2046AB
S214407C30044B98470027C8E742F8041B0133F4E793
S214407C404D7C40005753400065524000F8B50E4604
S214407C505368016899420446154618DAA368012B12
S214407C601ED12368012B03DCE3681B68B34217D39D
S214407C700023A3602A46314620462A4B98470123D4
S214407C80AB600746A3602846274B984706E001317D
S214407C901046264B984707460028DFD03846F8BDA2
S214407CA00023AB60E868A3682F68021D4BBBD4F87E
S214407CB00CE0DEF8001031440E0F21F070410160F8
S214407CC0012321688B4212DB69688B42B8BF16607D
S214407CD0216801F10101BCBF013304322960002153
S214407CE09F421BDC2846104B98470027D6E75EF895
S214407CF0231031440E0F21F0704142F8041B01332B
S214407D00DFE70121296023688B4209BFE1680660EE
S214407D100968711A0CBF01600B46E0E742F8041B85
S214407D200133DDE7817B40005753400065524000F9
S214407D302DE9F74F1746294E04460D46B047BB1E61
S214407D403E2B2ED82B78DFF8A4A02D2B06BF01356E
S214407D504FF001084FF00008B047A94615F8012B30
S214407D60D2B1242F0BDC1E4B01929847019A104447
S214407D70437803F00303022B08BF203AD2B2DAF866
S214407D8000004FF0000B10F80BE096450CD00BF1BE
S214407D90010BBBF1400FF6D199F80030B3B1204645
S214407DA0B0476FF002000EE05F45F5DD22463946EB
S214407DB020460C4B984730B92246594620460A4B37
S214407DC098470028C9D003B0BDE8F08F2068002847
S214407DD0F9D0C4F808801846F5E700BF395340008C
S214407DE0417F4200F96040004D7C40000C0000207E
S214407DF001440023884200D1704703700130F9E700
S214407E0008B57821074B024698470020531E773224
S214407E1013F8011F934240EA0100F9D1002818BF29
S214407E20022008BDF17D4000F0B50023541E00F14D
S214407E3037053622002C05DA024413B1131A002BFC
S214407E400CDAF0BD15F8017C0E5D3B44334405F872
S214407E50013D013AC3F30F23013CEBE713780133AE
S214407E6002F80139C3F30F23E7E700002DE9F04F8E
S214407E70684B154602689A42B5B004460F464FF026
S214407E80030300F09180002D08BF01258DF80330D4
S214407E9015F01F0318BF0123019203EB551B0AAAD6
S214407EA000F1080300F1380C9846164618685968E1
S214407EB09646AEE80300083363457246F6D1186826
S214407EC0CEF8000099889B798EF80630AEF80410FC
S214407ED04FF000094FF0020ACB4512DC37213046FE
S214407EE04D4A9047BAF1000F62D002252021304615
S214407EF0494B9847002D18BF0225284635B0BDE8A7
S214407F00F08F18A8454B9847824658B937223146D5
S214407F1018A8434B9847824620B902A918A8414B57
S214407F209847824618A8404A9047BAF1000F2CD18D
S214407F302168029A01292BD961688A4228D194F88F
S214407F407620012A32D0012284F87620EFB1E5B1BE
S214407F501F2D22D90DF1080CBE46624603CAB24216
S214407F60CEF80000CEF8041094460EF1080EF4D178
S214407F70203D20370DF15F0111F8012C0132D2B2BD
S214407F8001F8012D0AB9B142F6D109F10109A3E77A
S214407F90002184F876106260D8E72A4602A9234D6D
S214407FA03846A8470025F0E71D46A6E704259DE786
S214407FB018A81A4B9847054690B901220DF10301BF
S214407FC018A8174FB847054650B93722414618A853
S214407FD0B847054620B9314618A8124B984705467B
S214407FE018A8114B98478DB9202231464046104F6D
S214407FF0B847372204F13F014046B847019B34A9B1
S2144080001BBA41F8CC3D04224046B84723680133AA
S21440801023606BE740420F00F17D4000ADA7400073
S214408020A1A5400099A64000BDA740005985420042
S214408030297E40002DE9F04FA9B09A463D4B039368
S2144080403D4D8DF807100123064691468DF80B30BE
S2144080504FF0020B4FF037080CAC2046374B984792
S2144080600746002838D101220DF10B012046A847CB
S214408070074680B9042203A92046A847074650B9B8
S2144080809DF80730042B32D1524649462046A84731
S2144080900746002834D02046294A90479FB9B8F171
S2144080A0200F40D90DF1100CB646624603CAA242D4
S2144080B0CEF80000CEF8041094460EF1080EF4D127
S2144080C020364FF017089DF80B20BBF1010B02F14C
S2144080D001028DF80B20BFD104A82021194A9047F1
S2144080E0002F0CBF3846022029B0BDE8F08F012291
S2144080F00DF107012046A84707460028CBD1C3E725
S214408100329B2BB904A920460F4B98470746C2E737
S214408110339B002BF6D01A4632992046A84707468E
S2144081200028B8D1EEE7424604A93046074CA0479F
S214408130C9E700BF000001B8A1A54000ADA74000B8
S214408140BDA74000F17D400099A6400059854200F9
S214408150F7B5134B0D46044617460021782298473C
S21440816004F1080600220192009204212A463B466A
S21440817030460C4DA847014610B1022003B0F0BD72
S214408180019000903723324604F13F00A84700286C
S214408190F3D101232360606084F87600EEE700BFE9
S2144081A05587420035804000F0B500F1080791B091
S2144081B08DE80600044637233A46012102A8164EAB
S2144081C0B04710B1022011B0F0BD02AA3B460DF1F7
S2144081D0380E154603CD7545186059602A4603F19A
S2144081E00803F6D128681860A988AA799A719980F8
S2144081F002A83721094B9847002101910091372367
S2144082003A4604F13F00B0470028DBD10123236003
S214408210606084F87600D6E735804000F17D400007
S21440822038B50546A8B1806888B10B4B98470B4BCC
S2144082306968041E4FF02002A86818BF6FF0C60495
S21440824098470023AB6000232B73204638BD044676
S214408250F9E76FF0AC04F8E7017E4000C1F7400054
S2144082602DE9F843099C074691461E468846002954
S2144082703FD0002C3DD008B1002B3AD00A9B802B33
S2144082803AD12022002178201E4B984705460028E8
S21440829035D04A4641461C4B984788B14FF0FF348C
S2144082A01A4B28469847202200284FF000012846BF
S2144082B0174B18BF4FF0FF3498472046BDE8F88369
S2144082C07FB9802221462846124EB0470028E5D185
S2144082D0214680222846B047003018BF012044423D
S2144082E0DEE7089A0C4B3146284698470028D5D1F9
S2144082F0E7E76FF0AC04E0E74FF0FF34DDE76FF000
S2144083007C04DAE7B9F7400051814000017E400026
S214408310C1F740006D7E4000A98140002DE9F04342
S2144083200F468DB090460546002866D0002964D09A
S214408330B2F5803F61D8047B012C47D18068304E2F
S214408340B047032802463BD12622002180202D4BF1
S2144083509847814608B380230293202301900093D8
S2144083602046294B294C2A493022A047044670B95A
S2144083700346284819F80420215C01344A40802CE2
S21440838043EA0203F6D11C1C18BF0124644226228D
S21440839000214846204B98473CB103232B736FF08F
S2144083A0D00210460DB0BDE8F083202204A928462E
S2144083B01A4B984768B10222202104A8184B9847C8
S2144083C0002AEED0042AE8D002232B736FF0C602B0
S2144083D0E7E7202204A9A868124B98470028EAD16C
S2144083E022462146A868B04702460028E4D14246C5
S2144083F03946A868B0470246DEE76FF0AC02D0E7E1
S2144084006D7E4000B9F7400040DD4200618240008A
S214408410E0DB420040DC4200C1F7400063A7410079
S214408420F17D4000A9814000F0B5044691B0002897
S21440843061D000254160856005732622294680204C
S2144084402E4EB0470746F8B1802302938DE8A00031
S2144084502B46284630222A4D2A49A847054668B961
S214408460034629487A5D295C01354A40802D43EA17
S2144084700203F7D11D1C18BF01256D42262200219C
S2144084803846224B984735B1032323736FF0D0020A
S214408490104611B0F0BD202261687820B047A06039
S2144084A0E0B1302204A92046194B984740B1022239
S2144084B0302104A8174B98479AB901232373E7E75E
S2144084C0302204A9A068144B98470028EFD12A46CA
S2144084D02946A068114B98470246E9E76FF07C02B0
S2144084E0E6E7042AD0D0022A03D122736FF0C602F0
S2144084F0CEE70223E2E76FF0AC02C9E7B9F74000E7
S2144085006182400010DC4200C0DC4200C1F74000FF
S21440851063A74100F17D4000518140006D7E4000E0
S21440852010B50446C8B1D0F88430B3B190F8942062
S21440853072B1D0F88820023A012A0FD90C4BD4F8F1
S2144085408010D4F884003C229847002384F8943066
S2144085500023C4F88430C4F8903010BDD0F8902082
S21440856000211A449342E9D019700133FAE700BF5C
S214408570C1F740002DE9F04F93B090460793334B38
S214408580059006919847031E039347DB08F10409BC
S214408590B9F1240F01D8242B45DDDDF80CA01D9938
S2144085A02B4BCA4538BFCA464922504698470446D0
S2144085B0002848D00123049300252E4604EB080BE0
S2144085C042460699234B244F20469847330E04F8DC
S2144085D00830330C8BF80130330A8BF802308BF8B6
S2144085E003602346CDF800A04A4621460598B84782
S2144085F0034658B907990398621E29442844854281
S21440860018D11C9A954206F10106D9D3049A32B184
S214408610204649221D99114C0393A047039B1846B8
S21440862013B0BDE8F08F4FF0240A002304930DEBFF
S2144086300A04C1E71C9FBD42E3D212F801EF01F8DD
S21440864001EB0135DBE76FF07C03E8E7D14C4000F7
S214408650B9F7400059854200A94D4000C1F7400097
S21440866030B40128029C039D06D01A2808D1042065
S214408670054CA44630BC6047039502940520F7E7B6
S2144086806FF0AC0030BC704775854000F7B50446C7
S21440869088B34FF0FF33C0F8883000F1100600234F
S2144086A0C0F88010C0F88C30C0F88430C0F89030E5
S2144086B080F894301A460193009331460F4FB847DE
S2144086C00546A8B904F17003019304F160030093D2
S2144086D004F1400204F1500304F1300104F120009B
S2144086E0B847054620B12046054CA0473046A0472F
S2144086F0284603B0F0BD6FF0AC05F9E7D150400016
S214408700A15040002DE9F84F0446002833D01C4BBA
S2144087109847D4F88830012B04F1700B04F1600AB6
S21440872004F1500904F1400804F1300704F1200632
S2144087300CD1144D5846A8475046A8474846A84727
S2144087404046A8473846A8473046A8470E4D5846A4
S214408750A8475046A8474846A8474046A8473846F0
S214408760A8473046A84704F11000A8472046A84727
S2144087700020BDE8F88F6FF0AC00BDE8F88F00BF72
S21440878021854000F5514000A150400008B1024B01
S21440879018476FF0AC007047495240002DE9F0474B
S2144087A08CB08146159DDDF850808A4616461F4699
S2144087B0002D00F0EC80002800F0E980002900F051
S2144087C0E680002A00F0E380002B00F0E0801B6883
S2144087D0002B00F0DC80B8F1FF3F00F0D880684600
S2144087E06E4CA047002840F0D58052464946684621
S2144087F06B4B9847002840F0C180B8F1030F00F259
S214408800C080DFE808F0ACAC020204A8A04728B954
S21440881008A8A047B0B104A8624B98476FF06D0413
S2144088206846604B9847002C08DA14F16C0F05D068
S2144088300023C5F88C3028465B4B984720460CB042
S214408840BDE8F08705F1300A584C04AB524605F1B6
S21440885050016846A04705F1400810F1000942461D
S21440886008AB05F16001684618BF4FF00109A04704
S214408870041C18BF01246A4608A94D4B04A8984713
S214408880C9F10009644229F06F0924F06F04B9F178
S214408890000F18BF002444EA090410F1000918BF6D
S2144088A04FF00109C9F1000929F07109002C18BFE1
S2144088B04FF0000944EA09096B46524605F170013B
S2144088C03C4C6846A0474146041C6A463A4BDFF893
S2144088D0D480684618BF01249847644224F0740444
S2144088E0B9F1000F18BF0024003018BF01204042E5
S2144088F049EA040420F07300002C18BF002004430B
S2144089006A4608A92D4B68469847003018BF012094
S214408910404220F07200002C18BF0020044304A8F8
S214408920C04708A8C047002C7FF47AAF244B28469F
S21440893098473B689842044626D86846214B984755
S2144089403146801B00220B18A34214D33C60684675
S2144089501D4B9847041E18BF6FF0700460E76B46C7
S2144089602A4605F110016846104CA0470028DDD085
S2144089706FF06F0454E701F8012BE4E76FF06E04E4
S2144089804EE76FF081044BE76FF0820448E76FF0E4
S214408990AC0453E76FF06D044AE700BF6F504000E9
S2144089A0B1564000A15040002185400079774000F4
S2144089B0915D4000756E4000216E4000FD594000BC
S2144089C08D87400049524000556340002DE9F04FE6
S2144089D095B00D460B939DF88C3007921F9C9DF8E2
S2144089E08460DDF888800A93DDF894A00746002866
S2144089F000F07781002900F07481002A00F0718130
S214408A00002C00F06E81D4F88C30062B00F2638187
S214408A10DFE813F0070061016101610107004100D2
S214408A205E010423C4F88C30D4F88430C4F8901027
S214408A30002B40F050811E9B002B3CD13C22D4F8AA
S214408A408010AB4B284698470122C4F8840084F82F
S214408A509420002800F042812A463946A54B984784
S214408A6000230293209B00930194D4F88420294647
S214408A7004F190031046A04DA847B0F1000B03DA6E
S214408A801BF16C0F40F0D9800523BBF1000FC4F8F2
S214408A908C30C0F209812046984BD4F88450D4F8E4
S214408AA090709847B8F1000F09D0B8F1010F38D050
S214408AB06FF0C80BC1E0079BC4F88430D0E70A2F9C
S214408AC022D9A7F10A082B786A78003318BF012309
S214408AD0B24218BF0123012E07F1FF3719D1B74222
S214408AE003D90136AA5DFF2AF9D0B74202D0AA5D63
S214408AF0002ADDD1A7EB060BC345D9D8002BD7D12A
S214408B00013605EB060A87E0002FDCD16FF0AC0B90
S214408B1093E00126B742E8D90136AA5D002AF9D18A
S214408B20E3E7BAF1000F03D1269B002B40F0B78055
S214408B30D4F8803005930A98714B9847061EC0F2C9
S214408B40BA8006F10109B7EB490FC0F0B48049225C
S214408B500599674B384698478046002800F0AE8017
S214408B603A460021674B984705EB090308937B1E5E
S214408B709B1B0693059B019300964346069A0899CD
S214408B802498DFF88C91C847834600285CD108F1CA
S214408B90FF33A919A94649455ED108EB0603099358
S214408BA0059B0193069B0093DFF864B1099B2498CC
S214408BB032464146D8478346002854D10998AA19D8
S214408BC00699A9EB02038B4250D3404649220599A9
S214408BD04D4B984706F10108B04447454ED80DF135
S214408BE03009514600964B46269A0A98DFF824A14B
S214408BF0D047834668BB02465E4546D115F80830E6
S214408C0083F0010313442A78DA4208F1010B58D165
S214408C1005EB0B0AA7EB0B0BBBF1000F43DD0B9BE1
S214408C205B4561DBBAF1000F5ED01E9B002B4BD13B
S214408C305A46514607982F4B98470023C4F88C3025
S214408C402046324B984732E00599492240462E4B03
S214408C5098474FF0000ADFE75A7819F8010F42406C
S214408C6003F8012F97E749220021EFE710F8013B70
S214408C7099F801104B4009F8013FA1E715F8083074
S214408C80002BACD108F10108A7E7089B19F80B1098
S214408C9013F80B304B401A430BF1010BACE76FF067
S214408CA0830BBBF1000F1FD01BF16C0FC5D158468C
S214408CB015B0BDE8F08F6FF0AC0BF2E76FF07C0BB1
S214408CC0EFE76FF0C00BECE71E9BC3F800A0B4E7DD
S214408CD06FF0810BB1E76FF0BF0BAEE76FF07C0B28
S214408CE0ABE76FF0AC0BE2E76FF0820BA5E700BF97
S214408CF0B9F74000598542009D8740002552400004
S214408D00D14C400055874200C1F7400021854000C5
S214408D1061864000A94D400010B58AB000240894F2
S214408D20079406940594049401248DE81C0003944B
S214408D300B460246014CA0470AB010BDCD89400004
S214408D402DE9F04F8BB08946164608939DF858405B
S214408D50179D9DF860A0DDF86CB00690002800F0E6
S214408D60CC81002900F0C981002A00F0C681149BFE
S214408D70002B00F0C2811846AA4B9847089A0490E8
S214408D80904200F3C0810A2840F3BA81A0F10B0359
S214408D90994500F2B881149BD3F88C30032B00F22F
S214408DA0A981DFE803F002022F49149B0127C3F88C
S214408DB08C7018469C4B984725B1BD425DD06FF0ED
S214408DC0C804A9E0049B3570012C03F1FF3574708C
S214408DD036D109F102039D42F1D3A5EB0902023ACE
S214408DE0FF21B01C914B9847A5EB0905002373550E
S214408DF001354A4606998E4B70199847149A0223B5
S214408E00C2F88C30149B089A43F8902F1C9A029212
S214408E10149A0192159A0092864C0499324630462E
S214408E20A047041E02DA14F16C0F75D1149A03237E
S214408E30002CC2F88C3057DB149BD3F8904053E09C
S214408E4009F101039D42BAD36FEA090AAA4406F122
S214408E500208524641461C98774B984704460028DD
S214408E6040D13B46BA45BFD998F800200AB988F8A1
S214408E700030013708F10108F4E71A9B13B9BBF13B
S214408E80000F6CD1149B5046D3F880506B4B9847DC
S214408E90041E29DB49222946694FB847804650B10F
S214408EA0492229462046B847074638B94922294626
S214408EB04046644B98476FF07C042DE05046009443
S214408EC043465A461A99DFF884A1D047059090B198
S214408ED05C4C492229464046A04749222946384606
S214408EE0A047059C002C89DA14F16C0F14D120465B
S214408EF00BB0BDE8F08F631C5A000793049B934267
S214408F0012D2504C492229464046A047492229467B
S214408F103846A0476FF0AC04149A0023C2F88C3051
S214408F201046494B9847E2E7049BA2F1020B9A1A77
S214408F309145E6D8049BA3EB0900431E0993049B86
S214408F40A0F1020A9945AAEB0B0B0BD949222946F8
S214408F5040463C4CA047492229463846A0476FF039
S214408F608304D9E74A46324B069930449847099BD2
S214408F700122F254059BBBF1000F02DDBAF1000F4F
S214408F8019D1C4F10100504422464146284B304492
S214408F909847224639461C98274B9847834688B1BF
S214408FA0284C492229464046A04749222946384669
S214408FB0A0475C4696E706F80A300BF1FF3B0AF1FD
S214408FC0FF3AD8E7049B03F1FF3AAAEB040A0A22C9
S214408FD0294650461A4B9847814648B92946404646
S214408FE04922184CA047492229463846A04762E7FE
S214408FF0594652460D4BDFF858B098470195CDF884
S21440900000A04B46224639461998D847834608B3AF
S2144090100A22294648460B4CA04749222946404644
S214409020C2E700BF8D87400025524000558742006A
S214409030598542009D8740001D834000D14C40002A
S214409040B9F74000C1F7400021854000A94D4000D7
S21440905061864000079A4B46311909EB0A0E049880
S214409060904201D9734527D148460A222946DFF85F
S2144090709CB0B146D847002309F8013B611C5246D4
S2144090808DE83000DFF888A019984B463144D04729
S214409090DA46D8B93B460799A9EB0602914202D96F
S2144090A0DA1B94421EDC294640464922D0474922D4
S2144090B029463846D047A1E613F8010B91F801C07F
S2144090C080EA0C0001F8010F0132C8E705904922FA
S2144090D029464046D847492229463846D847059B20
S2144090E01C46FFE613F8012B99F800104A4009F891
S2144090F0012BD0E76FF0BF040EE76FF0AC04F6E646
S2144091006FF0E904F3E66FF08204F0E6C1F7400042
S2144091106186400030B58BB002250F9C0894002431
S2144091200794069405940494039401940E9C00942A
S2144091300295024CA0470BB030BD00BF418D4000A9
S21440914010B58AB00D9C08940024079406940594A4
S2144091500494039401240294022401940C9C0094E9
S214409160014CA0470AB010BD418D400010B5920892
S2144091700023934200D110BD51F8234024BA40F852
S21440918023400133F5E70000C36DC268416D2DE909
S214409190F04F03EB020EDC4B846DC26CD0F81480AB
S2144091A0D0F818B09E440EEBF26281EA040E016DD0
S2144091B00EEA010E8EEA040E9644026D416D4FEAA9
S2144091C0B20281EA020CC16C0CEA010C416D8CEAD9
S2144091D0010C21460469214419448C44C16C4FEA71
S2144091E0B107416D82EA070A0CEBFE6C0AEA0E0AEA
S2144091F041444FEABE0E194487EA0E098AEA020A3B
S2144092008A4409EA0C090BEB03010A4489EA070978
S2144092109144C2690AEBFC6A1A444FEABC0C8EEAD7
S2144092200C061744026A09EBFA6906EA0A064FEA90
S214409230BA0A8CEA0A051A4486EA0E063E44964462
S21440924005EA0905426AC76A06EBF96685EA0C052F
S2144092504FEAB9098AEA09041A44754405EBF665EB
S21440926094443440826A4FEAB60689EA060184EAA4
S2144092700A041A446444294004EBF56492444FEAD5
S214409280B50581EA090186EA0502514401EBF4611D
S2144092901F4422404FEAB404B94485EA04070F400D
S2144092A087EA050C076B724007EB030E76444A4488
S2144092B002EBF1620CEB06074FEAB101466B84EA1B
S2144092C0010E1E440EEA020E35448EEA040E07EBEB
S2144092D0F267AE444FEAB202856B81EA020C1D4447
S2144092E00CEA070C2C448CEA010C0EEBF76EA444F7
S2144092F04FEAB707C46B82EA070A1C440AEA0E0A1A
S21440930021448AEA020A0CEBFE6C8A444FEABE0EFF
S214409310016C87EA0E09194409EA0C090A4489EAED
S21440932007099144426C0AEBFC6A1A444FEABC0CAB
S2144093308EEA0C061744826C09EBFA6906EA0A06BE
S2144093404FEABA0A8CEA0A051A4486EA0E0605EA85
S21440935009059644C26885EA0C05754482EA080EFB
S214409360C26A8EEA020E026C91B08EEA020E4FEA94
S214409370FE7200921A4494440269016BDFF88CE155
S21440938082EA0B024A40416C3E4406EBF9664A408C
S2144093904FEAB9098AEA09044FEAF2720192344068
S2144093A01A4484EA0A049244C269476B88EA020275
S2144093B07A40876C7A4005EBF6654FEAF2724FEAE0
S2144093C0B606029289EA0601644404EBF564029FFD
S2144093D029404FEAB50586EA05021F4481EA09019D
S2144093E02240B9445144076A724001EBF4614A4452
S2144093F04FEAB409846B8BEA07076740009C6740D6
S2144094004FEAF77485EA09070F40234433446F4018
S21440941003941F44446AC36983EA0406C36B046A20
S2144094205E40019B5E404FEAF67602EBF1624FEA01
S214409430B10189EA0108B644754488EA0208A8449E
S214409440856ADFF8C8E06540046C6540029C65406C
S2144094504FEAF57507EBF2674FEAB20281EA020C73
S214409460AE4409EB0E048CEA070CA444446ADFF8C9
S2144094709C902346C46A5C40436C5C40039B5C40C3
S2144094804FEAF47408EBF7684FEAB70782EA070E2C
S214409490A14449448EEA080E836ADFF870908E44F1
S2144094A0016B5940836C594071404FEAF1710CEBA7
S2144094B0F86C4FEAB80887EA080B89444A448BEAB6
S2144094C00C0BC36ADFF844909344426B5A40009BAF
S2144094D05A406A404FEAF2720EEBFC6E4FEABC0C02
S2144094E088EA0C0A91444F448AEA0E0A036BBA444F
S2144094F0876B5F40019B5F4067404FEAF773034FBF
S2144095000493DF1904E000BF9979825AA1EBD96E23
S214409510B844436BC76B5F40029B5F404F404FEA87
S214409520F773D44F05930BEBFE6BDF194FEABE0E75
S214409530836B8CEA0E09BC44076C0AEBFB6A89EA2B
S2144095400B095F404FEABB0B039BC1448EEA0B08F6
S21440955088EA0A085F405740E044DFF818C309EB42
S214409560FA694FEAF7734FEABA0A06938BEA0A0794
S2144095709C44C36BE64487EA090777449E46436C9F
S214409580DFF8F0C28EEA030E049B8EEA060E8EEAE1
S214409590030E08EBF9684FEAFE734FEAB9090793E2
S2144095A08AEA090E9C44036C8EEA080EE344F344B0
S2144095B09E46836CDFF8BCC28EEA030E059B8EEA9D
S2144095C0050E8EEA030E07EBF8674FEAFE734FEA86
S2144095D0B808089389EA080E9C44436C8EEA070E46
S2144095E0E244F2449E46009BDFF888C28EEA030EB1
S2144095F0069B8EEA040E8EEA030E0BEBF76B4FEAE1
S214409600FE734FEAB707099388EA070E9C44836CBB
S2144096108EEA0B0EE144F1449E46019B8EEA030E11
S214409620079B8EEA010E8EEA030E4FEAFE73DFF8C2
S21440963044E20A939E44009BF0449E46029B8EEA78
S214409640030E089B8EEA020E0AEBFB6A8EEA030EB6
S2144096504FEABB0B4FEAFE7387EA0B0CDFF814E2C7
S214409660009309EBFA698CEA0A0C4FEABA0A9E4460
S214409670C4448BEA0A08774488EA0908019BB84440
S214409680039F5F40049B5F40099B5F404FEAF77330
S214409690784F0193DF19029BBB4483EA0607059B7C
S2144096A00CEBF96C4FEAB9098AEA090E5F400A9B4F
S2144096B08EEA0C0EDE445F40DFF8B8B108EBFC687B
S2144096C04FEAF7734FEABC0C029389EA0C079B44B7
S2144096D0039BDA4487EA0807574483EA050A069B51
S2144096E08AEA030A009B8AEA030A4FEAFA73DFF81B
S2144096F084A103939A44079B0EEBF86E66404FEAAC
S214409700B8088CEA080B5E40019BD1448BEA0E0BEE
S214409710CB445E40DFF85C914FEAF6730B93994476
S214409720089B07EBFE674D404FEABE0E88EA0E06E2
S2144097305D40029BCC447E4066445D40DFF834C1C9
S2144097404FEAF5730C939C44099B54405C40039B42
S214409750E0445C40DFF81CC14FEAF4730D939C4430
S214409760049B59400A9B59400B9B59404FEAF17362
S2144097700E9303F1DD430BEBF76B03F5B3034FEAB0
S214409780B7078EEA070503F5D74306EBFB6685EA7F
S2144097900B0521334FEABB0B87EA0B041F44059B9E
S2144097A07440A844E6445A40009B08EBF665A6443D
S2144097B00EEBF5645A404FEAB60E0C9B8BEA0E0150
S2144097C069405A404FEAB5054FEAF27344EA05024B
S2144097D00F930F4404EA050302EA0E0207EBF46116
S2144097E01A430F9F244B1F44BB44049F3E46069F8C
S2144097F07740019E77400D9E4FEAB40441EA040844
S21440980077404FEAF77608EA050701EA040847EA90
S2144098100808F718049693440EEB07060BEBF16224
S214409820464406EBF268079F059E7740029E7740C7
S2144098300E9E4FEAB101774042EA010E4FEAF776B4
S21440984005960EEA040602EA010E46EA0E0E059E4C
S214409850089F1E443544069E86EA070A039E8AEA07
S214409860060A0F9E4FEAB2028AEA060A48EA020C45
S21440987004E000BFA1EBD96EDCBC1B8F4FEAFA7642
S21440988006960CEA010608EA020C46EA0C0C069E0E
S2144098901E447544344405EBF865644404EBF56CAB
S2144098A0099E079C84EA060E0B9C8EEA040E049CD6
S2144098B04FEAB8088EEA040E4FEAFE7445EA080EF0
S2144098C007940EEA020405EA080E44EA0E0E079CC8
S2144098D01C44214471440A9C01EBFC690C9987EABC
S2144098E0040E8EEA010E05994FEAB5058EEA010E82
S2144098F04CEA050B4FEAFE7108910BEA08010CEAA8
S214409900050B41EA0B0B089919440A440099934405
S2144099100D9A71405140069A4FEABC0C514049EAB4
S2144099200C064FEAF172099206EA050209EA0C06AD
S2144099301643099A1A4490442246019C62400E9C63
S2144099406240079C0BEBF96B4FEAB90162404BEA69
S21440995001094FEAF2720A9209EA0C020BEA01097F
S21440996042EA09090A9A029C1A441544009A82EA75
S214409970040E0F9A46448EEA020E089A06EBFB66E1
S2144099804FEABB0B46EA0B048EEA020E4FEAFE7223
S21440999004EA010A06EA0B044AEA040402EB030A54
S2144099A0D444009204EB0C0A019A039C6240049C47
S2144099B06240099CA94409EBF66962404FEAB60644
S2144099C049EA06084FEAF272019208EA0B0209EAEF
S2144099D0060842EA0808019A1A4411448844029A42
S2144099E00B9982EA0104059A0C9954400A9A0AEBAC
S2144099F0F96A54404FEAB9094AEA090C4FEAF47248
S214409A0002920CEA06020AEA090C42EA0C0C029A96
S214409A101A449344039A82EA0105069A0D995540E2
S214409A20009A08EBFA684FEABA04554048EA040739
S214409A304FEAF572039207EA090208EA0407174359
S214409A40039A1A4416440B9A82EA010E079A8EEA43
S214409A50020E019ADC440CEBF86C8EEA020E4FEADA
S214409A60B8084FEAFE7B4CEA080E0EEA04020CEAFF
S214409A70080E42EA0E0E0BEB030291440C9A0E9926
S214409A8082EA0105089A0F995540029A374407EB37
S214409A90FC6755404FEABC0C47EA0C0A4FEAF572A1
S214409AA00B920AEA080207EA0C0A42EA0A0A0B9AEA
S214409AB0059D1A4414440D9A5140099A5140039A00
S214409AC0CE440EEBF76E51404FEAB7074FEAF172BD
S214409AD04EEA07010C9201EA0C020EEA0701114316
S214409AE00C9A1A449044A2440E9A049C62400A9CE3
S214409AF0624082EA0B020AEBFE6A4FEAF2724FEAD3
S214409B00BE0E0D924AEA0E0202EA07040AEA0E0266
S214409B1022430D9C1C44A4440F9C84EA0506009CEA
S214409B20069D66400B9C414401EBFA6166404FEA55
S214409B30BA0A4FEAF67441EA0A060E9406EA0E049A
S214409B4001EA0A0626430E9C1C442744049C6540B2
S214409B50019C65400C9C624402EBF16265404FEA12
S214409B60B1014FEAF57442EA0105049405EA0A0495
S214409B7002EA01052543049C1C44A6443E44059C39
S214409B80079F6740029C67400D9C06EBF266674065
S214409B904FEAB20246EA02094FEAF774059409EA28
S214409BA0010406EA020944EA0909059C089F1C4488
S214409BB0A244069CD14484EA070A039C8AEA040A23
S214409BC00E9C75448AEA040A05EBF6654FEAFA7479
S214409BD04FEAB606069445EA0604144005EA060827
S214409BE044EA0808069C23440B4498440999079B7A
S214409BF04B40049983EA0B034B404FEAF37303F15F
S214409C004A4101F5C50109EBF56901F583414FEA83
S214409C10B50586EA050456310A4484EA09040A99D9
S214409C20079314443A464A400B994A4005994A409D
S214409C304FEAF272089202F14A4202F5C50202F574
S214409C408342563200991644099A51400C9A514024
S214409C50069A51404FEAF172099202F14A4202F5E1
S214409C60C50202F5834208EBF96856324FEAB90955
S214409C70019985EA090C15440A9A4A400D994A40CA
S214409C805A404FEAF2720A9202F14A4202F5C5027F
S214409C9002F5834204EBF8648CEA080C56324FEA2D
S214409CA0B80889EA080E02999144009A51400E9AE3
S214409CB05140089A51404FEAF172009202F14A42EE
S214409CC002F5C502B44402F583420CEBF46C8EEA0E
S214409CD0040E56324FEAB40488EA0407AE44904471
S214409CE0039D019A6A40049D6A40099D6A404FEA76
S214409CF0F2720192019D0EEBFC6E87EA0C0705F1AD
S214409D004A454FEABC0C84EA0C014F4405F5C505AC
S214409D1007EBFE6781EA0E0105F583454FEABE0E66
S214409D208CEA0E0256352C447A402244029C059D0D
S214409D3084EA0B046C400A9D6C40A24D4FEAF474D2
S214409D406519AC44039D2B460B9D41445D40069BE4
S214409D5001EBF7614FEAB7078EEA07065D40009BC6
S214409D604E4066445D40DFF85CC202EBF1624FEA6B
S214409D70F5734FEAB101029387EA01059C440C9BB8
S214409D80E644554075448BEA030E079B8EEA030E65
S214409D90019B8EEA030E4FEAFE73DFF828E2039338
S214409DA006EBF2664FEAB20281EA020B9E44774423
S214409DB08BEA060B0B9BBB440D9F5F40089B5F40A6
S214409DC067404FEAF7737F4F0B9305EBF6654FEA14
S214409DD0B60682EA060ADF1939448AEA050A0C9B67
S214409DE0784F8A440E995940099B5940029B5940E6
S214409DF00BEBF56B4FEAF1714FEAB50586EA0509BC
S214409E00CF193A4489EA0B090D9B6E4F9144049A48
S214409E105A400A9B5A40039B5A400AEBFB6A4FEA59
S214409E20F2724FEABB0B85EA0B08D7193E4488EA24
S214409E300A080E9B634FB044059E5E40009B5E4002
S214409E400B9B5E4009EBFA694FEAF6764FEABA0A90
S214409E508BEA0A0CF7193D448CEA090C049B594FCF
S214409E60AC44069D5D40019B5D404D404FEAF57514
S214409E70EF19BB44059B079F08EBF9684FEAB90901
S214409E808AEA090E5F408EEA080E7C40DE44544063
S214409E90DFF830B1069B0CEBF86C4FEAF4744FEAEF
S214409EA0B80889EA0807A344DA4487EA0C07574407
S214409EB09A46089BDFF80CB18AEA030A029B8AEAB4
S214409EC0030A8AEA06060EEBFC6E4FEAF6764FEA7F
S214409ED0BC0C88EA0C0AB344079BD9448AEA0E0AAB
S214409EE0CA449946099BDFF8DCB089EA0309039B1C
S214409EF089EA030989EA050507EBFE674FEAF57527
S214409F004FEABE0E8CEA0E09AB44089BD84489EA59
S214409F100709C14498460A9B88EA03080B9B88EACF
S214409F200308284B88EA040803EBF878009C099B52
S214409F305C400AEBF76A61404FEAB707214BC444DE
S214409F4071408EEA070809EBFA6988EA0A0803EBCB
S214409F50F1714FEABA0A8E4487EA0A0181EA09019A
S214409F600A9B8E4401995940C36C03F14A4303F55A
S214409F70C5034A40C44403F583430CEBF96C554093
S214409F804FEAB909563303EBF5758AEA090383EAC3
S214409F900C032F441F44036D0EEBFC6E03EB0E01C7
S214409FA0436D016503EBBC034365836D4B4483659A
S214409FB0C36D07EBFE675344C764C36511B0BDE885
S214409FC0F08F00BFD6C162CAB8B10D4BC36403F16F
S214409FD08833036503F12943A3F59613A3F68B63F1
S214409FE04365A3F188338365064BC365002301664A
S214409FF0036043608360184670476FF0AC0070475C
S21440A00001234567F0E1D2C32DE9F84F0F461546C8
S21440A0100446002834D009B9002A31D123683F2BA2
S21440A02004F10C0B30D8DFF86880DFF86890DFF872
S21440A03068A015B92846BDE8F88F2068C0F14006EC
S21440A040AE4228BF2E46324639465844C04722685C
S21440A0503244402A22603744A5EB0605E9D15946EA
S21440A0605846C8472046D047626802F140039A42A5
S21440A070636082BFA3680133A36000232360D8E7F0
S21440A0806FF0AC00BDE8F88F6FF08300BDE8F88F46
S21440A090598542006D914000899140002DE9F84372
S21440A0A00E460446002861D000295FD00368416808
S21440A0B0DFF8CC902F4FDFF8CC805A1891424260A0
S21440A0C082BF82680132826000F10C055A1C026031
S21440A0D08022EA54006838280DD9C0F14002002199
S21440A0E02844C8474022226029462846B84720468A
S21440A0F0C0470023236020680021C0F1380228446E
S21440A100C847294628464022B8476368A1685A0F80
S21440A11002EBC102DB006360A364A2606264204677
S21440A12004F14C05C047142229462846B84704F196
S21440A130600355F8042B46F8042B9D42F9D10E4B8C
S21440A140E36403F18833236503F12943A3F59613AB
S21440A150A3F68B636365A3F188330020A365074BA2
S21440A160E36520606060A060BDE8F8836FF0AC00F7
S21440A170BDE8F8836D91400001234567F0E1D2C306
S21440A18055874200899140006FF001020021014B43
S21440A190184700BFC99F400008B50B46014630B17E
S21440A1A02BB164221846034B9847002008BD6FF039
S21440A1B0AC0008BD5985420010B50C469AB050B167
S21440A1C049B101A9054B984718B9214601A8044B47
S21440A1D098471AB010BD6FF0AC00FAE799A140005E
S21440A1E09DA0400010B592080023934200D110BDB8
S21440A1F051F8234024BA40F823400133F5E70000E5
S21440A2002DE9F04F8BB02622019000214FF480704C
S21440A210C54B98478346002800F082810023019A68
S21440A22002A952F8232041F823200133082BF6D107
S21440A230019B01992033ABF10402603153F8040BC3
S21440A24042F8040F8B42F9D1DA460BF1C0045A4665
S21440A250916B15464FEAF14383EA714383EA9123B3
S21440A260696A2D6852F8040F29440B444FEAB041FE
S21440A27081EAF01181EAD0010B449442D363E7D1DE
S21440A280DDF82480059BDDF820C0049ADDF81C909C
S21440A2900399069F0298DFF89CE2DEF80040DAF861
S21440A2A000504FEAF72686EAB7162C4486EA7766C9
S21440A2B0264489EA0C043C4084EA0C04264441EADD
S21440A2C000054FEA7034B04484EAB00401EA000660
S21440A2D0154084EAB054354325444344DEF80440F0
S21440A2E0A844DAF8045089EA07062C44A4441E40E1
S21440A2F04FEAF32486EA090684EAB314B44484EAAF
S21440A3007364644448EA00054FEA783C08EA00066D
S21440A3108CEAB80C0D4035438CEAB85CAC44A44497
S21440A3202244DEF80850DAF808402544A94483EA77
S21440A3300705154085EA070609EB06054FEAF229A8
S21440A34089EAB21989EA7269A94448EA0C044FEAD4
S21440A3507C3508EA0C0685EABC050440344385EAA9
S21440A360BC55DAF80C602544DEF80C4034444944C9
S21440A370274483EA02040C404D4484EA030907EB71
S21440A38009044FEAF12787EAB11787EA716727443D
S21440A3904CEA05064FEA75340CEA050984EAB5042A
S21440A3A006EA080646EA090684EAB55434443C44BC
S21440A3B03844DAF81060DEF81070374482EA010656
S21440A3C03B4406404FEAF027564087EAB0173344EE
S21440A3D087EA70671F4445EA04064FEA743305EA85
S21440A3E0040983EAB40306EA0C0646EA090683EA49
S21440A3F0B45333443B44B844DEF81460DAF814707F
S21440A40081EA00093E44324409EA08094FEAF82640
S21440A41089EA010986EAB8164A4486EA7866164406
S21440A42044EA03074FEA733204EA03092F4082EAFC
S21440A430B30247EA090782EAB3523A443244B44484
S21440A440DAF81870DEF8186080EA08093E443144AD
S21440A45009EA0C094FEAFC2689EA000986EABC1696
S21440A460494486EA7C660E4405EB06094FEA72319B
S21440A47043EA0205254003EA020781EAB2013D436A
S21440A48081EAB25129443144DEF81C50DAF81C60A7
S21440A4903544054488EA0C0000EA090080EA0807CB
S21440A4A0E8194FEAF92585EAB91585EA796505443C
S21440A4B067194FEA713042EA010480EAB1001C4055
S21440A4C002EA0106344380EAB1502044174C0EF1AC
S21440A4D0200EA64528440AF1200A7FF4DEAE0593F6
S21440A4E0019B0492CDF824800697CDF820C0CDF885
S21440A4F01C9002900391043B002202A8596850F831
S21440A500220001320144082A43F8041FF5D1584678
S21440A51026220021064B984700200BB0BDE8F08F5E
S21440A5206FF07C00F9E700BFB9F7400060DE4200FC
S21440A530C1F7400060DD420010B50446E0B1C16698
S21440A540202200210E4B98470E480F490F4A104BC9
S21440A55084E80F000F4B23610F4B63610F4BA361E1
S21440A56003F17453A3F523030020A3F69243E3615B
S21440A57020666066A06610BD6FF0AC0010BD00BFE0
S21440A5805587420067E6096A85AE67BB72F36E3C44
S21440A5903AF54FA57F520E518C68059BABD9831F69
S21440A5A02DE9F0470F4690460446002868D009B982
S21440A5B0002A65D1256E3F2D04F1200963D83DB3AE
S21440A5C0C5F14006464528BF46463246394609EB61
S21440A5D005002E4B9847226E3244402A2266374466
S21440A5E0A8EB060847D149464846294B9847204697
S21440A5F0284B9847054600283FD1626E02F140033B
S21440A6009A42636682BFA36E0133A3660023236625
S21440A610626E28F03F0313449A42636602D9A36EE3
S21440A6200133A366DFF868A01A4EB8F13F0F15D97C
S21440A63039464B4607F1400251F8040B43F8040BE9
S21440A6409142F9D1402248460F464946D0472046D7
S21440A650B047A8F1400805460028E6D0B8F1000FFC
S21440A66006D0424639464846084B9847C4F860806C
S21440A6702846BDE8F0870025CAE74FF00008C7E740
S21440A6806FF0AC05F4E76FF08305F1E759854200BB
S21440A690E5A1400001A240002DE9F0470F460446E0
S21440A6A000286CD000296AD0036E416EDFF8F08037
S21440A6B0DFF8F090DFF8F0A05A189142426682BF69
S21440A6C0826E0132826600F120055A1C02668022A4
S21440A6D0EA54006E38280FD9C0F1400200212844C1
S21440A6E0C0474022226629462846C8472046D047CB
S21440A6F00646002840D12066206E0021C0F1380270
S21440A7002844C047636EA16E5A0F02EBC102DB00BD
S21440A710A2666366402229462846C847A36EA365BC
S21440A720636EE3652046D047064628BB2022214676
S21440A7302046C847234653F8042B47F8042BAB4221
S21440A740F9D1202200212046C0470E4B0E480F4923
S21440A7500F4A84E80F000F4B23610F4B63610F4B8A
S21440A760A36103F17453A3F52303A3F69243E36175
S21440A770002323666366A3663046BDE8F0876FF025
S21440A780AC06F9E73AF54FA567E6096A85AE67BBBA
S21440A79072F36E3C7F520E518C68059BABD9831F7B
S21440A7A055874200E5A1400001A240006FF001023B
S21440A7B00021014B184700BF39A5400070470000F4
S21440A7C008B50B46014630B12BB170221846034BF4
S21440A7D09847002008BD6FF0AC0008BD5985420080
S21440A7E010B50C469CB050B149B16946054B9847E8
S21440A7F018B921466846044B98471CB010BD6FF008
S21440A800AC00FAE7C1A7400099A64000034B1A687F
S21440A8100AB901221A600020704700BFF80B0020DA
S21440A8200020704700207047002070470020704787
S21440A83000B10068704748B103688B4205DD0029C7
S21440A84003DBC36853F82100704700207047437805
S21440A85002781B0243EA0243827813430B60704738
S21440A86070B1027093F87421427093F8752182702B
S21440A87093F94532002BA2BFC1F30723C370017181
S21440A88070470000F8B50D46164604311622044FB0
S21440A890B8472B0C83712B0A4671C3710572F8BDFD
S21440A8A061A8400090F87431032B05D190F87501EB
S21440A8B0003018BF012070470020704790F8743170
S21440A8C0032B06D190F87501022894BF0020012082
S21440A8D07047FE2B06D190F87501FD288CBF0020EE
S21440A8E0012070470020704782B0ADF80400C0B227
S21440A8F0032807D19DF80500032894BF00200120B7
S21440A90002B070470020FBE782B002AB23F8041D7C
S21440A9101B880380012383700023C37002B07047F6
S21440A92070B5204B04460E46154600216C229847CB
S21440A93001234FF4FA72E36084F8443026602463BF
S21440A940A26504F10800184B9847002805DA6FF412
S21440A950CE7323616FF0690070BD8023A4F8483041
S21440A9601C23A4F84A302023A4F860300F4BE3643D
S21440A9700F4B2365B378012B02BF84F83F3084F831
S21440A9803C3084F840306FF00103A3662846094BFC
S21440A9909847A06210B12563002070BD6FF4B37075
S21440A9A070BD00BF5587420021A8400031FE4000E0
S21440A9B009FF400021EF400070B50446016B104D82
S21440A9C000680B22A847E06A10B11E22216BA847F8
S21440A9D0606828B10B4B98472022216B6068A847D7
S21440A9E0094D04F11C00A84704F11400A84704F1DF
S21440A9F01800A847A06A054BBDE87040184700BF3E
S21440AA00C1F7400021824000B9EE4000F1EE400020
S21440AA1070B500F108060446104B3046984770B1B2
S21440AA2022696FF4CE739A4217D120460C4B984752
S21440AA30216B0C4B20461222BDE870401847E56853
S21440AA40094B013DE5603046984735B92046044BF2
S21440AA5098473046054B9847EAE770BD29A840001E
S21440AA60B9A94000C1F740002DA8400025A84000E5
S21440AA7070B50446084D006CA847A06CA847074D23
S21440AA80616A206C1F22A847616AA06C2B461F2271
S21440AA90BDE87040184700BF2B054000C1F7400096
S21440AAA0FF23037243728372C3720373002343739C
S21440AAB0C373038043808380704710B531B104234D
S21440AAC080F83031032380F8313102214AB14218F0
S21440AAD04B1C0424034482F830410122023183F89F
S21440AAE03021418010BD0000F7B5C1F30725ADF811
S21440AAF00410C9B203291746BDF82C60BDF8304093
S21440AB00BDF83420DDF838E034D1291C18BF0121C7
S21440AB10022D94BF0025012598B390F850C1BCF192
S21440AB20000F2ED1BEF1000F27D1002AB6FA86F2CA
S21440AB3018BF0023520911B324B1C0210171072167
S21440AB40417102245BB10119631C4FF0C00E10FA2C
S21440AB5083F381F804E002341121A4B21971048011
S21440AB60094C099700233146A446089503B0BDE832
S21440AB70F040604700210D46CEE70122DBE70C4659
S21440AB80EDE703B0F0BD00BFBBAA400037B51546A1
S21440AB9000221C460192099B0846C9B1C4B1BBB10C
S21440ABA0B5F5007F17D8294601AA0E4DA8470028BC
S21440ABB00CDD069B984211D1019979B102460A4BA9
S21440ABC020469847002818BF6FF4C97003B030BDC0
S21440ABD06FF0AC00FAE76FF08300F7E76FF4C970E8
S21440ABE0F4E700BF198D4000F984420037B50D46A2
S21440ABF011461A468369069C0193079B0093236877
S21440AC002846044DA8470028C4BF2060002003B053
S21440AC1030BD00BF1591400037B504460846114682
S21440AC201A46079B019304F519730093064D069B3D
S21440AC30A84738B9D4F86422044B002A08BF1846FF
S21440AC4003B030BD0148FBE715494000B6FEFFFFA4
S21440AC5070B504460D4692B9B0F88062D4F86802E2
S21440AC6080B1002211460D4BA46998470346204602
S21440AC700B4C2A463146A446BDE8704060471369EF
S21440AC801E68EBE72A463146A069064B984718B936
S21440AC902B69DB6AC4F8683270BD00BF814C400047
S21440ACA061414000A5424000F0B50D4689B01646C9
S21440ACB00446002800F01381002900F01081436804
S21440ACC013B9002A00F00B81206808B1884B9847DA
S21440ACD005F108073846874B9847002840F0028120
S21440ACE0EB680133EB603846834B984725602B680A
S21440ACF01B88A4F87431B5F86030A4F880326B6EC7
S21440AD00C4F87C32EB6DC4F86832AB6DC4F8603181
S21440AD106B6D23622A6894F84432927862F3041387
S21440AD2084F844322A6894F84532D27862F3410374
S21440AD3084F8453295F8443084F8513295F83D20F1
S21440AD4094F8463262F3C71384F8463295F83E20AC
S21440AD5094F8473262F3000384F8473295F83F2070
S21440AD6062F3820384F8473294F8463295F83C20E2
S21440AD7062F3861384F8463295F8402094F84732BA
S21440AD8062F3C30384F84732B5F94830A4F8583222
S21440AD90B5F94A30A4F85A3295F8382094F8443237
S21440ADA062F3820384F8443295F8392062F3C30391
S21440ADB084F8443295F8342062F3451384F84432DC
S21440ADC095F8352062F3861384F8443295F8362099
S21440ADD062F3C71384F8443295F8372094F8453226
S21440ADE062F3000384F8453295F83A2094F84432EA
S21440ADF062F3010384F8443295F8412094F84832CF
S21440AE0062F3820384F8483295F8422062F3C30323
S21440AE1084F8483295F8432062F3451384F8483264
S21440AE206B69C4F8B430AB69C4F8C430EB69C4F895
S21440AE30B83095F8203084F8BC306F6AC4F8C070DB
S21440AE40002E37D1E96A60684FF4AA72002934D0E0
S21440AE502A4B984794F8442294F8473294F846127E
S21440AE60274D12F01000C2F300120692C3F3C00240
S21440AE70059226D1C1F38012C9098DE803000492D9
S21440AE80C3F3800203F001030293039201233A4680
S21440AE90D4F874116068A84794F84432DB0609D4A5
S21440AEA0D4F8B4300BB31B68FBB1D4F8B830E3B178
S21440AEB01B68D3B1012009B0F0BD3146114B98470D
S21440AEC0C8E7C3F3800203F00103C1F38011039285
S21440AED002930022012304918DE80C00D7E76FF01F
S21440AEE0AC00E8E76FF06900E5E76FF49E70E2E7D4
S21440AEF0B5ED400029A840002DA8400059854200E5
S21440AF00E9AA40005587420010B50446C06848B1DB
S21440AF10CC30054B9847054B616AE0682C22984731
S21440AF200023E36010BD00BFBDA74000C1F740004E
S21440AF3010B5C36804460BB10D4B98472C22616A86
S21440AF400C4B4FF49E709847E06068B14FF49E7289
S21440AF500021094B9847E068D4F88422616A074B81
S21440AF60CC30BDE8104018476FF07C0010BD00BFE5
S21440AF7009AF4000B9F740005587420039A5400068
S21440AF802DE9F0470F460446164600214FF422723C
S21440AF905A4DA8473B6B636204F16C0204F15003C0
S21440AFA0A365626705234FF0FF326366C4F88030BE
S21440AFB0C4F85021C4F85421BB6EC4F8843204F55A
S21440AFC0A873236104F5AA7363614D49E1630023C6
S21440AFD084F84D3284F84E3284F8523284F8533234
S21440AFE084F84F3284F84A3284F8543284F8553222
S21440AFF084F8443084F84C30A46397F8460094F8BC
S21440B0004912236460F3C30184F84912C4F83C2112
S21440B010C4F84021C4F84421C4F8482104F5BC7063
S21440B020A36484F8453084F84D30364B9847EEB1EB
S21440B030324639462046344B984701285BD194F82F
S21440B0407431A3F1FE025342534194F8452263F310
S21440B050C71284F845227F68A761002F2FD0002EA4
S21440B06048D12046294BBDE8F04718472122616A5F
S21440B070DFF89C80A820C047A06018B96FF07C001D
S21440B080BDE8F087A8223146A8474722616AD4F82F
S21440B09008904FF40070C047C9F80400A368586889
S21440B0A00028EBD04FF400723146A8471E22616A52
S21440B0B04FF4AA70C04760600028B9D1DEE720226E
S21440B0C0616A134B10209847A0610028D6D0102202
S21440B0D03946A84794F84932D4F88422616AA06970
S21440B0E043F0010384F849320A4B98470028B6D00B
S21440B0F0BDE8F0870020BDE8F08700BF55874200D6
S21440B10049FD4000A1AA4000A9AC400031AF400034
S21440B110B9F740002984400038B5836804463BB9F7
S21440B120184B616AA068212298470023A36038BD67
S21440B13079B100F1D00103F1540203F1740052F8E2
S21440B140045B41F8045B8242F9D193F8742084F89A
S21440B150F02058680B4D28B14722616AA847A3687B
S21440B16000225A60A368616A18682122A847A3682B
S21440B17000221A60A36803F1A8018B42D0D01A704F
S21440B1800133FAE7C1F7400070B50D46144606464F
S21440B19068B162B1106850B10A2909D025290AD091
S21440B1A0064B716A20682A4698470023236070BD84
S21440B1B0034B9847F4E7034B9847F1E7C1F7400045
S21440B1C00587400001434000F8B50E461746054641
S21440B1D088B182B1136833BB0A290FD025290AD11A
S21440B1E058203246696A134B98473860F0B10A2EA9
S21440B1F006D0252E12D06FF0AC040DE09820F0E774
S21440B200D5F88422696A0C4B9847044620B13A46E2
S21440B21031462846094B98472046F8BDD5F8842243
S21440B220696A074BF0E76FF0BF04F5E76FF07C0400
S21440B230F2E700BFB9F740008D86400089B1400074
S21440B240B942400010B50446D0F8980040B10E4BC5
S21440B250616A2B2298470023C4F89830C4F89C3083
S21440B260D4F8A00040B1084B616A482298470023B2
S21440B270C4F8A030C4F8A43004F13002616B034B2C
S21440B2802046BDE810401847C1F7400089B140004D
S21440B2900020014B184700BF3DAC420010B5C468C3
S21440B2A044B1064B984738B104F1CC00044BBDE896
S21440B2B0104018476FF0AC0010BD00BFBDA840005E
S21440B2C0A1A5400070B51C46064B0546984740B1C0
S21440B2D0E868054B05342144053ACC30BDE870405B
S21440B2E0184770BDBDA84000A1A5400010B5C46871
S21440B2F054B1074B984748B104F1CC0004320439A6
S21440B300044BBDE8104018476FF0AC0010BD00BFBE
S21440B310BDA84000A1A5400010B5044690F8853071
S21440B320406F616AC01A0C22064B984704F16C03C2
S21440B33063670523C4F88030002384F8843084F89B
S21440B340853010BDC1F7400038B5036EC56D044664
S21440B350ED1A49B9052D1BDC002D05DD816D2A4609
S21440B360194450300B4B984794F86930A06D616A89
S21440B370C01A0D22084B984704F15003A3650523D5
S21440B3806366002384F8683084F869302366E56590
S21440B39038BD00BF59854200C1F7400070B52F4BFD
S21440B3A02F4D04469847002120462E4B98472E4B5B
S21440B3B02046984794F8493213F0010F06D0A0690A
S21440B3C02A4B98472022616AA069A8471E22616AD4
S21440B3D06068A847264B204698471022616AD4F8F2
S21440B3E08800A847002604F5117204F5C4739A42F3
S21440B3F030D1204B84F88362204698471E4D04F592
S21440B40017720A212046A84794F8683084F860628C
S21440B4101BB101212046194B984794F8843013B14C
S21440B4202046174B9847002604F51D7225212046D6
S21440B430A84704F51E722521204684F87162A84765
S21440B44084F8826204F51B7225212046A84784F8BA
S21440B450706270BD1E700133C9E700BF71AA40001C
S21440B460C1F7400019B1400045B24000218240007B
S21440B47009AF400065F7400089B1400049B340003D
S21440B48019B3400070B5044600680D4608B1064B37
S21440B49098472046054B9847294620461122044B9C
S21440B4A0BDE87040184700BF11AA40009DB3400059
S21440B4B0C1F7400070B590F86830044613B10021DB
S21440B4C0284B98471E22616A6068274DA84700238C
S21440B4D063602046254B984794F881311BB194F819
S21440B4E045329A0612D494F84932DB070ED5204BE3
S21440B4F0A06998472022616AA069A84794F8493213
S21440B500002262F30003A26184F8493294F948327B
S21440B510002B03DB01212046164B9847164E00258C
S21440B52004F5177220460A21B04704F51D722046DE
S21440B53084F860522521B04704F51E72204684F8F0
S21440B54071522521B047204684F8825204F51B727A
S21440B5502521B04784F870522046084BBDE870401D
S21440B560184700BF49B34000C1F7400009AF40004C
S21440B5702182400019B1400089B1400065F7400083
S21440B580F8B503681B6D0446E3B10026A56F45B9C0
S21440B59094F88400E567B0B120460E4B984728469D
S21440B5A0F8BD606F2368E16F1F6D636901442A46EA
S21440B5B02046B847013007D194F8463243F001039D
S21440B5C084F846320448F8BDE36FA26FA66713447A
S21440B5D0E367DBE719B34000CCFEFFFF2DE9F041FF
S21440B5E090F94532002BB4BF10250025B2F1000873
S21440B5F0044632DB002930DB08EB01070D22416AA6
S21440B6001A4B78199847064658B315B1A5F10D035D
S21440B6101E44B8F1000F06D0236EA16D4246194471
S21440B6203046134B984794F868303BB1A36D94F876
S21440B6306900616A181A0D220E4B9847012384F858
S21440B640683005B10D3D002084F86950A6656766F0
S21440B6502066C4F85C80BDE8F0816FF0AC00BDE8C1
S21440B660F0816FF07C00BDE8F08100BFB9F7400084
S21440B67059854200C1F740002DE9F041036EC56D83
S21440B680ED1A436E002D04460F46A3EB0503A1EBCF
S21440B690050641DB002B3FDB002E3DDDB34211DBD0
S21440B6A0CDB90023E56523666FF4A175E36DA16D02
S21440B6B019442368D3F84C80B8F1000F14D11B48C6
S21440B6C0BDE8F0812A461A4B98470028E8DA6FF022
S21440B6D07C00BDE8F081216E0029E2D0A06D154BBC
S21440B6E02A4601449847DCE7324623692046C0474D
S21440B6F0C21C14D0431CE2D0A84201D1BDE8F08160
S21440B700864210DBE36D03449F42E365A6EB0006EA
S21440B710CCD80020BDE8F0810748BDE8F0816FF442
S21440B720A170BDE8F0810548BDE8F081CCFEFFFF82
S21440B730DDB540008D864200B8FEFFFF88FEFFFF65
S21440B740F8B50E1E044635DB806FD4F880301B1AE1
S21440B750B3422DD294F94532616A002BB4BF10270C
S21440B760082730444FF00C023844154BB4BF0D2523
S21440B7700525984708B3A26F7F1BC5191AB1616F9C
S21440B780104B2846984794F884303BB194F885305F
S21440B790606F616AC01A0C220B4B9847012384F8ED
S21440B7A08430A36F84F8857033446567C4F880306E
S21440B7B00020F8BD6FF0AC00F8BD6FF07C00F8BD1F
S21440B7C0B9F7400059854200C1F740002DE9F84FCF
S21440B7D00D461646824610B90020BDE8F88F002A6E
S21440B7E0FAD00029F8DDDFF8B08047469AF80040E6
S21440B7F0C04720440AF10109437803F00303012BB4
S21440B80008BF203414F0FF0A2AD0BAF12A0F34D1E8
S21440B810CA46013D2AD01AF8019BB84748444378A7
S21440B82003F00303012B08BF09F120095FFA89F9E9
S21440B830B9F12A0FEDD0B3465E461BF8014BB84728
S21440B8402044437803F00303012B08BF203414F050
S21440B850FF040DD1337803B101360DB1013DC5D19A
S21440B8603078B0FA80F04009BDE8F88FA946E2E7A4
S21440B8704C45EFD02E2CDFD1AEE73478B847204485
S21440B880437803F00303012B08BF2034E4B2A245FB
S21440B890A2D1CA46DEE700BF417F42002DE9F04113
S21440B8A00E4610B90020BDE8F081446A084FDFF824
S21440B8B02480002CF6D065682846B84732460146B4
S21440B8C02846C04708B92468F3E70120BDE8F08160
S21440B8D0C1904200CDB74000F8B50446164694F8ED
S21440B8E0452212F0100F0CBF24220C229A42084622
S21440B8F0079928D13368D4F83C52069F1D44154416
S21440B900BD4222D821B91844E168124B9847F8B98D
S21440B910356094F8443213F0100F94F8453206D050
S21440B920072284F84D225A0706D50020F8BD0B2280
S21440B9305B0784F84E22F8D50C2384F84F32012357
S21440B94084F85032F1E70448F8BD6FF08300F8BD44
S21440B9500248F8BDF9844200B8FEFFFFD0FEFFFF64
S21440B96070B590F84532DB0604460D4601D40020FB
S21440B97070BDC068084B6830984760B92046074B92
S21440B98098470028F3D0E068054B05F11401CC3009
S21440B990BDE87040184770BDB9A14000BDA8400042
S21440B9A0E1A740002DE9F04F91B00D4690469B46EA
S21440B9B01A9EDDF86CA01D9F044620B96FF0AC00BF
S21440B9C011B0BDE8F08F002180F855122C22724B42
S21440B9D005A898470523721D08930993002F40F049
S21440B9E08580002DEAD0BBF1000FE7D0012384F814
S21440B9F0553294F8853105931A4494F8813106926D
S21440BA00012B10D194F84512B4F87C31890675D4D0
S21440BA10069A101FB0FBF3F103FB11015B1A0132CB
S21440BA201A4407930692002F40F0B280069B434587
S21440BA3069D80B9A002A70D1099B0699DFF86C8169
S21440BA40C91A89B223465FFA8AF22846ADF828100A
S21440BA50C047DDF82C80514BB8F1000F0ED042465F
S21440BA60DDF820900393102A28BF10220CA905EB7E
S21440BA700900984708EB0902039B0892DDF82090DE
S21440BA803246594605EB0900984709EB06030893EA
S21440BA90BAF1160F4FF0020384F8553244D094F8AA
S21440BAA08131012B0AD1059A089B079913442B44F0
S21440BAB05FFA81FE1A46D01A884243D9032384F897
S21440BAC0553294F88131022B3FD194F84410099AAC
S21440BAD0042384F85532BDF82830002946D0012981
S21440BAE04AD0002384F8443038460EE0002D7FF4D8
S21440BAF065AFBBF1000F3FF479AF5FE71A44102BF8
S21440BB000B93069284D96FF08300002384F8553255
S21440BB1000287FF455AF069852E70CA9A069204B41
S21440BB2098470028F1D187E71C9B002BB7D0099A8D
S21440BB304346324429462046DFF87480C0470028F2
S21440BB40E3D1ACE702F801EBB5E70B9B099A0899FD
S21440BB50CDF800A01A44002301932A4433462944D2
S21440BB602046E66BB0470028CFD1AEE794F84510A4
S21440BB7081B1012184F8441094F88011012905D13F
S21440BB802A441146206C074DA847AAE7064FA8E767
S21440BB900020BAE70448B8E7558742005985420076
S21440BBA01D834000CF044000C6FEFFFF61A8400052
S21440BBB0C5B240002DE9F04190F8403288B00446C6
S21440BBC0002B32D090F85032002B0CBF06264C2665
S21440BBD0314620461C4B9847054610BBA36F676FFF
S21440BBE0DFF870801F441422234601213846C047A0
S21440BBF001227A7194F84032CBB194F85032B3B106
S21440BC0008AB142103F8042D2046019100920495B8
S21440BC10324603950D4E02953946B047061E06DA63
S21440BC203546284608B0BDE8F0810626D0E7A36F23
S21440BC301E4494F84832A6679B06F2D42046044B2E
S21440BC4098470546EDE700BF41B74000A5B940001C
S21440BC5081B5400061A84000F0B590F8453293B0F9
S21440BC6013F0100F4FF001012E4B14BF0C25242566
S21440BC7004469847002835D1762120462A4B9847D7
S21440BC8000282FD114238DF8183094F84432274AD0
S21440BC908DF8190013F0100F254B8DF81A0008BFC9
S21440BCA01A4694F84532666FA76F8DF81B50D80633
S21440BCB012D40023049303930123029304351623DE
S21440BCC00193009506AB1B4D7622F1192046A847F6
S21440BCD0051E09DA184805E007A92046174B98477D
S21440BCE00028E6D013B0F0BD94F84532590713D477
S21440BCF0134B2046984794F84432DA0605D40C2372
S21440BD0084F84F32012384F85032A36F2B44A36744
S21440BD1020460C4B9847E5E794F84432DB06EED4D1
S21440BD20F3E700BF51EB400041B7400074DE4200ED
S21440BD3078DE4200A5B94000C0FEFFFF2DFA400065
S21440BD4071F5400081B540002DE9F04F90F847323C
S21440BD5013F0C00393B0044640F09B8190F8442211
S21440BD6002F00302022A46D0D0F8B430002B00F08E
S21440BD709281D3F80880B8F1000F44D008F103034D
S21440BD800893D0F8C43008F1060A002B44D09B68CC
S21440BD9007939A44079A089B1344089306230993EB
S21440BDA0D4F86431002B3BD0AAEB0309099BA9EBDE
S21440BDB00309CAF307430B93CAF307230C93089B64
S21440BDC0C3F307430D93089BC3F307230E93C8F3AF
S21440BDD007430F93C8F3072310930026B9F1000FCB
S21440BDE040F089806FF4A3739E4240F0468130460F
S21440BDF013B0BDE8F08F4FF0030A0893CDF824A0A7
S21440BE0007939846CCE74FF0060A0323CDF81C80EC
S21440BE100893CDF824A0C3E7062209920793BFE70C
S21440BE20D146C6E7B9F5804FCB4628BF4FF4804B86
S21440BE300BF10506052376E0052606964FF0000B27
S21440BE4076E0F9189DF83C20FA549DF840304B7047
S21440BE5081F8028094F840321BB903222046934B67
S21440BE609847069B0633069394F84032A9F1060994
S21440BE70ABF1060B7BB9D4F8B430424619688B4B0D
S21440BE80119320469847079A119B22B1D4F8C410C4
S21440BE90204609689847D4F86411884540F2928055
S21440BEA0A8EB01035B45D4F8B42028BF5B46106876
S21440BEB011931A46069B0144F8187D4B9847119BF0
S21440BEC0069A1A440692D4F864211A44C4F86421A7
S21440BED0A9EB0309ABEB030B74E0002B05DB234611
S21440BEE0162259463846734DA847B8F1000FD2D1AE
S21440BEF068E0AB469CE0002E7FF474AF94F9453280
S21440BF00002B99DBD4F86431002B8BD1079B08EBD0
S21440BF10030B099B9B4443F6FC739B4528BF9B46FB
S21440BF200BF109060923069394F8403203B14636CE
S21440BF3031462046604B98470A90002840F0AD8036
S21440BF40A36F676FD4F864211F4494F94532002AE2
S21440BF50C3D1002B18DB234616220BF104013846CA
S21440BF60544DA8470B237B719DF82C30BB719DF830
S21440BF703030FB7187F808A094F8403223B9042289
S21440BF80791D2046494B9847069B069AF9189DF816
S21440BF903430BB549DF838304B709DF820308B7051
S21440BFA094F840321BB903222046404B9847069BE4
S21440BFB00333B8F1000F7FF444AFA9F10309ABF1A6
S21440BFC0030B0693079BF3B1BBF1000F1BD0D4F8CD
S21440BFD0641143445B1A9B4528BF9B46D4F8C43043
S21440BFE01B68A1EB08011944069B5A46F818304BCB
S21440BFF09847069B5B440693D4F864315B44C4F888
S21440C0006431A9EB0B0994F840324BB3069B5D1F95
S21440C010002D44DB3FF46DAF0D22616A274B284666
S21440C0209847834600283DD02A46791D204B98479E
S21440C030002304930393012302931623019332466D
S21440C04000951F4E5B4639462046B047064625B10A
S21440C0500D22616A1B4B58469847002EFFF6C7AE26
S21440C060A36F1E4494F84832A6679A0603D4204627
S21440C070154B98470A900A9EB0E60023C4F86431F0
S21440C08094F84432DB063FF5B2AE042384F84D32D2
S21440C090ADE60026ABE60D4EA9E60A9EA7E66FF093
S21440C0A08306A4E66FF07C06A1E600BF9DB2400082
S21440C0B05985420061A8400041B74000B9F74000AA
S21440C0C0A5B94000C1F7400081B54000B8FEFFFF6B
S21440C0D02DE9F04FD0F84C3117466FF4A3729342D7
S21440C0E089B00546884601D06C3302D10023C5F896
S21440C0F04C3195F84F320C2B0FD028463B4B984787
S21440C1000128044609D0D5F84C316C3308BF6FF08F
S21440C1100104204609B0BDE8F08FAC6FE4B1284674
S21440C120334B984700280446C5F84C0108DA10F50A
S21440C1309A7FEED195F84632D907EAD50024E8E74B
S21440C140D5F8A840D5F8AC301C44BC4204DD6FF0AE
S21440C150AC04C5F84C41DCE7DFF89C90DFF89CA0C7
S21440C160DFF88CB0BC42D4D03E1BB6F5804F28BF1B
S21440C1704FF4804606F14602114628460792C847C5
S21440C180079A18B1C5F84C010446C2E795F84532FF
S21440C19013F0400301D0174CBBE70120A96F049071
S21440C1A0686F03930293172301930144009608EBAC
S21440C1B004032846D0470028EDDBAB6F0344AB674B
S21440C1C02846D84700280BDA10F59A7FC5F8AC60A9
S21440C1D0C5F8A840D6D195F84632DA07AED4D1E7AE
S21440C1E095F848325B073444BCD592E759F5400091
S21440C1F081B54000C0FEFFFF41B74000A5B94000F2
S21440C200F0B590F848320E46990789B0044617466E
S21440C2100AD52A4B984728B994F8483260F3410328
S21440C22084F8483209B0F0BD4821254B984700288D
S21440C230F8D1A36F656F8DF81C60022E1D4408BFB1
S21440C24094F846328DF81D7004BF43F0020384F81C
S21440C250463294F84032C4F84471C4F84861A3B1F9
S21440C26094F850328BB10023049303930293022236
S21440C27015238DE80C00294607AB48222046114D71
S21440C280A84700280CDA1048CCE723462846152253
S21440C29002210E4EB047BDF81C30A5F805300720E9
S21440C2A0A36F0344A36794F8483243F0020384F82C
S21440C2B048322046014B9847B4E700BF81B540005E
S21440C2C041B74000A5B94000C0FEFFFF61A840004E
S21440C2D02DE9F04F93B000250446029280F8545260
S21440C2E02C22DFF8CCB2DFF8CCA2894607A8294634
S21440C2F09846D847029B616A1E680A960B964D225E
S21440C3004820D047CDF80CB007460790CDF804A09B
S21440C310002800F0068348222946D847B8F1020F85
S21440C32023D8944D099828B1934B616A4B2298477D
S21440C33000230993079828B18F4B616A4D2298478E
S21440C34000230793089E4EB10E9B13B130468B4B8D
S21440C35098474A22616A884B304698472046884B21
S21440C3609847284613B0BDE8F08F864D05A909EBDF
S21440C3700600A847F31C0A93059BB3F5804FAB46CF
S21440C380CFD803339845CCD1DDF814A00C9DBAF134
S21440C390000F76D10D954A22616A019B4FF4517089
S21440C3A0984706460890002800F0BB820123002DDF
S21440C3B084F8543206DD55460D9B012B00F38B80E6
S21440C3C0002DAFD1DDF834800223B8F1000F84F899
S21440C3D054324FF0000500F32781109B0BB1002D1F
S21440C3E0A0D10323B8F1000F84F8543240F3B4814F
S21440C3F04B22616A019B4FF480709847074609902C
S21440C400002800F09182726EFF2A00F377815E4B1F
S21440C410316E9847736E0022FA5494F844325806A8
S21440C42010D4D4F888206AB1716E306E574B984756
S21440C43040B9574BD4F8881030469847554B00289B
S21440C44008BF1D46F36940F20622934200F0D481AD
S21440C45040F28522934240F07481D4F85C724FF0EB
S21440C4600008CDF81880002F40F04B8104F5177275
S21440C4700A212046484B9847002800F04681474D01
S21440C4805FE1082D25DC0A9800F1030AAAEB0603B3
S21440C4909845FFF446AF06A94844D847069ACDF8D3
S21440C4A028A002EB0A039B1B9845FFF43AAF07EB24
S21440C4B0C5035A6009EB0A0347F83530069A02EB83
S21440C4C00A030A93059B033B9B1A013505930C957B
S21440C4D05AE7334D26E703F1FF380E9BCDF83C80F4
S21440C4E007EBC80B6BB9636ADBF8042057F83810C3
S21440C4F02C4D3046A847D4F88432C6F83033012352
S21440C5000E9394F844222368274D9B6A82F040029B
S21440C510C2F3801200213046A84794F8449219F09E
S21440C52040090FD1F36940F20622934218D040F2F8
S21440C5308522934206D1B4F95832002B6FDB7268DD
S21440C5409A426CD300286DD196F8EF32A3BB0025F3
S21440C5500A4B3046984700230E93CDF834802BE79D
S21440C560B4F95A32002B02DB72689A42EAD20F4D77
S21440C5704FE000BFB8FEFFFFC1F74000FD18400087
S21440C58045B240004FA8400059854200CDB7400014
S21440C5909DB84000BEFEFFFFC9B14000AAFEFFFFA7
S21440C5A090FEFFFF41184000F11C400066FEFFFF72
S21440C5B055874200B9F74000B9F1000FC7D123684C
S21440C5C006F53171986AA54B98470028BFD10DF102
S21440C5D0480AA34D4AF8309D636ADBF804100522EA
S21440C5E05046A847051EFFF69DAE069BDBF8042086
S21440C5F057F8381018689B4B9B4D984720684B4619
S21440C60002225146806AA847012805469FD0002846
S21440C6109DD0119B002B9BD111951D4698E76FF43A
S21440C620CC75F6E70546F4E70E9B0F955BB9636A53
S21440C6308E4D97E806003046A847D4F88432C6F8B0
S21440C640303301230E9394F844222368884D9B6A26
S21440C65082F04002C2F3801200213046A8470546C9
S21440C66028B120F008038C333AD10123109396F872
S21440C670F3320BB394F88331012B0AD194F8443249
S21440C680DF0606D5B6F8F43213F0200F08BF6FF475
S21440C690C07594F88431012B07D0D4F8843123F444
S21440C6A07F0323F47F43032B06D1B6F8F43213F00E
S21440C6B0800F08BF6FF4BF7596F8F6325BB194F8FA
S21440C6C0443213F0100F96F8F7320DD013F0030FE4
S21440C6D0684B08BF1D46109B4BB1C4F84C5121E631
S21440C6E0236A002BC3D1C0E713F0050FF0E794F898
S21440C6F0473243F0100384F847326EE60023037057
S21440C7008BE694F86032002B6AD17368D4F85C22CA
S21440C7103068594F06A9B84700287FF4B0AE0123C9
S21440C72084F860326DB994F84432590609D4534BB4
S21440C730D4F85C029847B4F958329842B8BF6FF4C0
S21440C740CC7530464E4B002798470E974A22616A72
S21440C7504C4B304698470897109B13B1002D7FF4FA
S21440C760E1AD042384F854323222616A019B2C20C6
S21440C77098470646002800F0D480039B2C220021D0
S21440C7809847119B002B00F0A080002D08BF1D4647
S21440C79094F8447217F040071FD105F19703022B17
S21440C7A0236A34BF4FF02D084FF02A08002B00F0C4
S21440C7B0BE800C9B099AB561F3613762F260E2690C
S21440C7C07261079AB26273627760236A314638466E
S21440C7D09847002800F0AB803D46C4F84C5177E0BF
S21440C7E0294B38469847D4F88422616A274B384606
S21440C7F0984784F860823FE6D4F87872002F51D18B
S21440C80004F51E7225212046214B984707460022F4
S21440C810204BF069114698470346002F7FF42FAE11
S21440C820D4F878221C4F96E80300B84700287FF4D7
S21440C83026AE012384F88232002D82D194F8443209
S21440C8405A063FF57EAF154BD4F878029847B4F9B0
S21440C8505A22134B9042B8BF1D4672E76DEF400018
S21440C86051EE400059854200A5F040004118400076
S21440C870F11C40007EFEFFFFBD1240008D87400049
S21440C880FD184000C1F74000058740008D864000F7
S21440C890C9B14000814C4000054B4000654C40000B
S21440C8A066FEFFFF94F882326BB13846264B9847B7
S21440C8B03846264BD4F88422616A984700230746B8
S21440C8C084F88232A3E71F46A1E7002D7FF460AFCD
S21440C8D094F8440243060ED505F5B573012B0AD8E5
S21440C8E00023C4F84C3110F010051EBF042384F812
S21440C8F04D32002501E0002DF5D094F8403223B1AA
S21440C9000A9BD4F83C2213440A933222104B616AA5
S21440C910304698470523029A84F854320A9B13609F
S21440C92000E56FF07C05FDE46FF07C0502E5094B01
S21440C930424602212046984794F8463243F0020386
S21440C94084F8463249E700BF01434000B942400000
S21440C950C1F7400001C2400070B590F85062D0F870
S21440C96038421568034636B90A220221174B9847C3
S21440C9706FF4BA7070BD90F88101012818D193F811
S21440C980450210F0200001D0B3F87C01D3F83C6299
S21440C990201A801B002816DB1CBF49192D18354469
S21440C9A01CBFC3F89400C3F890101560002070BDFB
S21440C9B0022806D193F880010A280CBF00200820E0
S21440C9C0E4E70020E2E7024870BD00BF01C2400035
S21440C9D0B8FEFFFFF8B54368044690F8840183F834
S21440C9E05201D4F874012B4B9847656858B104231C
S21440C9F085F85131636894F8BC0083F852010120F1
S21440CA0082420AD8F8BD2046234B984718B10423E3
S21440CA1085F85131F3E70223FAE70B18D4F87C6225
S21440CA2013F8015C082D0ABF00230B5C1D46B6F5C3
S21440CA30807F0ED1092B2BD1666896F85271032F52
S21440CA4009D1092386F852316368062283F85121BA
S21440CA50F8BD092BF0D0666896F852719F4203D015
S21440CA60082B0ED1012F0CD1022D02D186F852315F
S21440CA70F8BD042D0CD186F85151626882F85231C7
S21440CA80F8BD94F884311BB994F8823186F8513158
S21440CA900230B5E7E9A84000BDA840002DE9F04FB8
S21440CAA090F845B242681BF0040B87B0044618BFA6
S21440CAB090F8F0B0002A00F0EE807B49B2F800A073
S21440CAC08847DA440AF1270A8946002800F0C180E0
S21440CAD0578827B10637BFB20FB1BB1C9A4494F8AB
S21440CAE040320AF109080BB10AF14F084146204688
S21440CAF06E4B98470646002840F0A780A36F656FA8
S21440CB001D445146234601222846DFF8BCA1D047A3
S21440CB1094F874316B7294F87531AB72B4F8743122
S21440CB20A4F8763194F85232A3B905F10B0A2022C4
S21440CB305146A0695E4B9847002840F0AF80A368F6
S21440CB405146143305F12B0251F8040B43F8040BFD
S21440CB509142F9D185F82BB0DFF870A1BBF1000FF8
S21440CB6079D004F1D00194F8F02005F12C00D0479C
S21440CB7094F8F0102C3163681B886A18180A6854B9
S21440CB80537001F1020B616805EB0B0031F8042B82
S21440CB90D04763681988594401236B5494F8463249
S21440CBA04A1C13F0100318BFDD230231AB54002F8C
S21440CBB05AD06B183A0A6A5420465F708A1CC84797
S21440CBC0E8B163685B88D3B1AB180020A8540D2247
S21440CBD05A7063685B8802339BB20A1DA8181F0A06
S21440CBE0AF54437063688A1D5B88A8181F0AAF5409
S21440CBF0437001F10802636859888E422DDB94F831
S21440CC004032002B32D0561F616A2A4B0D223046E6
S21440CC1098470746002843D03246691DD047002330
S21440CC200493039301230293162329460193009607
S21440CC303B4642462046204DA8470D220646616A9E
S21440CC401E4B38469847002E19DA304607B0BDE8E6
S21440CC50F08F074643E72C218DE73344013693F89F
S21440CC603031AB540132C6E70A46C8E72946424649
S21440CC702046134DA84706460028E6D146460923D7
S21440CC8084F84E32A36F1E440E4BA667204607B06C
S21440CC90BDE8F04F18476FF4B976D6E70646D4E7B6
S21440CCA06FF07C06D1E700BFBDA8400041B740000A
S21440CCB01D834000B9F74000A5B94000C1F74000C9
S21440CCC0C5B2400081B5400085A840005985420065
S21440CCD090F87531C1F307218B4282B01DD31AD923
S21440CCE090F845329A0718D590F851228A4214D8BF
S21440CCF041B961F3041361F3451380F8453280F877
S21440CD00751108E0012902D16FF34513F5E70229B2
S21440CD10F5D00329F3D0002000E0014802B0704768
S21440CD20BAFEFFFF2DE9F347222B04460F469146F5
S21440CD309846166801D884482EE08B5BADF80430E0
S21440CD400199824B984738BBA268B31C3B443432A7
S21440CD5003F1200153F8040B42F8040B8B42F9D13F
S21440CD6023681B681A78032A06F1220A17D15B78D3
S21440CD70032B14D106F11A0007227549754B384427
S21440CD80984760B9BB1993F8213043B92F22022146
S21440CD902046714B9847714802B0BDE8F087A368BB
S21440CDA017F80A2083F87420A06890F87420202A88
S21440CDB006F1230503D9002380F87430BBE78AB117
S21440CDC002F123039845B6D37919654B54309847FA
S21440CDD0A36893F874301D4494F8453243F0080332
S21440CDE084F84532C6F103032B449845A3D37B19F8
S21440CDF0795D5A7884F84C2284F84B12997894F8E6
S21440CE004632EA1C19B1D8064ED5DD2905D0D906DA
S21440CE1044BF6FF3041384F84632931B9845C9F811
S21440CE2000205AD994F87411032903D194F8751147
S21440CE3000293BD14644C9F800604EE003297FF6FE
S21440CE407AAFB818BB5C407840EA0320931C07EBE7
S21440CE50030C17F803E09CF8013043EA0E2303F175
S21440CE60030E8E4500B202F10402BFF664AF1728E7
S21440CE7018BFD218A6EB03030B4408BF012599B28E
S21440CE8026E0A36804F1F102753304F2211152F84A
S21440CE90040B43F8040B8A42F9D1324B204698479C
S21440CEA0062384F84D3277E72F4875E702339845D6
S21440CEB0FFF441AFBB18B95C5B786A1D43EA0121B9
S21440CEC0961B0E44B045FFF436AF00254FF6FC7671
S21440CED00029B3D1C9F800203DB994F849329A07E1
S21440CEE044BF6FF3410384F84932022384F84D323D
S21440CEF094F8403233B1D9F80030D4F83C22134489
S21440CF00C9F8003094F84532184D13F0040F15D088
S21440CF101B070DD5A0680F4B202204F1D0015430DA
S21440CF20984728B92046A8470028AAD0104833E793
S21440CF3094F845326FF3820384F8453220462B46F8
S21440CF4002B0BDE8F0471847B8FEFFFFD1CC40001E
S21440CF507CDE4200F984420001C24000BAFEFFFF78
S21440CF6059854200E9FA40000AFEFFFF71EA400098
S21440CF700CFEFFFF2DE9F04F8FB09946189F1368BF
S21440CF80DDF864B0FB185B4504460E46154607932D
S21440CF9000F26D8490F840320BB1D0F83C320693E4
S21440CFA0B9F10C0F00F0BF802CD8B9F1030F00F098
S21440CFB09B8009D8B9F1000F78D0B9F1020F00F084
S21440CFC08B80DFF824A319E0B9F1040F00F09480B9
S21440CFD0B9F10B0FF5D194F871319A0700F14B84F3
S21440CFE043F0020384F8713194F84432D80666D58B
S21440CFF094F87031190762D46FF4BA7A50460FB07D
S21440D000BDE8F08FB9F1140F00F0A18027D8B9F130
S21440D0100D0F00F09280B9F10E0FD2D194F8713115
S21440D020990600F1288443F020039A0784F871316A
S21440D03008D494F88321043A022A03D994F9472263
S21440D040002AD9DA1B073AD494F88731012B36D018
S21440D05094F88331012B32D0072B30D0CCE7B9F18E
S21440D060160F51D0B9F1370FABD194F872315A0739
S21440D07000F1018494F845124AB2002AA4BF43F056
S21440D080040384F8723194F84432D80605D54B0729
S21440D09003D494F871319806AED5002A0FDA94F886
S21440D0A0723143F0040384F8723108E094F870312A
S21440D0B0D90700F1E08343F0010384F8703194F817
S21440D0C04F320C2B51D1B9F1000F4ED00A2202211B
S21440D0D02046824B98478FE794F870311A0700F144
S21440D0E0CA8343F00803E8E794F87031D80600F1A5
S21440D0F0C28343F01003E0E794F87031990600F1DC
S21440D100BA8343F02003D8E794F871315A0700F108
S21440D110B28343F00403980784F871317FF56CAF0F
S21440D1201907CCD568E794F871311A0700F1A38344
S21440D13043F0080384F871315AE794F87131D80601
S21440D14000F1998343F0100384F87131B7E794F8FF
S21440D1507231D80700F18F8343F00103590784F8F2
S21440D1607231ACD46FF4C47A48E7B4F8443223F44E
S21440D170FF4323F06F039BB2102B38D194F84D3207
S21440D18013B9B9F1020FA1D194F84432D9063AD472
S21440D19094F84E32BBBBB9F1010F97D194F84532A3
S21440D1A0DB0903D0B9F1010F00F06983D4F84C31A4
S21440D1B06C332FD1B9F1160F00F26183DFE819F016
S21440D1C026005F03860052005F035F035F035F0332
S21440D1D05F035F035F03190320019C0037035F036F
S21440D1E05F035F035F035F034C035F031F0348F265
S21440D1F010029342C8D1B9F10E0FC5D194F84D3202
S21440D200012BC1D862E7B9F1000FC7D167B1DFF88B
S21440D210DCA0F3E62968324B3A463144204698472C
S21440D22082460028C6D0E9E694F840323BB12B68E7
S21440D230D4F83C2213449B45C0F025832B6094F8D9
S21440D240443213F0100F254B06D10A220221204605
S21440D25098476FF49C7AD1E664220121204698478D
S21440D260824645E3022F2B68D1D9F25AADF82020EA
S21440D270D2B2991CFE2A296025D19DF8212002F0C1
S21440D280FD02FD2A1FD103332B60725C22B1D11CF4
S21440D2908F42BCD313442B60012384F84D32069B47
S21440D2A0079A134498462B68984500F0F08294F904
S21440D2B04532002B04DB322202212046074B98479A
S21440D2C0DFF82CA09AE6DFF82CA097E63146054E0C
S21440D2D03B462A462046B047C2E700BF01C2400050
S21440D2E0EDB2400025CD400076FEFFFFB8FEFFFFC2
S21440D2F060FEFFFFBAFEFFFFD5F80090002F86D0F5
S21440D30009F101032B6016F809104A1C9742FFF4F6
S21440D3107EAF194429602046B84B9847D8B1C9F12A
S21440D32002030B449F42FFF472AF7218735C92F88C
S21440D33001A002314AEA032AA1EB090353449F4263
S21440D3402960FFF464AFAE4B5246314420469847BE
S21440D3502B6853442B602B68981CA0EB09018F4226
S21440D360FFF455AF06EB030EF25C9EF801302860E2
S21440D37043EA022211448F42FFF449AF4FF6FE7053
S21440D380DAB9D4F8B43093B31B6883B3D4F8B83062
S21440D3906BB31B685BB394F84432012262F301031B
S21440D3A084F8443294F84032002B3FF478AF2B6830
S21440D3B0D4F83C2213442B6071E72B68991CA1EBF0
S21440D3C0090E7745FFF423AF06EB030A16F803C0B1
S21440D3D09AF8013043EA0C239E44774501D22960EF
S21440D3E015E71944C31A134429609AB2C8E7204681
S21440D3F0844B98470028D5D094F844320222CDE793
S21440D4004FF0000A1822804B84F854A2514608A8D0
S21440D410984794F884318DF8343002238DF83530AF
S21440D42094F883312A680A92082B0B9240F0DB81ED
S21440D430032F02D8DFF8F4A14FE2531C0A93B35CE3
S21440D440032B40F0CA81B318D11C9B780A91103B3D
S21440D450092B00F2C5816D4830F91380B8F1000FF2
S21440D460C0F2BE81C4F8688216F8019004320A926F
S21440D47009F104029742DDD3D4F874B2BBF1000F31
S21440D4801BD104F51D7225212046614B98478246E4
S21440D490002840F02282002211465E4BDFF890A121
S21440D4A04046984703460A98D4F874224946304482
S21440D4B0D04790B1DFF87CA10FE294F87122002AA1
S21440D4C0E9D05846544A9047D4F88422616A534B70
S21440D4D05846984784F871A2D9E701230A9984F8F8
S21440D4E0713284F8543294F883314944023B0A91AD
S21440D4F0062B00F27881DFE813F007007601010280
S21440D500010201027601070094F94732002BC0F26F
S21440D510F5810B9AA1EB020A1FFA8AFA40F20C43F5
S21440D5209A4587D82046354B9847C8B1C2F1020382
S21440D530C8188742FFF47EAF705C06EB010E0828E1
S21440D5401CBF8DF835009EF801009DF835E018BFE9
S21440D5508DF83400881CBEF1040F0A9000F09B81C1
S21440D5606FF0840AB9E1A368C4F89C9003F11402F2
S21440D570343352F8041B40F8041B9A42F9D1A3688E
S21440D580D4F8982003F134012032543351F8040B78
S21440D59042F8040B9942F9D1D4F898000B99204BE5
S21440D5A052463144403098479DF83430092B08D1D4
S21440D5B09DF83430012B3FD0032BD1D194F88232E2
S21440D5C03FE0184B052098474822C4F8A400616AFB
S21440D5D0B8470346C4F8A000002800F07C81D4F881
S21440D5E0A4200092D4F89810D4F89C200E4F052022
S21440D5F0B84782460028DBD06FE100BFBDA8400098
S21440D600D5C94000A5A840005587420060DE4200CC
S21440D610C9B14000814C400001434000B94240003F
S21440D62059854200D14C4000A94D4000B8FEFFFF4E
S21440D630054B4000A0FEFFFFD4F85C3223B194F8BF
S21440D6406032002B40F05A81DFF81CA345E194F984
S21440D6504732002B3BDB099B7BB92B22616ABDF826
S21440D6603000B34B98470990002800F0BF800A99D5
S21440D670BDF83020AF4B314498479DF83430012BED
S21440D68017D0032B7FF46CAF0023049303930293CD
S21440D690D4F878320193D4F8A4300093BDF8302003
S21440D6A0D4F8A0300999A44E2046B047824670B1BF
S21440D6B013E1D4F85C32BDF8301009989F4E08AAA2
S21440D6C0B047B0F1000AC0F20881ADF832A003239B
S21440D6D084F8543294F88331023B062B00F2838060
S21440D6E0DFE803F0048114141481040094F94732EF
S21440D6F0002B0BDB0A9BBDF8302013440A939DF8A1
S21440D7003430012B17D0032B7FF42AAF042384F840
S21440D710543294F8403223B10A9BD4F83C22134446
S21440D7200A9305230A9A84F854324FF0000A2A6076
S21440D73084F84D32D1E02046814B984700283DD0B2
S21440D7402B22616A7A4B4FF40070984706460028B1
S21440D75000F0C1809DF83530D4F8A010D4F8A4204D
S21440D760022B26D0042B0CBF4FF4CF730023304639
S21440D770744FB847BDF8323098421CD1089BD3B19D
S21440D780B0F5007F0246314628BF4FF40072184677
S21440D7906D4B98476D4B002814BF9A464FF0000AD1
S21440D7A02B22616A6A4B30469847BAF1000FADD0DB
S21440D7B093E05823DBE7DFF894A1F1E7BDF8322089
S21440D7C0242A07D1089828B1D4F8A0105E4B984771
S21440D7D000289BD0DFF874A17FE0DFF890A17CE0C2
S21440D7E06FF4AF7A79E0DFF888A176E06FF07C0AD4
S21440D7F07BE031463B462A462046564E6BE5032F95
S21440D8007FF605AD2868544B0130286008A930449F
S21440D81098472B6803332B60089B04339F427FF462
S21440D820F6AC7122022120464C4B9847EFE4062383
S21440D83084F84D3294F8403223B12B68D4F83C2219
S21440D84013442B6094F845325A077FF528AD6FF3A2
S21440D850820384F8453222E5002301933146CDF811
S21440D86000B03B462A4620463D4EB047F8E4DFF837
S21440D87004A1FFF7C3BB6FF4C57AFFF7BFBB6FF4D5
S21440D880997AFFF7BBBB6FF0830AFFF7B7BB4FF041
S21440D890000AFFF7B3BB03449F42FFF4CBAD06EB51
S21440D8A0000E335C9EF80190043149EA03290A9140
S21440D8B0891A49448F42ADF83090FFF4BBAD0AF167
S21440D8C040092B22616A1A4F4846B847C4F8980068
S21440D8D000287FF448AE6FF07C0A099828B11C4BAC
S21440D8E0616A2B2298470023099320461D4B984790
S21440D8F0BAF1000F3FF4D3ACFFF780BB022384F8A5
S21440D900543294F88331023B062B3FF66CAF01A2AB
S21440D91052F823F04FD64000E7D74000CFD640001D
S21440D920CFD64000CFD64000E7D740004FD6400085
S21440D930B9F740005985420019AC4000198D4000A7
S21440D940BDA84000B9174000F9844200B6FEFFFF6C
S21440D950C1F74000D1C240004FA8400001C240007D
S21440D960D9B8400045B24000C4FEFFFFA2FEFFFF0C
S21440D9708AFEFFFFCAFEFFFF2DE9F04FD0F84C515C
S21440D980ABB0044665B125F004026FF4A3739A4227
S21440D99002D015F16C0F5FD1002302931D4600E0C4
S21440D9A0029594F84A32052B00F25183DFE813F0D3
S21440D9B00600100064007400CE00C50194F945329C
S21440D9C0002B1ADB05212046C64B9847051E43DB35
S21440D9D094F94532002B10DB216EA26D0A440531C6
S21440D9E01068C4F86A011279216694F86D1184F8BB
S21440D9F06E2142EA0122A4F8682194F86B1194F84B
S21440DA007421914205D194F86C1194F87521914295
S21440DA101AD094F84422D50603D494F85322022A06
S21440DA2012D9B4F8442202F40472B2F5047F03D14A
S21440DA3094F85222032A07D9002B80F20B8394F8DD
S21440DA406A31162B40F00683B4F8682144F2464308
S21440DA509A4205D96FF4AA7528462BB0BDE8F08FD8
S21440DA6094F86A31143B032B00F2F6820025022319
S21440DA7084F8415284F84A3294F94532002B06DB4A
S21440DA80B4F86811974B20469847051EE4DB0323FD
S21440DA9084F84A32236E029394F84032002B52D0D8
S21440DAA094F84132002B4ED194F88111B4F8683185
S21440DAB094F88521012915D1B4F87C11B3FBF1F017
S21440DAC001FB103058B9013294F845028A4238BFFB
S21440DAD00A46800600D50A44934280F0E1826FF4FD
S21440DAE0BB75B9E70229F7D194F88011B4F87E21C6
S21440DAF00A29F1D00832EFE7012184F84C1094F857
S21440DB008011012957D11146A06C774EB0470023AB
S21440DB1084F84C30002D40F0D48294F845329F066D
S21440DB2008D594F88131012B01BF236EB4F87C21CF
S21440DB309B18236694F88131022B04D194F88031E7
S21440DB400A2B40F0C082042384F84A3294F84032CC
S21440DB50002B00F0EF8094F84132002B40F0EA8032
S21440DB6094F88171A66D236EB4F8685194F86A11E2
S21440DB7094F88581012F1E4440F0C78094F84522D2
S21440DB8012F0200718BFB4F87C71EF1B7B1E12F012
S21440DB90100216F803907DD009EB080297420CDC81
S21440DBA001238DE80A00E56BA7EB0803324606A979
S21440DBB02046A84785E24D4DA9E7A3EB0903334429
S21440DBC04FF0000A184613F8012B89EA02024AEA87
S21440DBD0020A1A1A9145F6DABAF1000FE0D1A7EB1D
S21440DBE00905013DA5EB0803039301238DE80A00D0
S21440DBF0E56B039B324606A90D372046A847A7EBA0
S21440DC000803A7EB0907373BA7EB080713F03F01CC
S21440DC10A7F1380718BF012117F03F0218BF0122AD
S21440DC200490402093FBF0F597FBF0F70D44174423
S21440DC30ED1B0ED094F88231042B0AD10EAF2C4B3C
S21440DC4038469847D3463B465D4511DC3846294B17
S21440DC509847039A00231644984513DCBAF1000F00
S21440DC6040F02F82049B002B40F02B8201234FE094
S21440DC70184605934022204B214698470BF1010B4E
S21440DC80059BE1E706A9F25CC95C4A404AEA020AFB
S21440DC900133E1E7013DA5EB0805A94588BF91465C
S21440DCA0A5EB090A4FF001030DF1380B8DE80A0089
S21440DCB098BF174659463246E56B5346204688BFBE
S21440DCC00127A84700210A460AEB0605904515DCC1
S21440DCD0002940F0F681002840F0F381002FC5D09F
S21440DCE0EFE100BF79B64000CF044000C8FEFFFF1A
S21440DCF0ADA74000BDA74000A1A54000AB5C1BF807
S21440DD000260734019430132E0E717B30023994697
S21440DD1094F88121022A16BF4B44B4F87E3143441E
S21440DD20C4F83C32B4F86831C4F83832012384F879
S21440DD3041320025052384F84A3294F86A31143B70
S21440DD40032B00F28981DFE813F0E2003E01240055
S21440DD503701A5EB080901230DF1380A8DE80A00C2
S21440DD6032465146E56B4B462046A84739463A462A
S21440DD7009EB0605904505DC002940F0A281002805
S21440DD80C4D09EE1AB5C1AF802607340194301327E
S21440DD90F0E794F94532002BC0F2B680D4F874010F
S21440DDA0AF4B98470546002840F07681A368A76D9C
S21440DDB0D4F85C90216E04F16008B3B90B1D994508
S21440DDC007EB0100236667D37D5CA64B0EA90130A6
S21440DDD098470E9BCDF8049000932B464246394612
S21440DDE02046A14DA84705468EE0DA68A9EB010615
S21440DDF0002A58D10B1D994507EB010023664BD3EB
S21440DE007D5C984B01300EA998470E9844F61E0349
S21440DE10984243D8331F98423BD9A36883F8A5500D
S21440DE20A3680430D8602122904B616AA568984761
S21440DE302860A3681868002832D0216E8C4B0439BD
S21440DE40324639449847A3681E61236E043B1E44FD
S21440DE5026660025236EE16D00228B4284F84A2216
S21440DE6080F01C81029AB4F868119A1A8A42BFF46C
S21440DE7098AD052284F84A2294F84022002A3FF4BE
S21440DE8090ADD4F83C229342C0F0DE809B1A2366C5
S21440DE9087E58DE80102A0E7764DDDE5764DDBE5CA
S21440DEA06FF07C05D8E5186906EB000E7245C0F0A9
S21440DEB0F3801B683246394418446D4B9847A26835
S21440DEC0136933441361236EA1681E4426660869AD
S21440DED0CB689842BDD12AAA2E4642F8705D91F88A
S21440DEE0A530096801900438009004315E4D204604
S21440DEF0A847A368616A0546212218685F4B984781
S21440DF00A3681E60A368DE60002DA2D0A4E594F846
S21440DF1072315E0700F1DB8094F845124AB2002A5F
S21440DF20A4BF43F0040384F8723194F84432DD060B
S21440DF3006D5480704D494F87131990640F1CF804D
S21440DF40002ABEBF94F8723143F0040384F872315D
S21440DF5094F8403263B194F850324BB1236ED4F803
S21440DF603C221344B4F868212366D31AA4F86831D7
S21440DF70B4F86821012A7FF46DAD236E84F8402200
S21440DF8001332366022120463D4B9847054600282C
S21440DF907FF462AD94F844323A4A13F0100F3A4B8D
S21440DFA018BF1A4694F84532DB067FF552AFE16853
S21440DFB0364B2046984716E704F16002A16D344B75
S21440DFC0204698470FE794F85632A06DE66D013329
S21440DFD0DBB2042B84F8563200F28480226E931C07
S21440DFE09E4202D26FF0830536E5511C2166825C64
S21440DFF02366022A405C08BF94F84612C4F83C01E7
S21440E00008BF41F002011546C4F8402108BF84F815
S21440E010461228B994F8461241F0040184F8461294
S21440E02094F8401229B1D4F83C120B449E42D9D3FE
S21440E0302366022A08D020B96FF4AB75C4F84C5159
S21440E0400AE533287FF406AF6FF49C7504E56FF459
S21440E050967501E50F4DFFE46FF49B75FCE400BF39
S21440E060E9A840004FA8400075CF4000B9F74000EF
S21440E07059854200CEFEFFFF6CFEFFFFC1F7400011
S21440E08051EB400074DE420078DE42002DFA40003C
S21440E09059C94000BAFEFFFF144DDDE41546DBE4E7
S21440E0A094F8451201F0400101F0FF0549B9A26D10
S21440E0B0206E84F84C1094F84D10024400297FF4EA
S21440E0C01BAD0B4DC8E4236E083323663BE56FF467
S21440E0D0C57594F94532002BFFF63AAFBCE46FF4B1
S21440E0E0BA75F6E76FF4D575B6E400BFB8FEFFFF25
S21440E0F0C8FEFFFF2DE9F0471F46D0F84C31914649
S21440E1006FF4A17293420446884601D06C3302D124
S21440E1100023C4F84C31D4F84C511DB16FF4A373AE
S21440E1209D422CD194F84F320C2B05D02046214BE3
S21440E13098470128054622D1DFF884A0D4F8946099
S21440E14006B34E453546A8BF4D462A46D4F89010ED
S21440E150194B404698474FB9D4F894305B1BC4F8E7
S21440E1609430D4F890302B44C4F89030D4F89410BF
S21440E17029B994F8683013B12046104B9847284682
S21440E180BDE8F0872046D04700280546C4F84C0135
S21440E190D4DA6FF4AB7398420AD010F59A7FEED17A
S21440E1A094F846329B07EAD06FF4C673C4F84C31F5
S21440E1B03546E4E759F540005985420049B34000EA
S21440E1C079D9400090F84B3290F84C02CC2B05D1D0
S21440E1D0AB38022894BF002001207047C02B1DD1C9
S21440E1E0142806D8132801D20A2801D801207047DF
S21440E1F0FCE7A12808D8A028F8D2372802D0F5D9BD
S21440E2003A28F3D100207047AC28EFD0EED8A43897
S21440E2100528EBD8F6E7AE380728FAE7132BE5D003
S21440E220AB28F8D8A828EDD22C28EBD0DED38C38F3
S21440E2300128EEE7F0B500218FB004461C2280F896
S21440E2405412594B0DEB0200984794F88331012B3A
S21440E25003D0082B1CD0554D3DE0D4F85C32002B43
S21440E26000F0778194F86032002B00F07281012331
S21440E2704FF4007584F854320A954722616A4C4F31
S21440E2802846B847089000284CD16FF07C0522E01D
S21440E29094F88731002B3DD0D4F87862002E00F0F9
S21440E2A0588194F88232002B00F053813369002B5A
S21440E2B000F04F812521616304F1300220463D4B3A
S21440E2C09847054638B93246216B3B4B204698471F
S21440E2D005460028CBD0A2685368926800261A44A8
S21440E2E0934240F03A81A36808989E6020B1472246
S21440E2F0616A324B98470896099828B12F4B616A55
S21440E3000D2298470023099320462D4B98472846D0
S21440E3100FB0F0BDD4F87462002E00F01A8194F865
S21440E3207132C0E794F88321A368012A0AD0082AEC
S21440E33091D19D60411C0AAA206B224B9847B8B1E8
S21440E340214DC8E75968A069204B2E2202319847D4
S21440E35005460028BFD1A36894F876215B681A70FA
S21440E360A36894F877215B685A70A36830229A6055
S21440E370022384F8543294F88331A068012B29D0C4
S21440E380082B7FF468AFD4F87452D4F8781294F817
S21440E3908761426800F10803002E08BF2946206BBB
S21440E3A00B4DA84725E000BF558742008AFEFFFF79
S21440E3B0B9F74000C9B1400051AC4000C1F7400039
S21440E3C045B24000DD4940009EFEFFFF1D834000F1
S21440E3D0FD4040000023049303930293D4F85C323C
S21440E3E001930AAB00934168089B5D4D302220465E
S21440E3F0A847054600287FF46EAF032384F85432BE
S21440E40094F88331012B08D0082B7FF424AF089B67
S21440E4100A9A1A700A9B01330A93042384F85432EA
S21440E42094F8453213F0100F94F8833176D1022BCE
S21440E4300CBF02260026082B72D0053B012B98BF46
S21440E44000260A9B94F84022093333440C930AB1C1
S21440E45046330C930C99434B2046984700287AD174
S21440E460A36F606F0A99404D1844079023461022C8
S21440E4703144A8470798002E54D00A9B8372C3F3B2
S21440E480072242720B250A9A0899384E2844B0470C
S21440E49094F8403273B10A98616A053828440D9062
S21440E4A00D22B847099000283FF4EFAE07990D9A21
S21440E4B00531B047052384F8543294F84032002B97
S21440E4C032D0012302931623002601930D9B00931E
S21440E4D00C9A099B0799264D049603962046A84712
S21440E4E00D220546616A0998224B9847B54209961F
S21440E4F0FFF6F1AE0C95A36F0C9A1344A36794F8FD
S21440E50048329B0619D500251B4B204698470A23C0
S21440E510002818BF054684F84E32DCE602268AE715
S21440E52000268EE70925AEE7144D0C9A079920463B
S21440E530A84705460028DED0CDE62046104B984733
S21440E54005460028DFD06FF4A37398427FF4C3AE2D
S21440E550DAE70C4DBFE60546BDE61E700133BFE662
S21440E560EDAB400041B7400085A8400059854200C9
S21440E570A5B94000C1F7400035ED4000C5B24000A7
S21440E58081B54000C4FEFFFF2DE9F347D0F8B83010
S21440E59005468846002B4FD01B68002B4CD00A21DE
S21440E5A000F1300741633A46DFF8B890C847044662
S21440E5B0C0B902AE2A6B46F8040DD5F8B800224C16
S21440E5C0836800683146A047824678B9286B1F4B5F
S21440E5D09847041E06DBB5F958329C422FDBA8F854
S21440E5E000405446204602B0BDE8F0873A46696B84
S21440E5F0174B28469847252169633A462846C84718
S21440E60004460028EED10190D5F8B800114C836836
S21440E6102A6B00683146A04704460028E2D10E4BDC
S21440E620286B9847B5F95A3298420BDB286B0B4B50
S21440E6309847A8F80000D5E76FF49E74D2E76FF4C9
S21440E640CC74CFE7064CCDE7E51140008D874000FF
S21440E65089B14000412C4000654C40006D4C400064
S21440E66066FEFFFFC9B140002DE9F041044690B078
S21440E670002580F85452AA4B2822294606A89847D7
S21440E68094F8443203F00303022B4ED04FF48063D9
S21440E6900D9394F8403213B140F246430D930D99D2
S21440E6A0A04B20469847054640BB636FA26FE16883
S21440E6B013440127069384F85472343120469A4B0B
S21440E6C098470546D0B90FA92046984B9847054627
S21440E6D0A0B9069B0B904FF0090843444FF40070D6
S21440E6E0CDF828800893C4F89C002B22616A904E8F
S21440E6F0B047C4F89800E0B96FF07C05079800264C
S21440E700C4F8A060C4F8A46020B12B22616A894B8B
S21440E71098470796099828B1864B616A0D22984714
S21440E720002309932046844B9847284610B0BDE8FE
S21440E730F081E3684833C4F8A0302023C4F8A430FE
S21440E740636B0A2B40F0B8808DF83E707B4A2046BB
S21440E75090471346B0B19DF83E106268012992F882
S21440E7605101089A01D0032901D11070517002223C
S21440E7700B92626892F85121022A00F0A880042A7F
S21440E78000F0AD809DF83E20012A40F0B080242263
S21440E790C4F89C204FF400720C9220469847A0B1D3
S21440E7A06368D4F8980093F85131D4F8A010D4F8A0
S21440E7B0A420022B00F09980042B0CBF4FF4CF739B
S21440E7C000235F4FB847C4F89C0008990B9ABDF8E1
S21440E7D03C3088181F0A8F544370022384F8543202
S21440E7E0636B252B40F09680236B0193A3690093BF
S21440E7F0D4F89820D4F8A410D4F8A000514F04F1CF
S21440E8009C03B847636B0A2B40F086800A9A0699A9
S21440E810236BA069019011440B9A08910232009331
S21440E8200A440C9BD4F89C10D4F89800464FB8473E
S21440E830002871DD0C9003230A9A84F85432069B14
S21440E8401344626B0893252A13D1D4F89C100B9876
S21440E8508AB21F18ADF83C20120A1A5479700B98E9
S21440E860089BD4F89C20D4F8981002301844374BB4
S21440E8709847636B462B14D1D4F89C2008980B9984
S21440E88093B24718ADF83C301B0A43547A700B9845
S21440E890089BD4F89C20D4F89810023018442B4B90
S21440E8A09847636B0A2B55D00698042384F8543255
S21440E8B0002876D1264D21E7252B03D103238DF85A
S21440E8C03E3043E7462B08BF8DF83E803EE7E26881
S21440E8D03432C4F8A0201422C4F8A42052E7E268D8
S21440E8E04832C4F8A0202022F6E7582369E7082AD1
S21440E8F07FF473AF154BD4F8A420D4F8A010D4F806
S21440E90098009847D4F8A430C4F89C304FF400736D
S21440E9100C935AE7002075E700288CD00546EDE6B4
S21440E9205587420041B7400061B9400089E5400044
S21440E930B9F74000C1F7400045B24000BDA84000CE
S21440E940B9174000094540004191400059854200B2
S21440E950B8FEFFFF079B276B73B92B22616A0C98A2
S21440E960B047079000283FF4C7AE0B99089B0C9A17
S21440E97002311944374B98476368039793F85131EF
S21440E98002939DF83E300193D4F89C3000930C9A45
S21440E990D4F898300799304F2046B8470028BDD164
S21440E9A082E70B99BDF83C700231234639440F226A
S21440E9B02A4FB8470B98BDF83C300B30184494F8B3
S21440E9C040320D906BB105380E900D22616AB0470B
S21440E9D0099000283FF490AE06990E9A1D4B0531DB
S21440E9E09847052384F8543294F8403233B30123D1
S21440E9F0049302931623002701930E9B009340F244
S21440EA004642099B0699164E03972046B0470D226C
S21440EA100646616A0998134B9847BE42099716DB2B
S21440EA200D96A36F0D9A1344A36794F848329B063D
S21440EA303FF564AE20460C4B98476FE70D9A069913
S21440EA400A4E2046B04700287FF468AFE9E73546CF
S21440EA5054E600BF598542008DAB400085A8400073
S21440EA60A5B94000C1F7400081B54000C5B240009E
S21440EA7010B590F84432DB06044605D494F84B3281
S21440EA80CC2B06D12F4810BD2F4B98470128F5D0E8
S21440EA90F8E7C02B53D194F84C32072B24D0112BD7
S21440EAA0F0D102210122002384F88211082184F843
S21440EAB0802184F8813184F8831184F884211422DB
S21440EAC084F88521282284F88621102284F887310C
S21440EAD0A4F87821A4F87A31A4F87C3194F87431FB
S21440EAE0032B0FD0002010BD0123022284F8803172
S21440EAF084F882210023082284F8832184F8813117
S21440EB000322DAE794F87531002BEBD094F84522CF
S21440EB1042F0100284F84522012B0C4AE263E1D908
S21440EB2094F84522032B42F0200284BFD3B243F030
S21440EB30400384F8452288BF84F84532D2E7132B39
S21440EB40CCD09FE70CFEFFFFC5E1400049FD4000EA
S21440EB5002292DE9F843064622D0032924D001296C
S21440EB607ED100F14004002596F88031012B6ED10D
S21440EB7096F84492D6F82480B6F87871C9F300190E
S21440EB80BCB1236833B91F2241464FF484703F4BD3
S21440EB9098472060236863B96FF07C00BDE8F8832F
S21440EBA000F148050024DFE700F1400400F1480585
S21440EBB0DAE7002D58D02B6833B91F2241464FF470
S21440EBC08470324B984728602B68002BE4D0002C8A
S21440EBD04CD16FF00102414628682D4B984710B142
S21440EBE04CE0002DF5D1B9F1000F19D0002C49D0DA
S21440EBF03A4606F5E4712068264B9847C5B13A4632
S21440EC0006F5F4712868234B98478CB901236B713D
S21440EC10F4B90020C6F82802C6F82C02BDE8F883EE
S21440EC2084B13A4606F5F47120681A4B98472DB9D8
S21440EC3001236371002DE9D154B905E03A4606F543
S21440EC40E471DFE7002DF9D10020BDE8F88324B158
S21440EC500023C6F83032C6F83432002DD9D1F3E757
S21440EC606FF0AC00BDE8F883002CBCD06FF001021A
S21440EC7041462068064B98470028B2D06FF0B50052
S21440EC80BDE8F883002DBAD1DEE700BFB9F74000F3
S21440EC901B0540007D0440002DE9F84390F8813183
S21440ECA0022B05460F4602F0010802F002063DD050
S21440ECB090F885914446B8F1000F05D04A4600F5D5
S21440ECC0C4701B4B98474C4636B139194A4605F531
S21440ECD0D470174B98474C44B5F87891B8F1000F6C
S21440ECE006D039194A4605F5E470114B98474C440E
S21440ECF036B139194A4605F5F4700D4B98474C44E1
S21440ED00B5F87A91B8F1000F06D039194A4605F59C
S21440ED100270074B98474C442EB14A46391905F5C0
S21440ED200670034B98470020BDE8F8830024D3E7DD
S21440ED3059854200004B1847D9FB4000437802787B
S21440ED401B0443EA0263C2788078134343EA0020F8
S21440ED507047000010B598B191B1002A10DBB2F5AB
S21440ED60804F28BF4FF48042074CA047002809DA5E
S21440ED706FF4A17398420CBF18464FF0FF3010BD99
S21440ED806FF0AC0010BD00BFF5E0400010B588B095
S21440ED901446064B6A469847206020B96846044B9E
S21440EDA0984708B010BD0020FBE700BFE94C400084
S21440EDB03DED400008B1014B1847704711AA40008E
S21440EDC038B5054608B9002038BD4FF42270094BC7
S21440EDD0984704460028F6D000222946064B984716
S21440EDE0002804DA296B054B20469847EBE7204677
S21440EDF038BD00BF010C420081AF400085B44000E2
S21440EE0010B538B131B1002A04DB044B984740EACC
S21440EE10E07010BD6FF0AC0010BD00BFD1C0400028
S21440EE2010B4034C0023A4465DF8044B604700BF73
S21440EE3055ED400058B190F84432DB0603D521B971
S21440EE4000F5C47070470029FAD100F5D4707047B9
S21440EE502DE9F8430E46144699460546E8B10B2A76
S21440EE6098BF124B01F1140898BF9F56104B40466E
S21440EE7088BF03279847286098B1424600210D4B2B
S21440EE8098472B6803F11402DC601F61C3F80490B6
S21440EE901A609E600020BDE8F8836FF0AC00BDE8C5
S21440EEA0F8836FF49770BDE8F88300BF83DE4200B6
S21440EEB0010C42005587420038B50446A0B10068B0
S21440EEC090B1C368012B06D0002505608560074BCE
S21440EED09847256038BD0368826800211A449342EB
S21440EEE0F2D019700133FAE738BD00BFC50C4200B6
S21440EEF010B5044660B1C26A064B0B21984704F130
S21440EF005000054B98472046044BBDE81040184734
S21440EF1010BD00BFE519400025A84000C50C4200C2
S21440EF2038B505460D4B60209847044658B10C4B03
S21440EF3060220021984704F150000A4B984720B1C0
S21440EF402046094B9847002038BD8023A4F85C3003
S21440EF501C23A4F85E30E562204638BD010C420012
S21440EF605587420021A84000F1EE40002DE9F041CF
S21440EF700E46054618B900242046BDE8F081002913
S21440EF80F9D00846114B984705F150078046104B7C
S21440EF903846984704460028EDD10B23B8FBF3F0DB
S21440EFA003FB1080DFF8308055F820501DB93846F6
S21440EFB0084B9847E0E7142205F134013046C04735
S21440EFC008B1AD6CF2E70124F1E700BF3DED40002B
S21440EFD029A840002DA84000F9844200F8B5134BFC
S21440EFE0054608460F4698470B23B0FBF3F404FB50
S21440EFF0130415B900242046F8BD05F150063046E6
S21440F0000B4B98470028F5D155F82440094D1CB9BC
S21440F0103046094B9847EEE7142204F1340138464F
S21440F020A8470028F4D0A46CF1E700BF3DED4000AF
S21440F03029A84000F98442002DA840002DE9F04759
S21440F0408946054618B900242046BDE8F08700F1F9
S21440F05050084046104B98470028F4D1DFF840A0AF
S21440F0602F1F283557F8046F00242EB9AF420FD112
S21440F07040460A4B9847E7E7002CF9D106F12001B5
S21440F08014224846D047002808BF3446B66CECE702
S21440F090002CE7D0ECE700BF29A840002DA8400090
S21440F0A0F98442002DE9F74F07461D464FF451704C
S21440F0B06D4BD1F800808A46914698470446002812
S21440F0C000F0C580FB6AD8F80820D8F80010674ED4
S21440F0D0B047674E3B462A4605212046B04706467F
S21440F0E08DB1E36940F2062293422CD040F285224D
S21440F0F0934208D1B7F95C30002BC0F2A580626815
S21440F1009A42C0F0A18076B994F8EF3223BBB9F1A9
S21440F110010F2AD104F5317B59463846554B98475E
S21440F120002800F097802046534B98472046534B84
S21440F13098475046524B9847002E08BF0126304607
S21440F14003B0BDE8F08FB7F95E30002B02DB626893
S21440F1509A42D8D24B4EE6E7012BDBD1B9F1010FEC
S21440F160D8D0B4F8F4325B07D4D46FF4B276DAE78A
S21440F170E3696B60A3681BB12368EB6063682B6030
S21440F180E36E1BB1636E2B61236E6B6194F8F132B4
S21440F190AB7294F8F032EB72E36AAB61236BEB61CF
S21440F1A005F13400594603460BF1140251F804EBBE
S21440F1B043F804EB9142F9D104F1340305F12002FF
S21440F1C004F1480153F804EB42F804EB8B42F9D1C2
S21440F1D094F8F332002B2DD0B4F8F4322B81002370
S21440F1E0AB6423602366E3622363274B984707F1AB
S21440F1F05002019025490092104688478346E0B960
S21440F200019B009A0B21B3FBF1F001FB103057F83D
S21440F2102030AB6447F820501D4B104698473B6C57
S21440F220002B80D04A46D8F80810D8F800009847F7
S21440F2305E4678E74FF6FF73D0E7F96A154B2846E7
S21440F24098476FF069066EE76FF4CC766BE76FF021
S21440F2507C0674E7F86A104B98470546002887D125
S21440F2606FF497765FE700BF010C420041184000FC
S21440F270D92A40006DEF4000FD184000C50C420002
S21440F280B9EE400066FEFFFF3DED400029A8400075
S21440F2902DA84000A51940007919400038B5114CFA
S21440F2A0236833B11048114B984778B16FF0690026
S21440F2B038BD0F4B984788B90E480F4DA8470028D1
S21440F2C0F4D10948A8470028ECD0EFE72368064861
S21440F2D001332360094B9847012038BD6FF0E300A7
S21440F2E038BD00BF281C0020241C002029A8400050
S21440F2F00DA840002C1C002021A840002DA840004E
S21440F30070B5114B1B6805460E4653B90F4B9847D0
S21440F310012806D00DB9002070BD28460C4B9847F2
S21440F320F9E7002DF7D06C200A4B98470446002892
S21440F330F3D032462946084B98470028204602DA42
S21440F340064B9847E7E770BD281C00209DF240001A
S21440F350C50C4200010C420021A94000B5ED40001A
S21440F3600021014B184700BF01F34000CB0714D5DE
S21440F370012380F83430002380F835308B0744BFB3
S21440F380012380F836300B0741BF002380F8363023
S21440F390012380F83730426570470029EED10123BB
S21440F3A080F8353080F83410E8E7000070B5044641
S21440F3B0002800F0BC8090F84432D90602D44FF0C2
S21440F3C0FF3070BD836F6BB15A4B9847C4F84C0101
S21440F3D00028F4D1D4F8643123B994F8523201337A
S21440F3E084F8523294F852320A2BE8D8DFE803F019
S21440F3F006101F363940474E58626A0020464E4B2C
S21440F4009847C4F84C010028D9D1012384F85232D9
S21440F41094F84532494E13F0040F14BF07250625CD
S21440F42094F84D329D4208DC022384F8523294F818
S21440F4304832DD0612D5012070BD2046B047002870
S21440F440C4F84C01BBDB072DEAD194F845325A0785
S21440F450E6D4DB090CBF06250125E1E7042384F842
S21440F460523294F84432980736D1052384F8523203
S21440F47094F84532590737D5062384F8523294F823
S21440F48044329A0738D1072384F8523220462C4B10
S21440F4909847C4F84C01002891D1082384F852328A
S21440F4A02046284B9847C4F84C01002887D10923AA
S21440F4B084F85232214D94F84D32062B24D90A2333
S21440F4C084F85232A36A33B3E16A2046984700284C
S21440F4D021DAC4F84C0172E720461B4B9847C4F823
S21440F4E04C010028C1D06AE72046184B9847C4F81C
S21440F4F04C010028C0D062E72046154B9847C4F818
S21440F5004C010028BFD05AE72046A8470028C4F838
S21440F5104C01D0DA53E794F94532002B8BDB94F854
S21440F52049325B0787D420460A4B984783E76FF0FB
S21440F530AC0070BD81B540009DCA400079D94000FE
S21440F540B5BB400059BC400049BD400035E24000D4
S21440F55069E64000B5B4400090F84432DB0601D579
S21440F560024B18474FF0FF30704700BFADF34000E6
S21440F5702DE9F74F0446002094F8443201905A078C
S21440F58014D494F8450210F008000FD0A0686D4ED1
S21440F59001AA20215430B04705460198B04628B904
S21440F5A069486A4B984720B16FF0690003B0BDE8E0
S21440F5B0F08F0B23B5FBF3F703FB17574FF4B273EB
S21440F5C07B43634DEE58721CEA5094F8452212F085
S21440F5D0400F03F131024FF0740303FB06235ED164
S21440F5E0A2682B4402F17501A53251F8040B43F88A
S21440F5F0040B9142F9D14FF4B27909FB07F04FF072
S21440F600740909FB060994F8493205EB0902C3F36D
S21440F6104003A2F86230A16809F1100201F15403D8
S21440F6202A4401F1740E186859689446ACE8030001
S21440F630083373456246F6D14FF4B27B0BFB07FBAB
S21440F6404FF0740AA3680AFB06BAAA4493F87430CB
S21440F6508AF83030D4F86031CAF80C303D4B9847C1
S21440F660019ACAF80800002A63D105EB0B014B68E3
S21440F67001334B6055F80B30032B01D145F80B2076
S21440F68094F84432DB0616D44FF4B2737B437427A7
S21440F69007FB063635440023A5F8643049E004F1FC
S21440F6A0F1022B4404F2211152F8040B43F8040BE8
S21440F6B08A42F9D19FE7B4F824110029E4D04FF4E8
S21440F6C0B27303FB07F2742303FB06232B4404F5B3
S21440F6D0937AA3F8641009F16600B4F824211E4B0F
S21440F6E0514628449847B4F8241101AA5046C047CA
S21440F6F0019CF4B90B22B0FBF2F302FB1300142278
S21440F7001649424300EB80008B585D1C034402338D
S21440F71001EB020E21F8237001EB8303032D5E807C
S21440F720DEF804308D5003F10103CEF8043000D1EA
S21440F7308C5005480A4B984700287FF435AF01980F
S21440F74034E700BF8DED40002C1C002029A8400067
S21440F750D80C002091B2400059854200FC0B002096
S21440F7602DA8400038B5044600B390F8B0303BB101
S21440F77090F8835225B9B4300E4B984784F8B05071
S21440F78094F8B13033B10B4B04F1C40098470023D2
S21440F79084F8B13094F8B23033B1064B04F1B80077
S21440F7A09847002384F8B230012038BD6FF0AC0093
S21440F7B038BD00BFB9EE4000004B1847010C420070
S21440F7C0004B1847C50C42002DE9F04F89B09B46C8
S21440F7D0139C159E0790A319802B88469246DDF809
S21440F7E05890179D069300F2E480532229468020C5
S21440F7F0734B98470390002800F0DE80224612990B
S21440F800704FB847039B149932461819B847B9F158
S21440F810030F2BDDB9F1080F08BF4FF00409684C01
S21440F820482229462020A04748222946074620202D
S21440F830A0474122064629464FF48C70A04704460E
S21440F84037B106B1A8B94822294638465E4B984794
S21440F8505D4F1EB1482229463046B8471CB141226A
S21440F86029462046B8476FF07C085EE04FF0040912
S21440F870D5E7B9F1040F0CBF202314230193019A56
S21440F880B8FBF3F3029302FB13830CBF4FF002095D
S21440F8904FF00109049313B1029B01330293189A67
S21440F8A04A4B2946204698478046F8B9DFF82481D7
S21440F8B05B46524649462046C047804698B9069A17
S21440F8C00399DFF814912046C847804658B9394610
S21440F8D02046DFF808B1D847804620B905908246D2
S21440F8E0029B53452AD12046394A904707F12001CA
S21440F8F03A460020914253D106F12001324600207C
S21440F9008A4250D104F58C71224600208A424DD15D
S21440F9103846482229462C4FB84748222946304682
S21440F920B847412229462046B847532229460398DD
S21440F930254CA047404609B0BDE8F08F019A3946AD
S21440F9402046C84750BB069A03992046C84728BB5E
S21440F95031462046D84708BB029B5A1E5245079B55
S21440F960059A03EB020008D1049B33B11A46314690
S21440F970144B98470AF1010AB2E7019A114B3146F7
S21440F9809847059B019A3946134420460593C84735
S21440F99020B939462046D8470028EBD08046A2E713
S21440F9A010700132A6E710700132A9E710700132DC
S21440F9B0ACE76FF08308BDE76FF07C08BAE700BF9E
S21440F9C0B9F7400059854200C1F740004950400011
S21440F9D06D504000394E4000454F4000A14F40001A
S21440F9E070B50D4614460646C8B1C1B1BAB11368E3
S21440F9F0232B14D90B4B984778B196F88231042BB9
S21440FA0001D9082B09D1F068074B2946CC309847D6
S21440FA1038B920232360002070BD2423FAE76FF016
S21440FA20AC0070BDBDA84000E1A740002DE9F047FE
S21440FA3004468AB0242088461746616A214B0990BE
S21440FA40482298470646002838D0014609AA20464C
S21440FA501D4B9847054640BB04221C491C4B384664
S21440FA6098471C4F1C4BD4F80890DDF824A000287B
S21440FA7018BF1F462046194B98470546A8B1D4F8EC
S21440FA8084320693636A059394F8823104930F2375
S21440FA900193134DCDF80CA002960097302309F140
S21440FAA075020C214046A84705464822616A0D4B20
S21440FAB03046984728460AB0BDE8F0876FF07C0588
S21440FAC0F8E700BFB9F74000E1F940008FDE42009A
S21440FAD09D914200AFDE4200BFDE4200BDA840001E
S21440FAE0C9F74000C1F740002DE9F04F482290F892
S21440FAF08551B0F87891B0F87A81416A304B9DB024
S21440FB000446E02098470746002855D02D4BA66867
S21440FB102046984794F882310993636A0A930DF118
S21440FB20300ED4F884320B93844606F13403F24602
S21440FB3006F1540B18685968524603C208335B45B1
S21440FB409246F7D106F114030DF1500A06F1340B34
S21440FB5018685968524603C208335B459246F7D147
S21440FB60BCF1000F19D00B9B06930A9B0593099B8B
S21440FB70049340234D4403930D2305EB0801019362
S21440FB80114B0093114DCDF808E0302306F1750275
S21440FB9049003846A847054628B903223946204634
S21440FBA00B4B984705464822616A0A4B38469847A9
S21440FBB028461DB0BDE8F08F6FF07C05F8E700BF23
S21440FBC0B9F74000BDA8400093DE4200C9F74000A8
S21440FBD099EC4000C1F740002DE9F04F84689BB097
S21440FBE063680993224BD4F80880054698470AAFC5
S21440FBF095F88231D5F824E0D5F884C2814604F1E0
S21440FC001402BA4604F1340B10685168564603C6CF
S21440FC1008325A45B246F7D104F134020DF1480A8B
S21440FC2004F1540B10685168564603C608325A45CC
S21440FC30B246F7D1B9F1000F13D004934023039393
S21440FC400D2301930B4B009304F17500CDF818C0BB
S21440FC50CDF814E002974346099A074C3021A04756
S21440FC6010B92846054B98471BB0BDE8F08F00BF3B
S21440FC70BDA84000A1DE4200C9F74000E9FA4000B6
S21440FC8058B190F88231022B05D0042B0CBF0220CD
S21440FC904FF0FF307047012070476FF0AC00704760
S21440FCA02DE9F041069F0C46164698460546002824
S21440FCB044D0002942D0234B0D22002120469847AD
S21440FCC095F94532002B36DB47B3D5F82C22D5F8CC
S21440FCD02812501C8242C5F82C0202D94B1CC5F88B
S21440FCE028320B0E23700B0C63700B0AA370130E96
S21440FCF02371130C6371130AE170A371E27184F8E7
S21440FD00088095F87431637295F87531A372C6F31E
S21440FD100723E37226730020BDE8F081D5F834222D
S21440FD20D5F83012501C8242C5F83402D9D94B1C43
S21440FD30C5F83032D5E700221146D2E76FF0AC0066
S21440FD40BDE8F081558742002DE9F043CDB08846A6
S21440FD5091461E46559F0546002837D0549B1D4C5D
S21440FD600097324602A9A047D5F88422696A1A4B02
S21440FD7006A89847044628BB184B28469847394655
S21440FD800446174B2846984721460246154C95F898
S21440FD90853106A8A047044688B90D2202A906A8C0
S21440FDA0114DA847044650B93246494606A8A847CA
S21440FDB0044620B9414606A80C4B9847044606A878
S21440FDC00B4B984720464DB0BDE8F0836FF0AC042F
S21440FDD0F8E700BFA1FC40004950400081FC4000CD
S21440FDE035EE4000394E4000454F4000A14F4000A0
S21440FDF06D50400013B50B220146084B042098472F
S21440FE00044638B103238DF804308DF80530019947
S21440FE10034B9847204602B010BD00BFB9F74000DC
S21440FE2009A940000020014B184700BFF5FD4000DF
S21440FE302DE9F04F85B04FF000098B4692461F469D
S21440FE400392C8464C46264B039E1B78B6F57A7FEF
S21440FE50A8BF4FF47A760021012BC7F8CC1102D107
S21440FE600320204B984732464B460BEB040138465E
S21440FE701D4DA847C21C28D1D7F8CC31002BC8BF8F
S21440FE80E418002C16DD08F1010842461749009692
S21440FE901748184DA8471648174B9847B8F1320FE1
S21440FEA00BDD1649164B124898471148154B984794
S21440FEB04FF0FF3005B0BDE8F08FAAEB0403039384
S21440FEC020464FF001090446BDE7431CF2D0039B91
S21440FED0D7F8CC019B1B20440393F4D1EAE700BF3C
S21440FEE0A8D90120598C4100C1B14100CFDE420063
S21440FEF07CB00120798B4200713D420008DF420011
S21440FF00DD8F4200053E42001846014B184700BFB1
S21440FF1081B24100F8B51D4D1D4C06460F460146C0
S21440FF202868A04708B9002F27D01A493046A0476E
S21440FF30002823D1184B9847184B01209847184B58
S21440FF40984740B11749184B18489847184B1748D8
S21440FF509847184B98470020174B984740B1174989
S21440FF60114B12489847124B10489847114B9847E8
S21440FF7000210120124B98472E60F8BD11493046AB
S21440FF80A0470028F4D1104BF1E700BF7C94012035
S21440FF90098D42004DDF42005D6442006D644200C0
S21440FFA01D65420053DF4200DD8F42007CB00120D9
S21440FFB0053E4200E1A441009965420085DF4200CB
S21440FFC0598C4100B8DF4200F1D2410008B590F8A4
S21440FFD03530DB0709D5054B04309847044B0146BE
S21440FFE004489847044B03221A6008BD3D3241003E
S21440FFF0C58B4200BC9401201000002070B5002143
S214410000374C384B8CB0084698472368022B4FF044
S21441001000031CD105930693334B0293334B019354
S214410020002306AA05A900933148324D07ABA847DD
S2144100302F48314B98472E48304B314998472368D3
S2144100402B48022B49D12F4B98470CB070BD0BAEB5
S2144100502D4D089309930A930B9309AA0AAB08A955
S2144100602A480096A8470B9A9DF8203028480096C3
S21441007043EA02630A9A120402F47F021343099A7E
S214410080120292B21343059309AA0AAB08A9A847DC
S2144100900B9A9DF82030009643EA02630A9A1D485F
S2144100A0120402F47F021343099A120292B21343D6
S2144100B0069309AA0AAB08A9A8470B9A9DF82030CF
S2144100C043EA02630A9A120402F47F021343099A2E
S2144100D0120292B2134307939EE70F4B9847B4E739
S2144100E010000020FD104100FD0F4100A17B4100A2
S2144100F0809401206D3F4100D53F41004940410079
S214410100CDFF400009204100E54B420070CB012065
S214410110D4CB0120A2CB0120E13F410030B50446BB
S21441012087B000B9FEE70A4B8DF80C108DE8180031
S2144101306846084B9847084B0546984794F9083057
S2144101400933A8BF2572054B9847284607B030BDEE
S214410150510E4100B5104100E97F4100F97F410051
S21441016070B588B00023044601930D4601B9FEE7F9
S2144101700B6000B9FEE700F110063046284B984761
S21441018000B9FEE794F9080010F1090F12DBA269E5
S214410190244B01A93046984701300DD1224B984750
S2144101A094F908300933A4BFFD2323721F4B9847A7
S2144101B06FF0020008B070BD2378102B019B2CD144
S2144101C0227F120700D543B9194A02920394C3B15C
S2144101D01B89059302A8174B9847019A9AB9A36AB7
S2144101E013B10121204698470F4B984794F90830A0
S2144101F00933A4BFF42323720C4B98476FF00B00CE
S214410200D8E70123E5E71289A36A13B10121204605
S2144102109847019B2B600020CCE71B681A89F3E7BF
S214410220A97F41001D7F4100E97F4100F97F4100E0
S214410230BD0D4100B510410030B5104B87B00D469D
S214410240114698470446A8B10D4B009301900D4BBB
S2144102508DF80C506846984760B104F10C000A4B83
S214410260984704F11000094B984721460720084B50
S21441027098470024204607B030BD00BFC90A410058
S214410280490A4100B5104100C97E4100B97E41008E
S214410290B53E410010B5044686B040B1054B6846B0
S2144102A08DE81800044B98472046044B9847002099
S2144102B006B010BD2D0C4100B51041003D0B41006C
S2144102C030B5044687B000B9FEE70B4B03918DE885
S2144102D018006846094BADF810209847084B05466C
S2144102E0984794F908300933A8BF2572054B9847BB
S2144102F0284607B030BD00BFCD0C4100B5104100C7
S214410300E97F4100F97F410073B504460E4601B9C5
S214410310FEE700250D6000B9FEE710301A4B9847FE
S21441032000B9FEE72378102B27D10620174B0195FD
S2144103309847054670B9164B984794F908300933E3
S214410340A4BFFF232372134B98474FF0FF34204638
S21441035002B070BD204601A90F4B9847044620B114
S214410360294606200D4B9847F1E7019B2B60019BE0
S2144103706B60A881A8603560E9E720463146064BA8
S21441038098470446E3E700BFA97F4100853E410008
S214410390E97F4100F97F410061014100B53E4100DE
S2144103A030B5044687B000B9FEE70A4B03918DE8A5
S2144103B018006846084B9847084B0546984794F9F5
S2144103C008300933A8BF2572054B9847284607B021
S2144103D030BD00BF610D4100B5104100E97F4100CD
S2144103E0F97F41002DE9F04186B016460C9F044640
S2144103F000B9FEE70278102A00D0FEE74EB3027F2E
S214410400920702D413F0040802D027B34FF0010834
S214410410124A8DF814306846114B03918DE814004A
S21441042004969847054628B927B1B8F1000F0ED073
S214410430049B3B600B4B984794F908300933A8BF9F
S2144104402572094B9847284606B0BDE8F0813E60C4
S214410450F0E73546F7E76FF00505F4E7050E41008E
S214410460B5104100E97F4100F97F41000321014B6E
S214410470184700BF1D014100F0B50E4687B007463C
S21441048000B9FEE701B9FEE701AD002128460E4B53
S214410490984704468DF8030098B90DF103030122ED
S2144104A0059302A9094B0A48029703960495984773
S2144104B02146084B284698472846074B98479DF9BA
S2144104C00340204607B0F0BDB57D410051104100C4
S2144104D0B10E4100357E4100C97E4100D36821B945
S2144104E0FA2119709068044B184700201870536819
S2144104F009681960F6E700BF157E41002DE9F0470F
S21441050017461D46BDF82090064628B100F1100852
S2144105104046154B984720B93846144BBDE8F0473E
S21441052018470620124B984704460028F4D0076027
S214410530476005B12D68A560A4F80C902146404659
S2144105400C4B3D899847014620B120460A4BBDE8F1
S214410550F0471847B36A23B12A463046BDE8F0470C
S2144105601847BDE8F08700BFA97F4100854141009B
S214410570853E4100F57E4100010F410010B54468BB
S2144105800B4B01462046984720460A490A4B984756
S21441059020460A490A4B984720460A490A4B0422F4
S2144105A09847204609490A4BBDE81040184700BF06
S2144105B001464100B5094100054641006109410037
S2144105C00B4641000D09410019464100D505410041
S2144105D00F4641002DE9F041044600260F46224BC6
S2144105E046609847214B27729847A36A657866709C
S2144105F01BB13246042120469847A36A1BB100220C
S214410600114620469847A36A1BB100220221204684
S214410610984704F110084046154EB04718B10021DE
S2144106204046144B984704F114084046B04718B169
S214410630002140460F4B9847012D02D0033D012D26
S2144106400FD8237F23F0040213F00403227708D146
S214410650626A1771636204F10C00074BBDE8F04112
S2144106601847BDE8F08100BFE97F4100F97F4100AE
S214410670A97F4100F57E4100157E410070B50446D4
S21441068048B3436A03B11A712378102B03D112B9C8
S2144106902046124B9847207F002520F0040310F097
S2144106A0040623776562657008D00D4B984794F928
S2144106B008300933A8BF25720A4B9847A36A1BB175
S2144106C000220221204698471EB904F10C00064B31
S2144106D09847002070BD6FF0050070BD7D05410054
S2144106E0E97F4100F97F4100157E4100F8B5044697
S2144106F0037F406A256AC268816813F0020F08BF0B
S214410700077C037C6068A2EB05020CBFC7F3800739
S21441071001272944B2F5803FB0F866502ABF4FF60C
S214410720FF7292B243F00203AA423AD9002F35D063
S214410730002D38D02E4E2A46B047431CDBB2012B43
S214410740064650D8002F31D0636ADB689D422DD2D1
S214410750A36A1BB12A46032120469847237F43F0CC
S21441076010032377002E36D1236A1D44636A25621F
S214410770DA689542324600D05FB3DD6022620125D9
S21441078060681C4B984765B3636A1E7100236362B9
S214410790637004F10C00184B984722E043F00203C3
S2144107A0C8E71546C6E76FF00606CDE76368B3F8B7
S2144107B0661040F66732914203D9B3F86830042B8D
S2144107C0D0D9A36A002BCDD02A460321204698478C
S2144107D0C8E73546D4E7731C05D127B96068054B91
S2144107E098470020F8BD636A0022DA60CCE700BF74
S2144107F03D634100F9674100157E41002DE9F04116
S214410800436A1D7A032D044605F0010705F00206EA
S21441081003D100214068314B98476068037E012B25
S2144108200AD100212E4B9847032D1DD0324639461A
S21441083060682C4B98471AE037B100212A4B9847FD
S21441084000216068264B98471EB100216068274BFF
S2144108509847032DEAD100216068254B042298472A
S21441086000216068234B98476068234B984710BB2C
S214410870636A032D1871606260700DD1A36A60606F
S2144108801BB10246042120469847A36A6BB1002259
S21441089011462046984701E0002FF6D12EB1A36AB3
S2144108A01BB1002202212046984704F10C00134B4D
S2144108B0BDE8F0411847606811490C4B984760689D
S2144108C010490B4B0422984760680F49094B9847DB
S2144108D021466068014BBDE8F0411847014641009A
S2144108E015464100994C4100054641000B464100E2
S2144108F0194641000F464100414B4100157E4100DB
S214410900610941000D094100D505410010B5437804
S214410910012B04461BD1104B9847237FDA0614D58A
S214410920626892B1B2F8660040F6673188420CD9E7
S214410930B2F86820042A08D823F010032377A36A64
S2144109401BB10022022120469847002010BD042BEF
S214410950E3D1024B9847E0E7ED064100FD07410031
S21441096038B54378012B0446154619D10F4B9847A5
S21441097063689BB1B3F8661040F6673291420DD971
S214410980B3F86830042B09D8237F23F0100323776C
S214410990A36A1BB12A46022120469847002038BD4B
S2144109A0042BE5D1024B9847E2E700BFED06410034
S2144109B0FD0741002DE9F843894615461F46064680
S2144109C000282ED000F110084046194B984704469F
S2144109D060B91DB900242046BDE8F88348462989F8
S2144109E0144B98472846144B9847F4E7134B9847BF
S2144109F096F908300933A8BF3772114B984775B13D
S214410A002F89104B294640469847044660B9B36A39
S214410A10002BDFD001463A4630469847DBE72F4663
S214410A20EFE76FF00504D6E74FF0FF34D3E700BF9A
S214410A30A97F41005545410085414100E97F41007C
S214410A40F97F4100F57E410070B5002305680371CA
S214410A506B680446CBB92B7803F0F003102B1AD001
S214410A60202B22D1124B984768602268536813B9ED
S214410A70FF23237109E012780E49222A04BF01227E
S214410A801A7422680C4B5068984720680B4B0C3000
S214410A90BDE8704018470A4B98476860206843682D
S214410AA0002BE5D0074B9847EFE7FA23E1E700BF75
S214410AB079714100FD04410041714100157E4100BC
S214410AC0D94E41007D054100F8B50546154B072036
S214410AD00F469847044610B3002100F10C060172F8
S214410AE005704160104B3046984740B91021601858
S214410AF00E4B9847054640B130460D4B9847214628
S214410B0007200C4B9847002409E004F114000A4BD7
S214410B1098476570A76265622562A561257720467C
S214410B20F8BD00BF853E4100B57D4100957E410040
S214410B30C97E4100B53E4100AD7F410070B500F130
S214410B400C050446054B284698472846044B9847CB
S214410B5021460720034BBDE870401847C97E410037
S214410B608D7E4100B53E41002DE9F34700F1100569
S214410B700446254F2846B84710BB14342046B8478C
S214410B8000283BD102B0BDE8F0872378102B14D162
S214410B90019E36B1606810B131891C4B984730468A
S214410BA0D04701A92846C0470130EED12846184B08
S214410BB098472846174B9847DFE70198C847F0E71C
S214410BC0DFF85480DFF85890DFF858A0E9E7019D38
S214410BD02846FFF7C9FF686810B1B84700236B6025
S214410BE02846C04701A92046B0470130EFD12046EC
S214410BF0074B98472046074B9847C3E7064E074F93
S214410C00DFF82480EEE700BFA97F4100554541004B
S214410C10B97E4100AD7F4100817F41009D4D41003D
S214410C20010F4100854141003D0B410010B504468E
S214410C300068437883B1023B012B0DD9FB23237116
S214410C4020681D4B0C309847002833D020681B4B3A
S214410C500C30BDE810401847194B98472268516838
S214410C6079B1137803F0F003102B18D0202B05D15F
S214410C700023CB6123685868124B984723680022AB
S214410C805A602068836A13B100221146984720684B
S214410C90836A002BD4D0002202219847D0E7042350
S214410CA053700323237223685C622068064BBDE8B9
S214410CB01040184710BD00BF897E4100157E410097
S214410CC0690B410049714100FD07410070B5036859
S214410CD00446586810B9F42323710BE01A7802F0E1
S214410CE0F002102A0CD0202A2FD1A289A168174BD6
S214410CF0984720712068164B0C30BDE87040184765
S214410D005A780AB1F723E7E71846124B124D98472F
S214410D102068124BA289A1684068A8472071002824
S214410D20E8D1236803211A7F5970236812F0020F15
S214410D301A7F04D042F004021A77FB23CCE722F054
S214410D4004021A7723685C6270BDFEE7F5704100C5
S214410D50157E41007D054100094F41007D06410059
S214410D6070B5036893F9082012F1090F044606DAB4
S214410D70027120680E4B0C30BDE870401847F322D4
S214410D80027158680028F4D01B7803F0F003202B3A
S214410D90EFD1A1688B6823B90968064B9847207143
S214410DA0E7E78B89044D01F108020968A847F6E791
S214410DB0157E4100DD704100A97041002DE9F041EA
S214410DC00023037103685A6804462AB920680B4B0E
S214410DD00C30BDE8F04118471B78102BF6D18568DA
S214410DE0074F4FF6FF78454523682E4628BF4646AF
S214410DF0B1B25868B847AD1BF5D1E7E7157E41005B
S214410E0055454100036893F9082012F1090F04DAA9
S214410E10027103F10C000C4B18471A78102A10D1B6
S214410E205A780AB1FB22F3E7596841B1012159705A
S214410E300368586203681A620068044B1847F32235
S214410E40E6E7FA22E4E700BF157E4100ED064100E1
S214410E5010B504460068427812F0FD0F06D0FB2319
S214410E6023710C300F4BBDE8104018474368BBB1A7
S214410E700378102B14D1237A032B03D0022A01D1F5
S214410E80F323EDE7DB0701D5074B98472368042298
S214410E905A7023685C622068044BBDE810401847CE
S214410EA0FA23DDE7157E4100690B4100FD0741004D
S214410EB070B50346C568084A084E044603C8B0479D
S214410EC02870E36893F90030053304D0A068044BDA
S214410ED0BDE87040184770BDDD044100F124410073
S214410EE0157E410008B50620044B984720B10023E3
S214410EF0036043608360838108BD00BF853E410037
S214410F0010B5044660B1006820B1064B98470023EF
S214410F106360236021460620034BBDE81040184716
S214410F2010BD00BF85414100B53E410038B50D4674
S214410F30044600B9FEE7006808B1064B9847002210
S214410F4029461046044B9847206008B160604068C7
S214410F5038BD00BF85414100FD41410007B51E4BEC
S214410F601B6813B11D4A106898471D4E1D4D1E4CF7
S214410F7001A93046A847019B1A78052AF8D8DFE828
S214410F8002F00308161E2327986803680430984722
S214410F90EEE7D968986891F8352012F0600F14BFD3
S214410FA0124B134B984701990920A047E0E703F1FC
S214410FB0080007C80F4B984701990820F5E71969BB
S214410FC0D8680D4B9847F7E79A68D8689047F3E793
S214410FD09A68D8689047CBE7341C0020381C00201C
S214410FE0301C0020ED3A4100B53E4100E576410017
S214410FF0AD2C410095384100A13A410070B50F4BE8
S21441100006460F480D469847A0B109200D4B984714
S214411010044660B1012303708660C56001460A4BF1
S2144110200748984728B121460920084B98474FF072
S214411030FF3070BD6FF0050070BD00BFA97F410055
S214411040301C0020853E4100F57E4100B53E410002
S214411050F8B50746114B12480E4615469847C8B193
S2144110600820104B9847044688B1042303708760D4
S214411070C66001460A481DB10B4B98470020F8BD93
S2144110800A4B984728B121460820094B98474FF00C
S214411090FF30F8BD6FF00500F8BD00BFA97F4100E5
S2144110A0301C0020853E4100D17E4100F57E410046
S2144110B0B53E410030B50D4B87B004460C489847C5
S2144110C080B1002501A90A480A4B8DF804500394C3
S2144110D098476068084B29460C30984794F90800B1
S2144110E007B030BD6FF00500FAE700BFA97F4100A9
S2144110F0301C0020D17E4100357E410037B50B4B78
S21441110005460C4698470A4B0A481D600A4B102173
S2144111101C600A4B0A4C98470523009300224FF463
S214411120807308490848A04703B030BD4D38410098
S214411130341C0020301C0020381C0020957E4100C5
S214411140B57F41005D0F4100BCDF420040BA80B22E
S214411150704740BA80B2704700BA7047004B184794
S21441116059114100037B8B421FBF00230173437318
S2144111704383704730B54369048B2344651C05831C
S21441118083F8F010018B43690B444C1C048383F8AD
S214411190F02030BD028B436910B51344541C0483C0
S2144111A083F8F01010BD028B4369134410B5541CEC
S2144111B00A0A048383F8F020028B43691344541CC3
S2144111C0048383F8F01010BD028B4369134410B5B5
S2144111D0541C0A0E048383F8F020028B436913449F
S2144111E0541C0A0C048383F8F020028B4369134491
S2144111F0541C0A0A048383F8F020028B4369134483
S214411200541C048383F8F01010BD00002DE9F04112
S2144112100C461646074600B9FEE701B9FEE700222E
S2144112204FF49A711046494B98472061002800F0C8
S2144112308980627B464B12B91A6801321A601B6874
S2144112402360426862610123137062695370636967
S21441125097F82E209A7063690025DD7020683D4B13
S214411260D4F814809847C8F8040063691D725D720B
S21441127063699D72DD726369082E1D735D739D738C
S214411280DD7307D0042E05D0032E06D1237B043B05
S214411290012B02D863697A68DA60626900231374A5
S2144112A053749374D3746269137553759375D37578
S2144112B06269137653769376D37697F82E006269F1
S2144112C099B2884288BFF9181A4403F101038CBFCA
S2144112D091F82F100021102B1177EED100231946DB
S2144112E062691A440133402B82F82C10F8D100234E
S2144112F0194662691A440133802B82F86C10F8D182
S21441130063696FF07D0083F8ED006322532083F814
S214411310EC2083F8EE0083F8EF20218300236269F6
S2144113201A4482F8F0300133442BF8D1012220468A
S2144113303521094B984720463146084B98470020AF
S214411340BDE8F0814FF0FF30BDE8F081FD4141003E
S21441135014000020591141007511410095114100BA
S21441136010B5044600B9FEE7006908B1024B98473C
S21441137000232361636110BD8541410038B5446A4D
S214411380084B0546082120469847074B002204F1A2
S214411390240128469847637B0133637301236383A3
S2144113A038BD00BF651141009974410037B5054607
S2144113B000B9FEE7446A04B9FEE7636B581C0BD0DC
S2144113C03C221E33B3FBF2F34FF6FF72934228BF23
S2144113D01346002B42D0A383A36B591C0BD03C224F
S2144113E01E33B3FBF2F34FF6FF72934228BF134608
S2144113F0002B35D0E383E38BA28B9A4202D30BB109
S2144114000023A383E37B002B2CD0A36A0093E36ADB
S21441141001932BB9636A009A134043F0807301939A
S214411420A37B012B04D1164B284698470023A37370
S21441143004F124012846134B984769462846124B27
S214411440984701A92846114B98472846104B98477C
S2144114500A2120460F4B984703B030BD0123BAE717
S2144114600123C7E794F824301A0601D4FF23CDE7B9
S214411470BF2B8CBF6FF07F434FF6FF73C6E700BFAD
S21441148065274100E93E4100CD3F4100C53F41004F
S214411490E13F41006511410010B500B9FEE7028BFE
S2144114A043691344511CFF22018383F8F020002135
S2144114B0038B432B00D910BD42695C1C1344048343
S2144114C083F8F010F4E7000073B5446A204B0646F3
S2144114D00421204698470322214630461D4B984713
S2144114E00546D8B90222392120461B4B9847B18D73
S2144114F01A4B204698472046194B9847218B20691E
S214411500184BF03189B2984700964323164A216911
S2144115106068164EB0472046154B9847637B0133AB
S214411520DBB2092B98BFC3EB431263739DBF03EB3A
S2144115308203DB009BB242F210734FF4FA722846E4
S21441154003F2F31393FBF2F3638302B070BD00BF63
S214411550651141000D12410075114100A71141006E
S214411560991441001D434100DCDF4200816F410078
S214411570611341002DE9F743446A334B0646012186
S21441158020469847032221463046304B9847054629
S214411590002842D12E4FDFF8D890DFF8D8800222BB
S2144115A039212046B8472B4BB18D20469847042217
