S0130000464C4153485F53414D34452E73726563EA
S21440800080FD0120997443009774430097744300A1
S2144080109774430097744300977443000000000031
S214408020000000000000000000000000B5F4420020
S214408030977443000000000031F5420081F542008D
S2144080409774430097744300B19842009774430076
S214408050977443009774430097744300796A4200CC
S2144080609774430015564200295642003D5642003A
S2144080705156420065564200DDB64200A5B6420063
S2144080809774430097744300977443009774430073
S2144080909774430079C14100977443009774430036
S2144080A0F5AD4200977443009774430097744300BD
S2144080B09774430097744300977443009774430043
S2144080C09774430097744300977443009774430033
S2144080D09774430097744300977443009774430023
S2144080E09774430097744300977443009774430013
S2144080F0814A42009774430010B5054C237833B943
S214408100044B13B10448AFF300800123237010BD25
S214408110280A002000000000F05B44000C4B43B1EE
S2144081200C480D4910B5AFF300800C48036823B9DE
S21440813010BD0A48036833B97047094B002BF7D087
S214408140BDE810401847064B002BF5D0184700BF37
S21440815000000000F05B44002C0A0020F05B440066
S214408160000000002DE9F04186B005460F46002489
S21440817003940494ADF814400A46194903A8194BD1
S2144081809847194E4FF4FA7221463046174B984797
S214408190174B009303AB012229463046DFF8688030
S2144081A0C047224631462846124B984760B1124C8B
S2144081B03B462A46114920460A4DA8472046104BC2
S2144081C0984706B0BDE8F0810B4C3B462A460D4921
S2144081D02046044DA8472046094B9847F1E700BF84
S2144081E08C08440035914300440A0020BD8C43006F
S2144081F0F8464400656E420038B3012030EA43003A
S214408200393343000CEA4300755A4200F0B585B056
S21440821005460F46164C4FF4FA7632460021204665
S214408220144B9847324621462846134B984770B120
S21440823000233B803B88114C1BB22A4610492046FF
S214408240104DA8472046104B984705B0F0BD002378
S21440825001930293ADF80C3001AA0C4920460C4B12
S214408260984701A80B4B984700B23880E2E700BF1A
S214408270440A0020BD8C4300D96D420038B301202B
S214408280E8E943003591430039334300E4E94300CD
S214408290C92F43000D3B430010B582B0044600236F
S2144082A000938DF80430B1F9002007496846074B23
S2144082B0984704216846064B984769462046054B32
S2144082C0984702B010BD00BFDCE94300359143003B
S2144082D0396242008191430030B583B00546084676
S2144082E002AC002324F8023D2146044B9847214621
S2144082F02846034B984703B030BD00BF81B34200C9
S21440830099824000F0B583B004460026ADF806607A
S2144083100321194DA84702212046A847012120469F
S214408320A84731462046A84705212046A8470421AD
S2144083302046A84711492046114DA84711492046D6
S214408340A84711492046A84710492046A847104F3D
S214408350FB6BC3F3004302AE26F8023D314620468F
S214408360A847FB6BC3F3C053ADF8063031462046F2
S214408370A84703B0F0BD00BFD9824000389701201F
S2144083809982400036970120349701203A97012081
S214408390000E0E4010B5074C21460C20064B984761
S2144083A00648074B984721460C20064B9847064BF5
S2144083B0984710BDE0E94300D1A94200F896012055
S2144083C055A8420049AA4200A1A9420008B5024B5E
S2144083D09847002008BD00BFE1A7420008B5014B02
S2144083E0984708BD9DA7420010B5064B198809B2AC
S2144083F00548064CA047064B198809B20548A047D1
S21440840010BD00BF3497012050EA4300658140000C
S2144084103A9701205CEA430010B504490448054CED
S214408420A04705490548A04710BD00BF3497012026
S21440843050EA43000D8240003A9701205CEA430030
S21440844030B585B000200E4B9847002403940D4B62
S21440845002930194009423460B4A01210B480C4D8D
S214408460A8470C4B98470C4B98473C2300930B4B24
S214408470224621460A480B4DA847204605B030BD47
S214408480FD5F420005834000FCE94300F89601206A
S21440849085A34200FDA542001DAC410095834000E7
S2144084A0CD8340008127430030B3F0B5074631B353
S2144084B0012303700023044604F8013F204600F8D9
S2144084C0013F0133B3F5807FF9D107F2011C00204C
S2144084D003466678CD5C35442844C0B23D1895F8CE
S2144084E002E004F801EFAE700133934228BF002348
S2144084F0A445EED10020F0BD6FF0AC0070476FF0A1
S214408500AC00F0BD10B3F0B5864611B322B3057883
S2144085104478ABB101391344871C12F801CB785D1F
S2144085200444E4B23E5D7E5538550135EDB23044E4
S214408530C0B2385C8CEA000001F8010F9A42ECD1D8
S2144085408EF800508EF801400020F0BD6FF0AC0071
S21440855070476FF0AC00F0BD6FF0AC00F0BD18B1E6
S214408560C0F80411002070476FF0AC0070477047A9
S21440857030B40B68DC1C94420ED85D1CC25C012AE9
S2144085800DD10233425D012A0CD1C05C0C60003034
S21440859018BF012030BC70476FF08300FAE76FF0D9
S2144085A08B00F7E76FF08B00F4E742694B699A421D
S2144085B040DC01D00020704702690B699A423BDCE0
S2144085C003D09A4209D000207047C268CB689A42CE
S2144085D034DCC268CB689A4209D0C268CB689A42FB
S2144085E00BD0C268CB689A4211D000207047826890
S2144085F08B689A42F1DD0120704782688B689A4208
S214408600EFD142684B689A42EBDD012070478268A2
S2144086108B689A4201D00020704742684B689A4265
S21440862001D00020704700680B689842D4BF0020F5
S2144086300120704701207047012070470120704795
S21440864000B583B00023019313600D2900F2CD805E
S214408650DFE811F00E004900B600C800CF00CB009E
S2144086602E01330242024A02520285028E02AA02BA
S214408670B0F5D07F32D00BD8B0F5CF7F24D028D8F5
S214408680582840F0B2806F4B019305231360ACE04E
S21440869040F2862398420DD040F2892398420ED06D
S2144086A040F2A113984240F0A080674B0193092303
S2144086B013609AE0654B01930823136095E0644B82
S2144086C001930823136090E0624B019309231360E3
S2144086D08BE0614B01930923136086E05F4B019367
S2144086E00923136081E040F28623984240D016D991
S2144086F040F28F23984245D0B0F5247F2CD340F2E9
S2144087009123984248D0B0F5247F40D940F2922336
S21440871098426AD1524B01930923136065E040F2B8
S2144087200D23984242D00AD8B0F5027F39D0B0F532
S214408730037F5AD14B4B01930823136055E040F218
S2144087400E23984237D040F20F2398424DD1464BE5
S21440875001930823136048E0B0F5227F0DD040F225
S2144087608923984241D1414B0193092313603CE051
S2144087703F4B01930923136037E03E4B0193092397
S214408780136032E03C4B0193092313602DE03B4BD2
S21440879001930923136028E0394B019309231360A2
S2144087A023E0384B0193072313601EE0364B0193BA
S2144087B00823136019E0354B01930823136014E037
S2144087C040F20623984208D040F2852398420CD1C6
S2144087D02F4B01930923136007E02E4B0193072389
S2144087E0136002E001A92C4B9847019803B05DF84E
S2144087F004FBB0F5D97F15D009D845281CD0B0F574
S214408800CF7FF2D1254B019309231360EDE7B0F5F6
S214408810E37F0CD0B0F5237FE7D1214B01930823AB
S2144088201360E2E71F4B019309231360DDE71E4BFD
S214408830019309231360D8E71C4B0193052313606B
S214408840D3E700BFACEB4300B4EB43009CEB4300E4
S214408850A4EB4300C0EB4300CCEB4300D8EB430013
S21440886038EC430044EC430030EC430024EC430037
S21440887004EC430010EC43004CEC430060EC430037
S21440888074EC43001CEC430058EC43006CEC430093
S214408890ECEB4300E4EB430049D94000BCEA43001C
S2144088A0E0EA4300C8EA4300D4EA4300E8EA43006B
S2144088B04538632899D801A353F820F06B8A4000C6
S2144088C0EB874000EB874000EB874000EB8740009B
S2144088D0EB874000EB874000EB874000EB8740008B
S2144088E0EB874000EB874000EB874000EB8740007B
S2144088F0EB874000EB874000EB874000EB8740006B
S214408900EB874000EB874000EB874000EB8740005A
S214408910EB874000EB874000EB874000EB8740004A
S214408920EB874000EB874000EB874000EB8740003A
S214408930EB874000EB874000EB874000EB8740002A
S214408940EB874000EB874000EB874000EB8740001A
S214408950EB874000EB874000EB874000EB8740000A
S214408960EB874000EB874000EB874000EB874000FA
S214408970EB874000EB874000EB874000EB874000EA
S214408980EB874000EB874000EB874000EB874000DA
S214408990EB874000EB874000EB874000EB874000CA
S2144089A0EB874000EB8740007F8A4000938A400078
S2144089B0EB874000578A4000EB8740004D8A4000D6
S2144089C0EB874000EB874000EB874000EB8740009A
S2144089D0EB874000EB874000EB874000EB8740008A
S2144089E0EB874000EB874000B18A4000618A400038
S2144089F0898A4000EB874000EB874000758A40003C
S214408A00EB874000A78A4000EB874000EB8740009A
S214408A10EB874000EB874000EB874000EB87400049
S214408A20EB874000EB874000EB874000EB87400039
S214408A30EB874000EB874000EB874000EB87400029
S214408A40EB874000EB8740009D8A40006A4B0193CD
S214408A5003231360C9E6694B019303231360C4E6FE
S214408A60674B019303231360BFE6664B01930823CD
S214408A701360BAE6644B019303231360B5E6634B79
S214408A80019303231360B0E6614B01930323136005
S214408A90ABE6604B019303231360A6E65E4B01935F
S214408AA003231360A1E65D4B0193032313609CE60A
S214408AB05B4B01930323136097E6742807D0752811
S214408AC07FF493AE574B0193082313608DE6564BC5
S214408AD001930823136088E692287FF486AE534BB2
S214408AE001930423136080E64F287FF47EAE504BFC
S214408AF001930823136078E64A2826D00AD84828E7
S214408B0019D01DD847287FF470AE4A4B01930823EE
S214408B1013606AE64F281DD0972807D04E287FF46A
S214408B2064AE454B0193082313605EE6434B0193C6
S214408B300423136059E6424B01930823136054E61E
S214408B40404B0193082313604FE63F4B01930823A5
S214408B5013604AE63D4B01930823136045E6B0F5A3
S214408B60257F7FF442AE3A4B0193092313603CE6DF
S214408B7040F2B51398420DD040F2C91398420ED039
S214408B8040F2A11398427FF430AE324B0193092352
S214408B9013602AE6304B01930923136025E62F4BDA
S214408BA001930923136020E6BE281AD009D8BC28B2
S214408BB012D0BD287FF419AE294B019306231360CB
S214408BC013E6BF2812D0B0F5E87F7FF40EAE254BF3
S214408BD001930923136008E6234B01930623136091
S214408BE003E6224B019306231360FEE5204B0193D8
S214408BF006231360F9E500BF44EB430024EB430033
S214408C0050EB430038EB430040EB430098EB430007
S214408C104CEB430090EB43008CEB430078EB430077
S214408C2094EB430028EB430030EB430048EB430013
S214408C301CEB43007CEB430084EB430054EB4300C7
S214408C4058EB430060EB430068EB430070EB430097
S214408C50F8EB430080EC43008CEC430098EC430078
S214408C6004EB4300F0EA4300FCEA43000CEB43000D
S214408C7014EB430000B583B0002102AA42F8041D5D
S214408C80074B9847002807DB019B002B08BF6FF077
S214408C90840003B05DF804FB6FF08400F9E700BF82
S214408CA049D940002DE9F8431646089A002B62D071
S214408CB00F469846002A61DD002962D0002E63DD0B
S214408CC00B782E2B63D0B24264DC411E012902D9B8
S214408CD00020BDE8F883012821D098F800302E2BDC
S214408CE03DD0DFF8D49017F8015BC8472844437856
S214408CF003F00303012B08BF203518F8014BC84783
S214408D002044437803F00303012B08BF2034A542D8
S214408D1043D1013E002EE6DC0120BDE8F88398F8FA
S214408D2000E0BEF12E0F0BD0BEF1400FD5D044462A
S214408D300021013114F8015F402D14D08A42F8DC3E
S214408D40402B15D0BD183B460021013113F8014F8A
S214408D50402C25D0AB42F8D1BEF12E0FC1D1B61A69
S214408D6037441646BDE78A42EADD002CB9D1E7E72C
S214408D703B46002116E00020BDE8F8830020BDE811
S214408D80F8830020BDE8F8830020BDE8F883002083
S214408D90BDE8F8830020BDE8F8830020BDE8F883EE
S214408DA08A42D9DD5F1C0131761ABEF12E0FD6D02D
S214408DB0002E96DCBDE8F883A9844300F0B50E6823
S214408DC000241460771C9F421FD88519845D14F0D8
S214408DD0800F08D12046C419A3421CD30F60002838
S214408DE01EDD1060F0BD04F07F0407EB040E7345F3
S214408DF00ED39CB134440444002015F8016F46EA73
S214408E000020A542F9D17746E5E76FF08300F0BD34
S214408E106FF08300F0BD6FF08300F0BD0F60002060
S214408E20F0BD000070B582B0069E1468651CB54261
S214408E3012D80195045D8C4211D11D461446334626
S214408E406A4601A9094EB04700280BDB0098286007
S214408E50019B236002B070BD6FF08300FAE76FF0AD
S214408E608B00F7E76FF08B00F4E700BFBD8D400046
S214408E70F0B583B007460D461446009313460A469F
S214408E800221144EB04700281CDB216800291BDD58
S214408E902A68BB5C83B9012918DD01322A60236841
S214408EA0013B2360002B13DD2B68FB56002BACBF29
S214408EB06FF08B00002005E05BB2002BB4BF6FF074
S214408EC08B00002003B0F0BD0020FBE70020F9E750
S214408ED00020F7E7258E400070B582B00C68651C10
S214408EE09D4212D80195045D062C11D115460C46BC
S214408EF06A4601A9094EB04700280CDB009B2B6050
S214408F00019B2360002002B070BD6FF08300FAE73B
S214408F106FF08F00F7E76FF08B00F4E7BD8D4000F1
S214408F2030B583B00C460B68019313466A4601A9D8
S214408F30054DA847024618B90099019B0B4423608B
S214408F40104603B030BD00BFD98E40002DE9F04337
S214408F5083B00B9D0C68661C9E4235D80196045D16
S214408F60032C34D1994616460F4680466A4601A9D8
S214408F70214CA04700282DDB009C002C2DDD019ABB
S214408F80511C89452CD318F802300A9850B153BB6F
S214408F90013C396006B134605DB32B70002003B0ED
S214408FA0BDE8F083072B21D8002BF1D008EB040056
S214408FB0104410F8012CC3F10800824012F0FF0F55
S214408FC0E6D06FF08B00EAE76FF08300E7E76FF0DC
S214408FD09200E4E76FF08B00E1E76FF08300DEE796
S214408FE06FF08300DBE76FF09100D8E76FF08B00FF
S214408FF0D5E70020D3E700BFBD8D400010B582B056
S214409000009313460A463021014CA04702B010BDDB
S214409010258E400010B582B0009313460A46312193
S214409020014CA04702B010BD258E40002DE9F04F00
S2144090308BB00446039100293AD100F1700B00F141
S2144090404806D4F87402D4F87832C35C062B34D081
S214409050D4F8785204F51E7319460193D4F87C323E
S21440906009AAD4F87402884FB8470028C0F2E481B1
S214409070D4F87812099B1944D4F874023246491B36
S2144090802844824B98470290002840F0D181D4F87B
S21440909078320999CA1809920398012819D0934240
S2144090A080F0C2810025DFF818A2DFF8DC9159E194
S2144090B000F5B87B00F13406C3E7D4F87C2204F50B
S2144090C01E71734B98470028C2DA6FF08B030293E9
S2144090D0AEE1D4F874021844C4F80C03C4F8101374
S2144090E0DDE79DF81520042A02D0002637469DE08D
S2144090F0CF1CC4F87872865D0431C4F8781210F834
S214409100078007AA0199634FB847002822DB079FCC
S21440911007F10E02C5F58073032E1FD0042E42D0F1
S214409120062E48D0072E52D0082E5CD00A2E62D08B
S2144091300B2E6CD0052E26D19A4224DC0BEB05066E
S214409140554B07CB4BF805007160B2601B88B38166
S2144091500E350DE06FF08B03029369E10399012908
S21440916017D09A420FDC4D4B18684BF80500043573
S214409170D4F87412D4F878323A4619440BEB05000A
S214409180474B98473D44D4F878321F44C4F8787229
S214409190E3E0D4F87412D4F8780201442166676696
S2144091A084F86880DDE79A42EDDC3E4B18684BF861
S2144091B005000435DCE79A42E5DC0BEB05023A4B4A
S2144091C019889B782BF8051093700335D0E79A42A0
S2144091D0D9DC0BEB0502354B19889B782BF805102C
S2144091E093700335C4E79A42CDDC314B18684BF890
S2144091F005000435BCE79A42C5DC0BEB05022D4B57
S21440920019889B782BF8051093700335B0E79A427F
S214409210B9DC294B18684BF805000435A8E79DF8DB
S2144092201560862E14BF002601260027069A0132B6
S2144092300A44C4F8782207AA0199DFF85880C04744
S2144092400028C0F2DF80C5F58072079B9A42ACBF0B
S2144092504FF000084FF00108002E5AD003F10E01DF
S2144092608A422FDB9A422EDB0BEB0506134B07CBCD
S2144092704BF805007160B2601B88B3810E3522E062
S21440928000263746D2E700BFFD8F4000CDD94000CC
S214409290218F4000BD8D400094EA430068EA4300B9
S2144092A0C18A430070EA430078EA43007CEA430000
S2144092B080EA430088EA43008CEA4300A4EA43007D
S2144092C015904000B0461D22D4F8801208205C4B12
S2144092D098470646002800F099801D22D4F8801250
S2144092E007980130564B98477060002873D0D4F8E2
S2144092F07412D4F87832079A1944524B98477268D9
S2144093000021079BD154A36A3360A662B8F1000FD0
S2144093106BD0E7B1079E721DC5F580739A4216DC86
S214409320B8F1000F13D10BEB0502474B18684BF80A
S21440933005001B7913710535D4F87412D4F87832C9
S214409340324619440BEB05003E4B98473544D4F85B
S2144093507832079A1344C4F87832D4F87822099BB6
S2144093609A4262D2D4F87C3208AA019E3146D4F89A
S2144093707402D047D4F87C3208AA3146D4F8740236
S214409380C847002846DDD4F87C3206AA3146D4F8D1
S21440939074022E4EB047002840D1D4F878128E1C66
S2144093A0D4F87C329E423BD8D4F87402425AADF888
S2144093B01420D2B2552A3FF494AE2A2A3FF42FAF57
S2144093C0092A7FF45DAF9DF81570922F14BF0027D1
S2144093D0012700262AE71D22D4F8801230461C4B6F
S2144093E098476FF07C03029322E0079ED4F87412ED
S2144093F0D4F87832324619440BEB0500114B9847A7
S214409400354486E76FF08B03029311E06FF07C03E0
S21440941002930DE06FF08B03029309E0029007E0A1
S2144094206FF08B03029303E0002500230BF8053012
S21440943002980BB0BDE8F08F6FF08B030293F7E70E
S2144094404D9D4100C18A4300B4EA4300D98E400096
S214409450599D410070B40C68E51C9D420DD8661CB1
S214409460035D022B0CD10234835D012B0BD1035DCF
S21440947013600D60106870BC70476FF08B00FAE7A1
S2144094806FF08B00F7E76FF08C00F4E7F0B583B031
S21440949007460C461546126801926A4601A92046C0
S2144094A0104EB047034610B1184603B0F0BD3846DC
S2144094B00D4B984790B9009A0199214438460B4B7A
S2144094C09847034620B90099019A0A442A60EBE778
S2144094D03846074B98476FF08D03E5E76FF06D030E
S2144094E0E2E700BF718E40000BDE4000C5E440005E
S2144094F041DE40002DE9F04784B007460E4614464C
S2144095009A460B680293002313600C9B03AA02A999
S2144095101C4DA847804670BBDDF80890039D6B1E27
S214409520039395B107EB090209F1010E9E4407EB40
S2144095300E0012F8011B23680B4423608242F8D1C8
S214409540CDF808E04FF0FF330393029B3360BAF147
S2144095500E0F10D001AA514620680B4B9847014683
S21440956048B125EAE572019B9A4208D107EB09000B
S214409570064B984718B9404604B0BDE8F0876FF0F0
S2144095809308F8E7D98E400041864000618A430040
S2144095902DE9F04284B004460F46164699460B68BD
S2144095A00293002313600A9B03AA02A9164DA847FC
S2144095B000281CDB0A9B00934B46324602A92046F5
S2144095C0124EB047002815DB029BE25C052A05D008
S2144095D0029B3B60002004B0BDE8F0829A1C0A99CA
S2144095E091420AD31C44637853B90292F0E76FF075
S2144095F08B00F0E76FF08F00EDE76FF08300EAE74F
S2144096006FF09100E7E700BFFD8F4000F594400003
S21440961000295FD02DE9F04182B00D461E46174620
S21440962004466A46DFF8E880C047002855DB3346E4
S21440963001AA29462046DFF8DC80C04700284FDBD9
S2144096400123C7F8883033462A4621463846DFF895
S214409650C880C047002846DB33462A46214607F1E5
S2144096601000C047002841DB33462A46214607F112
S2144096702000C04700283CDB33462A46214607F1F7
S2144096803000C047002837DB33462A46214607F1DC
S2144096904000C047002832DB33462A46214607F1C1
S2144096A05000C04700282DDB33462A46214607F1A6
S2144096B06000C047002828DB33462A46214607F18B
S2144096C07000C0470028ACBF00206FF08E0002B08C
S2144096D0BDE8F0816FF0AC0070476FF08B00F6E7A6
S2144096E06FF08B00F3E76FF08E00F0E76FF08E00C0
S2144096F0EDE76FF08E00EAE76FF08E00E7E76FF079
S2144097008E00E4E76FF08E00E1E76FF08E00DEE754
S214409710FD8F4000559440008D944000002866D050
S2144097202DE9F04184B00546002964D0002A65D072
S2144097301E4617460C4603AADFF80081C04700289D
S2144097405FDB0023C7F8883023685A1C96425BD3F9
S214409750EB5C022B26D0334603AA21462846C04758
S214409760002854DB324621462846324B984700288C
S21440977050DB2368EA5C052A2BD0002201920123A5
S2144097800093334621462846DFF8B480C047034658
S214409790D8B9334603AA21462846DFF8A080C047FA
S2144097A000283ADB3346224629463846DFF894807E
S2144097B0C047002834DB33462246294607F11000CE
S2144097C0C0470028A8BF00230BDB184604B0BDE8FE
S2144097D0F0819A1C964226D32B445B7833BB22609A
S2144097E0CBE73846144B98476FF08E03EDE76FF0A3
S2144097F0AC03184670476FF0AC03E6E76FF0AC0377
S214409800E3E76FF08B03E0E76FF08303DDE76FF08D
S2144098108B03DAE76FF08B03D7E76FF08B03D4E761
S2144098206FF08E03D1E76FF08303CEE76FF09103BE
S214409830CBE700BF218F400041DE4000FD8F400057
S2144098404D8F40008D944000A0B12DE9F0410E466A
S21440985004464FF01D08084F25684246314660686A
S214409860B847424631462046B8472C46002DF3D1ED
S214409870BDE8F081704700BF599D4100A0B12DE979
S214409880F0410E4604464FF01D08084F25684246F4
S21440989031466068B847424631462046B8472C466F
S2144098A0002DF3D1BDE8F081704700BF599D4100BF
S2144098B0F8B506460F4614461D462422002120468B
S2144098C0434B9847172F78D02B68F35C303B626940
S2144098D04FF47A7101FB032363612B6801332B60DD
S2144098E0F35C303B6269642101FB032363612B68B0
S2144098F001332B602A68B35C303B03EB830361691A
S21440990001EB43016161B3185B78303B0B44636104
S21440991002322A606369A3F26C7363612A68B35C9F
S214409920303B03EB8303216901EB43012161B3180C
S2144099305B78303B0B44236102322A602369013B4B
S21440994023612B68F25C303A02EB8202E06800EB5F
S2144099504200E0609F1CF1184A78303A0244E260C8
S2144099602F60F25D303A02EB8202A06800EB4200C4
S214409970A0601F1DCA78303A0244A2602F60F25D94
S214409980303A02EB8202606800EB420060609F1D46
S2144099904A79303A024462602F60F25D303A02EB18
S2144099A08202206800EB42002060CA79303A0244C6
S2144099B0226008332B600120F8BD3378303B042BFF
S2144099C08CBF40F26C734FF4FA63636192E700BF5A
S2144099D0BD8C430070B58CB005460E46144600203C
S2144099E001902B4B98470B9001AB02AA3146284674
S2144099F0284EB047034640B1019AAB5C2B2B12D0A1
S214409A002D2B41D05A2B03D0002318460CB070BDE6
S214409A10002326E002A9204B9847B0FA80F35B0962
S214409A20F3E70023F1E7531C0126E95C303901EBEC
S214409A3081031544A978303901EB4301EB78303B7C
S214409A4003EB83002B79303B03EB40030532019256
S214409A50C1EB011103EB810306FB03F3C3EB0313D6
S214409A609B000B9AD31A0CA840F8043D0B4B984722
S214409A700028D6D0002CCDD1014602A8064B9847E8
S214409A80B0FA80F35B09C0E7531C4FF0FF36CCE7D3
S214409A9071C24300B1984000AB8540006D824300E0
S214409AA02DE9F0438BB004460E462022002101A843
S214409AB02F4B9847002E43D1D4F87432D4F87822EE
S214409AC01344C4F8FC32D4F87882D4F8740208F10F
S214409AD00103C4F8783210F80870A7F11703DBB218
S214409AE0012B3AD8D4F87C3209AA04F51E71214DD0
S214409AF0A847002834DB099DA5F10D03132B32D867
S214409B00D4F87892D4F874122A46494401A81A4BDD
S214409B1098474D44C4F87852D6B9A5EB0805C4F822
S214409B2000533246394601A8144B9847F0B9002EE8
S214409B300CBF6FF095006FF096000BB0BDE8F08359
S214409B40D4F87432D4F878221344C4F80433BAE70D
S214409B50A5EB0805C4F80853E3E76FF09800ECE778
S214409B606FF08B00E9E76FF09400E6E70020E4E74B
S214409B70BD8C4300BD8D4000C18A4300D59940004E
S214409B807F280CD930B4030E10D1030C0AD1030A37
S214409B900AD1012558B980230B70012018E00870BF
S214409BA001207047032502E0022500E0042565F009
S214409BB07F030B7005F10053013BDB000A46294446
S214409BC020FA03F402F8014F083B8A42F8D1681C99
S214409BD030BC70472DE9F04106460F4615461A4BF5
S214409BE0984780463046194B98470446B8F1000FD0
S214409BF01DD12946022301F8013B154B9847411CCD
S214409C008846002F02DB63189F4208DB2944304613
S214409C10104B984738B904EB0800BDE8F0816FF068
S214409C208300BDE8F0816FF07000BDE8F081294602
S214409C30022301F8013B0130054B9847811C28441C
S214409C4000234370DCE700BFB5F2400079DF4000F8
S214409C50819B400001F3400008B5302301F8013BEA
S214409C60014B9847013008BD819B40002DE9F047E5
S214409C7086B00E461D46002305931146CAB1012AFA
S214409C8003D0022A0ED0002414E0B0F5027F40D064
S214409C90A0F50373022B3ED9B0F5807F0CBF00249D
S214409CA0022407E040F28524A0420CBF0224002490
S214409CB000E0022405AA1D4B98478046002833D072
S214409CC00DF11809062309F80C3D0DF10D01059814
S214409CD0174B9847471C05982844204401A9384408
S214409CE0144B98470546024601A93046DFF848A07F
S214409CF0D0473A4649467019D0473D44059F3A46B4
S214409D0041467019D04744B9E019284406B0BDE82A
S214409D10F0870024CEE70024CCE7EB19F2180521A3
S214409D20F15400235370EFE70020EFE741864000F0
S214409D30819B4000599C4000C18A43002DE9F04376
S214409D409BB0814615461C4604238DF81C308DF882
S214409D501D200DF11E00DFF84C80C0470235002361
S214409D601A4602A920460D4CA047044647196946A4
S214409D7038460B4B98470646024669464846C04713
S214409D80224602A909EB0600C047A0192A4607A9A1
S214409D904844C047B8191BB0BDE8F0836D9C4000EE
S214409DA0599C4000C18A430050B170B504461646DF
S214409DB00D462C220021034B9847A661256070BDB6
S214409DC0704700BFBD8C4300F8B1F8B504461D4649
S214409DD016460F464FF4517200210C4B98470C2301
S214409DE084F86830002384F8703084F87031C4F802
S214409DF07472C4F87C62C4F880526FF0010229463F
S214409E0004F54670024B9847F8BD7047BD8C43003A
S214409E10A99D4000002830D010B50446406828B1BF
S214409E2048222168154B984700236360E06828B1B4
S214409E302B222168114B98470023E360606988B164
S214409E40A36A40F2062293420FD040F28522934204
S214409E5006D10B4B98470A2221686069074B984702
S214409E60002363610023E36110BD064B984725221B
S214409E7021686069014B9847F2E77047599D410059
S214409E80211B4100CDCE400010B50446C36E012BC9
S214409E9022D0A368012B26D094F8F2322BB1606A08
S214409EA018B1D4F88012134B9847A06A18B1D4F86A
S214409EB08012104B9847E06A18B1D4F880120E4BC7
S214409EC09847206B18B1D4F880120B4B984704F58E
S214409ED046700A4B984710BD0522D0F88012006E97
S214409EE0074B9847D5E70622D4F880122068044BE3
S214409EF09847D1E7499840007D984000159E40001D
S214409F00599D410008B5072201464C20084B98470A
S214409F10034650B1002202604260C2600261426164
S214409F208261C261C27282728264184608BD00BFF6
S214409F304D9D410070B504460D46052240690B4EC6
S214409F40B04706222946E068B047A06910B12946C6
S214409F50074B9847E06910B12946054B98470722BA
S214409F6029462046014B984770BD00BF599D410089
S214409F707D9840002DE9F047B1F1000813DD154605
S214409F80071F4FF00009094ECA46786828B1846C0E
S214409F902946B0472046002CF9D147F804AF09F1CE
S214409FA00109C845F1D1BDE8F08700BF359F4000A4
S214409FB02DE9F041069EF2B19046F8B10BB30D681C
S214409FC00135B54220D81F460C46054633463A462C
S214409FD0104EB047064658B93A68202A17DC216822
S214409FE0294440460C4B984723683A6813442360FC
S214409FF03046BDE8F0816FF0AC06F9E76FF0AC068E
S21440A000F6E76FF0AC06F3E76FF08306F0E76FF025
S21440A0108B06EDE7718E4000C18A43002DE9F04182
S21440A02084B004460E4600F51E75D0F87C3203AA6E
S21440A0302946D0F87402A34FB8470028C0F2C5801E
S21440A040D4F87832E360D4F87C3203AA2946D4F8B0
S21440A0507402B8470028C0F2B880D4F87822039B30
S21440A06013442361D4F87402D4F87C32511C8B42DA
S21440A070C0F0AE80815CA02900F09C800023236263
S21440A080D4F87C32009304F5297304F521722946EE
S21440A090D4F874028C4FB8470028C0F29680D4F8A3
S21440A0A07C320093012304F118022946D4F8740246
S21440A0B0864FB8470028C0F2E58000212046844BF2
S21440A0C098470028C0F2DE80D4F87C3203AA29469E
S21440A0D0D4F874027B4FB8470028C0F2888000212D
S21440A0E020467C4B9847002875DB01212046794B5B
S21440A0F09847002876DB002601212046744B984777
S21440A1000028C0F2BF80D4F87C3202AA2946D4F890
S21440A11074026C4FB8470028C0F2C480D4F87C3232
S21440A1200093022304F11C022946D4F87402674FB8
S21440A130B8470028C0F2B980E36940F2062293424D
S21440A1405BD040F28522934240F0938000220192F9
S21440A15001230093D4F87C322946D4F874025E4F2B
S21440A160B8470746002840F08680D4F87882D4F86E
S21440A1707C3203AA2946D4F87402524DA8470028D8
S21440A18038DBD4F87812A1EB0801039A0A444B1E38
S21440A19029B1013BB3F1FF3FFBD1C4F8788262603E
S21440A1A0D4F87812D4F874320B4423600A44C4F8C6
S21440A1B0782260E00232C4F8782204F12002294670
S21440A1C0464FB8470028BFF65BAF6FF08B0059E0AC
S21440A1D06FF08B0056E0002E59D1012120463D4BB2
S21440A1E0984789E7002E18BF6FF0960684E76FF011
S21440A1F08B0681E76FF08B073DE0D4F87C32009306
S21440A200032304F53E722946D4F87402344FB84707
S21440A21000284DDBD4F8F802324B984700284ADB3A
S21440A2200023019301230093D4F87C3202AA2946E6
S21440A230D4F87402284DA8470746E0B90622D4F859
S21440A24080120298284B98472060002836D0D4F8D1
S21440A2507412D4F87832029A1944244B9847012352
S21440A260A360029A6260D4F878321344C4F8783215
S21440A27003E06FF09307002F07DB06EAE67000283E
S21440A28008BF384604B0BDE8F0813846FAE70121F9
S21440A2902046104B98470028B4BF6FF096066FF0E4
S21440A2A0950629E76FF08B00ECE76FF08B00E9E747
S21440A2B06FF08B00E6E76FF0AB00E3E76FF07C00F3
S21440A2C0E0E700BFFD8F4000B19F40009195400001
S21440A2D02D904000A19A40004D8F4000559440007C
S21440A2E0F5944000758C40004D9D4100C18A430066
S21440A2F02DE9F04F99B0002801F0488083460B9333
S21440A30006920A91D0F83433099323B3069B002B68
S21440A31001F071800A9B052B01F04A800F2B01F05B
S21440A3204980002309931C469A46DBF81433002BD9
S21440A33001F04280069A22F002020392012A00F0BF
S21440A3407485002C41F05880099A1446002A08BFAC
S21440A350544601F051B81146AD4B9847041E43DBB6
S21440A360099B0C93DBF87832DBF81020934280F0A0
S21440A370C684DBF82010012941F30B80DBF8741209
S21440A380C8180590CBF8A802D21A04921446CBF807
S21440A390AC22CBF8B0320646002801F015801546B0
S21440A3A0002A01F0148001220E92CB5CA32B41F0D0
S21440A3B0118023460FAA0EA9964CA0470028C1F24A
S21440A3C00C802B460FAA0EA93046934CA047002877
S21440A3D0C1F206800E9B9D4240F28D8400230D9371
S21440A3E0DFF830A2D9467DE304F19703012B01F252
S21440A3F003800C94B6E7049A0EA90598874B9847B5
S21440A4000028C0F2EC84C5B28AE30E9C059B1C442F
S21440A4100F9D0023159318AA42F8083D2B4615A910
S21440A42020467D4EB0470028C1F20F80169B002B79
S21440A43000F050832A4615A92046784B98470028B6
S21440A440C1F2058089F8EF02159B9D4240F2428397
S21440A450DA1C9542C0F0B5875A1CE15C022940F0F0
S21440A460B0870233A25C012A40F0AB87E35C89F8F0
S21440A470F132012389F8F0322CE30E9C059B1C44F4
S21440A4800F9D0023159318AA42F8083D2B4615A9A0
S21440A4902046614EB0470028C0F2DB872B4616AAFE
S21440A4A015A92046B0470028C0F2D587159BE25C28
S21440A4B0A02A17D0159B9D4240F20C83E25CA12A4D
S21440A4C048D0E25CA22A40F00583013315932B4620
S21440A4D016AA15A92046D047002880F2FB82CB4614
S21440A4E000F0DABF013315932B4616AA15A920466D
S21440A4F0D0470028C0F2B187159BE25CA02A03D063
S21440A500169A13441593D5E7013315932B4616AA8E
S21440A51015A92046D0470028C0F2A187159BE25CCB
S21440A520862A03D0169A13441593C3E7013315932E
S21440A5302B4616AA15A92046D0470028C0F2918778
S21440A540169BC9F8C032159AA118C9F8BC12134414
S21440A5501593AFE7013315932B4616AA15A9204647
S21440A560D0470028C0F27F87169A159B1344159350
S21440A5709D42A6D8AEE20E9C059B1C440F9E00232F
S21440A580149318AA42F80C3D3546334614A9204683
S21440A590214FB8470028C0F26887149BB34280F02A
S21440A5A09982DFF87C8006E0159A149B1344149336
S21440A5B09D4240F28F822B4615AA14A92046B847E2
S21440A5C00028C0F2548718AA002342F8083D009598
S21440A5D0072314A92046C0470028C0F24A87149B88
S21440A5E05A1C1492E65C2B4615AA14A92046D0475E
S21440A5F00028C0F24087862ED6D1169B742BD3D126
S21440A600159BC9F8B832149B1C44C9F8B44261E2A1
S21440A6101DA04000BD8D4000FD8F4000718540006C
S21440A620F59440000E9D059B1D440023149318AAE4
S21440A63042F80C3D0F9E334614A92846AC4CA04722
S21440A6400028C0F21A87012389F8F232A94F6DE03C
S21440A650334616AA14A92846D0470028C0F28B8055
S21440A660149BE41A159B234415931D22D9F8801297
S21440A6700820A14B9847044600287CD01D22D9F8D4
S21440A6808012169801309C4B98476060A0B1169A8D
S21440A69014992944B84762680021169BD154D9F8CA
S21440A6A024302360C9F824401699159A521A1592F8
S21440A6B0149B0B44149339E01D22D9F8801220468F
S21440A6C08E4B984757E0334616AA14A92846D047DB
S21440A6D0002850DB149BE41A159B234415931D2237
S21440A6E0D9F880120820844B98470446002842D068
S21440A6F01D22D9F88012169801307F4B984760602B
S21440A700002832D0169A14992944B8476268002126
S21440A710169BD154D9F828302360C9F8284016999A
S21440A720159A521A1592149B0B441493159B002BA2
S21440A73040F3D081149A541C1494AA5C013B1593A0
S21440A740822A85D0812ABED0334616AA14A9284626
S21440A750D0470028C0F29386149A169B1344159A45
S21440A7601444E41A15941493E0E71D22D9F8801295
S21440A7702046624B98476FF08B0400F03DBE0123A5
S21440A78089F8ED320E9C059B1C440F9D00231593C3
S21440A79018AA42F8083D2B4615A92046544EB04705
S21440A7A00028C0F26E86159B5A1C1592E35C802BDF
S21440A7B040F090812B4616AA15A92046D04700287F
S21440A7C040F36186169914290CD009F2D9221598BF
S21440A7D020444B4B9847002880F27C816FF08B04D6
S21440A7E000F00ABE09F2D922159B1C44216866680F
S21440A7F0A568E068C9F8D91256609560D0602169AE
S21440A800116167E1012389F8D832002D40F0EE85CA
S21440A8100E9C059B1C440F9B002215921692934259
S21440A82040F33386009316AB15AA04212046354DD7
S21440A830A8470028C0F22B86169914290CD009F593
S21440A8403172159820442E4B9847002880F242815A
S21440A8506FF08B0400F0D0BD09F53172159B1C4497
S21440A86021686668A568E068C9F8C41256609560B5
S21440A870D060216911612DE1012389F8F3320E9CE5
S21440A880059B1C4400231593019300930F9B16AA27
S21440A89015A920461C4DA84770B9159AA35CA9F87F
S21440A8A0F4321699022940F015811444627843EA3E
S21440A8B00223A9F8F4320DE1002880F20B816FF0F4
S21440A8C08B0400F099BD012389F8F6320E9D059B56
S21440A8D01D44002314930F9C234616AA14A9284609
S21440A8E0034EB0470028C0F2D485084E23E000BF90
S21440A8F0FD8F4000C18A43004D9D4100599D410057
S21440A900CDD94000258E40004D8F4000F594400044
S21440A9104F2B42D0972B08D04E2B0CD199F8F732BC
S21440A92043F0200389F8F73205E099F8F73243F010
S21440A930010389F8F732149B9C4240F2CB80009486
S21440A9400A2315AA14A92846B0470028C0F2A385B2
S21440A950159B4A2B1AD0DBD8482B09D00FD8472B4B
S21440A960E9D199F8F73243F0020389F8F732E2E783
S21440A97099F8F73243F0040389F8F732DBE799F8A1
S21440A980F73243F0080389F8F732D4E799F8F732FC
S21440A99043F0100389F8F732CDE799F8F73243F0E1
S21440A9A0400389F8F732C6E7012389F8EE320E9B5A
S21440A9B0059AD318184607930F9C0023119318AA9C
S21440A9C042F8183D0894234611A9C24DA8470028CE
S21440A9D0C0F26985119BA3427CD2A84656E009F195
S21440A9E02C0B65E017F0200F06D02B4615AA16A9AB
S21440A9F02046C047002842DB1D2203991020B64B54
S21440AA009847074600283AD01D2203991598B24B1E
S21440AA109847786000282DD0159A16992144AF4B58
S21440AA209847159BBB603E73DBF800303B60CBF825
S21440AA300070149A139B13441393AB421FD22B46B9
S21440AA4014AA13A92046C047002818DB139B5A1C9B
S21440AA501692E75C2B4615AA16A92046D047002832
S21440AA600DDD07F00F06731EDBB2012BBAD9042E9C
S21440AA70DFD1B7E71D2203993846994B9847129A7B
S21440AA80119B13441193089A9A4223D95A1C119247
S21440AA900798C45C089B12AA11A9D047002840F327
S21440AAA00485A02C9BD0A12C40F0018509F1300BE9
S21440AAB0119C079B1C44129BD9F8802203920022CB
S21440AAC013921D46002BBAD1D9E7002D0D9B18BF17
S21440AAD001230D930F9A0E9B13440E93049A9A42A9
S21440AAE040F20481049E33460FAA0EA9059D2846CF
S21440AAF0784CA0470028C0F2768418AA002342F873
S21440AB00203D009606230EA92846764CA0470028EE
S21440AB10C0F262810E9BEB5C012B3FF46CAC0025CF
S21440AB20049B00930FAB0EAA042105986E4CA047D9
S21440AB300028C0F25781109B453B632BC5D801A225
S21440AB4052F823F077A54000CBAA4000CBAA40009D
S21440AB50CBAA4000CBAA4000CBAA4000CBAA4000DC
S21440AB60CBAA4000CBAA4000CBAA4000CBAA4000CC
S21440AB70CBAA4000CBAA4000CBAA4000CBAA4000BC
S21440AB80CBAA4000CBAA4000CBAA4000CBAA4000AC
S21440AB90CBAA4000CBAA4000CBAA4000CBAA40009C
S21440ABA0CBAA4000CBAA4000CBAA4000CBAA40008C
S21440ABB0CBAA4000CBAA4000CBAA4000CBAA40007C
S21440ABC0CBAA4000CBAA4000CBAA4000CBAA40006C
S21440ABD0CBAA4000CBAA4000CBAA4000CBAA40005C
S21440ABE0CBAA4000CBAA4000CBAA4000CBAA40004C
S21440ABF0CBAA4000CBAA4000CBAA4000CBAA40003C
S21440AC00CBAA4000CBAA4000CBAA4000CBAA40002B
S21440AC10CBAA4000CBAA4000CBAA4000CBAA40001B
S21440AC20CBAA4000CBAA4000CBAA4000CBAA40000B
S21440AC3005A8400079A84000CBAA400025A64000C1
S21440AC40CBAA40000BA44000CBAA4000CBAA4000B1
S21440AC50CBAA4000CBAA4000CBAA4000CBAA4000DB
S21440AC60CBAA4000CBAA4000CBAA4000CBAA4000CB
S21440AC70A9A940007BA44000D5AA4000CBAA40002A
S21440AC80CBAA40007FA74000CBAA4000C7A8400000
S21440AC90CBAA4000CBAA4000CBAA4000CBAA40009B
S21440ACA0CBAA4000CBAA4000CBAA4000CBAA40008B
S21440ACB0CBAA4000CBAA4000CBAA4000CBAA40007B
S21440ACC0CBAA4000CBAA4000CBAA4000CBAA40006B
S21440ACD0D5AA4000FD8F40004D9D4100C18A4300EB
S21440ACE0599D4100F5944000258E4000CB460D9B73
S21440ACF0002B40F07C83DBF81030CBF878320BF535
S21440AD001E75DBF87402DBF87C320093012317AA29
S21440AD102946A34CA047041EC0F26E83DBF87C3263
S21440AD20DBF87402002201920122009216AA2946FC
S21440AD309C4CA0478246002857D1169BCBF814302F
S21440AD40DBF87812DBF874220A44CBF85C200B441C
S21440AD50CBF87832DBF81820179B9A4240F01C83D9
S21440AD609BF8D83233B9DBF8000018B1DBF8041092
S21440AD7000293ED1069B002B00F0FF820A9B052B44
S21440AD8000F0FE820F2B00F0FE820023CBF8143337
S21440AD909BF8ED32002B35D10BF148010B98824BD6
S21440ADA09847CBF81403002800F0F9829BF8EF325E
S21440ADB0002B31D0C37A002B31D0837A002B00F0A1
S21440ADC0F1829BF8F0226AB39BF8F1229A4280F017
S21440ADD0EC820C9CFFF7A9BA0446CB465EE30446D9
S21440ADE0CB465BE30446CB4658E30028B2DA04463B
S21440ADF002E30BF531726D4B984782460028B9D076
S21440AE000446F9E20BF2D9210B98694B9847CBF8E8
S21440AE1014030028CAD1BFE70C9CFFF786BA0C9CE7
S21440AE20FFF783BA0C9CFFF780BADBF80C20DBF800
S21440AE3074521544DBF81060B61ADA680592196841
S21440AE4006915F68DBF85C300793DBF81490DBF81C
S21440AE5018801BF54670049000F0DE82002D00F04E
S21440AE60DE82002E00F0DE82002A00F0DF8200291B
S21440AE7000F0DF82002B00F0DF82B9F1000F00F017
S21440AE80DE82DBF83433042B00F2A181DFE813F0D6
S21440AE9005003F00960016014A014822DBF81813C9
S21440AEA02020444B98470246CBF81C03002800F06D
S21440AEB0AA820123CBF83433B8F5027F35D01AD8AE
S21440AEC0B8F5807F10D10223CBF83433CBF84073EB
S21440AED040F206239F4200F0BD8040F285239F4209
S21440AEE076D06FF0930A45E140F2052398451CD092
S21440AEF06FF0E70A3EE140F28923984515D040F2CC
S21440AF008F2398453BD0B8F5037FF1D137E0DBF887
S21440AF101C23B8F5027F08D025D8B8F5807FD2D05C
S21440AF2040F20523984540F06B82314628461F4B39
S21440AF3098478246002840F01D815823CBF8383386
S21440AF401423CBF83C330223CBF83433CBF840738E
S21440AF5040F206239F427DD040F285239F4237D061
S21440AF606FF0930A0AE140F289239845DDD040F21B
S21440AF708F23984503D0B8F5037F40F04182314691
S21440AF8028460D4B98478246002840F0F3804FF401
S21440AF90CF73CBF838332023CBF83C33D3E700BF0E
S21440AFA0919540004D8F400021944100CDD94000FE
S21440AFB0A59341004D9D41002DDA4000CBF84073EB
S21440AFC040F206239F4245D040F285239F4262D1FD
S21440AFD0002316930A22DBF818139820A84DA8479A
S21440AFE0CBF82C032B22DBF818134FF40070A8473D
S21440AFF0CBF82403DBF82C331BB328B3DBF8302321
S21440B000DBF8181318469F4B98478246002840F0B6
S21440B010B180B9F5007F1AD8069BDBF82C2316A919
S21440B0200598994DA8478246002840F0A3804A4696
S21440B0300799DBF82403954B98470023CBF8203339
S21440B0402EE06FF07C0A95E06FF07C0A92E06FF09D
S21440B050830A8FE00023CBF828332522DBF8181329
S21440B0605820874B9847CBF82C03002800F0CE8119
S21440B070DBF83023DBF81813854B9847B0F1000A0D
S21440B08078DBDBF82C2306990598824B9847B0F17D
S21440B090000A02DA6EE06FF0930ABAF1000F69D147
S21440B0A00323CBF8343340F206239F421FD040F2AE
S21440B0B085239F420AD04FF0000A14E040F2062350
S21440B0C09F4214D040F285239F4220D1DBF82C3398
S21440B0D00BF548724946DBF824036F4DA847824675
S21440B0E0BAF1000F16DB0423CBF834331CE0DBF850
S21440B0F03C33DBF81C23DBF82C1301910BF54A712B
S21440B100009149460798654DA8478246E8E74FF0C4
S21440B110000AE5E71AF16C0F02D06FF09A0A2DE0AC
S21440B120544669E14FF0000A40F206239F4245D05C
S21440B13040F285239F421DD12622DBF818134FF498
S21440B14000704F4B98470546002800F06281DBF8B8
S21440B1503833DBF83C23DBF81C13514EB04702462D
S21440B160504520D06FF09A0A2622DBF8181328465E
S21440B1704C4B98471AF16C0F00F0568104984A4B96
S21440B1809847BAF1000F40F01A81DBF81433049365
S21440B190002B00F05781DD69002D5AD0DFF8109162
S21440B1A0DFF8108139E02946DBF820033F4B98470B
S21440B1B0B0F1000A18BF6FF09A0AD5E7DBF82833DB
S21440B1C0012B0CBF4FF0000A6FF09A0AD6E74FF0FB
S21440B1D0000ACFE7DBF82460EEB177683846C84708
S21440B1E06B68AA680092024639460220C04700288B
S21440B1F040F028813668002EEFD10CE0AA68DBF8D4
S21440B2001033934207DB6968DBF80C03274B9847FB
S21440B210002800F017812D68DDB12B7B022BD9D09A
S21440B220042BEBD0012BF6D1DBF82860002EF2D0B1
S21440B23077683846C8476B68AA680092024639461F
S21440B2400120C047002840F0FD803668002EEFD130
S21440B250E1E7049B9D69002D3FF473A8CDF814A048
S21440B260CDF810A0CDF818A0CDF81CA0CDF828A099
S21440B270CDF820A0DFF83890DFF8388032E000BF05
S21440B2804D9D41009D1A41001D974000C18A4300D4
S21440B2907DCE4000BDD8400019224100C5D54000B3
S21440B2A03D9D4000599D4100159E4000618A4300E7
S21440B2B081964300A58C4000DBF824607EB1776819
S21440B2C03846C8476B68AA6800920246394602204C
S21440B2D0C0473668002EF2D10A90039B08932D682B
S21440B2E0002D35D02B7B022BE6D0042B16D0012B1D
S21440B2F0F5D1DBF82860002EF1D077683846C8478D
S21440B3006B68AA680092024639460220C0473668F3
S21440B310002EF2D10690039B0793E0E7DBF80C0380
S21440B32080B1AA68DBF8103393420EDB6968614B44
S21440B3309847059B1946039A002808BF1146059171
S21440B3400492CCE7039B0493C9E7039B0493C6E7A8
S21440B350089B13B10A9B002B74D0079B13B1069B26
S21440B360002B6FD0049B002B3EF4EBAF059B002BCD
S21440B3707EF4E7AF6FF0C5043EE00C9CFEF7E1BFFD
S21440B3800C9CFEF7DEBF0C9CFEF7DBBF6FF0AC04F8
S21440B39032E06FF08C042FE06FF097042CE06FF0F3
S21440B3A0BB0429E06FF0ED0426E06FF0ED0423E0E7
S21440B3B0002421E000241FE06FF0BB041CE054464C
S21440B3C01AE06FF08B0417E06FF0AC0414E06FF0F7
S21440B3D0AC0411E06FF08B040EE06FF08B040BE0D2
S21440B3E06FF08B0408E06FF08B0405E0CB466FF0FF
S21440B3F09F0309937FE41C46204619B0BDE8F08FB2
S21440B4006FF0E70AB6E66FF07C0AB7E66FF07C0AA4
S21440B410B4E66FF07C0AB1E66FF0AC0A04E06FF079
S21440B420AC0A01E06FF0AC0A5446E5E76FF0AC0AB0
S21440B430FAE76FF0AC0AF7E76FF0AC0AF4E76FF0A4
S21440B440AC0AF1E76FF0C504D6E7CB4624E0CB461E
S21440B45022E0CB4620E0CB461EE0CB461CE0CB4667
S21440B4601AE0CB4618E0CB4616E0CB4614E0CB4677
S21440B47012E0CB4610E0CB460EE0CB460CE0CB4687
S21440B4800AE0CB4608E0CB4606E0CB4604E0CB4697
S21440B49002E0CB4600E0CB466FF08B0414F1A00FE1
S21440B4A0AAD1099427E4CB46F6E7CB46F4E7CB4649
S21440B4B0F2E700BF618A430070B504461D4DA847B9
S21440B4C0051E19DB606E002811DD0522D4F88012B7
S21440B4D00130194B9847064628B3626E216E174BCB
S21440B4E09847636E0022F25426660123E366E269BB
S21440B4F040F285239A4201D0284670BD2368002B2F
S21440B500FAD060680028F7D00622D4F880120A4B9A
S21440B5109847064650B162682168084B98472660AF
S21440B5200123A360E8E76FF07C05E5E76FF07C0554
S21440B530E2E700BFF1A240004D9D4100C18A4300B2
S21440B5402DE9F84F0746884615469A4610461A4E45
S21440B550B04704465046B04781462846174EB04747
S21440B56083465046B0475C44044404EB0903181D28
S21440B5700633D8F800209A421AD33946104B9847DB
S21440B58004463A184FF0FF3128460E4B984700289D
S21440B59010DB04443A194FF0FF315046094B9847A8
S21440B5A0002807DB2044C8F800000020BDE8F88FDC
S21440B5B06FF08300BDE8F88FB5F2400079DF4000B9
S21440B5C0599C4000D59B40002DE9F04182B005468D
S21440B5D00C46164698460023019302AA42F8083DB8
S21440B5E00B4601A9134FB847002819DB019BE31A05
S21440B5F0009A934217D3234601AA294630460E4E58
S21440B600B047002812DB234601AA29464046B047E9
S21440B6100028B4BF6FF0AA00002002B0BDE8F08159
S21440B6206FF0AA00F9E76FF0AA00F6E76FF0AA00FD
S21440B630F3E700BFFD8F40008D9440002DE9F04FAA
S21440B64089B0002800F0B1800546002900F0B0809F
S21440B650002A00F0B080002B00F0B0801E469346D3
S21440B6600C4605AA704FB8470028C0F2AA80334659
S21440B67006AA214628466D4FB8470028C0F2A48047
S21440B6802268AB5C01322260042B06D0063BDBB25C
S21440B690012B02D96FF08B07B9E0334605AA214645
S21440B6A02846634FB8470028C0F29180059B422B3E
S21440B6B000F390802622002143205E4B9847804628
S21440B6C0002800F08A80262200218620594B984781
S21440B6D00390E0B1DDF8149021684A46294440467C
S21440B6E0554B98472368059A134423605A1C964244
S21440B6F076D9EB5CA02B12D023685A1C4FF0000A78
S21440B700EB5C2260A12B29D06FF0AA0776E02622B8
S21440B71000214046494B98476FF07C0777E022600F
S21440B720334605AA21462846414FB847002875DDCE
S21440B73000960E2307AA21462846414FB84707469B
S21440B74000285BD107983F4B9847B0F1000A68DB6A
S21440B75023685A1C9642D3D8002245E0334605AAB1
S21440B76021462846324FB847002854DD002301932F
S21440B7700093334605AA21462846334EB04707462F
S21440B78000283BD1059F852F02DD6FF0830735E00B
S21440B79021683A462944039D2846274B9847236804
S21440B7A0059A134423602A461EE06FF0AC072EE04D
S21440B7B06FF0AC072BE06FF0AC0728E06FF0AC07FB
S21440B7C025E06FF08B0722E06FF08B071FE06FF0ED
S21440B7D08B071CE06FF0830719E06FF07C0716E0DC
S21440B7E04FF0000A52465746CDF804A0CDF800B0B8
S21440B7F03B4649464046154CA04707462622002170
S21440B80040460E4CA047262200210398A0473846C3
S21440B81009B0BDE8F08F6FF08B07EFE76FF08B074E
S21440B820ECE76FF0AB07E9E7FD8F4000559440002A
S21440B830BD8D40004D9D4100C18A4300599D410049
S21440B840F5944000758C40004D8F4000CDD84000A8
S21440B850002832D010B5044690F8243013F0010F7B
S21440B86017D194F8243013F0020F16D194F82430F0
S21440B87013F0080F15D194F8243013F0100F14D19C
S21440B88094F8243013F0200F13D1002384F824308A
S21440B89010BD4068094B9847E3E7A068074B9847B8
S21440B8A0E4E7E068054B9847E5E72069034B98478F
S21440B8B0E6E76069014B9847E7E7704741DE40009E
S21440B8C02DE9F041146AD569AC421CD21F46164693
S21440B8D00D4680469269631C336202EB0410086092
S21440B8E00A4B9847034610B11846BDE8F08196F8D3
S21440B8F024301F4386F82470102241462868044BA3
S21440B90098470346F0E76FF0A903EDE70BDE4000EB
S21440B910510F41002DE9F041002859D00746002933
S21440B92059D00E68336898421CBF002386F82430EE
S21440B930306096F8243022EA0304234386F8243005
S21440B94014F0010F10D1002514F0020F14D114F09A
S21440B950080F1BD114F0100F22D114F0200F28D15D
S21440B96085BB2846BDE8F08101233246311DC068BC
S21440B9701A4DA8470546E7E70223324606F1080176
S21440B9803869DFF85880C0470544E0E70823324668
S21440B99006F10C01B869DFF84480C0470544D9E792
S21440B9A010233246F118F869DFF83080C047054466
S21440B9B0D3E72023324606F11401386A074CA047E5
S21440B9C00544CDE73046064B98476FF06E05C8E70E
S21440B9D06FF0AC05C5E76FF0AC05C2E7C1B84000F4
S21440B9E051B8400000290CDD422927DC4368B3F1FA
S21440B9F0FF3F26D070B4002444600461134B0E25EC
S21440BA000AE0002AF0DA6FF0AC007047A94208DD81
S21440BA10013453F8345F75B1002AF7DD5E68B242F0
S21440BA20F6D185B144603422084B02FB04340461ED
S21440BA30002070BC70476FF0AB00FAE76FF0A900CB
S21440BA407047002070476FF0AB00F2E7ECEC430025
S21440BA502DE9F0438BB0002800F0AF8180460029E6
S21440BA6000F0AE81002B00F0AE811F460D4600224E
S21440BA7001920092134602A906A8914CA04704469C
S21440BA8018B120460BB0BDE8F08305F1100605F16D
S21440BA902009294640468B4B9847044600283CD010
S21440BAA0002C55D0002C77D0002C00F09B80002C2A
S21440BAB000F0BB80002C00F0E280FCB9029B002B1B
S21440BAC005DD059B1B6813F0010F40F07F8102A93E
S21440BAD008467D4B98470446002C40F0118132467C
S21440BAE029463046794B98470446002C40F0108152
S21440BAF0129A39463046764B98470446002C00F05A
S21440BB00F380002C00F00881002C00F0198106A874
S21440BB10704DA84702A8A847B3E7314608F1100081
S21440BB20684B98470446C8B9494608F12000654B1B
S21440BB3098470446C8B906A94846674B98470446FE
S21440BB40D8B9129A394606A8614B98470446A7E7E3
S21440BB504A46314648465D4B9847044614BB129ABF
S21440BB60394648465A4B98470446002C38D14A46F0
S21440BB7049464846594B98470446E4B939464846EC
S21440BB80574B9847B0F1FF3F06D04A46394648469D
S21440BB90544B9847044685E702AA06A92846514BC7
S21440BBA09847044624BB049BA3B906AA29461046D8
S21440BBB04A4B984704464CBB394606A8484B9847DC
S21440BBC0B0F1FF3F0ED006AA39461046454B98477F
S21440BBD0044669E702AA39461046404B9847044651
S21440BBE06CB9E2E702AA114606A8384B98470446C5
S21440BBF00CBB129A394602A8354B9847044644BBBC
S21440BC0006AA02A90846354B9847044644BB39461F
S21440BC1006A8334B9847B0F1FF3F06D006AA3946F0
S21440BC201046304B9847044641E706AA02A91046FC
S21440BC302A4B984704463CBB394606A8284B9847AB
S21440BC40B0F1FF3F06D006AA39461046254B984726
S21440BC50044614BB324631463046204B984704468D
S21440BC601CBB394630461E4B9847B0F1FF3F06D0C6
S21440BC703246394630461B4B984704461AE731460B
S21440BC803046154B98470446002C40F0A580129A43
S21440BC90394630460E4B98470446002C7FF41CAF7E
S21440BCA002A930460C4B98470446002C7FF41DAF43
S21440BCB0129A394602A8064B98470446FDE600BF4E
S21440BCC079DE400015E040005DE64000B5FE4000ED
S21440BCD0B5EA400041DE40009DFD40007DE8400062
S21440BCE0BDE5400085EC4000294606A83C4B9847F9
S21440BCF00446BCB9129A394628463A4B98470446F9
S21440BD00002C50D12A4631462846374B98470446A1
S21440BD1094B9AB68002B39D12A4631462846324B77
S21440BD209847044694B9AB68002B36D1324629462C
S21440BD3030462D4B98470446D4B9AB69002B35D1D5
S21440BD40324606A93046294B98470446002C7FF4D5
S21440BD50DEAE129A39463046224B98470446002CAF
S21440BD607FF4D5AE324602A930461F4B984704466C
S21440BD70002C7FF4CCAEAC69002C3FF4C8AE324603
S21440BD80394630461A4B98470446C0E62A46394656
S21440BD902846174B98470446B3E62A46394628466F
S21440BDA0134B98470446002CD9D1BFE73246394654
S21440BDB030460F4B98470446A6E66FF0A90460E667
S21440BDC06FF0A9045DE66FF0A9045AE602AA394668
S21440BDD01046074B98470446002C8AD177E600BFAA
S21440BDE09DFD4000B5EA400085EC4000B5FE4000B1
S21440BDF07DE840002DE9F04F8DB0169F002800F0FA
S21440BE008B820E4615469A468046002900F094825C
S21440BE10002A00F09482002F00F09482914204BFE2
S21440BE2006469046002201920092134604A908A8AE
S21440BE30964CA047044618B120460DB0BDE8F08F9A
S21440BE4006F1100908AA49463846914B98470446D9
S21440BE5028B108A88F4DA84704A8A847ECE7444651
S21440BE600396314640468C4B9847002867D005F1EC
S21440BE70100A05F1200B29462046884B9847044671
S21440BE80002800F08780002C00F0E180002C00F0B5
S21440BE90158114BBAB69002B40F0308108AA1146CF
S21440BEA010467F4B98470446002C40F04481394664
S21440BEB008A8794B9847B0F1FF3F08D008AA394602
S21440BEC01046734B98470446002C40F0458108AA1C
S21440BED051461046724B98470446002C00F0168197
S21440BEE0002C00F05E81002C00F03C81002C00F01D
S21440BEF08D81002C00F0A581002C00F0BE81002C26
S21440BF0000F0CD81002CA4D1524608A904A8604B6D
S21440BF1098470446002C9CD1AB69002B40F0F58135
S21440BF202B69002B05DDEB691B6813F0010F40F011
S21440BF300C82514650465B4B9847044689E706F1CB
S21440BF40200B5846584B9847002890D0594608F141
S21440BF502000514B9847002889D108F1100B4946DC
S21440BF6058464D4B984730B108A958464A4B9847D3
S21440BF7000287FF47CAF08A8464CA04704A8A047FA
S21440BF80179B00933B46524629464046474CA0479F
S21440BF90044651E7514608F11000404B9847044686
S21440BFA000285AD1594608F120003C4B9847044691
S21440BFB000287FF468AF336A2BB908A958463C4B33
S21440BFC0984704465FE706F1200808A94046384BE4
S21440BFD098470446E0B1002C7FF455AF179A39468F
S21440BFE008A8344B98470446002C36D15246514652
S21440BFF008A8314B98470446002C7FF444AF179A64
S21440C000394650462B4B98470446002C35D1D4E74A
S21440C010179A394608A8274B984704460028E3D184
S21440C0202A46294608A8244B984704460028E3D1C8
S21440C030179A394628461F4B984704460028E4D1AD
S21440C04008AA114640461C4B98470446C3E7179A31
S21440C050394608A8174B98470446002C34D104AA02
S21440C06008A90398144B98470446002833D1179ADA
S21440C070394604A80F4B98470446002C34D108AAEA
S21440C080114658460C4B98470446FFE679DE40007A
S21440C09085EC400041DE4000BDE5400015E0400034
S21440C0A07DE840005DE64000E53F410051BA400073
S21440C0B09DFD4000B5EA4000B5FE4000179A39465F
S21440C0C008A8974B98470446F4B908AA114648462C
S21440C0D0944B98470446002C7FF4E6AE179A3946B0
S21440C0E008A88F4B98470446002C7FF4EDAE524686
S21440C0F008A950468C4B98470446CAE652463946ED
S21440C10050468A4B984704466CB9C7E6394608A855
S21440C110874B9847B0F1FF3F07D008AA39461046EC
S21440C120814B98470446002C48D12A4604A9284605
S21440C1307D4B98470446002C48D1AB6833B904AAD7
S21440C14011461046794B98470446C9E62A46394672
S21440C1502846764B98470446002CF0D044B9336ABC
S21440C160002B43D15A46294658466E4B98470446BC
S21440C170002C50D1179A39465846694B9847044682
S21440C180002C4FD108AA29461046664B98470446CD
S21440C19000284ED1179A394608A8614B984704465E
S21440C1A0A4E6394604A8624B9847B0F1FF3F07D053
S21440C1B004AA394610465C4B98470446002CD7D113
S21440C1C004AA29461046594B98470446002CD7D116
S21440C1D0394604A8564B9847B0F1FF3FBFD004AA53
S21440C1E039461046504B98470446B7E75A4606F13C
S21440C1F0200158464B4B984704460028B8D1179A1A
S21440C20039465846464B984704466CE629462846E3
S21440C210484B98470446D4B9179A39462846404B67
S21440C22098470446D4B904AA294610463D4B984739
S21440C2300446D4B9179A394604A8394B9847044659
S21440C24057E608AA29461046364B98470446D4B9BE
S21440C250179A394608A8324B98470446002C3ED1D8
S21440C26029465046334B98470446ACB9179A394648
S21440C27028462B4B984704463EE62A4604A92846BD
S21440C280294B9847044684B9AB6813BB04AA294691
S21440C2901046254B9847044694B9069B3BBB04AAD8
S21440C2A029461046204B98470446002C7FF432AE71
S21440C2B0069B1BBB04AA514610461A4B9847044699
S21440C2C0002C48D1179A394604A8154B984704467F
S21440C2D018E62A4639462846144B98470446002C0A
S21440C2E0D4D0002CE6D0002C3FF41AAEB1E504AA18
S21440C2F0394610460D4B9847044600E604AA394690
S21440C30010460A4B98470446EBE752463946504695
S21440C310064B98470446E6E76FF0A9048CE500BF55
S21440C320B5EA4000B5FE400085EC40007DE84000A0
S21440C330BDE540009DFD40006FF0A9047CE56FF030
S21440C340A90479E56FF0A90476E552463946504689
S21440C350034B98470446002C7FF47BADE9E500BFCD
S21440C3607DE840002DE9F0438BB0002800F0868041
S21440C3700446002900F0858090460E4600F12007CE
S21440C38000213846424B984790B900212046414B01
S21440C3909847054638BB002104F110003D4B9847AE
S21440C3A0054600BB012138463A4B984705461AE0F9
S21440C3B0002201920092134602A906A8364DA847CD
S21440C3C0002861D104F11009424631463846334BC5
S21440C3D09847054658B12DB3002D41D006A8304C9D
S21440C3E0A04702A8A04728460BB0BDE8F08306AA9F
S21440C3F0314638462B4B98470546C8B902A906A889
S21440C400294B98470546D0B902AA31461046274BD5
S21440C41098470546D8B906AA02A91046244B98471D
S21440C4200546D8E706AA31461046204B98470546AB
S21440C430E5B9224602A920461D4B98470546002DE1
S21440C440CCD1424631462046144B98470546002DEF
S21440C450C4D14A4606A94846154B98470546BBE709
S21440C4604246314648460D4B98470546002DB5D1C5
S21440C47001213846074B98470546AFE76FF0A905B8
S21440C480B1E76FF0A905AEE76FF07C05ABE700BFFC
S21440C490E9E5400025E6400079DE4000B5EA400088
S21440C4A041DE400061F940009DFD400065F34000DC
S21440C4B0B5FE400070B582B00546252201463020C4
S21440C4C00E4B9847044670B1302200210C4B9847DB
S21440C4D000230193009304F1200204F1100120464A
S21440C4E0084EB04710B9204602B070BD25222946F6
S21440C4F02046054B98470024F5E700BF4D9D410078
S21440C500BD8C430079DE4000599D410080B170B536
S21440C51004460D46074EB04704F11000B04704F1FC
S21440C5202000B047252229462046034B984770BD39
S21440C530704700BF41DE4000599D41002DE9F04F55
S21440C54099B0002800F0DA810446002900F0DA812C
S21440C550002A00F0DB812298002800F0DB81069458
S21440C560049305920F462022002110A8964B984728
S21440C5700BA92298954B9847039018B1039819B089
S21440C580BDE8F08F0CA8924B984703900028F5D151
S21440C59022990CA88F4B98470390002837D10FADAF
S21440C5A00DF15C0BA9468C4C2498A04749F8040F23
S21440C5B0002830D0CB45F7D12498874B984706467D
S21440C5C0002800F0B98101210CA8844B9847002828
S21440C5D034D03346229A0CA93846814CA047039063
S21440C5E0002840F0AC8106F11003229A0CA907F10E
S21440C5F01000A0478046002840F0908106F12003B6
S21440C600229A0CA907F12000A04703902FE00CA81F
S21440C610744B9847B2E706460CA8724B98476FF0A3
S21440C6207C030393249930466F4B98476E4E24996B
S21440C63055F8040FB047AB45F9D19FE73146384629
S21440C6406A4B98470390002840F0798106F1100124
S21440C65007F11000654B98478046002840F05E8101
S21440C66006F1200107F12000604B984703900CA884
S21440C6705C4B9847039B002B40F064810B9B0093D8
S21440C680229B049A10993046594CA0478046B8F1F0
S21440C690000F40F048810B9B0093229B049A109910
S21440C6A00846534CA04703904CE10B9B0093229BBB
S21440C6B0049A109908464E4CA0478046002840F001
S21440C6C0328110AC4B4FAA46229D206854F8042F66
S21440C6D00B9B01930095049B3146B8478046002843
S21440C6E040F020814C45F0D155460698424B98473D
S21440C6F0431E07934446C24601274FF00009089759
S21440C70009950CE0012C23D00AF1010ACAF1040273
S21440C710934048EA0308BAF1040F28D00224013FA8
S21440C7200CD1079DB5F1FF3F00F0158129460698CC
S21440C730324FB84781466B1E07931C27C9F3C06328
S21440C7404FEA4909002CDDD1002BDDD11C46E6E737
S21440C750002BD9D10B9B0093229B049A0598014647
S21440C760234DA84703900028D9D0099D5AE7089B37
S21440C770012B45D00424BA46099D0B9B0093229B6F
S21440C780049A059801461A4FB847002840F0AE80F4
S21440C790013CF2D15746099518AB03EB880858F888
S21440C7A0401C0B9B0193229B0093049B05980246DA
S21440C7B0104CA0470890089B002B40F0D6809A4625
S21440C7C098460124ABE700BFBD8C43005BEF4000BA
S21440C7D00BDE4000EDFF4000B5C44000E9E54000F8
S21440C7E001FF400041DE40000DC5400015E040001E
S21440C7F051BA4000F5BD4000E53F4100EF3F4100E3
S21440C80018AB03EB880858F8404C059D294620464F
S21440C810584B98470390002864D105F1100104F165
S21440C8201000544B9847039000285DD105F1200135
S21440C83004F120004F4B98470890BCE7BAF1000F30
S21440C84040F38D80DFF83C91089B0395059D1DE0E5
S21440C8500B9B0093229B049A29462846464CA047A9
S21440C860002833D14FEA480818F010030BD00B9B32
S21440C8700193229B0093049B2A4631462846C8478C
S21440C8800346002855D10137BA4522D0002BDFD0C9
S21440C8904FEA480818F0100FF5D029463046354B79
S21440C8A0984728BB05F1100106F11000314B984718
S21440C8B008BB05F1200106F120002E4B98470346A1
S21440C8C00028E0D00890039D0390ABE6039D0390BC
S21440C8D0A8E6039D43E00B9A22990598274B984774
S21440C8E003909FE6099D9DE6099D9BE6039099E689
S21440C8F0039D039096E6039D039093E66FF0A9038D
S21440C90003933BE66FF0A903039337E66FF0A90362
S21440C910039333E66FF0A90303932FE60CA8184B56
S21440C9209847B4E65546B8F1000F18D0CDF80C80BD
S21440C93078E6039D039075E66FF07C0303930CA89E
S21440C9400F4B9847039B002B3FF4AFAE039B002B47
S21440C9507FF468AE03E0099D022C3FF46FAF239B43
S21440C960002BB8D1239B03935CE6099D089B039359
S21440C97058E600BF15E0400051BA400065C340008D
S21440C98041DE4000F5BD40002DE9F043A5B0044629
S21440C9900F46904606A8059028220021454B98470A
S21440C9A010AB0C9305230D93002C77D0B8F1000FF5
S21440C9B020D045461FB3059700230193009305F109
S21440C9C0200205F1100128463B4EB047064600B30C
S21440C9D04FF0000956B361694846384B9847284699
S21440C9E0DFF8F490C84705F11000C84705F120006D
S21440C9F0C84741E004F1180503232360DAE73B22E9
S21440CA0005A920692E4B984706464FF00009A0B965
S21440CA10D2E760692B4B98478146002841D00146B3
S21440CA20059B1869284B98470646D3E709F110013D
S21440CA30059B5869244B98470646002E34D1012161
S21440CA4009F12000214B984706460028C3D1059A95
S21440CA5093686169029101210191526800922A46C9
S21440CA60494604F148001A4EB047064661694846B2
S21440CA70124B9847002EB2D137B12368032B07D00C
S21440CA80304625B0BDE8F0830598124B9847F4E74A
S21440CA90B8F1000FF4D102232360F1E76FF0AC0643
S21440CAA0EEE76FF07C0693E761694846034B98478C
S21440CAB095E700BFBD8C430079DE40000DC54000C1
S21440CAC015B94000B5C4400015E0400025E64000DA
S21440CAD03DC5400051B8400041DE4000084A0023B2
S21440CAE0013352F8341F0029FAD1B0F1FF3F04DB7E
S21440CAF08342D4BF0020012070470020704700BF0B
S21440CB00ECEC43002DE9F04798B004460F469046BB
S21440CB101E4606A8059028220021334B984710ABA6
S21440CB200C9302230D93002C4FD0002F50D0B8F119
S21440CB30000F50D0002E51D0032205A920692B4B60
S21440CB409847054618B1284618B0BDE8F087DDF886
S21440CB5014A004F148056069254B98478146002893
S21440CB6030D0DAF808306269029201220192DAF88F
S21440CB70042000920246394628461E4DA8470546E0
S21440CB8048B100273760616948461B4B984705986F
S21440CB901A4B9847D7E7DAF80400194B98470746E8
S21440CBA0336898421DD80246002140460E4B9847AF
S21440CBB04846134B9847391A41444846114B9847C4
S21440CBC00546DFE76FF07C05E1E76FF0AC05BAE7B6
S21440CBD06FF0AC05B7E76FF0AC05B4E76FF0AC05A7
S21440CBE0B1E76FF08305CDE7BD8C430015B9400033
S21440CBF0B5C440003DC540000DC5400051B840009A
S21440CC0079DF400001F34000002831D0F8B50446F3
S21440CC10002930D0002A31D0002B32D000680238AC
S21440CC20012831D81F4616460D466068194B98476E
S21440CC3068B3A368002B12DB012B05DD022B0ED157
S21440CC4000200023A360F8BD0123A3603B46324684
S21440CC5029462046104DA8470028F1DA01E06FF03B
S21440CC60BF0010F16C0FECD1A3680133A360F8BD90
S21440CC706FF0AC0070476FF0AC00F8BD6FF0AC00E2
S21440CC80F8BD6FF0AC00F8BD6FF0A900F8BD6FF0CE
S21440CC90A900F8BDDDCA400005CB400008B3F8B592
S21440CCA0044609B31AB32BB300680238012824D8C7
S21440CCB01F4616460D466068164B984700B3686890
S21440CCC0144B9847F8B122692B6952685B689A42C0
S21440CCD01CD13B46324605F1180120460E4CA04773
S21440CCE0F8BD6FF0AC0070476FF0AC00F8BD6FF069
S21440CCF0AC00F8BD6FF0AC00F8BD6FF0A900F8BD11
S21440CD006FF0A900F8BD6FF0A900F8BD6FF0A9005C
S21440CD10F8BD00BFDDCA400009CC40002DE9F04711
S21440CD20A0B007460D4614461E4602A8019028228B
S21440CD300021414B98470CAB089305230993002CE0
S21440CD406ED0002F6FD00023A3603246294620467F
S21440CD503A4B9847054618B1284620B0BDE8F087BC
S21440CD6004F148063046364B9847054628B1002D14
S21440CD7048D03046334B98474EE03B2201A92069C5
S21440CD80314B984705460028F3D123691D68019B1F
S21440CD90D3F80CA0552200214A202C4B98478046B9
S21440CDA0002846D005F108094A4601463846284B31
S21440CDB09847054670B108F14200434600215A1C88
S21440CDC0197013468242FAD1552200214046214B23
S21440CDD09847CCE74A46414630461F4B984705465B
S21440CDE00028E8D1A36C0BB3514630461B4B9847FE
S21440CDF0B0F1FF3FDFD0324651463046184B984799
S21440CE000546D8E7002201992046164B9847054626
S21440CE100028AED1022323600198134B98479BE726
S21440CE206FF0AC0598E76FF0AC0595E76FF07805C6
S21440CE30C1E76FF07C059CE7BD8C4300E5B9400038
S21440CE400BDE400019DF400015B940004D9D410003
S21440CE50BD174100599D4100C5E44000BDE5400076
S21440CE6065F3400089C9400051B8400010B5002322
S21440CE70014CA04710BD00BF1DCD4000D8B170B5D5
S21440CE8082B004460D46582200210E4B9847002398
S21440CE90A3600193009304F1380304F1280204F1DF
S21440CEA0180104F14800084EB047034638B965619A
S21440CEB0184602B070BD6FF0AC03184670476FF06E
S21440CEC07C03F5E7BD8C430079DE400078B138B589
S21440CED004461830064DA84704F12800A84704F138
S21440CEE03800A84704F14800024B984738BD7047C1
S21440CEF041DE400019DF40002DE9F04FABB08146DF
S21440CF008A4690461C46349F359E18A8179028227D
S21440CF1000216E4B984722AB1E9301231F93B9F115
S21440CF20000F00F0B180002F00F0B180002E00F01E
S21440CF30B180002C00F0B180B8F1000F00F0B08056
S21440CF402368023B012B00F2AE806068604B984736
S21440CF50012840F0AB8026A85E4B9847054618B19E
S21440CF6028462BB0BDE8F08F082217A920695A4BF7
S21440CF709847054630B126A8584B98471798584BBF
S21440CF809847EDE7179BD868564B98478346B0EBD3
S21440CF90CA0F80F0908000F1070A4FEADA0249464D
S21440CFA026A8514B9847002840F083802AF0070A6D
S21440CFB0D34506D20BF00701C1F1080126A84B4B1A
S21440CFC098476FF00102616901A8494B98470028CD
S21440CFD0D1D14FF04009DFF830B1DFF830A130E072
S21440CFE013AA179BD9681046424B98470546002817
S21440CFF046D13346179AD268394604F148003E4D2A
S21440D000A847054600283BD13246314626A83B4B2A
S21440D01098470546002833D13246179BD968304694
S21440D020D047054600282BD13346179AD26813A915
S21440D0303046314DA847054633680BBBB9F1010968
S21440D0401CD021694B6801AA09684046D847054666
S21440D050B0B93A46179BD96807A8D047054678B96D
S21440D0603B68002BBCD107A81C4DA8470BA8A84777
S21440D0700FA8A84713A8224B9847DFE76FF0C605CE
S21440D08001A8204B984776E76FF0A90568E76FF050
S21440D090A90565E76FF0A90562E76FF0A9055FE7A8
S21440D0A06FF0A9055CE76FF0A90559E76FF0A90591
S21440D0B056E705465FE75246494626A80A4B984734
S21440D0C000283FF47EAF054655E700BFBD8C4300C1
S21440D0D0DDCA40000BDE400015B9400041DE40008E
S21440D0E051B8400051DF4000C5E4400029E140000F
S21440D0F07DCE400061F9400001FF40007DE84000E1
S21440D10019DF4000CDCE40001DCD400065F3400005
S21440D1102DE9F0438BB0139C002855D00746002AD3
S21440D12055D0002B56D0002C57D01298002857D0F8
S21440D130984616468946A568032D05D0042D23D06B
S21440D14015B16FF0BF052DE00323A36000220692C1
S21440D15007920892099202920392049205920192D3
S21440D1600092134602A906A81F4DA8470546C8B90F
S21440D17002AB019306AB00932346129A49463846C3
S21440D1801A4DA847051E0DDB0423A36002AB06AA72
S21440D19041463046164DA847054606A8154EB047A8
S21440D1A002A8B04715F16C0F0AD006A8114EB0473A
S21440D1B002A8B0470023A36028460BB0BDE8F08322
S21440D1C0A3680133A360F7E76FF0A905F4E76FF0B3
S21440D1D0A905F1E76FF0A905EEE76FF0A905EBE7C3
S21440D1E06FF0A905E8E700BF79DE4000F9CE4000C1
S21440D1F041B5400041DE40002DE9F04FBBB08146CE
S21440D2008B4616460593459D08A807902822002180
S21440D2109F4B984712AB0E9305230F93B9F1000F1F
S21440D22000F06681BBF1000F00F06581002E00F033
S21440D2306581449B002B00F06481002D00F06481E2
S21440D2400023449A13606868924B984782460128A8
S21440D25040F05D812B68032B1AD026A88E4B98474A
S21440D2608046002840F056813B2207A928698B4B10
S21440D27098470446002840F07981D9F80030002BC2
S21440D28000F07281DBF800305BB96FF078046DE136
S21440D290002211462846824B984704460028DCD098
S21440D2A082E1079BD96848467E4B9847B0F1FF3FDE
S21440D2B002D06FF0780459E1079BD9685846794BFD
S21440D2C09847B0F1FF3F00F028816FF078044DE1B9
S21440D2D007F107084FEAD802314626A8724B98470E
S21440D2E00346002840F02F8128F007039F4206D2CD
S21440D2F007F00701C1F1080126A86C4B98470023A8
S21440D300019300932AAB2EAA32A936A8684CA047B0
S21440D310002840F025816869664CA0470646686943
S21440D320A0470746002800F01381002E00F0148125
S21440D33032AA079BD96858465F4B98470446002C4C
S21440D3403FD12EAB079AD26832A926A85B4CA0479D
S21440D3500446002837D12AAB079AD26832A94846F5
S21440D360564CA047044600282FD13146079B1869E3
S21440D370534B98470446D046FDE0A24600273E461B
S21440D380D6E706F11001079B58694D4B984704466F
S21440D39024BB012106F120004A4B98470446002C46
S21440D3A02CD1394605F11800454B98470446002CC9
S21440D3B034D107F1100105F12800414B9847044647
S21440D3C0DCE0D046E4E7D046E9E7D046EFE707F1B1
S21440D3D0200105F138003A4B98470446002C33D1DB
S21440D3E0079A9368696902910021019152680092F8
S21440D3F0324631462EA8344CA0470446002C2DD148
S21440D400079A9368696902910021019152680092D7
S21440D4103A4639462AA82C4CA0470446002C40F0F1
S21440D420B38006A9079B5868284B98470446A8E04F
S21440D430079A93680699019152680092324631469F
S21440D4403846234CA0470446002C40F09D80069A60
S21440D450079B596830461F4B98470446002C40F0BF
S21440D460938036AA079BD96830461B4B984704469C
S21440D470002840F08980494636A80A4B984700283D
S21440D48040F08280012244990A6004467CE000BF56
S21440D490BD8C4300DDCA40000BDE400015B940009D
S21440D4A089C94000BDE54000C5E4400029E1400090
S21440D4B079DE4000B5C4400061F9400001FF4000FD
S21440D4C015E0400025E640003DC540005BEF4000CB
S21440D4D0F5BD400065C3400065F3400036A8344DB6
S21440D4E0A84732A8A8472EA8A8472AA8A84758E081
S21440D4F06FF0A90458E06FF0A90455E06FF0A90456
S21440D50052E06FF0A9044FE06FF0A9044CE06FF0D2
S21440D510A90449E06FF07C0446E0079BD868254B99
S21440D52098470746059BB0EBC30FFFF4D1AE059A6C
S21440D530314626A8204B9847034600283FF4DFAEE6
S21440D54000273E4601E000273E46A2461C46F6E639
S21440D55054466FF07C03F8E754466FF07C03F4E7DC
S21440D560D0466FF07C0404E06FF07804002C3FF463
S21440D57004AF00273E46002C3FF403AF002C3FF498
S21440D58026AF002C3FF454AF696930460B4EB04787
S21440D59069693846B04726A8054B9847B8F1000F4A
S21440D5A09CD10798064B984720463BB0BDE8F08F85
S21440D5B041DE400051DF4000C5E440000DC540005C
S21440D5C051B840002DE9F0418AB0109F119C0028C8
S21440D5D04ED0002A4FD0002F50D0002C51D01E469F
S21440D5E01546A368072B3AD8DFE803F004393939E3
S21440D5F0390418250523A36000233B600693079350
S21440D60008930993029303930493059302AB06AAE7
S21440D610DFF87C80C047B0F1000822DB0623A36019
S21440D6200194009733462A4602A906A8164DA847F5
S21440D630B0F1000815DB0723A36006A8134DA847E2
S21440D64002A8A8474FF0000806A8104DA84702A811
S21440D650A8470023A36040460AB0BDE8F0816FF0BB
S21440D660BF0818F16C0FEFD1A3680133A360F2E74F
S21440D6706FF0A908EFE76FF0A908ECE76FF0A9088C
S21440D680E9E76FF0A908E6E7F9D1400041DE40003F
S21440D690C9B540002DE9F04F83B0002874D0044649
S21440D6A0002944D0002A72D00368032B72D0154656
S21440D6B08A4640683F4B984700286ED023691E68CC
S21440D6C0770001372B68BB423DD304F11803019322
S21440D6D01846DFF8F890C847804628342046C847A2
S21440D6E0834646455CD386425DD304238AF80030A1
S21440D6F0552200214FF480702F4B984781460028D2
S21440D70054D04FF4807200212C4B9847A6EB08016A
S21440D710494401982A4B98478046C0B1552200217B
S21440D7204846284B9847404603B0BDE8F08F12B9AC
S21440D7306FF0A908F7E703691B685B0001331360C5
S21440D7406FF0C908EFE72F606FF08308EBE73246CB
S21440D75049460AF101001C4B98474FF4807200215D
S21440D7604846164B9847A6EB0B0149442046144BB7
S21440D770984780460028D1D1701C324649465044CE
S21440D780114B98472F60C9E76FF0A908CBE76FF0B9
S21440D790A908C8E76FF0F508C5E76FF0A908C2E723
S21440D7A06FF08308BFE76FF08308BCE76FF07C0834
S21440D7B0B9E700BFDDCA40004D9D4100BD8C430027
S21440D7C001F34000599D4100C18A430079DF400083
S21440D7D02DE9F04F85B0002859D00646002A59D08A
S21440D7E011F0010F59D0039314460D460023936061
S21440D7F002F1480A02F1180902F1280802F1380736
S21440D800019300933B46424649465046DFF8A8B04F
S21440D810D847002844D13378042B0DD0023BDBB2E6
S21440D820012B06D96FF08B043CBB204605B0BDE803
S21440D830F08F6FF0AD0410E0691E039A4908204649
S21440D840194B9847012323600446B0B96A1EDA4054
S21440D850F1184846154B9847044674B96A1E520854
S21440D860511C31444046114B9847044628B9012183
S21440D87038460F4B98470446D6E748460D4DA847CE
S21440D8804046A8473846A8475046A847CDE76FF0D9
S21440D890AC04CAE76FF0AC04C7E76FF0A904C4E76E
S21440D8A06FF07C04C1E700BFE5B94000C5E4400026
S21440D8B025E6400041DE400079DE400010B50023FA
S21440D8C0014CA04710BD00BFD1D74000F8B5054673
S21440D8D00E46069C4AB119461046079B22460F4FF5
S21440D8E0B8470223236058B1F8BD84B190B10023F5
S21440D8F0A360079A20460A4B984703232360F2E723
S21440D9003246294604F14800064B9847F8BD6FF06A
S21440D910AC00F8BD6FF0AC00E6E700BFD1D74000E2
S21440D920E5B94000C5E4400010B103691868704787
S21440D9300020704708B5034B98470028C4BF053001
S21440D940400008BD29D9400030B330B40546B6285B
S21440D9501DD0134B002001305C6BD4B13433DC6AED
S21440D960A542F8D12AB134230D4C03FB00439B6AF1
S21440D970136029B134230A4A03FB00235B6A0B6019
S21440D9803423074A03FB0020406830BC7047002021
S21440D990E8E76FF0AD00F8E76FF0AC00704700BF07
S21440D9A0ECEC43000338062809D8DFE800F00B0407
S21440D9B0060B0B0B0B0014207047202070476FF0AF
S21440D9C0AC0070476FF0E700704700002DE9F0416B
S21440D9D00746884616462622002164200E4B984766
S21440D9E0B0B104460D4B9847054638B12622002173
S21440D9F020460B4B98472846BDE8F08142463946BC
S21440DA002046084B984731462046074B9847EDE757
S21440DA106FF07C05EFE700BF4D9D41005138410057
S21440DA20599D410045364100053741002DE9F041FA
S21440DA3006460F469046262200217020104B9847F7
S21440DA40D0B104460F4B9847054638B126220021F0
S21440DA5020460D4B98472846BDE8F0813A46314669
S21440DA6020460A4B984705460028EFD141462046B7
S21440DA70074B98470546E9E76FF07C05EBE700BFA4
S21440DA804D9D4100453F4100599D4100793C410034
S21440DA90C13D4100F8B504460D4616461F46114B9B
S21440DAA09847069B984217D8E01E062805D8DFE818
S21440DAB000F016070D16161616006FF0AC00F8BDEF
S21440DAC03A4631462846084B9847F8BD3A463146CE
S21440DAD02846064B9847F8BD6FF08300F8BD6FF0B8
S21440DAE0E700F8BDA5D94000CDD940002DDA40006A
S21440DAF010B5044690F81431012B03D0022B0BD0FE
S21440DB00002004E0402200F17001064B984710B90F
S21440DB10012384F8153110BD402200F17001024BFC
S21440DB209847F4E745364100793C41002DE9F041FD
S21440DB3000286CD016461F460546B2B1012977D953
S21440DB40082906D0022968D00B1F012B01D90729C6
S21440DB5060D1002385F8153185F81411C5F81031C9
S21440DB606FF0AC042046BDE8F081002BE6D06FF0A5
S21440DB70AC04F7E7402F1AD826B13A46314640461D
S21440DB803F4B98473F2F21D905F16F0305F1AF0171
S21440DB9005F1EF005A7882F05C0201F8012F5A78BE
S21440DBA082F0360203F8012F8142F3D1DAE73A4693
S21440DBB031462846334B984708B10446D2E741469B
S21440DBC02846314B9847002855D11427C7F14002C4
S21440DBD0002108EB07002D4B9847D5E7402F07D884
S21440DBE0002ECFD03A4631464046254B9847C9E7A7
S21440DBF03A4631462846264B984708B10446B1E790
S21440DC0041462846234B9847B8BB2027DEE76FF0AF
S21440DC10AC04A7E76FF0AC04A4E7002385F8153101
S21440DC20022385F8143128461B4B984704460AE0E1
S21440DC30002385F8153185F81411012913D128469B
S21440DC40164B984704460023C5F81031002C89D15E
S21440DC5005F1700895F81431012B8BD0022BBDD0FE
S21440DC606FF0AC047EE70229DDD00023C5F8103102
S21440DC706FF0AC0476E7044674E7044672E700BFEC
S21440DC80C18A43004536410005374100BD8C4300FC
S21440DC90793C4100C13D4100453F4100513841007B
S21440DCA050B370B5044661B116460D4694F815312A
S21440DCB063B194F81431012B0FD0022B15D00023FA
S21440DCC011E0002AF0D06FF0AC030CE020460C4B7D
S21440DCD0984703460028ECD005E0324629462046C1
S21440DCE0084B98470346184670BD3246294620469C
S21440DCF0054B98470346F6E76FF0AC031846704767
S21440DD00F1DA400045364100793C4100002854D0C5
S21440DD1070B50446002954D00D4690F8153123B30B
S21440DD2094F81431012B26D0022B4DD104F1F00685
S21440DD3031462046264B9847034600283BD1402292
S21440DD4004F1B0012046234B98470346002832D1C1
S21440DD502022314620461F4B9847034658BB29464B
S21440DD6020461B4B9847034621E01B4B98470346EB
S21440DD700028D5D01FE004F1F00631462046174B68
S21440DD8098470346B8B9402204F1B0012046144BE8
S21440DD909847034678B9142231462046104B984798
S21440DDA0034640B9294620460C4B9847034613B9CC
S21440DDB0002284F81521184670BD6FF0AC03184653
S21440DDC070476FF0AC03F6E76FF0AC03F3E700BFC5
S21440DDD0C13D4100793C4100F1DA40000537410041
S21440DDE04536410058B138B504460D464FF48C725E
S21440DDF00021044B9847C4F81051002038BD6FF0FE
S21440DE00AC007047BD8C43007047034628B10020E5
S21440DE10D86018605860986070476FF0020070478E
S21440DE20C3684BB110B50446092200211846034B7F
S21440DE3098470023E36010BD704700BF599D4100DE
S21440DE40B8B110B50446C36893B10368002B08DD2B
S21440DE5000231846E16841F82300013321689942BF
S21440DE60F8DC2046034B9847002323606360A3609A
S21440DE7010BD704721DE400070B4039D049E0446EA
S21440DE8020B1002020606060A060E06021B10020EA
S21440DE90086048608860C86022B10020106050600A
S21440DEA09060D06023B10020186058609860D860B9
S21440DEB025B1002028606860A860E86026B1002090
S21440DEC030607060B060F06024B10020E060206098
S21440DED06060A06021B10020C8600860486088602B
S21440DEE022B10021D16011605160916023B10022BF
S21440DEF0DA601A605A609A6025B10023EB602B60A6
S21440DF006B60AB6026B10023F36033607360B36030
S21440DF10002070BC70470000B0B138B50546C368F5
S21440DF2073B10168890006D0194400245A1C1C703D
S21440DF3013468A42FAD12846044B984700236B6022
S21440DF400023AB602B6038BD704700BF21DE400029
S21440DF5003687BB15A1EC2EBC202920003F18043B3
S21440DF60013BC16851F8233013B101325B08FCD144
S21440DF70104670471A46FBE708B5064B984710F020
S21440DF80070318BF012302460028B8BFC21D03EB93
S21440DF90E20008BD51DF400043688B4200DB69BBAE
S21440DFA070B504468D1CC66809220021A800174B90
S21440DFB0984728B3E06096B16368002B0ADD321FAD
S21440DFC0002352F8040FE16841F8230001336168EA
S21440DFD09942F6DC0922002130460D4B984763688B
S21440DFE065609D420FDD9A000020E168885001334D
S21440DFF0043261689942F8DC002070BD002070470A
S21440E0006FF0010070BD002070BD00BF4D9D410007
S21440E010599D410038B5002835D00546002935D0F1
S21440E020884236D00C464B6801688B4200DB23B9E9
S21440E0302046194B9847034608BBE968E2682B68B8
S21440E040002B1EDD002351F8040B42F8040B01336D
S21440E05028689842F7DC21688B420BDAE16849B1C0
S21440E060002042F8040B01332168994202DDE16842
S21440E0700029F6D12B682360AB68A36000231846BE
S21440E08038BD0023E7E76FF00203F8E76FF00203BE
S21440E090F5E70023F3E700BF99DF400090B110B4E6
S21440E0A00446002383600360C2684368002B07DD94
S21440E0B00023184642F8040B013361689942F9DCA4
S21440E0C05DF8044B70470368002B11DD10B403F174
S21440E0D080410139C46804EB810254F8211069B9C3
S21440E0E0013B036043B152F8041D0029F8D005E017
S21440E0F033B9002383607047002383605DF8044B88
S21440E100704770B485B006460C460FC88DE80F00C1
S21440E11094E80F0086E80F009DE80F0084E80F00A3
S21440E12005B070BC70470000F8B501278F40046802
S21440E13004F18043013BC56805EB8305013C11D4DF
S21440E140013FC1F11C0E00232E6826FA01F203FAA5
S21440E1500EF3134345F80439013C07EA0603B4F1CD
S21440E160FF3FF1D1014B9847F8BD00BFC7E04000E4
S21440E170002925DD70B5036899421CDAC26802EBB7
S21440E18081055B1A002B19DD002355F8046B42F815
S21440E190046B01330468641A9C42F6DC0468A342AC
S21440E1A006DA002542F8045B013304689C42F9DC39
S21440E1B0641A046070BD034B984770BD0023EDE7BA
S21440E1C0704700BF9DE04000F8B514460D1E3ADD8E
S21440E1D00368C3EBC303B5EB830F39DA11461F4B15
S21440E1E098470646002837D11D4F87FB05377B19D1
S21440E1F0EF17C7EB2317C7EBC7039B00AB420CBF19
S21440E2003B467B1C2268934207DA9A00E1688850B6
S21440E2100133043221689942F8DCE268AB081149C0
S21440E220A1FB0313C3EBC303A5EB8305012303FA4A
S21440E23005F5013D52F827301D4042F8275020464C
S21440E240094B984708E01046084B9847002603E0DD
S21440E2501146024B984706463046F8BD15E040004A
S21440E2609324499225499224C7E040009DE040000F
S21440E2702DE9F04184B0804616461D460C1E2EDD24
S21440E280002303930093019302932DB16A462146DF
S21440E290234B9847074660BB31464046214B98473C
S21440E2A0074650BB1B2C2CDC1F4981FB04310B1945
S21440E2B0E117C1EB2311C1EBC101B4EB81012BD1B6
S21440E2C030461A4B98471DB129466846184B984722
S21440E2D06846184B9847384604B0BDE8F08111466A
S21440E2E0104B98470746002DF5D02846124B9847C6
S21440E2F0F1E768460F4B9847EDE768460D4B984761
S21440E300E9E7094B83FB04232344E117C1EB2311C0
S21440E31030460A4B9847C7E73046094B9847CFE701
S21440E320C9E1400015E0400093244992C7E0400010
S21440E33003E1400041DE40009DE0400071E14000C6
S21440E34029E140002DE9F84305460C461618002200
S21440E35091464FF008080A4F23686BB10135E368D1
S21440E3601B6806F8013B4B46224641462046B847C6
S21440E3702A460028F0D002461046BDE8F88300BF83
S21440E38071E2400070B50D1E2EDD06460168294438
S21440E39043688B4222DB3268AB183360F4686FF018
S21440E3A0404019188900024404EB8202013B9D421A
S21440E3B009DC04310C44681E52F8041944F8041D64
S21440E3C0013B9842F8D1F2680023194642F8041BF4
S21440E3D001339D42FAD10023184670BD034B98473F
S21440E3E003460028D7D0F7E70023F5E799DF40003B
S21440E3F0F8B50D461446904205D011462C4B98472A
S21440E4000346002842D12B4B83FB05232B44EE17B3
S21440E410C6EB231621683144013163688B4237DBF3
S21440E4201B2D3CDC234F87FB05377B19EF17C7EBCB
S21440E4302317C7EBC707B5EB870723D04FF0010E6E
S21440E4400EFA07FE0EF1FF3EC7F11C0CE668236885
S21440E450002B17DD00210D46336823FA0CF202EA42
S21440E4600E02BB402B4323F0704346F8043B013179
S21440E470206815468842EFDC22B1E368411C2160E3
S21440E48043F8202020460C4B984700231846F8BDFA
S21440E49020460A4B984703460028C1D0F6E7314647
S21440E4A02046074B984703460028BBD0EEE700BF00
S21440E4B015E0400093244992C7E0400099DF4000B1
S21440E4C085E340002DE9F04104460D461646436874
S21440E4D0012B20DD2046134B9847002E14DD2E449A
S21440E4E04FF00808104F224641462046B84703469C
S21440E4F070B9E26815F8011B13680B431360236874
S21440E50001332360AE42EED12046084B98470023A5
S21440E5101846BDE8F0810221054B9847034600287F
S21440E520D8D0F5E79DE04000F1E34000C7E040006A
S21440E53099DF400010B50C46884203D0034B9847FD
S21440E540034608B90023A360184610BD15E04000F6
S21440E55070B405680B689D4221DC23DB05F18042E0
S21440E560013A9300C668F418C968C818002D1CDD27
S21440E57056F8226051F822309E4218D819D300230C
S21440E58001339D4209D054F8041D50F8042D9142A1
S21440E59012D8F5D24FF0FF3002E0002000E0012014
S21440E5A070BC70474FF0FF30FAE70020F8E70120D4
S21440E5B0F6E74FF0FF30F3E70120F1E708B5836850
S21440E5C08A68934205D0012B0CBF4FF0FF300120E4
S21440E5D008BD0A46012B06BF014610461146014BB0
S21440E5E0984708BD51E54000036823B9081C18BF8A
S21440E5F00120404270478268012A0DD0012B01DD80
S21440E60001207047C3681868814208D381424FF0A2
S21440E610FF3098BF002070474FF0FF307047012012
S21440E6207047000038B504460D460A4B984701210E
S21440E6302046094B9847024648B9E36825F070459E
S21440E6401D60E3681B68003318BF01232360104633
S21440E65038BD00BF9DE0400099DF4000F8B5054654
S21440E6600C46016863688B422EDB26682A68226067
S21440E67002F1804001388300EF681F44E068184488
S21440E680013A0DD4002357F80419DB0643EA510338
S21440E69040F80439013A01F00103B2F1FF3FF2D1EC
S21440E6A02368E26802EB83029E4205DD002142F8C1
S21440E6B0041B01339E42FAD1AB68A3602046064B4A
S21440E6C0984700231846F8BD2046044B9847034613
S21440E6D00028CAD0F6E700BFC7E0400099DF4000F8
S21440E6E02DE9F84F82468946174605680C68A542CC
S21440E6F053DC23462C461D460E4605F1010B7B682F
S21440E7005B454CDBD7F80080C7F800B0DAF80C0061
S21440E710D9F80CE0D7F80C90002C48DDCC46002207
S21440E720114650F8043B5EF804AB53440B44190FB3
S21440E73023F070434CF8043B01329442F1D109EB8C
S21440E7408209AC4215D0954213DD9646C9EB820449
S21440E7504846F36803441B590B44190F23F0704393
S21440E76040F8043B01329542F3D1A2EB0E0209EB8E
S21440E770820909F10402C9F800103B68984505DD96
S21440E780002142F8041B01339845FAD13846094B1C
S21440E790984700231846BDE8F88F0646ADE7594629
S21440E7A03846054B984703460028ABD0F2E7002290
S21440E7B01146C6E7C7E0400099DF40002DE9F04724
S21440E7C00746884616460D68046853689C4242DCF5
S21440E7D0F06800284AD0D6F800903460FF68D8F831
S21440E7E00CE0002D3FDD8046BC4600210A465CF822
S21440E7F0043B5EF804ABA3EB0A039B1ADA0F23F044
S21440E800704348F8043B01318D42F0D18B001F44E1
S21440E81018448C420FDD0D46864657F8043B9B1A3B
S21440E820DA0F23F070434EF8043B0135AC42F4D186
S21440E830691A00EB81003368994505DD002240F8EF
S21440E840042B01339945FAD130460A4B98470023AA
S21440E8501846BDE8F08721461046074B98470346C2
S21440E8600028B5D0F4E700210A46D2E76FF002034D
S21440E870EEE700BFC7E0400099DF40002DE9F041D9
S21440E88004460D4616468768D1F8088047450CD0A2
S21440E8900D4B9847B0F1FF3F0CD0B7603246294643
S21440E8A020460A4B9847BDE8F0819760084B98474A
S21440E8B0BDE8F081C6F80880324621462846034B1C
S21440E8C09847BDE8F08100BF51E54000BDE74000F5
S21440E8D0E1E640002DE9F04F87B007460E46154664
S21440E8E0036802930968013143688B4205DA6B4B33
S21440E8F098470346002840F0BF80092200214FF485
S21440E9008050674B984704460190002800F0C0802E
S21440E910FA683B68002B40F3B3800023184652F851
S21440E920041B44F8081B44F8040C01333968994228
S21440E930F5DC326852000132934209DA00200021A9
S21440E940E4E8020101333268520001329A42F7DCB1
S21440E9503368002B40F39780DDF804804FF0000CBE
S21440E9600397A946C646D8F8007007FB09F727F074
S21440E9707047F1683368002B0DDD4246002351F89E
S21440E980040BF2E80245E7FB004542E90245013345
S21440E99030689842F3DCDEF80020DEF804304FEAB8
S21440E9A0127A4AEA031A4FEA137BDEE9022312EB95
S21440E9B00A0243EB0B03E8E902230CF1010C33682F
S21440E9C06345CFDC039F4FEACC03019AD4180CF181
S21440E9D0010C08331A443368590001318C4516DC63
S21440E9E054F8085B54F8043C280F40EA0310190F0B
S21440E9F0F2E8028918EB000849EB010942E902896E
S21440EA000CF1010C33685D0001356545E8DAF968BC
S21440EA10019A02EBC30233680133002B36DD002334
S21440EA2052F8080B20F0704041F8040B0133306870
S21440EA3001309842F4DC0298984205DD002241F805
S21440EA40042B01339842FAD1336801333B60384691
S21440EA50144B9847092200210198134B984731469A
S21440EA603846124B9847B0F1FF3F14D03A463146ED
S21440EA7038460F4B98470346184607B0BDE8F08F18
S21440EA80019C002355E74FF0000C9CE70023D2E79B
S21440EA906FF00103F0E70023EEE700BF99DF400088
S21440EAA04D9D4100C7E04000599D410051E5400062
S21440EAB0BDE740002DE9F84F05460C4692460B68E8
S21440EAC05E000136B6F5007F01DAFF2B53DD6B683A
S21440EAD09E4254DC2E602368002B35DD4FF0000943
S21440EAE0CB46EB6803EB890153F8293003FB0AF861
S21440EAF028F07048D4F80CC02368002B1FDD5A4617
S21440EB00DE465CF8040B0023E8FB00230868161872
S21440EB1043F10007320F42EA071226F0704641F8EA
S21440EB20046B0EF1010E23687345EADC3AB10B68BC
S21440EB301A4422F0704341F8043B120FF7D109F112
S21440EB40010923684B45CCDC2846124B9847216880
S21440EB502846114B984721462846104B9847B0F117
S21440EB60FF3F14D02A46214628460D4B9847034679
S21440EB701846BDE8F88F0B4B98470346F8E73146F2
S21440EB802846094B984703460028A3D0F0E70023C1
S21440EB90EEE700BFC7E0400071E1400051E54000AD
S21440EBA0BDE74000D5E8400099DF40002DE9F04F32
S21440EBB083B00446009116460D68690043688B4250
S21440EBC00CDB4FEA8508DFF8B090DFF8B0A0DFF83E
S21440EBD0B0B02F46CDF80480B04617E0254B984796
S21440EBE003460028EDD040E08E4600222CE020462A
S21440EBF0C847009D29462046D047B0F1FF3F33D056
S21440EC00224629462046D847034670BBE168019B0A
S21440EC1001EB030E002FE7DD764600221046254620
S21440EC2056F8044B0023E8FB04230C68121943F102
S21440EC30000322F0704441F8044B120F42EA0312DC
S21440EC4001308742ECD12C460EF10401CEF800206C
S21440EC507B1C22689342CADA002041F8040B013339
S21440EC6022689A42F9DCC2E70023184603B0BDE8A2
S21440EC70F08F00BF99DF4000C7E0400051E54000FC
S21440EC80BDE74000F8B506460D46174684688B68D3
S21440EC909C420BD10C4B9847B0F1FF3F0AD0BC606A
S21440ECA03A4629463046094B9847F8BD9460084B8B
S21440ECB09847F8BDB4FA84F46409BC603A463146D5
S21440ECC02846024B9847F8BD51E54000BDE7400056
S21440ECD0E1E640002DE9F04F93B00C68002C00F0C0
S21440ECE0AB801E4617460C460546554B9847B0F136
S21440ECF0FF3F29D000230193009302AB06AA0AA93E
S21440ED000EA8DFF86881C047804638BB012106A8B8
S21440ED104C4B9847804608BB2846DFF85481C0478E
S21440ED2081462046C04782460EA92846464B98470D
S21440ED308046D0B10EA8454CA0470AA8A04706A8D2
S21440ED40A04702A8A04709E066B131462846404B96
S21440ED509847804617B138463E4B9847404613B0D2
S21440ED60BDE8F08F4FF00008F4E70AA92046364B7E
S21440ED70984780460028DDD1A9EB0A090AAA4946E9
S21440ED801046354B984780460028D3D106AA4946B8
S21440ED901046314B984780460028CBD1DFF8D4B098
S21440EDA0A24610E000230AAA012110462B4CA04799
S21440EDB000283DD1002306AA01211046A04709F1AC
S21440EDC0FF39002836D1B9F1000F13DB0EA90AA887
S21440EDD0D8470128E6D00EAA0AA91046204B9847E5
S21440EDE020BB02AA06A910461E4B98470028D9D039
S21440EDF080469FE7AD685FB1DAF8084002A938461A
S21440EE00194B98473B687BB12C1B18BF0124BC604C
S21440EE10002E8FD00EA93046134B98473368002BF0
S21440EE2008BF1D46B56085E70024F0E7804681E7C9
S21440EE3080467FE780467DE76FF002088EE700BF9A
S21440EE4051E5400025E6400035E5400041DE400003
S21440EE5015E040009DE04000F1E3400071E24000D4
S21440EE6085EC40007DE8400003E1400079DE40004C
S21440EE7051DF4000BDE540000168F9B101291DD0D1
S21440EE801BDD30B4002916DDC36803EB8104002582
S21440EE906FF0704053F8042B824208BF0135A342FE
S21440EEA0F8D101EBD171B5EB610FACBF0121002168
S21440EEB0084630BC70470025F3E7002108467047F7
S21440EEC038B50368FBB1012B1CDD0446124B98474E
S21440EED01C281ADDE5686B6813F0010F17D01C225A
S21440EEE002230121013290420AD055F821402342A4
S21440EEF00FD05B00B3F1805F24BF01310123F1E7FF
S21440EF00012300E00123184638BD0123FBE7002318
S21440EF10F9E70023F7E700BF51DF400010B404686C
S21440EF20012C16DDC26851686FF07043994212D1C9
S21440EF30043201236FF0704001339C4205D052F8F2
S21440EF40041F8142F8D0002000E001205DF8044B09
S21440EF5070470020FAE70020F8E7C3681B6813F004
S21440EF60010F1AD09A1C520002F008021A4402FB03
S21440EF7003F0C0F1020000FB02F000FB03F2C2F116
S21440EF80020202FB00F202FB03F3023B03FB02F326
S21440EF9023F070430B60002070476FF0020070470C
S21440EFA0F8B506460C46154B83FB01230B44CD179C
S21440EFB0C5EB23156F1C0368BB4216DBF1680F4B8D
S21440EFC083FB04231A19E317C3EB2213C3EBC303D3
S21440EFD0A4EB8304012303FA04F451F825302343B9
S21440EFE041F8253000231846F8BD3946044B98476B
S21440EFF003460028F7D13760E0E700BF93244992E4
S21440F00099DF400038B504460D46034B98472946DD
S21440F0102046024B984738BD9DE04000A1EF400097
S21440F02070B584B005460E460023039300930193C3
S21440F0300293104B9847014668460F4B984768B96D
S21440F0406A46294668460D4B9847044668B9039B6E
S21440F0501B68336068460A4B984703E00446684698
S21440F060074B9847204604B070BD6846044B984707
S21440F070F8E700BF51DF400005F04000BDE7400024
S21440F08041DE4000F8B504460D461646016801319B
S21440F09053688B4230DB3768A368B360D4F80CE023
S21440F0A0F0682368002B2EDD00210A465EF804CB6C
S21440F0B00023E5FB0C2322F0704C40F804CB120FE3
S21440F0C042EA0312013123688B42EFDC051D0260E1
S21440F0D08B1C01318F4206DD0137002245F8042B98
S21440F0E00133BB42FAD12368013333603046074BC5
S21440F0F0984700231846F8BD1046054B98470346E8
S21440F1000028C8D0F6E700210A46DFE7C7E04000FF
S21440F11099DF40002DE9F04F85B004468A461746F1
S21440F120002303930093019302930846194B984794
S21440F1308146DFF87480DFF874B0174E13E022463D
S21440F14069462046B0470546E8B951462046134B27
S21440F1509847B0F1FF3F16D0224651462046104B06
S21440F1609847054678B923466A4649462046C047EA
S21440F170054640B9012FE2D06A4639466846D84728
S21440F18005460028DBD06846064B9847284605B01B
S21440F190BDE8F08F51DF4000E1E6400051E5400019
S21440F1A0BDE7400041DE400071E2400085F040008F
S21440F1B0F8B504460D46016801316B688B4232DB78
S21440F1C02F6823682B60E068EE682368002B19DD03
S21440F1D0043800231A4650F8041F4FEAD16E43EA1B
S21440F1E0410323F0704346F8043B013273462168DE
S21440F1F09142F0DCBEF1000F04D0012333602B684F
S21440F20001332B602B68EA6802EB83029F4205DDE0
S21440F210002142F8041B01339F42FAD1A368AB6039
S21440F22000231846F8BD2846024B98470346002858
S21440F230C6D0F6E799DF400070B504468E1C09221A
S21440F2400021B0000C4B9847E06078B10023236063
S21440F2506660A3609E420CDD31461846E26842F87E
S21440F260230001338B42F9D1002070BD6FF00100BE
S21440F27070BD002070BD00BF4D9D410070B5064674
S21440F2800D460968084B9847044608B1204670BDAD
S21440F29031462846054B984704460028F6D0304667
S21440F2A0034B9847F2E700BF39F2400015E04000B4
S21440F2B041DE400070B584B0014668460D4B984725
S21440F2C0A8B9044600260C4D009B53B1039B1C680E
S21440F2D0C4F3C01433466A4608216846A847002847
S21440F2E0F2D06846054B9847204604B070BD0024CF
S21440F2F0FAE700BF7DF2400071E2400041DE400088
S21440F30070B584B00C4601466846134B984706468F
S21440F31010B1304604B070BD224669460F4B984740
S21440F320051E14DB6B1E002B0DDD601E6119324678
S21440F330447811F8015C00F8015F01F8014D013294
S21440F340013B9A42F4DB6846054B9847E1E768463E
S21440F350034B98472E46DCE77DF2400045E34000ED
S21440F36041DE4000F0B585B006460C4617460968B3
S21440F3706846144B9847054610B1284605B0F0BD80
S21440F3806B460022214630460F4DA847054660B9D9
S21440F390009B73B1A368029A9A420AD03A466946DD
S21440F3A020460A4B9847054607E06846084B98476C
S21440F3B0E3E739466846074B98476846044B984704
S21440F3C0DBE700BF39F24000D5EC40007DE8400066
S21440F3D041DE400003E140002DE9F0479AB00B685B
S21440F3E0002B05DDCB681B6813F0010F00F0B280E0
S21440F3F017460C46064602AB019306AB00930AAB93
S21440F4000EAA12A916A87B4DA847054618B128464D
S21440F4101AB0BDE8F08716A92046774B98470546B0
S21440F42068B116A8754CA04712A8A0470EA8A047DA
S21440F4300AA8A04706A8A04702A8A047E7E712AA3E
S21440F440214630466E4B984705460028E9D10EA91E
S21440F45016A8694B984705460028E2D10AA912A883
S21440F460654B984705460028DBD1012102A8654B2D
S21440F470984705460028D4D1DFF89881DFF8989160
S21440F4800E9B002B40F38D80119B1B6813F0010FE1
S21440F49040F087800EA90846C0470346002855D14D
S21440F4A0069B002B04DD099B1B6813F0010F54D10B
S21440F4B006A90846C0470028E2D00546B1E70AAA92
S21440F4C00EA91046C84700283BD102AA06A91046F6
S21440F4D0C847002800F081800546A2E701210AA817
S21440F4E0494B9847804670BBB668DFF8309106E0D7
S21440F4F002AA21461046C8470546002891D1049BDB
S21440F500012BF5D0DFF818A1DFF80C91214602A8B0
S21440F510D047B0F1FF3F06D1394602A83B4B98474B
S21440F520BE6045467DE702AA21461046C8470546C6
S21440F5300028EBD075E7054673E7054671E70546B4
S21440F5406FE705466DE76FF002056AE71D4668E718
S21440F5501D4666E76FF0020559E706AA16A910464B
S21440F560C84703460028A3D01D465AE702AA16A954
S21440F5701046C847034678B11D4652E70AA90846D2
S21440F580C04703460028E3D1029B002B04DD059BC1
S21440F5901B6813F0010FE9D102A90846C0470028AE
S21440F5A0C9D10A9B002B04DD0D9B1B6813F0010F8D
S21440F5B0E4D00AA90EA8164B9847B0F1FF3F3FF497
S21440F5C07EAF0EAA0AA91046C8470028B5D106AA9B
S21440F5D002A91046C8470028B1D10E9B002B3FF425
S21440F5E07DAF0135B5F5805F7FF74AAF6FF0020516
S21440F5F017E700BF79DE400015E0400041DE4000DE
S21440F60065F3400025E64000E9E5400003E14000A0
S21440F610BDE540005DE6400085EC40007DE84000EA
S21440F62051E540002DE9F047A2B08B68012B00F071
S21440F630E6800B68002B00F0E58017460C46064631
S21440F6400AAB01930EAB009312AB16AA1AA91EA8DA
S21440F650744DA847054618B1284622B0BDE8F08745
S21440F660002201920092134602A906A86D4DA847B3
S21440F6700546C0B91EAA214630466B4B98470546FC
S21440F680F8B11EA8694CA0471AA8A04716A8A047DC
S21440F69012A8A0470EA8A0470AA8A04706A8A047B9
S21440F6A002A8A047D8E71EA8604CA0471AA8A047C3
S21440F6B016A8A04712A8A0470EA8A0470AA8A04789
S21440F6C0CAE71AA920465A4B984705460028D8D17B
S21440F6D01E9B002B05DD219B1B6813F0010F00F0DD
S21440F6E0948016A91EA8524B984705460028C8D1B4
S21440F6F012A91AA84E4B984705460028C1D10121A9
S21440F7000EA84C4B984705460028BAD1012102A8BE
S21440F710484B984705460028B3D1474EDFF81CA112
S21440F720DFF81C81DFF81C91169B002B40F3C1804C
S21440F730199B1B6813F0010F40F0BB8016A90846C2
S21440F740B047054600289CD10E9B002B04DD119B3C
S21440F7501B6813F0010F07D10A9B002B13DD0D9B8E
S21440F7601B6813F0010F0ED00EAA1AA91046D047F8
S21440F7700546002885D10AAA1EA91046C047054658
S21440F78000287FF47EAF0EA90846B04705460028FD
S21440F7907FF477AF0AA90846B04705460028C3D08D
S21440F7A06FE712AA16A91046C047054600287FF400
S21440F7B068AF06AA0EA91046C047054600287FF443
S21440F7C060AF02AA0AA91046C0470546002800F0C6
S21440F7D0978056E706AA21461046B04705460028B9
S21440F7E000F09D804DE706AA21461046B0470546E4
S21440F7F0002800F09E8044E76FF0020541E76FF076
S21440F800020529E76FF0020526E71A9B002B7FF7D3
S21440F81068AF1D9B1B6813F0010F7FF462AF6FF05B
S21440F82002052EE779DE400065F3400041DE4000E9
S21440F83015E0400025E640005DE640007DE84000DB
S21440F84085EC4000BDE5400012A90846B047054695
S21440F85000287FF416AF069B002B04DD099B1B682F
S21440F86013F0010F07D1029B002B14DD059B1B688C
S21440F87013F0010F0FD006AA1AA91046D047054626
S21440F88000287FF4FEAE02AA1EA91046C0470546D1
S21440F89000287FF4F6AE06A90846B047054600287D
S21440F8A07FF4EFAE02A90846B047054600287FF42D
S21440F8B0E8AE129B002B04DD159B1B6813F0010F6E
S21440F8C0C2D012A916A8C847B0F1FF3F3FF469AFAF
S21440F8D016AA12A91046C047054600287FF4D1AEA6
S21440F8E00EAA06A91046C047054600287FF4C9AEB2
S21440F8F00AAA02A91046C047054600287FF4C1AEB2
S21440F900169B002B7FF410AF012112A80F4B98478F
S21440F910804600287FF470AFDFF830900C4E002110
S21440F92006A8C847B0F1FF3F3FF454AFDFF82C902D
S21440F930084E214606A8C847B0F1FF3F7FF453AFB4
S21440F940394606A8044B984745469AE6E9E54000FE
S21440F9507DE8400085EC400003E1400051E5400072
S21440F9608B68012B1DD00B68F3B170B516460C465C
S21440F9700546002B09DDCB681B6813F0010F04D049
S21440F980012120460A4B984728B932462146284648
S21440F990084B984770BD324621462846064B984746
S21440F9A070BD6FF0020070476FF00200704700BFF6
S21440F9B0E9E5400025F64000D9F340002DE9F04F38
S21440F9C085B00446029105686B001A461D464B6892
S21440F9D09A4217DCB5F5007F62DC092200214FF41D
S21440F9E000604B4B9847039000285CD02B46002D78
S21440F9F05CDD051F4FF0000B4FF0000C00279E46C5
S21440FA00019519E011460298424B98470346002854
S21440FA10E0D078E00020002133E020F07043019AE7
S21440FA2042F8043F01924FEA107B4BEA011B4FEA33
S21440FA30117C0137BE4541D021684B1EBB42A8BF52
S21440FA403B46F81AE66806EB800806EB83095A1C24
S21440FA50091A9142A8BF11461B1A01335A108A420E
S21440FA60A8BF0A46002AD5DD002000210023924682
S21440FA7058F8042B59F80459E5FB020101339A451E
S21440FA80F6D10018494110EB0B0041EB0C0117F082
S21440FA90010FC2D17B1056F82330E3FB0301BCE7CD
S21440FAA06FF003032FE06FF001032CE002990D681E
S21440FAB023685B000B60C968002713E002990D6855
S21440FAC023685B000B60C968039B1A46081FBE008C
S21440FAD09C1952F8043B23F0704340F8043FA2427E
S21440FAE0F7D13144AF4205DA002241F8042B013702
S21440FAF0AF42FAD10298084B984709220021039852
S21440FB00064B98470023184605B0BDE8F08F00BF67
S21440FB104D9D410099DF4000C7E04000599D41009F
S21440FB202DE9F04F83B004460D46934698465368F9
S21440FB30434577DB23682E681E4433464645A8BFB8
S21440FB4043461E46B3F5007F74DC092200214FF47D
S21440FB500060404B9847019000286ED0002E6FDD25
S21440FB60A0F1040C002000214FF0000EB146A04644
S21440FB702C68013C7445A8BF7446AEEB040AD8F81E
S21440FB800C2002EB8A02EE6806EB8406D8F80030BA
S21440FB90A3EB0A0A631C9A45A8BF9A46BAF1000F1F
S21440FBA009DD002352F8047B56F80449E4FB0701BC
S21440FBB001339A45F6D120F070434CF8043F030FCA
S21440FBC043EA01130A0F184611460EF1010EF1459D
S21440FBD0CED1DBF80040CBF800E0DBF80C200198F3
S21440FBE00346111F4FEA8E06851953F8040B41F859
S21440FBF0040FAB42F9D11644744506DD002246F8A0
S21440FC00042B0EF1010E7445F9D15846124B984715
S21440FC10092200210198114B98470023184603B04B
S21440FC20BDE8F08F414610460D4B984703460028E6
S21440FC3080D0F3E76FF00303F0E76FF00103EDE7E2
S21440FC40DBF80040CBF80060DBF80C604FF0000EAD
S21440FC50D2E700BF4D9D4100C7E04000599D41009E
S21440FC6099DF40002DE9F04F89B080460391D0F8E7
S21440FC7000904FEA49040134214604A8434B984774
S21440FC80029000287ED10494B9F1000F70DD4FEA4F
S21440FC90890300904FF0000BDA46043B019313E0D3
S21440FCA033680021C01841F1000120F0704346F847
S21440FCB0043B000F50EA0110F2D1009B994557DDF6
S21440FCC00AF1080A0BF1040B079AD8F80C3053F8DF
S21440FCD00B4052F80A30A4FB0445E41845F10005F1
S21440FCE024F0704342F80A30200F40EA0510D8F856
S21440FCF00C3053F80B500AF10406079B1E44009B39
S21440FD0001330093994531DD34461F460BF1040C10
S21440FD10ACEB060CDE4602465046D8F80C30234480
S21440FD2053F80C30A3FB05AB21680023521843F16F
S21440FD30000312EB0A0243EB0B031AEB020A4BEBEF
S21440FD40030B2AF0704344F8043B4FEA1A7242EA27
S21440FD500B120137B945E0D18246F3461046019B67
S21440FD60A3EB0E031E44002A9AD1A9E7002897D198
S21440FD7004A8074B9847039904A8064B984704A83D
S21440FD80054B9847029809B0BDE8F08F39F240001D
S21440FD90C7E0400003E1400041DE400010B50C469D
S21440FDA0026853000133B3F5007F01DA7F2A05DD90
S21440FDB02146044B98470023A36010BD024B98474A
S21440FDC0F9E700BF65FC4000BDF940002DE9F04F63
S21440FDD087B08146884601929A46B3F5007F06DA98
S21440FDE00B6802689342A8BF1346FF2B4FDD51466F
S21440FDF002A82B4B984786460090002843D1CDF862
S21440FE0008A0D9F800B0BBF1000F32DDAAEB0E0611
S21440FE10D8F800309E42A8BF1E46D9F80C3053F89A
S21440FE202E70059B03EB8E0CD8F80C40002E34DD6C
S21440FE3060460099002254F8045B0023E7FB052344
S21440FE400568521943F1000322F0704540F8045B00
S21440FE50120F42EA031201318E42ECD10CEB810CB8
S21440FE6071448A45C8BFCCF800200EF1010EF34518
S21440FE70CCD102A80B4B9847019902A80A4B984749
S21440FE8002A80A4B9847009807B0BDE8F08F534643
S21440FE90019A074CA0470090F5E700990022DFE75B
S21440FEA039F24000C7E0400003E1400041DE400038
S21440FEB021FB400070B5154684688B68E41A18BF6D
S21440FEC0012402680E6893190133B3F5007F05DA02
S21440FED0B242A8BF3246B2F5807F08DD2A46064EBB
S21440FEE0B0472B68002BD8BF0024AC6070BD2A46B4
S21440FEF0024EB047F5E700BFCDFD400021FB400075
S21440FF002DE9F04184B006460F46154698461168DE
S21440FF1068460D4B9847044618B1204604B0BDE8E5
S21440FF20F0816A4639463046084B9847044618B131
S21440FF306846074B9847F0E7424629466846054BD1
S21440FF4098470446F4E700BF39F24000B5FE40004B
S21440FF5041DE400065F340002DE9F04F85B0044691
S21440FF608B469246002303930093019302930846E0
S21440FF70174B98478046174FDFF86C90164E23462F
S21440FF806A4641462046B8470546D0B96A46514675
S21440FF906846C8470546A0B9224669462046B04747
S21440FFA0054670B9594620460C4B9847B0F1FF3F7E
S21440FFB007D0224659462046094B98470546002812
S21440FFC0DDD06846074B9847284605B0BDE8F08F19
S21440FFD051DF400071E24000E1E6400051E540005C
S21440FFE0BDE7400041DE4000B5FE40002DE9F04749
S21440FFF004460E460846224B98473368012B1EDDC2
S214410000204D85FB00252A18C517C5EB2215C5EBE3
S214410010C505A0EB8505013BC3EBC30305EB830197
S21441002001392046184B9847814630BB013D1B2D70
S21441003023DCDFF86080154FDFF85CA00BE0012180
S2144100402046134B984705460028F2D0814614E0D7
S21441005001351B2D11DC21462046C047814660B93B
S21441006031462046B847B0F1FF3FF1D022463146EF
S2144100702046D0470028EBD081464846BDE8F08769
S21441008051DF40009324499205F0400051E540007D
S21441009025E64000B1F14000BDE740002DE9F04FB4
S2144100A091B004900C460591904606932622002175
S2144100B04FF40070994B98470190002800F0A281B8
S2144100C02046974B9847072840F3A081242840F3C1
S2144100D0F9818C2840F3F881B0F5E17F40F3F68151
S2144100E0B0F5A36FC0F2F48140F6C9539842D4BF2D
S2144100F0072008208BE1262200210198894B98474A
S214410100DCE10290A24509DAA4EB0A040026864FF8
S2144101102846B84701361035A642F9D10398824B96
S21441012098472622002101987E4B9847C6E10BA9A5
S21441013040467E4B98470290002840F0AB81D8F865
S214410140002053000133B3F5007F80F2C381784E1F
S2144101507849FF2AC8BF0E46D8F804100CA8764B3B
S21441016098470290002840F0958141460CA8734B71
S2144101709847029058B10CA86B4B98478AE1D8F83B
S2144101800C301B68C3F180530B936D4E79E1039B92
S21441019042460CA904986B4CA04702900028EAD12D
S2144101A01023079CA340019AD31804931946039839
S2144101B0654B984702900028DDD1002C14DD0BF1E9
S2144101C0FF390446049B19461846604B9847002859
S2144101D040F006810B9A41460498B047002840F00B
S2144101E0018101344C45EDD10AF10104A74214DDE9
S2144101F0A946484609F110094A460399544B98477F
S214410200002840F0F1800B9A41464846B047002806
S21441021040F0EC800134A742EBDC059B1B68013BB8
S2144102200993029B1C460493994601230793002396
S21441023008931CE001210CA8464B984702900028E1
S21441024099D1039A41460498434B98470290002817
S21441025091D1A5E7012C26D0049A0132ABEB0201DD
S2144102608B4049EA030993452ED004920224079B0A
S214410270013B07930CD10999B1F1FF3F6ED0059B25
S214410280DB6853F8213008934B1E09931C230793D0
S214410290089AC2F3C06352000892002CDAD1002BB0
S2144102A0DAD11C46E3E7002BD6D10CA90846274BEA
S2144102B09847002840F09C800B9A41460CA8B047CE
S2144102C00028D4D0029056E7BBF1000F13DD04920C
S2144102D0029C0CA908461D4B9847002840F08A808E
S2144102E00B9A41460CA8B047002840F0858001345F
S2144102F0049BA342EDD10CAA019B03EB09111046C6
S214410300134B9847002879D10B9A41460CA8B04721
S2144103108146002874D104900124A8E74D9D4100F0
S21441032051DF4000599D410041DE40005BEF4000F7
S214410330D5E84000B5EA400039F24000EDFF400004
S214410340ADEB400001FF400015E040009DFD400040
S214410350B5FE400025E6400065F34000022C2ED154
S214410360049B002B2BDD079CDFF88CB10CA90846BB
S214410370594B9847029000287FF4FDAE0B9A4146B0
S2144103800CA8B047029000287FF4F5AE4FEA490921
S21441039017EA090F0FD00CAA03991046D8470290C6
S2144103A000287FF4E8AE0B9A41460CA8B04702906D
S2144103B000287FF4E0AE0134049BA342D6D11A9BB9
S2144103C03BB90B9A41460CA8B047029000287FF4EF
S2144103D0D2AE06990CA8414B9847079B0293CAE6B2
S2144103E00290C8E60290C6E60290C4E60290C2E6D3
S2144103F00290C0E60290BEE60290BCE60290BAE6E3
S2144104000290B8E66FF00103029357E002200528F8
S214410410A8BF05208346019B10330393D8F80410E8
S21441042018462F4B9847029000287FF464AE0BF194
S214410430FF330793012707FA03FA07FA0BF710254C
S2144104409D40019B1D442E465446DFF89490D8F8B3
S21441045004103046C84700287FF453AE01341036A6
S214410460A742F4DC1A9B002B3FF461AE1A9B012B8A
S2144104703FF485AE0BA940461A4B9847029048B9BF
S214410480194ED8F804100CA8154B9847029000282E
S2144104903FF4D0AE0398154B9847574509DDA7EB77
S2144104A00A070024114E2846B04701341035A742AA
S2144104B0F9D12622002101980D4B9847029811B098
S2144104C0BDE8F08F0320A2E70420A0E705209EE7C1
S2144104D006209CE7074E3FE69DFD400003E14000B5
S2144104E039F2400021F0400015F1400041DE400065
S2144104F0599D4100B5EA4000B5FE400038B5054675
S2144105000C460968C1EBC101C900074B9847034631
S21441051008B1184638BD00232A4621462846034CD2
S214410520A0470346F5E700BF05F04000D5EC400084
S21441053070B584B005460E4600230393009301939D
S21441054002930A4B984701466846094B984704462A
S21441055028B16846074B9847204604B070BD3246DE
S21441056029466846044B98470446F2E751DF400067
S21441057005F0400041DE4000BDE740002DE9F04F68
S214410580ADF5137D834602910192039308469B4B3A
S2144105909847072840F34481242840F391818C28CA
S2144105A040F39081B0F5E17F40F38E81B0F5A36FC3
S2144105B0C0F28C8140F6C957B842D4BF07270827F6
S2144105C02FE10AA901988E4B98478246002840F0B1
S2144105D061818C4B049354E1314616A88A4B984767
S2144105E08246002840F05681B9F1000F17DD07F129
S2144105F0FF3BDFF81C920594049C31463046C847C1
S214410600002840F0EC800AAA01993046A04700280D
S21441061040F0E8800AF1010ADA45EED1059C08F17E
S21441062001094C4519DDDFF8ECB1AA462546049C84
S21441063030461036324616A9D847002840F0D580B5
S2144106400AAA01993046A047002840F0D28009F115
S21441065001094D45ECDC2C465546002311930E937B
S2144106600F93109301210EA8684B984782460028A5
S21441067040F01081029B1B6803F1FF390646079044
S21441068083460123089300230993069400E01E46FF
S214410690089B013B08930BD1B9F1FF3F5ED0029B0B
S2144106A0DB6853F82930099309F1FF391C23089375
S2144106B0099AC2F3C0635200099266B9002BE6D08C
S2144106C0079A0132B91A8B404BEA030B974217D06F
S2144106D007920226DCE7012EF2D1002BF0D10EA9BB
S2144106E008464B4B98470590002872D10AAA0199B3
S2144106F00EA8049B984705900028C9D0069C5FE049
S214410700002F16DD1646544602E00134B44210D09E
S2144107100EA908463E4B9847059000285BD10AAA89
S21441072001990EA8049B984705900028EDD0069C99
S21441073046E00EAA12AB03EB0B111046354B984719
S2144107400590002849D10AAA01990EA8049B98470A
S214410750834600283AD10790012699E7069C022E47
S21441076028D1079B002B25DD089EDFF8A490294F52
S2144107700EA90846C847059010BB0AAA01990EA8BB
S214410780049B98470590D8B94FEA4B0B14EA0B0FD8
S2144107900CD00EAA16A91046B847059080B90AAAE9
S2144107A001990EA8049B9847059048B90136079BC6
S2144107B0B342DDD103990EA8174B9847089B059382
S2144107C00EA8164B9847DDF814A063E0069C0590EA
S2144107D0F6E7069CF4E7069CF2E7069CF0E7059CE4
S2144107E0824657E0059C824654E02C465546824652
S2144107F050E02C46554682464CE000BF51DF400053
S2144108003105410059FF400015E0400025E6400013
S2144108109DFD4000B5FE400003E1400041DE400042
S2144108200227052FA8BF0527002319931693179370
S214410830189307F1FF39012404FA09F8BC40102641
S21441084006FA09F612AB1E443546334641460022A7
S214410850DA601A605A609A60013110338C42F7DCD4
S21441086000230D930A930B930C939C9B002B7FF4D0
S214410870A8AE01990AA8164B9847824650B9154B1F
S214410880049316AA01995846134B98478246002866
S2144108903FF4A2AE0AA8114EB04716A8B047444549
S2144108A009DDA4EB080400260C4F2846B84701365C
S2144108B01035B442F9D150460DF5137DBDE8F08FA1
S2144108C00327AEE70427ACE70527AAE70627A8E7EC
S2144108D0FD044100510C410065F3400041DE4000FB
S2144108E0F0B58BB09468012C6ED01F4614460D4669
S2144108F006468B68012B1DD01046354B984701287C
S21441090045D02046334B98470246002849D02368B5
S214410910002B04DDE3681B6813F0010F48D00092FA
S2144109203B462246294630462B4CA0470646304693
S2144109300BB0F0BD0023059302930393049302AAE0
S2144109402146264B9847064618B102A8244B98479D
S214410950EDE70023099306930793089306A92846D3
S214410960204B9847064628B102A81D4CA04706A82A
S214410970A047DCE73B46224606A902A8FFF7B0FFA0
S214410980064602A8164CA04706A8A047CFE7012373
S21441099000933B46224629463046134CA04706461E
S2144109A0C5E72046114B984742002368002BB1DC2F
S2144109B0002AB4D1002300933B46224629463046BE
S2144109C0094CA0470646B2E76FF00206AFE700BF04
S2144109D079EE40001DEF40009D00410061F9400066
S2144109E041DE400035E540007D054100C1EE400056
S2144109F02DE9F04F85B000921C46C368002B00F0ED
S214410A00888005460E4607680B681F4453689F4218
S214410A1077DCB7F5007F7FDC092200214FF40060C8
S214410A20444B98470190002879D02A68336802EBF6
S214410A300308A04576DD0294A300039300EB030E62
S214410A40F44600200021A946B246DAF80050013D9E
S214410A50A542A8BF2546A4EB050BD9F80C2002EB0E
S214410A608B02DAF80C7007EB8507D9F80030A3EB58
S214410A700B0B6B1C9B45A8BF9B46BBF1000F09DDCA
S214410A80002352F8046B57F80459E5FB060101337D
S214410A909B45F6D120F070434CF8043B030F43EAE4
S214410AA001130A0F184611460134A045CDD1009ACC
S214410AB010681460D368039A13441A1F2646019996
S214410AC001EB84055EF8041B42F8041FAE45F9D1DC
S214410AD0029AB61A03EB8603844205DA002243F8EB
S214410AE0042B01348442FAD10098134B98470922CB
S214410AF000210198114B98470023184605B0BDE8E0
S214410B00F08F394610460E4B98470346002880D052
S214410B10F3E76FF00203F0E76FF00303EDE76FF0E2
S214410B200103EAE7009A1068C2F80080D36803EB35
S214410B308403D1E74D9D4100C7E04000599D4100E7
S214410B4099DF40002DE9F04F89B0834689460392EC
S214410B50984603680A6899180131B1F5007F04DAAE
S214410B609342A8BF1346FF2B1FDD04A8334B98477B
S214410B70029000285DD1DBF80020D9F80060931977
S214410B8001330493002A4ADDDBF80C30002B46D0B3
S214410B904FEA880A08F101018A1A0092A6EB080278
S214410BA0920001924FF0000C13E04346039A4946E7
S214410BB0234CA04702903CE00022CEF80020009B48
S214410BC098452CD0DBF80C300CF1040C08F1FF38BA
S214410BD02BB353F80C70079B03EB0A0E4146AAEB66
S214410BE00C04D9F80C301C444645E5DD704600221D
S214410BF054F8045B0023E7FB05230568521943F1CB
S214410C00000322F0704540F8045B120F42EA0312DB
S214410C1001318E42ECD1019B63449E44CDE704A84A
S214410C20084B9847039904A8074B984704A8074BD5
S214410C309847029809B0BDE8F08F00BF39F24000EE
S214410C40F1094100C7E0400003E1400041DE4000B9
S214410C502DE9F04184B00746884616460C680146A1
S214410C606846384B9847054618B1284604B0BDE853
S214410C70F081611E6846344B9847B4F1006F18D92D
S214410C806A4631466846314B9847054668B901344D
S214410C90214668462C4B9847C4EBC4013A46890026
S214410CA038462B4B9847054668B16846294B9847C6
S214410CB0DBE723466A4631466846274DA847054640
S214410CC00028F2D1E3E723466A4641466846234D6B
S214410CD0A84705460028E8D13A4669463846204B9B
S214410CE0984705460028E0D1002138461D4B9847D5
S214410CF0B0F1FF3F0FD01C4C1C4E41463846A04732
S214410D00B0F1FF3FD1D03A4641463846B047002879
S214410D10F3D00546C9E701216846154B984708B107
S214410D200546C2E721466846124B984708B1054634
S214410D30BBE73A46694638460F4B98470028DAD013
S214410D400546B2E77DF2400071E14000B5FE400045
S214410D50C9E1400041DE4000450B4100CDFD400069
S214410D6085EC4000E9E54000BDE54000BDE74000B8
S214410D7025E6400085E340007DE84000F8B505469D
S214410D800F4614460168013153688B421EDBAB683F
S214410D90012B22D02068E968E3682A68012A2BD013
S214410DA06ABB1A1D1F600121A16021604B1C88424D
S214410DB006DD411C002042F8040B01339942FAD16A
S214410DC02046204B984700263046F8BD10461E4B1D
S214410DD0984706460028DAD0F6E70023AB6022465D
S214410DE039462846194B984706460123A360AB600F
S214410DF02046144B9847E7E70E68B7421CD20022BC
S214410E00A2602A6822600E1D0968C91BCF0F1A1DF1
S214410E1021F0704119602B68012B11DD012156F834
S214410E20043BDB1BDF0F23F0704342F8043B0131E8
S214410E302B688B42F3DCB9E71A1DBE1B1E60B2E776
S214410E400121B3E7C7E0400099DF4000510E410061
S214410E50F8B505460E4614460168013153688B4283
S214410E603EDBAB68012B42D020680023A360D4F858
S214410E700CE0AB68002B52D1EB681F1D1B68334456
S214410E801E0F0EF1040223F07043CEF800302B689B
S214410E90012B42DD012157F8043B33441E0F23F05A
S214410EA0704342F8043B01312B688B42F3DC6368A4
S214410EB08B4202DD0131166004322B680133236018
S214410EC04B1C884206DD411C002042F8040B0133CE
S214410ED08B42FAD120461B4B984700273846F8BD2F
S214410EE01046194B984707460028BAD0F6E72B68B4
S214410EF0012B03DCEB681B68B342B5D30023AB6020
S214410F00224631462846114B984707460123A3609F
S214410F10AB6020460B4B9847E0E70121C7E701232A
S214410F2023602968994205D00EF10402CEF800608C
S214410F300121C5E70EF10402EB681B68F61ACEF8EC
S214410F400060BDE7C7E0400099DF40007D0D4100ED
S214410F502DE9F04F83B00646884617462E4B9847F4
S214410F600097BB1E3E2B54D898F800302D2B06BF59
S214410F7008F101080123002301933046264B984788
S214410F8098F80050B5B3DFF898B0DFF89890DFF8DE
S214410F9098A01CE0D8472844437803F00303022B6B
S214410FA008BF203DEDB214E00024A7421FDD3246C3
S214410FB000993046D047034608BB32462146304664
S214410FC0164B98470346D0B918F8015F95B1242FC0
S214410FD0E0DDD9F800301A78AA42E5D0012413F8AA
S214410FE0012FAA42E1D00134402CF8D1DDE798F830
S214410FF0003043B9336813B1019BB36000231846F0
S21441100003B0BDE8F08F3046034B98476FF00203BC
S214411010F5E76FF00203F2E79DE04000510E410014
S214411020A98443000C00002085F0400010B400F174
S2144110307804034600215A1C19701346A242FAD17D
S214411040431E00F17701002013F8012F1043994207
S214411050FAD1002818BF02205DF8044B7047000003
S2144110602DE9F04FA9B090468DF80730C2F35713DB
S21441107003F0FF13D20202F0FF2213434FEA334339
S214411080269318F01F0918BF4FF0010901238DF868
S2144110909F3019EB581966D00D460026DFF8F8A0A8
S2144110A03A4FDFF8F8B041E0042226A90AA8B8472B
S2144110B00446E0B99DF80730042B07D001220DF114
S2144110C007010AA8B847044600283DD1339A329909
S2144110D00AA8B8470446002855D1349B13B1359B1E
S2144110E0002B34D102A90AA8294B984704460AA8DE
S2144110F0D8479CB9B8F1200F2FD90DF1080EBEE89C
S2144111000F0028606960AA60EB60BEE80F002861A6
S2144111106961AA61EB61A8F12008203501369DF886
S2144111209F3001338DF89F30B1451DD00AA8D04776
S2144111300446C8B901220DF19F010AA8B8470446E2
S2144111400028B1D0002CCDD00AA8D847E6E71A46E9
S21441115034990AA8B8470446F4E7424602A9284605
S2144111600C4B9847DAE7022402AB00200AA95A1C26
S214411170187013468A42FAD1002C18BF0224204622
S21441118029B0BDE8F08F0AA8D847C7E7793C4100A7
S214411190C13D4100C18A4300453F4100593F41009E
S2144111A02DE9F04184B004460E461746984678220B
S2144111B00021154B984704F108050A9B0393CDF887
S2144111C008800197009604233722294620460F4E71
S2144111D0B04720B10223184604B0BDE8F081002391
S2144111E00393029337220192009504F13F01204672
S2144111F0B047034608B10223EDE7012222600022F0
S214411200626084F87620E6E7BD8C430061104100B9
S214411210F0B593B0044600F10806039202913722D6
S21441122001920096012304A91D4DA84718B1022337
S214411230184613B0F0BD0DF1100E35460DF1400CB9
S21441124077460FCF28606960AA60EB60BE461035CE
S2144112506745F5D138682860BA88BB79AA80AB71F2
S21441126004AB00200DF147015A1C187013468A4200
S214411270FAD100230393029337220192009604F198
S2144112803F012046064DA847034608B10223CFE753
S214411290012222600022626084F87620C8E700BFFF
S2144112A0611041002DE9F04FD1B090460368AF4A36
S2144112B0934204D10324204651B0BDE8F08F054641
S2144112C00E4603228DF8CF203293B8F1000F00F07E
S2144112D0158118F01F0918BF4FF0010909EB58197D
S2144112E000F108040DF1200E00F1380C7746206815
S2144112F06168A268E3680FC71034BE466445F5D1FD
S21441130020683860A288A379BA80BB71B9F1000F12
S21441131000F30D81022708AB00200DF157015A1C3E
S214411320187013468A42FAD1002F00F00981022430
S21441133016AB00201EA95A1C187013468A42FAD1D1
S214411340002C18BF0224B6E7372208A916A8884BF6
S21441135098470746002840F0F080694616A8854B16
S2144113609847074616A8D047002F45D1009B2A68C4
S214411370012A02D96A6893422ED0002285F8762047
S2144113806B60CEB3B8F1000F36D0B8F11F0F2CD931
S214411390EE46BEE80F0030607160B260F360BEE8B2
S2144113A00F0030617161B261F361A8F12008203607
S2144113B09DF856300133DBB28DF85630E3B90DF166
S2144113C0560208A912F8013C0133DBB202F8013D8E
S2144113D093B98A42F6D10FE095F87630012B00F0AA
S2144113E0BF80012385F87630CBE7424669463046D2
S2144113F0614B98474FF000080134A1458BDD16A894
S214411400D847074600289FD016A8D047F4E70122C0
S2144114100DF1CF0134A8564B98470446002840F0BA
S214411420A1803722314634A8514B984704460028BC
S21441143040F08F8016A934A84E4B9847044634A8EE
S2144114404E4B9847002C40F0878005F13F021EA87E
S2144114500DF1580C1146002311F801EC10F8017DEE
S21441146073443B4401F8013DC3F30F236045F3D178
S21441147063B105F11F01374611F8010C03449BB2D5
S21441148001F8013D1B0A01D0B942F5D105F17600BC
S2144114901146002311F801EC10F8017D73443B44DA
S2144114A001F8013DC3F30F23B142F3D13298030A49
S2144114B003F0FF13000200F0FF2003434FEA3343DB
S2144114C0329333A805F13B0E002312F8017C10F845
S2144114D0016D3B44334402F8013DC3F30F23964567
S2144114E0F3D1002B38D012F8010C03449BB202F81A
S2144114F0013D1B0A30D08A42F5D12DE000F10804A7
S2144115000DF1200E00F1380C774620686168A2681C
S214411510E3680FC71034BE466445F5D1206838608D
S214411520A288A379BA80BB714FF00109C84600244E
S214411530DFF84CB0DFF844A061E716A8D0475BE778
S21441154005F1080634A80E4B9847044600283FF498
S2144115505EAF34A8094B98472B6801332B60E7E60A
S2144115600424E5E634A8054B9847F5E740420F00CA
S214411570793C4100C13D4100C18A4300593F410089
S214411580453F410038B5A8B10446806880B10B4B51
S2144115909847051E18BF6FF0C60520226168A068EF
S2144115A0074B98470023A36000232373284638BD82
S2144115B00025F9E76FF0AC05F8E700BF2D104100B4
S2144115C0599D41002DE9F04385B00D9D00294DD030
S2144115D00F46002D4DD008B1002B4DD00E998029D5
S2144115E04DD1984691460446202200217820274B2B
S2144115F098470646002845D06FF001030293002322
S214411600019300934A463946214FB847C8B92CB191
S2144116100C9A414630461F4B984720BB80222946AC
S21441162030461D4B984710B14FF0FF340BE08022F7
S21441163029463046184B9847003018BF012044428F
S21441164001E04FF0FF343046144B9847002818BF4E
S2144116504FF0FF34202200213046114B9847204658
S21441166005B0BDE8F0834FF0FF34ECE76FF0AC0413
S214411670F5E76FF0AC04F2E76FF0AC04EFE74FF03C
S214411680FF34ECE76FF07C04E9E700BF4D9D410075
S214411690A111410011124100A51241002D10410037
S2144116A0599D410000286CD02DE9F04190B0064686
S2144116B09046416000218160017326228020374B8D
S2144116C098470746002864D0802302930190002063
S2144116D00090034630223249324CA0470446002847
S2144116E052D17D1E3048411E7F3015F8013F11F81A
S2144116F0012F53401C438842F7D126220021384609
S2144117002A4B9847002C44D1202271687820234BDD
S2144117109847B06078B3302204A93046244B9847A6
S214411720A8B1022004AB00215A1C1970134610AC14
S214411730A242F9D110B304282BD002284FF002035D
S214411740337308BF6FF0C60010B0BDE8F081B068D3
S214411750CDF808807368019300230093302204A9D2
S214411760144CA04708B10220DCE700221146B068BD
S214411770114B9847D6E76FF07C00D3E701233373CC
S214411780E2E76FF0AC007047262200213846074B4F
S2144117909847032333736FF0D000D5E74D9D410042
S2144117A0ACFD4300C51541005CFE4300599D410018
S2144117B0617F4200A1114100A512410000286FD06F
S2144117C02DE9F0438DB0064600296DD0B2F5803F35
S2144117D06DD8037B012B6DD190460F4680683C4BFC
S2144117E09847034603280AD02BB1042B6AD002231C
S2144117F033736FF0C60318460DB0BDE8F08326225A
S21441180000218020334B9847814600285AD08023B8
S21441181002930190202300932F4B30222F49012021
S2144118202F4CA0470546002847D109F1FF322D48E5
S214411830441E7F3012F8013F14F8011F4B401D43F0
S214411840A042F7D1262200214846274B9847002D33
S21441185038D1202204A93046244B984748B1022368
S21441186004AA0020511C10700A460CACA142F9D1C2
S214411870BAE7202204A9B0681D4B984708B1022355
S214411880EEE700221146B068114B98470346002800
S214411890E6D142463946B0680D4B98470346DFE7E6
S2144118A06FF0AC03184670476FF0AC03A3E76FF0D8
S2144118B0AC03A0E76FF0C6039DE726220021484609
S2144118C0094B9847032333736FF0D00393E700BF68
S2144118D0A51241004D9D4100DCFE43007CFD4300C6
S2144118E0C5154100DCFD4300599D4100617F420022
S2144118F01112410040B310B50446D0F88430B3B15C
S21441190090F8942072B1D0F88820023A012A0FD973
S2144119103C22D4F88010D4F884000C4B984700231E
S21441192084F894300023C4F88430C4F8903010BD55
S214411930D0F890100029EBD0194400205A1C18709A
S21441194013468A42FAD1E3E7704700BF599D4100EA
S2144119502DE9F04F95B00690079191469B46DDF8EC
S21441196078803B4B9847B0F1000A6ADB09F10403E3
S2144119700493242B02D8BAF1240F14D9049B53455F
S21441198038BF5346089349221F991846314B98470A
S2144119900646002858D0012309930024254606EB25
S2144119A00907039715E024230893002309930BAEF8
S2144119B0F3E7099B1BB9059815B0BDE8F08F49229E
S2144119C01F993046244B9847F5E703970135444520
S2144119D02ED24A4607993046204B98472B0E06F89A
S2144119E009302B0C039A53702B0A9370D570089BC1
S2144119F000933346049A31460698194FB8470590E6
S214411A000028D6D1BAF1000FE0DD444510D2721E4F
S214411A100BEB04030AEB04000BEB080E039F0134A7
S214411A2012F8011F03F8011B8442CED07345F6D14C
S214411A30099B002BBFD049221F993046064B984739
S214411A40B9E7CDF814A0B6E76FF07C030593B2E78B
S214411A50A5D940004D9D4100599D4100C18A430092
S214411A6095DA400010B582B001280AD01A2810D164
S214411A7005980190049800900420074CA04702B0B6
S214411A8010BD05980190049800900520024CA0478F
S214411A90F5E76FF0AC00F2E75119410070B582B03E
S214411AA0002835D004464FF0FF33C0F88830002276
S214411AB0C0F88C20C0F88010C0F88420C0F8902070
S214411AC080F8942000F110060192009213463146A8
S214411AD0114DA847054610B1284602B070BD04F125
S214411AE07003019304F16003009304F1500304F181
S214411AF0400204F1300104F12000074DA847054695
S214411B000028E9D02046054CA0473046A047E3E7E9
S214411B106FF0AC05E0E700BF79DE400041DE4000F3
S214411B20002835D038B504461B4B9847D4F8883042
S214411B30012B19D004F17000184DA84704F160003C
S214411B40A84704F15000A84704F14000A84704F113
S214411B503000A84704F12000A84704F11000A84728
S214411B602046A847002038BD04F170000C4DA84718
S214411B7004F16000A84704F15000A84704F1400072
S214411B80A84704F13000A84704F12000A847D1E750
S214411B906FF0AC00704700BFF518410041DE4000D1
S214411BA019DF400018B108B5024B984708BD6FF0E1
S214411BB0AC00704779DF40002DE9F04F8DB0DDF87D
S214411BC05880179D002D00F0E28006460F4691464C
S214411BD01C46002800F0DE80002900F0DE80002A46
S214411BE000F0DE80002B00F0DE801B68002B00F04A
S214411BF0DD80B8F1FF3F00F0DC806846794B9847BE
S214411C00002840F0D9803A4631466846764B984798
S214411C10002840F0D480B8F1030F00F2B080DFE82E
S214411C2008F08484020204A86E4B984758B16FF0BE
S214411C306D0668466D4B9847002EC0F2A38030462D
S214411C400DB0BDE8F08F08A8664B984728B104A8A8
S214411C50664B98476FF06D06EBE705F1300A04AB2B
S214411C60524605F150016846DFF894B1D847061C44
S214411C7018BF0126764226F06F0705F1400808ABEB
S214411C80424605F160016846D847061C18BF012642
S214411C90764226F06F06002F18BF00263E436A465E
S214411CA008A904A8524B9847071C18BF01277F4232
S214411CB027F07107002E18BF00273E436B46524659
S214411CC005F1700168464B4FB847071C18BF0127FE
S214411CD07F4227F07407002E18BF002737436A4615
S214411CE041466846444B9847061C18BF0126764233
S214411CF026F07306002F18BF00263E436A4608A901
S214411D0068463E4B9847031C18BF01235B4223F0AD
S214411D107203002E18BF00231E4304A8334FB84752
S214411D2008A8B847002E84D108E06B462A4605F13C
S214411D3010016846324EB04700284CD12846314BF8
S214411D40984706462368984202D96FF0820638E0E3
S214411D5068462D4B9847864206D9331A4B44002293
S214411D6009F8012B4B45FBD1266049466846274B6F
S214411D709847064690BB68461C4B98475FE76FF00E
S214411D80810656E716F16C0F3FF459AF1CE06FF031
S214411D90AC0654E76FF0AC0651E76FF0AC064EE781
S214411DA06FF0AC064BE76FF0AC0648E76FF0AC0659
S214411DB045E76FF0AC0642E76FF06D0604E06FF062
S214411DC06E066846094B98470023C5F88C3028466E
S214411DD00F4B984733E76FF06F06F2E76FF07006E8
S214411DE0EFE700BF0BDE4000C5E4400041DE4000A7
S214411DF085EC400001FF4000B5FE40007DE8400014
S214411E00E1084100A51B410079DF400001F3400095
S214411E10F51841002DE9F04F93B01D9C9DF87C606C
S214411E209DF884A0002800F0D6818046002900F065
S214411E30D581002A00F0D581002C00F0D5811F46BF
S214411E4005920D46D4F88C30062B00F2D381DFE89C
S214411E5013F00700D101D101D10107003300B501CC
S214411E600423C4F88C30C4F89010D4F884305BB1A5
S214411E706FF0BF050023C4F88C302046B64B984718
S214411E80284613B0BDE8F08F1C9B002B39D0059B2C
S214411E90C4F88430259B029301941E9B009304F161
S214411EA09003D4F8842029461046AC4DA847051E19
S214411EB03ADB0523C4F88C30D4F88490D4F890806B
S214411EC02046A74B9847209BABB3012B00F08B8055
S214411ED000266FF0C805002D40F36981AF42C0F27D
S214411EE07481002E00F074811C9B002B00F05981F8
S214411EF01C9B1E60002DC0F263810623C4F88C3003
S214411F005EE13C22D4F880102846964B9847C4F8A8
S214411F108400012384F89430002800F06E812A461C
S214411F204146914B9847B5E715F16C0FA2D1052371
S214411F30C4F88C3044E1B8F10A0F8CBFA8F10A000E
S214411F400020B8F1000F00F05B8199F800100031D5
S214411F5018BF012108F1FF3899F80130B34218BF84
S214411F600121012E21D0B8F1010F38D999F802305C
S214411F70BBB309F102030226B0452AD0013613F855
S214411F80012F002AF8D1B04504D019F80630002BAD
S214411F9040F03981A8EB0605854200F228810029E8
S214411FA040F0348101364E4495E7B8F1010F12D91D
S214411FB099F80230FF2B10D109F102030226B045F1
S214411FC005D0013613F8012FFF2AF8D0DBE7464645
S214411FD0E0E74646DEE70126D5E70226D3E70126B7
S214411FE0D1E70226CFE7239B002B00F09F80D4F851
S214411FF080301E46069350465C4B9847B0F1000B26
S214412000C0F2BE800BF10105B8EB450FC0F0BC80B5
S2144120104922069631464046524B98470646002886
S21441202000F0B68042460021514B984708F1FF32F6
S2144120300892A2EB0B020792069B0193CDF800B0E3
S214412040334609EB050122984A4DA8470546002824
S21441205074D1BBF1000F0BD0701E494609EB0B053E
S214412060437811F8012F534000F8013FA942F7D1B8
S21441207006EB0B030993069A0192079A00925A4679
S214412080314622983B4DA847054600285DD1079A20
S2144120906AB109EB0B010998089B4B441D4610F8A1
S2144120A0013B4A78534001F8013FA942F7D1492202
S2144120B006993046304B98470BF101065E44B045D1
S2144120C00BD909EB060319F8062032B90136B0459B
S2144120D003D913F8012F002AF8D0CDF800B00AAB87
S2144120E0249A23995046254DA8470546002852D1A3
S2144120F0BBF1000F0BDD09EB0B010AA88B4410F86E
S214412100013B11F8012F53401D435945F7D1721C2D
S21441211019F8063083F001031D4499F80030EB426C
S2144121203BD109EB0206A8EB0205D4E6249B002B23
S2144121303FF45DAF239E6FF08305CCE649220699B6
S21441214030460D4B98470026C5E6492200213046C9
S214412150094B98470026BEE6F5184100B91B4100D9
S21441216051DF40004D9D4100C18A4300A5D9400042
S214412170BD8C4300651A4100599D410095DA4000E7
S21441218000266FF0AC05A6E600266FF0AC05A2E689
S2144121906FF07C059FE600269DE600266FF0C005A1
S2144121A099E62A46314605981A4B9847A2E6002DED
S2144121B0A8BF6FF08205BFF65DAE01E06FF0810506
S2144121C015F16C0F3FF45CAE54E66FF08205F7E70D
S2144121D06FF08205F4E76FF0AC0551E66FF0AC05A1
S2144121E04EE66FF0AC054BE66FF0AC0548E66FF097
S2144121F0C805E5E76FF0BF053CE66FF07C0539E6BC
S2144122006FF0AC05DCE76FF0C805D9E76FF0C8059D
S214412210D6E700BFC18A430010B58AB000240994AE
S2144122200894079406940594049401240394029414
S214412230019300920B460246014CA0470AB010BDDE
S214412240151E41002DE9F04F8FB0189C9DF86890FF
S2144122509DF870A0002800F01882002900F018822E
S214412260002A00F01882002C00F01882059098464B
S21441227016460D462046984B98470746404500F37C
S21441228010820A2840F31082A0F10B039D4200F20F
S2144122900E82D4F88C30032B00F2F481DFE803F091
S2144122A0020215290123C4F88C30069020468B4B38
S2144122B098471B9B63B3012B6FD06FF0C809B9F1E8
S2144122C0000F18DB0223C4F88C30234643F8908F66
S2144122D0209A02920194199A009232463946304623
S2144122E07F4DA847B0F10009C0F2C4810323C4F86A
S2144122F08C30D4F8909019F16C0F05D00023C4F8B7
S2144123008C302046774B984748460FB0BDE8F08F53
S214412310002F00F0CF810023337007F1FF3A86F893
S2144123200190B9F1010F17D06B1C9A45C0F0C881D6
S2144123306FEA050BD3445A46B11C20986A4B98471E
S21441234081460028BBD1BBF1010F10D9B31C0BF15C
S214412350010BB34401211BE0AB1C9A45C0F0AD8193
S214412360AAEB0502023AFF21B01C604B9847AAEB44
S214412370050A002306F80A300AF1010A2A46059999
S21441238006EB0A005A4B98479CE701339B45EED033
S2144123901A78002AF9D11970F7E71E9B002B58D0FE
S2144123A0D4F8803007935046524B9847B0F1000915
S2144123B0A1DBCDF820904922DDF81CB059464846AD
S2144123C04D4B98470990002800F07D814922594697
S2144123D04846494B98470A90002840D0089B0093AE
S2144123E0099B1F9A1E995046DFF814A1D047824692
S2144123F000283CD109F101030D935B009F4243D372
S214412400A3F1020BFB1A9D424BD8781B431E0B933C
S214412410A0F1020AAAEB0B030C93BD424ED82A4602
S21441242005993044324B98470B99731801227254E0
S2144124300C9A002A67DDBAF1000F64D0002251469B
S214412440013903F8012D8B455CD00029F8D18A4625
S21441245059E01F9B002BA3D06FF083094EE749221A
S21441246007990998254B98476FF07C0946E749221A
S214412470DDF81C9049460998204DA847492249460F
S2144124800A98A847D1461AE74922079E3146099835
S2144124901A4DA847492231460A98A8476FF0AC0919
S2144124A02CE74922079E31460998144DA8474922F0
S2144124B031460A98A8476FF0AC091FE74922079EA4
S2144124C0314609980D4DA847492231460A98A847F2
S2144124D06FF0830912E700BFA51B410051DF4000A2
S2144124E0B91B4100F5184100BD174100BD8C4300A2
S2144124F0C18A4300A5D940004D9D4100599D4100E8
S21441250095DA40008A46089DC5F1010050442A46A6
S214412510099930446D4B98472A460A9920986C4B46
S2144125209847054600286BD17D1E089BED1A0A2266
S21441253007992846674B9847834600286ED02A4617
S2144125400021654B9847079B019300955B46089A87
S2144125500A991D98DFF888A1D047824600286AD19B
S2144125600D9A974214D99DB15846089BF1180BEB2A
S214412570050EDDF818C010F8013B91F801A083EA7A
S2144125800A0301F8013F0132944501D97045F2D161
S2144125900A22DDF81CA051465846504B9847334610
S2144125A0002203F8012B089A511CCDF804A0009292
S2144125B02A4631441D984A4DA847054600284BD126
S2144125C00D9B012B10D9B9F1000F0DDD31460A9B49
S2144125D05D1E089B334418464B7815F8012F53402F
S2144125E001F8013F8842F7D14922DDF81C9049465F
S2144125F009983A4DA847492249460A98A84761E6AC
S2144126004922DDF81CA051460998DFF8D090C8470A
S214412610492251460A98C847A94650E64922079E8C
S214412620314609982D4DA847492231460A98A84770
S2144126306FF07C0962E60A22DDF81C90494658464E
S214412640264DA847492249460998A847492249465E
S2144126500A98A847D14632E64922DDF81CA05146E1
S2144126600998DFF87890C847492251460A98C847E2
S214412670A94624E619F16C0F7FF440AE0323C4F853
S2144126808C3038E66FF0BF0935E66FF0AC093BE6B3
S2144126906FF0AC0938E66FF0AC0935E66FF0AC097F
S2144126A032E66FF082092FE66FF0E9092CE66FF00B
S2144126B0820929E66FF0AC0920E66FF0C8091DE6ED
S2144126C06FF0C8091AE66FF07C0917E6C18A430025
S2144126D0BD1741004D9D4100BD8C4300599D4100B1
S2144126E0651A410030B58BB00F9C089400240794BE
S2144126F006940594049403940225029501940E9C35
S2144127000094024CA0470BB030BD00BF45224100AB
S21441271010B58AB00D9C089400240794069405943D
S2144127200494039401240294022401940C9C009482
S214412730014CA0470AB010BD452241002DE9F04F9B
S21441274097B0C36DC26803EB020EDE4B9E44C26C6B
S2144127500EEBF262416D846D81EA040E016D0EEA64
S214412760010E8EEA040E9644026D4FEAB202416DA6
S21441277081EA020CC16C0CEA010C416D8CEA010C39
S21441278021460469214419448C440CEBFE6CC16C0F
S2144127904FEAB107D0F8148082EA070A0AEA0E0A1D
S2144127A08AEA020A416D414419448A440AEBFC6AAA
S2144127B04FEABE0ED0F818B087EA0E0909EA0C09AE
S2144127C089EA07090BEB03010A44914409EBFA69CC
S2144127D04FEABC0C8EEA0C0606EA0A0686EA0E06A4
S2144127E0C2691A4417443E4406EBF9664FEABA0AF0
S2144127F08CEA0A0505EA090585EA0C05026A1A44C7
S2144128009644754405EBF6654FEAB9098AEA090428
S214412810344084EA0A04426A1A449444644404EB09
S214412820F5644FEAB60689EA0601294081EA0901BC
S214412830826A1A449244514401EBF4614FEAB50569
S21441284086EA050222407240C76A1F44B9444A4498
S21441285002EBF1624FEAB40485EA04070F4087EAC7
S214412860050C076B07EB030E76440CEB060707EBEC
S214412870F2674FEAB10184EA010E0EEA020E8EEAD1
S214412880040E466B1E443544AE440EEBF76E4FEADB
S214412890B20281EA020C0CEA070C8CEA010C856B49
S2144128A01D442C44A4440CEBFE6C4FEAB70782EA65
S2144128B0070A0AEA0E0A8AEA020AC46B1C44214441
S2144128C08A440AEBFC6A4FEABE0E87EA0E0909EA19
S2144128D00C0989EA0709016C19440A44914409EB39
S2144128E0FA694FEABC0C8EEA0C0606EA0A0686EA44
S2144128F00E06426C1A4417443E4406EBF9664FEA0C
S214412900BA0A8CEA0A0505EA090585EA0C05826CCD
S2144129101A449644754405EBF6654FEAB909C26810
S21441292082EA080EC26A8EEA020E026C8EEA020E35
S2144129304FEAFE728AEA0904344084EA0A040192A4
S2144129401A449444644404EBF5644FEAB6060169BC
S21441295081EA0B02016B4A40416C4A404FEAF271F0
S2144129600F4689EA0601294081EA09010797FA18C4
S2144129709244514401EBF4614FEAB505C769BE463E
S21441298088EA0702476B7A40876C7A404FEAF277CB
S21441299086EA05022240724003971F44B9444A44DE
S2144129A002EBF1624FEAB409046A8BEA0407846BCE
S2144129B06740019C67404FEAF77485EA09070F4074
S2144129C06F400494234433441F4407EBF2674FEAB5
S2144129D0B101466A8EEA0606C36B5E40079B5E40BF
S2144129E04FEAF67389EA010888EA02080293DFF89B
S2144129F0D8E09E447544A84408EBF7684FEAB20213
S214412A00056A866A7540066C7540039E75404FEAB6
S214412A10F57381EA020C8CEA070C0393DFF8A8E011
S214412A209E4409EB0E04A4440CEBF86C4FEAB7073E
S214412A30456AC36A85EA0304456C6C40049D6C4054
S214412A404FEAF47382EA070E8EEA080E049303F106
S214412A50DD4909F5B30909F5D74909F12109494481
S214412A608E440EEBFC6E4FEAB808816A8946016BCC
S214412A7089EA0101846C6140029C61404FEAF1732E
S214412A8087EA080B8BEA0C0B059303F1DD4909F540
S214412A90B30909F5D74909F121094A4493440BEB97
S214412AA0FE6B4FEABC0CC16A426B4A40019B5A40DE
S214412AB003994A404FEAF27288EA0C0A8AEA0E0AF9
S214412AC004E000BF9979825AA1EBD96E0692DFF8ED
S214412AD0B89691444F44BA440AEBFB6A4FEABE0E9D
S214412AE0016B846B81EA0407079A5740049C674050
S214412AF04FEAF7773C468CEA0E0989EA0B0907F15B
S214412B00DD4707F5B30707F5D7472137B844C14432
S214412B1009EBFA694FEABB0B416BC76B4F407740F5
S214412B2005994F404FEAF7778EEA0B0888EA0A087C
S214412B30079707F1DD4707F5B30707F5D74721376D
S214412B40BC44E04408EBF9684FEABA0A816B8C460C
S214412B50016C8CEA01076F4006994F404FEAF777C0
S214412B6039468BEA0A0787EA09070891DFF818C64B
S214412B708C44E644774407EBF8674FEAB909C16BE2
S214412B808E46416C8EEA010E02998EEA010E0D9434
S214412B908EEA040E4FEAFE7E71468AEA090E8EEAF6
S214412BA0080E099101F1DD4C0CF5B30C0CF5D74C30
S214412BB00CF1210CE344F3440BEBF76B4FEAB808F6
S214412BC0046CA646846C8EEA040E039C8EEA040EC0
S214412BD0079C8EEA040E4FEAFE7E744689EA080E8A
S214412BE08EEA070E0A9404F1DD4C0CF5B30C0CF595
S214412BF0D74C0CF1210CE244F2440AEBFB6A4FEA53
S214412C00B707416C81EA030E049C8EEA040E0899CC
S214412C108EEA010E4FEAFE7E734688EA070E8EEA7A
S214412C200B0E0E9303F1DD4C0CF5B30C0CF5D74CA3
S214412C300CF1210CE144F14409EBFA694FEABB0B74
S214412C40816C144681EA020E059A8EEA020E0999B3
S214412C508EEA010E4FEAFE7E87EA0B0C8CEA0A0CDE
S214412C60CDF83CE00EF1DD4E0EF5B30E0EF5D74E27
S214412C700EF1210EF044C4440CEBF96C4FEABA0A4B
S214412C80019B9E4633468EEA060E069A8EEA020E51
S214412C900A998EEA010E4FEAFE768BEA0A0888EA1E
S214412CA009080B96DFF8E0E4B6447744B84408EBED
S214412CB0FC684FEAB90984EA05070D9A57400E9E0B
S214412CC077404FEAF7778AEA090E8EEA0C0E0C97A0
S214412CD007F1DD4707F5B30707F5D7472137BB446B
S214412CE0DE440EEBF86E4FEABC0C029F5F40079C39
S214412CF067400F9C67404FEAF7731C4689EA0C070A
S214412D0087EA080703F1DD4B0BF5B30B0BF5D74B01
S214412D100BF1210BDA44574407EBFE674FEAB8083C
S214412D20039E85EA060A089B8AEA030A0B9D8AEAFD
S214412D30050A4FEAFA7A8CEA080B8BEA0E0BCDF8B5
S214412D4044A00AF1DD4A0AF5B30A0AF5D74A0AF160
S214412D50210AD144CB440BEBF76B4FEABE0E029EE1
S214412D60049D6E40099D6E400C9D6E404FEAF67381
S214412D7088EA0E067E40029303F1DD4909F5B30960
S214412D8009F5D74909F12109CC44664406EBFB66AF
S214412D904FEAB707039D059B5D404D401094654043
S214412DA04FEAF5718EEA070585EA0B05039101F1B5
S214412DB0DD4C0CF5B30C0CF5D74C0CF1210CE04472
S214412DC0A84408EBF6654FEABB0B049C069B5C40A7
S214412DD00E9B5C4011994C404FEAF474214687EAB9
S214412DE00B047440129101F1DD4C0CF5B30C0CF55B
S214412DF0D74C0CF1210CE644A6440EEBF5644FEAA1
S214412E00B606059951400F9A5140029A51404FEAF1
S214412E10F1728BEA060169400492DB4BD3181F44DA
S214412E200F4407EBF4614FEAB505079A069B5340FA
S214412E301A460B9F7A40039F7A404FEAF27744EA5C
S214412E400502324004EA05031A43D04B13971F4448
S214412E50BB4493440BEBF1624FEAB4090D9FBE4667
S214412E60089F8EEA07070C9C6740129C67404FEA12
S214412E70F77441EA090808EA050701EA090847EA3A
S214412E8008080D94E7183E44464406EBF2684FEABC
S214412E90B101079EB646099E8EEA0607109C67401A
S214412EA0049E77404FEAF776374642EA010E0EEA2D
S214412EB0090602EA010E46EA0E0E14973E461E44E5
S214412EC03544754405EBF8654FEAB202089FBE46A5
S214412ED00A9F8EEA070B119F8BEA070B139E8BEA1C
S214412EE0060B4FEAFB7E48EA020C0CEA010608EAAA
S214412EF0020C46EA0C0CCDF854E076461E4409EB2B
S214412F000604644404EBF56C4FEAB808099EB646DD
S214412F100E9E8EEA060E029F8EEA070E0D9C8EEAE4
S214412F20040E4FEAFE7E774645EA080E0EEA020494
S214412F3005EA080E44EA0E0E05973C461C44214419
S214412F40714401EBFC614FEAB5050A9FBE460F9FEF
S214412F508EEA0709039C89EA0409149C89EA040954
S214412F604FEAF97ECDF804E04CEA050A0AEA08047D
S214412F700CEA050A44EA0A0A74461C44224492446E
S214412F800AEBF16A4FEABC0C0B9A91465640129AEC
S214412F905640159A56404FEAF676344641EA0C06B4
S214412FA006EA050201EA0C0616430E9422461A4426
S214412FB09044464406EBFA664FEAB1013C460C9F04
S214412FC084EA0702049C6240059C62404FEAF27222
S214412FD017464AEA010202EA0C040AEA01022243BF
S214412FE00697FC182544154405EBF6654FEABA0AE0
S214412FF0109CA04689EA0402139C6240019F7A40D5
S2144130004FEAF27246EA0A0404EA010906EA0A04A9
S21441301049EA0404079202EB0309CC4404EB0C0989
S21441302009EBF5694FEAB6060C9FBE46119F8EEA3C
S21441303007020D9C62400E9C62404FEAF2721446B3
S21441304045EA060E0EEA0A0205EA060E42EA0E0EA8
S2144130500F9422461A441144714401EBF96E4FEA2B
S214413060B505029988EA0104149A544006994C40E1
S2144130704FEAF47149EA050808EA060209EA050832
S21441308042EA08080891CA189244D04408EBFE6800
S2144130904FEAB904039989467940159A5140079AEF
S2144130A051404FEAF1774EEA040B0BEA05020EEA6D
S2144130B0040B42EA0B0B0997FA181644B3440BEB80
S2144130C0F86B4FEABE01029FBE46129F8EEA070C7E
S2144130D0059E8CEA060C0F9E8CEA060C4FEAFC7E97
S2144130E0764648EA010C0CEA040208EA010C42EA78
S2144130F00C0CCDF808E0F2181544AC440CEBFB6C14
S2144131004FEAB8084A46049D82EA050E019E8EEAB9
S214413110060E089D8EEA050E4FEAFE7E75464BEA80
S214413120080909EA01020BEA080942EA0909CDF849
S2144131300CE0EA181444A14409EBFC694FEABB0BC6
S2144131403E46139C86EA04070E9E7740099D6F40D3
S2144131504FEAF7774CEA0B0E0EEA08020CEA0B0E22
S21441316042EA0E0E0A97FA1811448E440EEBF96E97
S2144131704FEABC0C049DAA460D9D8AEA05020699B3
S2144131804A40029E724003E0A1EBD96EDCBC1B8F25
S2144131904FEAF2710E4649EA0C0202EA0B0109EACD
S2144131A00C020A430496314619448844424402EBD1
S2144131B0FE624FEAB909149F84EA0706079C6640F7
S2144131C0039C66404FEAF6744EEA090606EA0C018D
S2144131D00EEA09060E430B94E1188B445E4406EB57
S2144131E0F2664FEABE0E159C65400F994D400A990E
S2144131F04D404FEAF5750C9542EA0E0505EA090180
S21441320002EA0E050D430C9919448C44654405EBBE
S214413210F6654FEAB2023946059F4F4008994F403E
S21441322004994F404FEAF77746EA020A0AEA0E0146
S21441323006EA020A41EA0A0A0D97F9188944CA447D
S2144132400AEBF56A4FEAB6062146019C81EA040B71
S214413250099C8BEA040B0B9C8BEA040B4FEAFB7C24
S21441326045EA0601114005EA060841EA0808CDF894
S21441327040C063447344984408EBFA684FEAB50586
S214413280059FBE460E9F8EEA0703029C63400C9C38
S21441329063404FEAF373194686EA050484EA0A0452
S2144132A0D54B059119440A44144404EBF8644FEA9B
S2144132B0BA0A019A069982EA0109039A89EA020939
S2144132C00D9A89EA02094FEAF97E724685EA0A01B1
S2144132D081EA0801CDF838E01A441644314401EB3E
S2144132E0F4614FEAB808079A87EA02060A9F7E40C9
S2144132F0109F7E404FEAF6768AEA080C8CEA040C68
S2144133000196F2181544AC440CEBF16C4FEAB40448
S214413310069F0F9E87EA0602049D6A40059D6A4005
S2144133204FEAF27588EA040E8EEA010E0695EA180F
S2144133309244D6440EEBFC6E4FEAB101079A089FC1
S214413340BA467A400B9D6A400E9D6A404FEAF27239
S21441335084EA010787EA0C0707921A4490444744D7
S21441336007EBFE674FEABC0C099A72400C9E72400E
S214413370019E72404FEAF27681EA0C0282EA0E0220
S2144133800F96F5182C44224402EBF7624FEABE0E24
S214413390029D8AEA05040D9E7440069D6C404FEAE4
S2144133A0F4748CEA0E067E40E51829440E4406EB7A
S2144133B0F2664FEAB7070999039DA9466940109DF1
S2144133C06940079D69404FEAF1718EEA070555400D
S2144133D0089101EB0308C444654405EBF6654FEAE2
S2144133E0B20202998C460A998CEA010C05998CEA3C
S2144133F0010C0F998CEA010C4FEAFC7C87EA020B20
S2144134008BEA060BCDF808C09C44E644F3440BEB2C
S214413410F56B4FEAB606049989EA010E0E998EEAD3
S214413420010E8EEA040E4FEAFE7E82EA060A8AEA18
S214413430050ACDF80CE09E447744BA440AEBFB6A91
S2144134404FEAB5050A990B9F4F4001994F4008999D
S2144134504F404FEAF77786EA050989EA0B0909974B
S2144134601F443A44914409EBFA694FEABB0B04996D
S2144134708E460C998EEA0102069F7A40029F7A4058
S2144134804FEAF27285EA0B0888EA0A080492D718CE
S2144134903E44B04408EBF9684FEABA0A0B9F0D9ECA
S2144134A07E40079A5640039A56404FEAF6768BEA94
S2144134B00A0C8CEA090CF7183D44AC440CEBF86C4A
S2144134C04FEAB909109A81EA02050F9F7D40099F8C
S2144134D07D404FEAF5758AEA090E8EEA080EEF1826
S2144134E0BB44DE440EEBFC6E4FEAB8080D99059FCF
S2144134F04F407C4004994C404FEAF47489EA0807EF
S21441350087EA0C0704EB030BDA44574407EBFE67E4
S2144135104FEABC0C92460E9A8AEA020B08998BEA4D
S21441352001014E404FEAF67688EA0C0A8AEA0E0A0C
S21441353033444B449A440AEBF76A4FEABE0E059968
S214413540019B4B4002994B405D404FEAF5758CEA32
S2144135500E017940284B05EB0309C844414401EB71
S214413560FA614FEAB7079046069A88EA0209039A33
S21441357089EA020989EA040903EBF979CC448EEA1F
S214413580070989EA0A09CC440CEBF16C4FEABA0AFE
S214413590019A079C5440099A5440744003EBF474D2
S2144135A0A64487EA0A044C40A6440EEBFC6E4FEA5A
S2144135B0B101069A0F9C5440049A62405540C26C31
S2144135C0134403EBF5752F448AEA010383EA0C039F
S2144135D01F4407EBFE67C764036D03EB0E040465E7
S2144135E0436D03EBBC034365836D19448165C36D2D
S2144135F05344C36502E000BFD6C162CA17B0BDE8F6
S214413600F08F00BF0346B0B101660C4AC26402F1B6
S2144136108832026502F12942A2F59612A2F68B6221
S2144136204265A2F188328265054AC265002018606B
S2144136305860986070476FF0AC007047012345674B
S214413640F0E1D2C300284ED02DE9F84F0F4616467A
S214413650044669B104F10C0823683F2B46D8002E76
S21441366048D0DFF8989004F14805DFF894A008E0C8
S214413670002AEFD06FF0AC00BDE8F88F002323603E
S21441368076B32068C0F1400BB34528BFB3465A46CF
S21441369039464044C84723685B4423605F44A6EBF1
S2144136A00B06402BECD104F108014A68130A03F0DB
S2144136B0FF13120202F0FF2213434FEA334341F84D
S2144136C0043FA942F1D141462046D047626802F103
S2144136D0400363609A42D1D9A3680133A360CDE722
S2144136E00020BDE8F88F6FF0AC0070476FF08300A4
S2144136F0BDE8F88F0020BDE8F88F00BFC18A4300BF
S2144137003D274100002800F09480F8B50546002981
S21441371000F0928000F10C07036840681A186A604E
S214413720904202D9AA680132AA600E465A1C2A6003
S2144137308022FA54286838285AD82C4654F8080B60
S214413740C0F13802002138443D4B984705F1480105
S2144137506268130A03F0FF13120202F0FF221343BA
S2144137604FEA334344F8043F8C42F1D16B68A96871
S2144137705A0F02EBC102AA60DB006B606A64AB645D
S214413780394628462F4B984705F14C0405F1480128
S21441379005F15C004A68130A03F0FF13120202F0B7
S2144137A0FF2213434FEA334341F8043F8142F1D1AC
S2144137B023686068A168E26833607060B160F26057
S2144137C023693361204BEB6403F188332B6503F1A6
S2144137D02943A3F59613A3F68B636B65A3F1883350
S2144137E0AB651A4BEB65002028606860A860F8BDA1
S2144137F0C0F1400200213844114B984729464023E6
S21441380041F8083B05F148004A68130A03F0FF13E4
S214413810120202F0FF2213434FEA334341F8043FBA
S2144138208142F1D139462846064B984700232B6002
S21441383083E76FF0AC0070476FF0AC00F8BD00BF97
S214413840BD8C43003D27410001234567F0E1D2C3CB
S21441385008B56FF001020021014B984708BD00BF33
S2144138600536410048B108B50B46014643B11846F6
S2144138706422054B9847002008BD6FF0AC007047A6
S2144138806FF0AC0008BD00BFC18A430088B199B152
S21441389010B59AB00C4601A9094B9847034610B19A
S2144138A018461AB010BD214601A8064B9847034654
S2144138B0F6E76FF0AC0301E06FF0AC0318467047D3
S2144138C065384100053741002DE9F04F8DB004467B
S2144138D0262200214FF48070C84B9847019000285B
S2144138E000F08881A4F1040A03AB029304F11C01A1
S2144138F0524652F8040F43F8040F8A42F9D1039214
S21441390004F11C03019A043A04F15C0053F8041FC5
S21441391042F8041F8342F9D10198814600F1C00460
S2144139200546826B50F8041F4FEAF24383EA72431E
S21441393083EA92236A6A2D682A4413444FEAB142C5
S21441394082EAF11282EAD1021344C363A042E7D16C
S214413950DDF82CC0079ADDF828E00699099F059DF9
S214413960089B0498DFF8A0827446E646D346CA46CA
S214413970C1469846A4464FEAF82383EAB81383EA39
S2144139807866D9F80030DAF80040234433448CEAAC
S214413990070404EA080484EA0C0423449E4472445F
S2144139A04FEA703383EAB00383EAB05340EA050432
S2144139B00C4000EA0506344323449E44D9F80430BB
S2144139C0DAF8044023449C4488EA070313407B40CA
S2144139D09C444FEAF22383EAB21383EA7263634458
S2144139E019444FEA7E3C8CEABE0C8CEABE5C4EEA39
S2144139F000042C400EEA00063443A4449C44D9F803
S214413A000840DAF80860A3193B4482EA08070F40E9
S214413A1087EA08073B444FEAF12787EAB11787EA66
S214413A2071671F443D444FEA7C3383EABC0383EA13
S214413A30BC534EEA0C0404400EEA0C0634432344BD
S214413A403B44D9F80C40DAF80C603444444482EAEA
S214413A50010808EA050888EA020844444FEAF528BE
S214413A6088EAB51888EA7568A04440444FEA73343A
S214413A7084EAB30484EAB3544CEA030606EA0E0623
S214413A800CEA03073E4334444444D9F81060DAF85C
S214413A9010703E44324481EA050606404E403244A8
S214413AA04FEAF02686EAB01686EA70661644B644B1
S214413AB04FEA743282EAB40282EAB45243EA040715
S214413AC007EA0C0703EA040847EA08073A4432447F
S214413AD0D9F81460DAF814703E44314485EA000699
S214413AE006EA0E066E4031444FEAFE2686EABE16C8
S214413AF086EA7E660E44B4444FEA723181EAB201E8
S214413B0081EAB25144EA02071F4004EA020847EA42
S214413B10080739443144D9F81860DAF818703E4439
S214413B20354480EA0E0606EA0C06464035444FEA1E
S214413B30FC2686EABC1686EA7C662E449F194FEA26
S214413B40713585EAB10585EAB15542EA010323405C
S214413B5002EA010843EA08031D443544D9F81C60CB
S214413B60DAF81C30334418448EEA0C033B4083EAAF
S214413B700E0318444FEAF72383EAB71383EA7763C1
S214413B80034404EB03084FEA753080EAB50080EA47
S214413B90B55041EA0504144001EA05063443204481
S214413BA0184409F120090AF1200A154B99457FF47A
S214413BB0E2AE6446F446DA46CDF82CC0CDF8208015
S214413BC00A9409970490059506910792029A0398DC
S214413BD0DAF8043052F8041F0B444AF8043F824591
S214413BE0F6D1262200210198064B984700200DB0B9
S214413BF0BDE8F08F6FF07C00F9E700BF4D9D4100B6
S214413C00FCFF4300599D4100FCFE430000B310B544
S214413C100446C166202200210F4B98470F4B236074
S214413C200F4B63600F4BA3600F4BE3600F4B236159
S214413C300F4B63610F4BA36103F17453A3F5230349
S214413C40A3F69243E361002020666066A06610BD3D
S214413C506FF0AC00704700BFBD8C430067E6096A51
S214413C6085AE67BB72F36E3C3AF54FA57F520E5157
S214413C708C68059BABD9831F2DE9F047002800F0DF
S214413C8094800D4617460646D1B106F12008306E9F
S214413C903F2800F28D80C0B9726E27F03F0313446F
S214413CA073669A4202D9B36E0133B3663F2F98BF0B
S214413CB04FF0000A6ED906F15C04DFF800914DE042
S214413CC0002AE2D06FF0AC0A65E0C0F14004BC4285
S214413CD028BF3C46224629464044374B9847336ED8
S214413CE02344336625443F1B402BD5D106F11C01A6
S214413CF006F15C004A68130A03F0FF13120202F051
S214413D00FF2213434FEA334341F8043F8142F1D146
S214413D1030462A4B9847824600283AD1726E02F1C5
S214413D20400373669A4202D9B36E0133B3660023E9
S214413D303366B1E74A68130A03F0FF13120202F032
S214413D40FF2213434FEA334341F8043FA142F1D1E6
S214413D503046C8478246E8B93F2F1BD92B464246D4
S214413D6005F14001D3F800A0D3F804C0D3F808E029
S214413D70D868C2F800A0C2F804C0C2F808E0D06013
S214413D80103310328B42EDD14035403F06F11C01D5
S214413D90D0E7002717B95046BDE8F0873A4629468E
S214413DA04046054B98473766F5E76FF0AC0AF2E7B1
S214413DB06FF0830AEFE700BFC18A4300C93841006C
S214413DC0F8B5002800F0A6800446002900F0A5803A
S214413DD000F12006036E406E1A186266904202D9C0
S214413DE0A26E0132A2660D465A1C22668022F25409
S214413DF0206E382821D9C0F1400200213044484B7A
S214413E0098474023236604F11C0104F15C004A688C
S214413E10130A03F0FF13120202F0FF2213434FEA84
S214413E20334341F8043F8142F1D120463D4B984708
S214413E30074600286CD100232366206EC0F1380265
S214413E4000213044364B9847636EA16E5A0F02EB01
S214413E50C102A266DB00636604F11C0104F15C004A
S214413E604A68130A03F0FF13120202F0FF221343BB
S214413E704FEA334341F8043F8142F1D1A36EA36533
S214413E80636EE3652046274B9847074600283FD197
S214413E902646211F04F11C004A68130A03F0FF134B
S214413EA0120202F0FF2213434FEA334341F8043F24
S214413EB08142F1D130687168B268F3682860696000
S214413EC0AA60EB6030697169B269F369286169611A
S214413ED0AA61EB61202200212046114B9847124BE4
S214413EE02360124B6360124BA360124BE360124B8C
S214413EF02361124B6361124BA36103F17453A3F523
S214413F002303A3F69243E361002323666366A36615
S214413F103846F8BD6FF0AC07FAE76FF0AC07F7E745
S214413F20BD8C4300C938410067E6096A85AE67BB68
S214413F3072F36E3C3AF54FA57F520E518C68059B45
S214413F40ABD9831F08B56FF001020021014B98479A
S214413F5008BD00BF0D3C41007047000048B108B5A0
S214413F600B46014643B118467022054B9847002040
S214413F7008BD6FF0AC0070476FF0AC0008BD00BFE5
S214413F80C18A430088B199B110B59CB00C466946C8
S214413F90094B9847034610B118461CB010BD214640
S214413FA06846064B98470346F6E76FF0AC0301E0D8
S214413FB06FF0AC03184670475D3F4100C13D41007C
S214413FC0034B1B6813B90122014B1A60002070474E
S214413FD0380C0020002070470020704700207047B2
S214413FE00020704708B1006870470020704740B114
S214413FF002688A4207DD002907DBC36853F82100BF
S214414000704700207047002070470020704788B1F5
S21441401010B4027093F87421427093F8752182703F
S21441402093F94532002B03DBC1F30723C3700171BB
S2144140305DF8044B70470000F8B504460D46164639
S21441404016220431044FB84766712B0CA3712B0A14
S214414050E3712572F8BD00BF0F40410090F87431FE
S214414060032B01D00020704790F87501003018BF2F
S2144140700120704790F87431032B03D0FE2B08D0F3
S2144140800020704790F87501022894BF0020012057
S214414090704790F87501FD288CBF002001207047BD
S2144140A082B0ADF80400C0B2032802D0002002B0AE
S2144140B070479DF80500032894BF00200120F6E7CD
S2144140C082B002AB23F8041D1B8803800123837052
S2144140D00023C37002B0704770B504460D461646BD
S2144140E06C2200211D4B984725600123E360246321
S2144140F04FF4FA72A26584F8443004F10800184B74
S214414100984700281ADB8023A4F848301C23A4F8DB
S2144141104A302023A4F86030124BE364124B2365E7
S214414120AB78012B10D06FF00103A36630460F4BDE
S2144141309847A06278B12663002070BD6FF4CE73B5
S21441414023616FF0690070BD84F83F3084F83C30DD
S21441415084F84030E7E76FF4B37070BDBD8C430020
S214414160D53F410061A441004DA54100B1924100B7
S21441417038B504460B22016B00680F4B9847E06A3E
S21441418018B11E22216B0C4B9847606830B10B4B1F
S21441419098472022216B6068074B984704F11C0022
S2144141A0074DA84704F11400A84704F11800A84792
S2144141B0A06A044B984738BD599D4100851541007A
S2144141C0459241008592410070B5044600F10805CC
S2144141D02846134B984770B122696FF4CE739A42C2
S2144141E000D070BD20460F4B98471222216B2046C7
S2144141F00D4B984770BDE668013EE66028460B4B7E
S2144142009847002EEDD12046064B98472846084B46
S21441421098471222216B2046034B9847E1E700BF9F
S214414220DD3F410071414100599D4100E13F410060
S214414230D93F410038B50446006C074DA847A06CED
S214414240A8471F22616A206C044DA8471F22616A55
S214414250A06CA84738BD00BF6F854000599D4100FE
S214414260FF23037243728372C37203730023437343
S214414270C37303804380838070470B4631B1042368
S21441428080F83031032380F83131022372B110B403
S2144142905A1CC118042481F83041024402330121DA
S2144142A082F8301143805DF8044B70474380704775
S2144142B0F0B585B0ADF80C10BDF83450BDF83840B7
S2144142C0C1F30726C9B2032924D00027002698B394
S2144142D090F8501181BB109919BBBDF83C100029CC
S2144142E018BF0023B5FA85F14909E7B124B1C024C6
S2144142F00471072444710224B3B1631C07194FF0BB
S214414300C00E87F804E00234A4B210FA83F31127F2
S2144143101F7109E0371C18BF0127022ED6D9012686
S214414320D5E70121E1E700240480019200960023AD
S2144143300A462946014CA04705B0F0BD7B424100E4
S21441434030B583B0099D00200190E1B10846EBB13C
S214414350FDB1B2F5007F1FD81C4611462B4601AA77
S214414360124DA84700280CDD069B984217D10199AB
S214414370C1B11A4620460E4B9847002818BF6FF425
S214414380C97003B030BD6FF0AC00FAE76FF0AC0017
S214414390F7E76FF0AC00F4E76FF08300F1E76FF4F6
S2144143A0C970EEE76FF4C970EBE700BF1922410010
S2144143B0618A430030B583B00D4611461A46069CC5
S2144143C083690193079B009323682846034DA847BA
S2144143D00028C4BF2060002003B030BDE526410060
S2144143E030B583B00446084611461A46079B0193EA
S2144143F004F519730093069B074DA84748B9034631
S214414400D4F86412054A002908BF1346184603B07B
S21441441030BD024BFAE700BFC5D54000B6FEFFFFF0
S21441442070B504460D4682B113691E68D4F8680219
S21441443070B92A463146A0690C4B9847034698B94D
S2144144402A69D26AC4F868220EE0B0F88062EDE7C5
S214414450A46900221146064B984703462A46314630
S2144144602046044CA0470346184670BD6DCE40001A
S21441447049D940001DCD4000002800F03981F0B5F3
S21441448089B00446002900F036814368002B00F0CD
S214414490028116460D46206808B1A14B984705F1A2
S2144144A0080738469F4B9847002840F02781EB681D
S2144144B00133EB6038469C4B984725602B681B8838
S2144144C0A4F87431B5F86030A4F880326B6EC4F845
S2144144D07C32EB6DC4F86832AB6DC4F860316B6DFD
S2144144E023622A6894F84432927862F3041384F87B
S2144144F044322A6894F84532D27862F3410384F80C
S214414500453295F8443084F8513294F8463295F85D
S2144145103D2062F3C71384F8463294F8473295F843
S2144145203E2062F3000384F8473295F83F2062F359
S214414530820384F8473294F8463295F83C2062F379
S214414540861384F8463294F8473295F8402062F351
S214414550C30384F84732B5F94830A4F85832B5F960
S2144145604A30A4F85A3294F8443295F8382062F327
S214414570820384F8443295F8392062F3C30384F801
S214414580443295F8342062F3451384F8443295F862
S214414590352062F3861384F8443295F8362062F368
S2144145A0C71384F8443294F8453295F8372062F3BD
S2144145B0000384F8453294F8443295F83A2062F381
S2144145C0010384F8443294F8483295F8412062F366
S2144145D0820384F8483295F8422062F3C30384F894
S2144145E0483295F8432062F3451384F848326B69A4
S2144145F0C4F8B430AB69C4F8C430EB69C4F8B83019
S21441460095F8203084F8BC306F6AC4F8C070002E2C
S21441461077D1E96A002944D04FF4AA726068434BC7
S214414620984794F8443213F0100F41D16068C3F3B1
S2144146300013069394F84732C3F3C002059294F8E8
S2144146404622C2F380110491C3F38001039103F023
S21441465001030293D20901920023009301233A46B3
S214414660D4F87411324DA84794F8443213F0100F21
S2144146704AD1D4F8B430002B48D01B68002B48D020
S214414680D4F8B830002B47D01B68002B0CBF6FF412
S2144146909E70012036E0002A7FF4FBAE6FF0AC003E
S2144146A030E04FF4AA7200216068224B9847B8E781
S2144146B0606894F84432C3F30013069394F8473283
S2144146C0C3F3C002059294F84622C2F380120492C4
S2144146D0C3F38002039203F0010302930123019383
S2144146E0002200923A46D4F87411114DA847BBE710
S2144146F06FF0AC0070476FF0AC0003E06FF06900FC
S21441470000E0012009B0F0BD0120FBE76FF49E7088
S214414710F8E76FF49E70F5E76FF49E70F2E700BF1E
S21441472001914100DD3F4100E13F4100C18A430024
S214414730B1424100BD8C4300C3686BB110B504461D
S21441474003F1CC00054B98472C22616AE068044B84
S21441475098470023E36010BD704700BF593F4100B2
S214414760599D410010B50446C3680BB10C4B9847A0
S2144147702C22616A4FF49E700A4B9847E06060B104
S2144147804FF49E720021084B9847E068D4F8842283
S214414790616ACC30054B984710BD6FF07C0010BD68
S2144147A0394741004D9D4100BD8C43000D3C4100C1
S2144147B0F8B504460D4616464FF4227200215F4B6B
S2144147C098472B6B636204F15003A3650523636628
S2144147D004F16C026267C4F880304FF0FF32C4F8CF
S2144147E05021C4F85421AB6EC4F8843204F5A87342
S2144147F0236104F5AA736361002384F84D3284F87B
S2144148004E3284F8523284F8533284F84F3284F868
S2144148104A3284F8543284F8553284F8443084F865
S2144148204C304749E163A46395F8460094F8491231
S21441483060F3C30184F84912C4F83C21C4F840210E
S214414840C4F84421C4F848212364A36484F845305D
S21441485084F84D3004F5BC703A4B98472EBB212264
S214414860616AA820384B9847A06000285AD0A822F1
S2144148700021324B9847A7684722616A4FF400707F
S214414880314B98477860A368586800284DD04FF45C
S21441489000720021294B98471E22616A4FF4AA7084
S2144148A0294B98476060002842D032462946204628
S2144148B0264B98470346012801D01846F8BD94F880
S2144148C07431FE2B14BF0023012394F8452263F371
S2144148D0C71284F845226B68A36113B1EEB1002379
S2144148E0EBE72022616A1020174B9847A06110B36E
S2144148F00023036043608360C36094F8493243F009
S214414900010384F84932D4F88422616AA069104BC5
S214414910984703460028E1D0CFE720460D4B9847FD
S2144149200346CAE76FF07C03C7E76FF07C03C4E732
S2144149306FF07C03C1E76FF07C03BEE7BD8C43009C
S2144149406DA34100614241004D9D410079444100C3
S214414950A516410065474100F8B504468368DBB1BA
S21441496011BB586830B14722616A1F4B9847A3680C
S21441497000225A60A3682122616A18681A4B984738
S214414980A36800221A60A36803F1A80011465A1CC6
S214414990197013469042FAD12122616AA068124BDF
S2144149A098470023A360F8BD194651F8547F4E68D6
S2144149B08D68C868C4F8D070C4F8D460C4F8D850BC
S2144149C0C4F8DC000F694E698D69C869C4F8E070A7
S2144149D0C4F8E460C4F8E850C4F8EC0093F87420D6
S2144149E084F8F020BDE700BF599D4100C0B170B5C5
S2144149F0064672B1106860B115460C460A2909D0C0
S214414A0025290AD02246716A2868064B9847002312
S214414A102B6070BD044B9847F4E7044B9847F1E789
S214414A20704700BF599D4100211B4100CDCE40003B
S214414A30F8B510B307461AB3136823BB15460C46A0
S214414A400A2905D0252927D06FF0AC063046F8BD97
S214414A500A22416A9820184B98472860B0B1D7F887
S214414A608422796A154B98470646002EEED02A4690
S214414A7021463846124B9847E8E76FF0AC06E5E723
S214414A806FF0AC06E2E76FF0BF06DFE76FF07C063B
S214414A90DCE76FF07C06D9E72522416A5820064BB1
S214414AA0984728600028F4D0D7F88422796A054BC5
S214414AB098470646D9E700BF4D9D41009D1A4100E3
S214414AC0ED4941007DCE400010B50446D0F898002F
S214414AD040B12B22616A0D4B98470023C4F89830A9
S214414AE0C4F89C30D4F8A00040B14822616A074B14
S214414AF098470023C4F8A030C4F8A43004F130022B
S214414B00616B2046024B984710BD00BF599D41003E
S214414B10ED49410008B50020014B984708BD00BF4C
S214414B2071C2430070B5C6687EB115460C46084B47
S214414B309847034608B9184670BD2A46214606F1ED
S214414B40CC00044B98470346F5E76FF0AC03F2E719
S214414B5075404100793C4100F8B507460D4616467A
S214414B601C46074B9847034608B91846F8BD611DD1
S214414B70F868721F2944CC30024B98470346F4E745
S214414B8075404100793C410070B5C6687EB1154616
S214414B900C46084B9847034608B9184670BD2A1D6F
S214414BA0211F06F1CC00044B98470346F5E76FF00A
S214414BB0AC03F2E775404100793C410010B504462C
S214414BC090F88530406F0C22616AC01A064B9847B0
S214414BD004F16C0363670523C4F88030002384F82E
S214414BE0843084F8853010BD599D410038B504465F
S214414BF0036EC56DED1A49B9052D1BDC002D05DD8B
S214414C00816D2A46194450300B4B984794F86930C9
S214414C10A06D0D22616AC01A084B984704F15003F3
S214414C20A36505236366002384F8683084F86930F9
S214414C302366E56538BD00BFC18A4300599D4100E2
S214414C4070B50446314B984700212046304B984773
S214414C502046304B984794F8493213F0010F42D121
S214414C601E22616A60682C4DA84720462B4B984708
S214414C701022616AD4F88800A84704F5117004F53B
S214414C80C47300215A1C197013468242FAD100257A
S214414C9084F883522046224B984704F517720A211E
S214414CA02046204B984784F8605294F868301BBBE6
S214414CB094F884302BBB04F51D7225212046194EED
S214414CC0B047002584F8715204F51E72252120460E
S214414CD0B04784F8825204F51B7225212046B0471E
S214414CE084F8705270BDA0690F4B98472022616AC4
S214414CF0A069094B9847B3E7012120460B4B9847DB
S214414D00D6E720460A4B9847D5E700BF35424100D3
S214414D1059494100C94A4100599D4100394741001E
S214414D20F19C4100ED49410085154100ED4B4100A4
S214414D30BD4B410038B504460D46006808B1054BE9
S214414D4098472046044B9847112229462046034B54
S214414D50984738BDC9414100414C4100599D4100E9
S214414D6070B5044690F86830002B40D11E22616A27
S214414D706068294B9847002363602046274B984735
S214414D8094F8813123B194F8453213F0200F04D1C1
S214414D9094F8493213F0010F2DD194F94832002B83
S214414DA003DB012120461E4B984704F517720A2162
S214414DB020461C4EB047002584F8605204F51D720B
S214414DC025212046B04784F8715204F51E722521EC
S214414DD02046B04784F8825204F51B7225212046AE
S214414DE0B04784F8705220460F4B984770BD00215B
S214414DF00E4B9847BAE7A0690D4B98472022616A47
S214414E00A069054B98470022A26194F8493262F3A3
S214414E10000384F84932C0E7599D410039474100B3
S214414E2059494100ED494100F19C4100ED4B41009B
S214414E308515410038B503681D6D15B30446826F6C
S214414E4052B1406FE16F636901442046A847B0F113
S214414E50FF3F08D00023A3670023E36794F884301C
S214414E6053B9002038BD94F8463243F0010384F824
S214414E704632A0F2331038BD2046034B98470020F7
S214414E8038BD024838BD00BFBD4B4100CCFEFFFFD8
S214414E902DE9F84390F94532002BB4BF4FF0100886
S214414EA04FF00008161E3CDB00293EDB0446751811
S214414EB00D22416A05EB0800204B9847074600281B
S214414EC037D0B8F1000F02D0A8F10D094F449EB972
S214414ED094F86830C3B9012384F86830B8F1000FFC
S214414EE01BD0A8F10D0384F86930A76565660020DC
S214414EF02066E665BDE8F883A16D236E3246194407
S214414F0038460F4B9847E3E794F86930A06D0D2279
S214414F10616AC01A0B4B9847DDE7002384F8693075
S214414F20E3E76FF0AC00BDE8F8836FF0AC00BDE896
S214414F30F8836FF07C00BDE8F88300BF4D9D4100CB
S214414F40C18A4300599D41002DE9F041C76D036E6A
S214414F50FF1A436EDB1BCD1B002F3FDB002B40DBD4
S214414F60002D41DD0E460446AB4228DB002F01DD15
S214414F70216E69BB00232366E7656FF4A177A16DB7
S214414F80E36D19442368D3F84C80B8F1000F2ED056
S214414F9023692A462046C04710F1030F2AD0B0F1B4
S214414FA0FF3F2BD0B8422DD085422ADBE36D034428
S214414FB0E3652D1A9E42E2D80020BDE8F0813A46CC
S214414FC0114B98470028D1DA6FF07C00BDE8F0819C
S214414FD0A06D3A4601440D4B9847CBE70C48BDE8D7
S214414FE0F0810B48BDE8F0810948BDE8F0810948E9
S214414FF0BDE8F0816FF4A170BDE8F0810548BDE8D9
S214415000F0810548BDE8F081914E4100F58B4300A3
S214415010B8FEFFFFCCFEFFFF88FEFFFF2DE9F04103
S2144150200E1E48DB826FD0F880309B1AB34202D303
S2144150300020BDE8F08190F94532002B22DB0527A0
S2144150400824054690190C22696A20441E4B98474D
S2144150508046A0B30CB1E31B9844AA6FCAB995F831
S2144150608430DBB9012385F8843004B3E41B85F82A
S2144150708540C5F87480A96F3144C5F8801000207A
S214415080BDE8F08104246400E4B20C2CFBD90D2762
S214415090D7E7696F40460D4B9847E0E795F885306E
S2144150A0686F0C22696AC01A094B9847DAE70023F1
S2144150B085F88530DDE76FF0AC00BDE8F0816FF034
S2144150C07C00BDE8F08100BF4D9D4100C18A430090
S2144150D0599D410000286AD02DE9F0470E46914679
S2144150E08246002A65D0002966DDDFF8D88031E0A7
S2144150F0013E002E0EDD14F8015BC047284443787C
S21441510003F00303012B08BF2035EDB22A2DEFD063
S214415110A24604E0A246002E14BF3D4600254F4657
S214415120B94617F8014BC0472044437803F00303C0
S214415130012B08BF203414F0FF042AD0A54228D002
S2144151402E2CEDD10020BDE8F087002E28DD013E53
S214415150002E25DD0AF101049AF80070C047384454
S214415160437803F00303012B08BF203717F0FF07EE
S21441517016D02A2FBCD099F80050C047284443780F
S21441518003F00303012B08BF2035EDB2AF4216D121
S214415190A24699F80030002BD7D009F10109D4E78F
S2144151A099F80000B0FA80F04009BDE8F087002089
S2144151B070470020BDE8F0870020BDE8F08700205A
S2144151C0BDE8F087A984430098B12DE9F041446ACF
S2144151D094B188460B4E0C4F65682846B047424608
S2144151E001462846B847034640B92468002CF3D107
S2144151F005E0002318467047002300E001231846C7
S214415200BDE8F08181964300D5504100F8B590F84D
S214415210454204F01004002C14BF0C2624269E425E
S2144152203AD1D2F800E0D0F83C4274443444069B6C
S2144152309C4233D817460B460546079A32B9324642
S214415240C16803EB0E001A4B984750BB3C6095F87B
S214415250443213F0100F0FD0072385F84D3295F8DE
S214415260453213F0040F1ED10C2385F84F3201232B
S21441527085F850320020F8BD0B2385F84E3295F85C
S214415280453213F0040F10D00C2385F84F3201231A
S21441529085F850320020F8BD0648F8BD6FF083000F
S2144152A0F8BD0548F8BD0020F8BD0020F8BD00BF98
S2144152B0618A4300B8FEFFFFD0FEFFFF38B590F885
S2144152C0453213F0100F02D10023184638BD0D4663
S2144152D00446C0686830094B984703460028F4D115
S2144152E02046074B984703460028EED0E06805F174
S2144152F01401CC30034B98470346E6E78D3841000E
S21441530075404100853F41002DE9F0428EB0179F20
S214415310002800F0FE8004461E4691460D460021B8
S21441532080F855122C2203A88A4B9847149B0533C4
S214415330052206920792002F75D1002D00F0EC80D1
S214415340002E00F0EC80012284F8552294F8852145
S21441535003921344049394F88121012A7BD0049B41
S2144153604B4500F2E880099A3AB10AA9A0697A4BFE
S21441537098470346002840F0E080079B0499C91AE5
S21441538089B2ADF8201023469DF854202846734F25
S214415390B847DDF82490B9F1000F76D1069F149AEC
S2144153A03146E8196E4B9847149B1F4406970223D3
S2144153B084F85532159B162B73D094F88131012B06
S2144153C07ED0032384F8553294F88131022B11D0D4
S2144153D0099B079A1A4400230193159B0093E76B98
S2144153E0149B2A44069929442046B8470346002878
S2144153F040F0A380042384F855320799BDF8203045
S21441540094F84420002A67D0012A40F09C8094F802
S2144154108021012A72D0002384F8443084F8553222
S214415420A3F59D7313E0002D7CD1002E7DD1012282
S21441543084F8552294F8852103921344049394F8F2
S2144154408121012A07D0002384F85532049B18464F
S2144154500EB0BDE8F082B4F87C2194F8451211F004
S214415460200F04D0099213440493102A60D8049B59
S214415470181FB0FBF2F102FB1101521A05920133DB
S2144154801A440492002FDED169E7069F4A46102A45
S21441549028BF10220AA9E819314B98474F4406976E
S2144154A07CE7169B002B88D04B46079A14990A44F2
S2144154B0294620462B4FB847034600283DD17CE776
S2144154C00599039B069A1A442A44002302F8011BB5
S2144154D001338B42FAD974E794F845208AB3012206
S2144154E084F8442094F88021012A07D0002384F8C8
S2144154F0443084F85532A3F59D73A8E729440A46FB
S214415500206C194DA847002384F8443084F855325E
S2144155109CE76FF0AC039AE76FF0AC0397E76FF048
S214415520AC0394E76FF0AC0391E76FF0AC038EE702
S2144155306FF0830301E06FF08303002284F8552265
S21441554085E70A4BF9E7002384F8443084F855325E
S2144155507CE700BFBD8C4300BD1741000F404100B2
S214415560C18A4300594B410005854000C6FEFFFFF6
S2144155702DE9F04188B0044690F840327BB190F86E
S2144155805032002B0CBF06254C25294620461E4B83
S2144155909847064628B1304608B0BDE8F081062552
S2144155A0F3E7676FA36F1F44234614220121384651
S2144155B0DFF86080C04701237B7194F8403213B115
S2144155C094F8503263B9A36F1D44A56794F84832E6
S2144155D013F0200FDFD120460C4B98470646DAE7FA
S2144155E0012108AB03F8041D0022049203920292A3
S2144155F01422019200912A4639462046044DA84776
S214415600051EE0DA2E46C6E71D504100354E4100E4
S214415610095341000F404100F0B593B0044690F85D
S214415620453203F01003002B14BF0C25242501211D
S214415630374B9847034610B1184613B0F0BD762154
S2144156402046344B984703460028F5D1676FA66F2E
S21441565014238DF8183000238DF819308DF81A3040
S2144156608DF81B5094F8442202F010022A492B4B25
S214415670002A14BF1A460A46002C44D094F84532F4
S21441568013F0100F28D100230493039301230293B0
S214415690162301930435009506AB7622B9192046A8
S2144156A01F4DA847051E31DB94F8453213F0040F11
S2144156B01AD094F8443213F0100F05D00C2384F816
S2144156C04F32012384F85032A36F2B44A367204600
S2144156D0144B98470346AFE707A92046124B984715
S2144156E003460028A8D1CEE72046104B984794F8A9
S2144156F0443213F0100FE7D10C2384F84F320123C4
S21441570084F85032E0E76FF0AC0395E7084B93E737
S214415710258E41001D50410000004400FCFF43001F
S21441572009534100354E410031A04100419A4100A4
S214415730C0FEFFFF2DE9F04F93B090F8473213F0CB
S214415740C00F40F0B281044690F8443203F00303A0
S214415750022B00F0CD81D0F8B430002B00F0AB81A5
S214415760D3F808A00AF106090AF103031A46099379
S214415770BAF1000F09D0D0F8C43063B3D3F808B0FB
S214415780D94413465B44099300E0D346D4F86431C8
S21441579073B306220C92A9EB0303CDF834900C9A0E
S2144157A0A3EB0209B9F1000F00F07C810D9AC2F318
S2144157B007430E93C2F307230F93099AC2F3074395
S2144157C00A93C2F307230B93CAF307431093CAF312
S2144157D007231193B3E04FF0000BD7E753464FF042
S2144157E0030900220992CDF8309093469246D2E7BB
S2144157F0CDF8349006230C93D4E74D46B9F5804F47
S21441580028BF4FF48045079505F105080526ADE00C
S2144158104FF00508464600230793ACE00422791D65
S2144158202046BB4B9847D0E003222046B84B9847CA
S214415830DAE0F9189DF84020FA549DF844304B7050
S21441584081F802A094F8403233B10636A9F1060930
S214415850079B063B07932BE003222046AC4B984719
S2144158600636A9F10609079B063B079394F8403292
S214415870F3B9D4F8B430524619682046A44B984739
S214415880BBF1000F14D0D4F8C4305A4619682046EC
S2144158909F4B98470CE094F94532002B05DB234695
S2144158A01622079938469B4DA847BAF1000F04D0F7
S2144158B0D4F864315345C0F0A380BBF1000F03D048
S2144158C0079B002B40F0B78094F8403253B3053E17
S2144158D000F1F480002E40F3FC800D22616A3046D0
S2144158E08D4B98470546002800F0EC803246791DDE
S2144158F08A4B98470023049303930123029316236C
S214415900019300962B46424639462046844EB04780
S21441591080460D22616A2846824B9847B8F1000FAF
S214415920C0F2D480A36F4344A36794F8483213F07F
S214415930200F00F09C80B9F1000F00F0A78094F989
S2144159404532002BFFF664AFD4F86431002B7FF468
S21441595054AF0BEB0A050C9BEA1843F6FC739A42CC
S21441596028BF1A46079202F10908092694F84032E0
S2144159700BB108F14608414620466B4B98470890C4
S214415980002840F09480676FA36F1F44D4F86431B9
S214415990002B80D194F94532002B16DB2346162284
S2144159A00799043138465B4DA8470B237B719DF818
S2144159B03830BB719DF83C30FB719DF834303B72FA
S2144159C094F84032002B3FF429AFB9199DF828309E
S2144159D0BB559DF82C304B709DF824308B7094F855
S2144159E04032002B3FF420AFF31CBAF1000F7FF496
S2144159F020AFA9F10309079A033A07921E465CE7CE
S214415A00AAEB030207998A4228BF0A461546D4F8EC
S214415A10B42011682A461944B819404B98472E4479
S214415A20D4F864312B44C4F86431A9EB0509079BCB
S214415A305B1B079341E7D4F864110BEB0A035B1A2F
S214415A40079A9A4228BF1A461546D4F8C430A1EBA5
S214415A500A011B681944B819304B98472E44D4F8AC
S214415A6064312B44C4F86431A9EB05092CE7204680
S214415A702E4B98470890B9F1000F02D000283FF40A
S214415A805EAF6FF4A373089A9A4210D00023C4F80D
S214415A90643194F8443213F0100F08D1042384F88B
S214415AA04D3204E000230893F0E70023089308985A
S214415AB013B0BDE8F08F1E4B0893F8E76FF08303F1
S214415AC00893F4E76FF07C030893F0E7CDF8208065
S214415AD0EDE70023049303930122029216220192DA
S214415AE000964246394620460D4DA847804615E762
S214415AF0D0F864A1BAF1000F7FF470AECDF824A0BF
S214415B00D3464FF00309CDF83490CDF830904DE6AA
S214415B10254B41000F4041004D9D4100C18A430045
S214415B2009534100599D41001D504100354E4100E9
S214415B30B8FEFFFF2DE9F04F89B004468B469046EC
S214415B40D0F84C316FF4A372934215D013F16C0F19
S214415B5012D094F84F320C2B12D02046474B984720
S214415B60054601280CD0D4F84C3113F16C0F14BF04
S214415B7005466FF0010566E00023C4F84C31E8E7BE
S214415B80A36F2BB90025DFF80491DFF8F4A043E0BA
S214415B9020463B4B98470546C4F84C0100280BDB92
S214415BA0D4F8A850D4F8AC301D444545EBDD6FF031
S214415BB0AC05C4F84C5146E010F59A7F43D194F8B1
S214415BC0463203F00103002B0CBF054600253AE0A0
S214415BD0C4F84C01054636E0606FA16F012304937B
S214415BE00023039302931723019300960BEB0503BF
S214415BF03A4601442046234FB84700283BDBA36F73
S214415C000344A3672046D047002820DB354494F858
S214415C10483213F0040F16D145452AD0A8EB0506A5
S214415C20B6F5804F28BF4FF4804606F14607394601
S214415C302046C84707900028CAD194F8453213F049
S214415C40400FC9D0104D284609B0BDE8F08FC4F8C2
S214415C50AC60C4F8A85010F59A7F03D0C4F84C0144
S214415C600546F0E794F8463213F0010FF6D0079D4B
S214415C70E9E74546E7E7044DE5E700BF259A4100D9
S214415C80354E410009534100C0FEFFFF1D50410003
S214415C90F0B589B0044690F8483213F0020F0BD0A5
S214415CA02C4B98470346002838D194F848226FF386
S214415CB0410284F8482231E00D4616464821264BDB
S214415CC09847034650BB676FA36F1F448DF81C501F
S214415CD08DF81D60C4F84461C4F84851022D20D0A7
S214415CE094F8403213B194F850320BBB2346152238
S214415CF002213846194DA847BDF81C30A7F8053093
S214415D000720A36F0344A36794F8483243F0020385
S214415D1084F8483220460F4B98470346184609B048
S214415D20F0BD94F8463243F0020384F84632D7E792
S214415D3000230493039302931523019302230093B4
S214415D4007AB482239462046054DA8470028D8DAF1
S214415D50044BE3E7354E41001D5041000F404100E2
S214415D6009534100C0FEFFFF2DE9F04F8FB00446B6
S214415D700D46174601921E46002180F854122C22E9
S214415D8003A87F4B98473F68069707974D22616A5D
S214415D9048207C4B98470390002800F0F6828346C3
S214415DA048220021764B9847022E40F2E182EB19B9
S214415DB0EA5D5878000240EA02409B781843F91C95
S214415DC00691B0F5804F00F2D582C31C9E4240F04A
S214415DD0D38200286DD0DDF820C0BCF1080F00F357
S214415DE0CD82052E40F2CC820BEBCC0E00230093E5
S214415DF06FF00209C7F1030A6A1815F80180537853
S214415E001B0243EA0843927813430331CA1B1A44E0
S214415E10964220D3CEF804306A18CEF800201944B2
S214415E20A9EB03030CF1010CC0183FD0BCF1090FDC
S214415E300CD00EF1080E012300930AEB01039E429B
S214415E40DAD20691CDF820C04F4F08E006910923DB
S214415E5008934E4F03E00691009B23BB4A4F05989B
S214415E60002800F083824B22616A494B9847002301
S214415E700593039828B14D22616A454B9847002304
S214415E800393049D45B10A9B002B40F06B824A2246
S214415E90616A28463E4B984720463E4B98473846CF
S214415EA00FB0BDE8F08FCDF820C0D7E70691CDF80A
S214415EB020C0089D09954A22616A4FF45170314BC2
S214415EC0984706460490002800F05C82012384F837
S214415ED054329D4222DD0BEBC508DFF8C4A0DFF843
S214415EE0BC9076E2636A58F8042C58F8081C304691
S214415EF0D047D4F88432C6F8303301230A936EE291
S214415F00B4F95A22002AC0F2C48292B27168914210
S214415F1080F08882204F4DE2002FA0D1022384F8E2
S214415F205432099B002B40F3E88000230B930A9BD5
S214415F30BBB1236894F8442282F040029B6AC2F3C4
S214415F40801200213046154DA847074660B320F021
S214415F50080313F18C0F25D0236A2BBB01230C9326
S214415F6022E0636ADBF80420DBF8001030460C4D73
S214415F70A847D4F88432C6F8303301230A93D8E7C9
S214415F80BD8C43004D9D4100B8FEFFFF90FEFFFFD4
S214415F90599D4100C94A410066FEFFFFF1A24000FB
S214415FA0C99D400001230C9396F8F33293B194F8BF
S214415FB08331012B00F0868094F88431012B00F068
S214415FC09080D4F8843123F47F0323F47F43032B5A
S214415FD000F0878096F8F63273B194F8443213F0A5
S214415FE0100F96F8F73214BF03F0030303F00503CE
S214415FF0AE4A002B08BF17460C9B002B7AD194F86B
S214416000473243F0100384F84732032384F854326E
S2144160104B22616A4FF48070A54B98470546059020
S214416020002800F09C81726EFF2A40F3BA8000235C
S214416030037094F8443213F0400F0AD1D4F8882004
S2144160403AB1049D696E286E9A4B9847002800F035
S214416050AF80049DEB6940F20622934200F0DE8059
S21441606040F28522934240F0C48000230293D4F844
S2144160705C62002E00F0A68094F86032002B40F05F
S214416080A8806B68D4F85C2202A928688A4EB0477B
S214416090002840F0AD80012384F86032002F40F0A4
S2144160A0A88094F8443213F0400F40F0A280D4F810
S2144160B05C02824B9847B4F958329842B8BF6FF4A5
S2144160C0CC7796E094F8443213F0100F3FF474AF57
S2144160D0B6F8F43203F02003002B08BF6FF4C07704
S2144160E06AE7B6F8F43203F08003002B08BF6FF47A
S2144160F0BF776FE7C4F84C71B1E60027042384F8F4
S21441610054323222616A2C20694B98470546002852
S21441611000F01F812C220021694B98470D9B002BD4
S21441612000F0F080002F08BF1F4694F8443213F069
S214416130400F25D107F19703012B8CBF2A262D2628
S214416140236A93B1AF61089BEB6100202862059AF0
S214416150EA60E2696A61039AAA626B626860236ACE
S21441616029469847002840F01681324602212046AB
S214416170544B984794F8463243F0020384F846322B
S214416180C4F84C7194F8443213F0400F00F0DE80AE
S21441619007F5B572012A00F2D9800022C4F84C21D5
S2144161A0B5E0316E484B9847736E0022EA5440E79B
S2144161B0D4F888102846454B9847454B002808BFD9
S2144161C01F4646E704F517720A212046414B984779
S2144161D00BE03046404B9847D4F88422616A3046FB
S2144161E03E4B9847002384F8603200283FF449AF7D
S2144161F03B4F28463B4B984700230A9335B14A22EA
S214416200616A2846384B9847002304930C9B002B21
S2144162103FF474AF002F40F094806FE7D4F8786273
S21441622036B394F882325BBB0022114640F2062018
S2144162302E4B98470346D4F87822696828682C4E36
S214416240B047002830D1012384F88232002FD0D1C4
S21441625094F8443213F0400FCBD1D4F87802254B52
S2144162609847B4F95A22244B9042B8BF1F46C0E71C
S21441627004F51E7225212046164B984706460CE02B
S21441628030461E4B9847D4F88422616A30461C4BF0
S21441629098470646002384F8823200221146E86970
S2144162A0124B9847002EC5D00D4FA2E77EFEFFFF4A
S2144162B04D9D4100D55041001D974000A51B410012
S2144162C0BD8C4300915C4100C18A4300C9514100E5
S2144162D0BEFEFFFF314A4100211B41009D1A41008D
S2144162E0AAFEFFFF899E4000599D410049D94000C2
S2144162F0D1D7400029D9400066FEFFFFCDCE4000F1
S2144163007DCE4000002F7FF410AF94F8443213F056
S214416310100F1CBF042384F84D32002794F84032F6
S21441632023B1D4F83C22069B134406933222616A79
S2144163302846594B9847052384F85432069B019AC0
S2144163401360059800287FF48EAD92E5002FE5D1C5
S214416350DDE76FF07C07F4E76FF07C0783E56FF0CD
S2144163607C0786E528464D4B984790E5039882E59D
S2144163704B4F74E54A4F72E5494F70E5494F6EE51C
S214416380474F6CE56FF07C0769E505980028E3D137
S2144163906FF07C0775E50023C4F84C3194F844321D
S2144163A013F0400FB3D00027F2E66FF4CC7701E04C
S2144163B06FF4CC770D9B0BB90D971F463046374B84
S2144163C0984700230A930995A8F10808012D3FF440
S2144163D0A3AD013D0B950A9B002B3FF483AD23688B
S2144163E094F8442282F040029B6AC2F38012002154
S2144163F03046C847074694F8443213F0400311D15B
S214416400F26940F206218A423FF47AAD40F2852194
S2144164108A4207D1B4F95822002AC6DB92B2716883
S2144164209142C5D3002FC5D196F8EF22002AC5D098
S214416430002BC3D1236806F53171986A1A4B9847E9
S21441644000900028BAD10EA8002340F8303D636A78
S214416450052258F8041C154FB847071EFFF6FFAC37
S2144164600EAF57F8303D58F8042C58F8081C1868F9
S2144164700F4B98472068002302223946806A0D4F09
S214416480B8470746009B012808BF1F46002F91D1F9
S21441649094E7094F8EE700BF599D4100899E400011
S2144164A0B8FEFFFF90FEFFFF01934100B59141000A
S2144164B0C18A43009994410066FEFFFF70B5D0F84B
S2144164C03832146890F85052B5B190F88151012D88
S2144164D019D0022D1FD00026D0F83C529B1B5B1BC7
S2144164E022D42BB12144C0F89010C0F894301C44FB
S2144164F02C441460002070BD0A2202210B4B9847A1
S2144165006FF4BA7070BD90F8455215F0200F09D05F
S214416510B0F87C61E0E790F880510A2D0CBF002668
S2144165200826D9E70026D7E7014870BD915C4100AF
S214416530B8FEFFFFF8B504460D461646436890F888
S214416540842183F85221D0F87401334B984798B18F
S2144165506368042283F85121636894F8BC2083F869
S2144165605221012E11D96B1CB11E21F001010331BC
S21441657029440027BE4621E02046284B984728B1AB
S2144165806368042283F85121EBE7F8BD6368022271
S21441659083F85121E5E7092A0DD1656895F85261DE
S2144165A0032E2DD0964220D094F884211AB994F81F
S2144165B0822185F8512102338B422CD013F8010CED
S2144165C0082812BF1A783A467046D4F87C52B5F578
S2144165D0807FE0D0092AE0D0656895F852619642FE
S2144165E003D0082AE0D1012EDED1022810D004289B
S2144165F0E1D1042385F85131636883F85221F8BD0F
S214416600092385F852316368062283F85121F8BD83
S21441661085F85221F8BDF8BDA140410075404100C2
S2144166202DE9F04F87B090F8457217F0040718BF70
S21441663090F8F070BB464568002D00F02C8104466A
S2144166402E883E442736984B9847F8B1B5F802A0B5
S214416650BAF1000F09D00AF1060A1FFA8AFABAF10E
S214416660000F02D00AF102031E4406F1090994F80C
S21441667040320BB109F14609494620468B4B9847B3
S214416680054630B1284607B0BDE8F08F4FF0000A06
S214416690EBE7626FA36F02EB030823460122314604
S2144166A04046834EB04794F8743188F8093094F8E0
S2144166B0753188F80A30B4F87431A4F8763194F814
S2144166C05232002B6DD088F82B70BBF1000F40F092
S2144166D095802C2663681B8808EB0602190A08F881
S2144166E006105370B71C616831F8042B08EB07009D
S2144166F0704B984763681E883E44731C012208F815
S214416700062094F8462212F0100F06F1020614BF36
S214416710DD22002208F80320BAF1000F7BD008EBF7
S21441672006034FEA1A2208F8062083F801A0B71C90
S21441673020465D4B984700286CD063685B88002BE9
S21441674000F09D8008EB0703002208F807200D2281
S2144167505A7063685B8802339BB2321D08EB0201B4
S214416760180A08F802004B7063685B88B21D08EB94
S2144167700201180A08F802004B70083663685A8806
S214416780002A48D008EB06022B4493F8303102F831
S214416790013B0135A2EB080663685988A942F3DC40
S2144167A039E008F10B0620223146A069424B984752
S2144167B008B1054666E7D4F808C0D8F80BE0D8F823
S2144167C00F00D8F81310D8F81720CCF814E0CCF8FE
S2144167D01800CCF81C10CCF82020D8F81BE0D8F8CC
S2144167E01F00D8F82310D8F82720CCF824E0CCF89E
S2144167F02800CCF82C10CCF8302064E794F8F02030
S21441680004F1D00108F12C002A4B984794F8F06027
S2144168102C365FE73E4694F84032002B31D0053E99
S2144168200D22616A3046254B98470546002835D0EB
S214416830324608F105011F4B984700230493039302
S214416840012302931623019300962B464A4641465E
S21441685020461B4EB04781460D22616A2846194B99
S2144168609847B9F1000F1CDB092384F84E32A36F19
S2144168704B44A3672046144B9847054602E73E46DD
S214416880C9E700234A4641462046104DA8470546DB
S2144168900028E9D0F6E66FF4B975F3E66FF07C05AB
S2144168A0F0E64D46EEE600BF754041001D50410002
S2144168B039404100C18A4300BD1741004D9D41000A
S2144168C009534100599D4100354E4100594B410005
S2144168D082B0C1F3072190F875318B4234D335D954
S2144168E090F8453213F0020F33D090F851328B4274
S2144168F031D839B1012912D002291BD003291ED023
S214416900002024E090F8453203F0EF036FF345137F
S21441691080F84532002380F87531184617E090F824
S21441692045326FF3451380F84532012380F87531BF
S21441693000200CE0022380F87531002007E0032395
S21441694080F87531002002E0044800E0002002B0E3
S21441695070470248FBE70148F9E700BFBAFEFFFF70
S2144169602DE9F04782B0D2F80090222B40F23681D2
S2144169701F4616460D46044631F80930ADF8043038
S2144169800199B04B9847034618B1184602B0BDE886
S214416990F087D4F8088009F102032B44D3F800C0ED
S2144169A0D3F804E09868D968C8F834C0C8F838E025
S2144169B0C8F83C00C8F84010D3F810C0D3F814E02B
S2144169C09869D969C8F844C0C8F848E0C8F84C0086
S2144169D0C8F8501009F1220A23681B681A78032A5E
S2144169E042D0A36809F1230815F80A2083F87420D9
S2144169F0A06890F87420202A4FD89AB102F1230358
S214416A009F42C0F0ED8005EB080154308E4B98470D
S214416A10A36893F87430984494F8453243F00803D9
S214416A2084F84532C9F1030343449F42C0F0DA80FB
S214416A3015F8081005EB0802537884F84B1284F8D1
S214416A404C3208F1030392786AB394F8461211F077
S214416A50100F00F0C980DD2A2AD094F846226FF341
S214416A60041284F8462223E05B78032BB9D109F15E
S214416A701A00072275492844754B98470028B0D11B
S214416A8005EB090393F82130002BAAD12F220221CE
S214416A902046704B9847704B77E7002380F8743058
S214416AA0A3F5A47371E794F8462212F0100FD4D1DF
S214416AB03360A3EB0902974205D994F87411032970
S214416AC033D04F44376094F8493213F0020F05D063
S214416AD094F849326FF3410384F84932022384F82B
S214416AE04D3294F8403223B13368D4F83C221344F3
S214416AF0336094F8453213F0040F11D013F0080FA9
S214416B0008D0A068202204F1D0015430504B984759
S214416B10002875D094F845326FF3820384F84532E5
S214416B2020464E4B984703462FE794F875110029A7
S214416B30C7D00232974259D3EA1815F803E0537882
S214416B4043EA0E2E08F10503A3EB0909F1444F452C
S214416B504ED3BEF1000F73D0BEF1030F4AD9EA18E7
S214416B60EB5C507840EA032000B208F10703EA18CC
S214416B70EB5C517841EA032308F10902191D71457E
S214416B803ADC00274FF0010C4FF6FC71172814BF72
S214416B90D2186746CB1A73441FFA83FEBEF1000F24
S214416BA018D0BEF1030F29D9A818AB5C407840EA4B
S214416BB0032000B2931C05EB030915F8038099F8EE
S214416BC0013043EA0823043203F10408F045DDDDD1
S214416BD0234BDAE63260002F80D174E7204BD4E6AF
S214416BE01F4BD2E61E4BD0E61E4BCEE61C4BCCE6E8
S214416BF01B4BCAE61A4BC8E6194BC6E6184BC4E609
S214416C002046164B9847C8B9A36804F1F10275337C
S214416C1004F22111176856689568D0681F605E6057
S214416C209D60D860103210338A42F3D120460E4B15
S214416C3098470346062284F84D22A6E60B4BA4E667
S214416C40336040E7D1684100C18A430004004400F4
S214416C50618A4300915C4100BAFEFFFF0D8D410001
S214416C60B8FEFFFF0AFEFFFFE9A041000CFEFFFF52
S214416C702DE9F04F8FB0DDF8609017684F44199CAE
S214416C80A74200F2DC8590F84042002C00F0E985EE
S214416C90D0F83CB21D46164688460446372D00F2CB
S214416CA0DA85DFE815F03800D8054300A100AC00CE
S214416CB0D805D805D805D805D805D805B700E300C6
S214416CC0F6000101D805D805D805D805D8052E0106
S214416CD0D805CE00D805D805D805D805D805D80595
S214416CE0D805D805D805D805D805D805D805D80576
S214416CF0D805D805D805D805D805D805D805D80566
S214416D00D805D805D805D805D805D805D805D80555
S214416D10D805D8053F0194F8703113F0010F40F0C3
S214416D20B28543F0010384F870310EE094F8703177
S214416D3013F0080F40F0AA8543F0080384F8703139
S214416D4094F84F320C2B00F0D685B4F8443223F435
S214416D50FF4323F06F039BB2102B00F0078148F2EC
S214416D601002934200F0188194F8443213F0100F49
S214416D7040F0228194F84E32002B40F01D81012DC7
S214416D8040F0418194F84532DB0902D0012D00F0F4
S214416D905985D4F84C3113F16C0F09D031684A4605
S214416DA041442046C74B98478246002840F085819B
S214416DB0162D00F25385DFE815F0020151056501F5
S214416DC036015105510551055105510551055105EC
S214416DD0F5043D0291011E05510551055105510528
S214416DE0510536055105FD0494F8703113F0100F26
S214416DF040F04F8543F0100384F87031A0E794F8D3
S214416E00703113F0200F40F0478543F0200384F89B
S214416E10703195E794F8713113F0020F40F03F85D9
S214416E2043F0020384F8713194F8443213F0100FA2
S214416E3086D094F8703113F0080F81D16FF4BA7A86
S214416E403BE194F8713113F0040F40F02B8543F089
S214416E50040384F8713113F0020F00F0268513F015
S214416E60080F3FF46DAF6FF4BA7A26E194F87131AA
S214416E7013F0080F40F01C8543F0080384F8713185
S214416E8094F8703113F0080F7FF45AAF6FF4BA7A62
S214416E9013E194F8713113F0100F40F00C8543F074
S214416EA0100384F871314BE794F8713113F0200FD9
S214416EB040F0058543F0200384F8713113F0020F4A
S214416EC00AD194F88321043AD2B2022A04D994F919
S214416ED04722002A80F2F78413F0080F7FF430AF80
S214416EE094F88731012B3FF42BAF94F88331012B73
S214416EF03FF426AF072B18BF6FF4BA7A3FF420AFA2
S214416F00DBE094F8723113F0010F40F0E08443F077
S214416F10010384F8723113F0040F7FF411AF6FF45C
S214416F20C47ACAE094F8723113F0040F40F0D38467
S214416F3094F8452251B20029C0F2978443F00403E5
S214416F4084F8723194F8443213F0100F00F0CB8479
S214416F5012F0040F05D194F8713113F0200F00F0B0
S214416F60BE840029BFF6ECAE00F085BC94F84D32E5
S214416F70002B7FF4F9AE022D06D194F8443213F07B
S214416F80100F7FF4FFAEF5E60A22022120464E4B53
S214416F9098476FF4BA7A90E00E2D7FF4E5AE94F8F8
S214416FA04D32012B27D994F8443213F0100F7FF459
S214416FB0F0AE94F84E3233B3002D7FF4E3AEB9F120
S214416FC0000F40F0B78494F8403243B13368D4F8A8
S214416FD03C221344199A9A42C0F0B084336094F824
S214416FE0443213F0100F16D0642201212046364B4E
S214416FF0984782464DE00A2202212046324B984766
S2144170006FF4BA7A59E00A22022120462E4B98475D
S2144170106FF4BA7A51E00A22022120462A4B984759
S2144170206FF49C7A49E03368B9F1020F1ED938F8FB
S2144170300320ADF82020991C3160D2B2FE2A18D127
S2144170409DF8212002F0FD02FD2A15D1033333605D
S21441705018F8012022B1D11C894510D3134433605E
S214417060012384F84D324FF0000A12E0DFF860A0A9
S2144170700FE0DFF860A00CE0DFF858A009E0DFF889
S21441708050A006E04B463246414620460F4DA847A3
S2144170908246BAF1000F10D15F4433689F4200F038
S2144170A0D48394F94532002BC0F2D2833222022196
S2144170B02046054B9847DFF820A050460FB0BDE864
S2144170C0F08F00BF894B4100915C410061694100EE
S2144170D0B8FEFFFFBAFEFFFF60FEFFFF3568B9F15D
S2144170E0000F00F02F84691C316018F805305A1CD7
S2144170F09145C0F02B8401EB030AC6F800A0204658
S214417100964B9847F0B1C5F1020353449945C0F0F8
S214417110218408EB0A0318F80A205B7843EA022325
S21441712018460AF1020131604B1B02460344994559
S214417130C0F01484824641442046894B98473368C0
S214417140534433603168881C421B9145C0F00A8421
S21441715008EB010C18F801E09CF8013043EA0E2ECA
S21441716030600EEB02039945C0F00084BEF1000F7B
S21441717037D002329145C0F0FD8308EB000318F882
S21441718000205B7843EA022301F1040CC6F800C0F4
S2144171901946ACEB05021A449145C0F0EF834FF611
S2144171A0FE7061443160C31A73441FFA83FEBEF118
S2144171B0000F16D001F1020CACEB05029145C0F070
S2144171C0E18308EB010318F801105B7843EA0123D9
S2144171D0C6F800C019461A449145E2D2DFF898A194
S2144171E06BE7D4F8B430C3B11B68B3B1D4F8B83048
S2144171F09BB11B688BB194F84432012262F30103C0
S21441720084F8443294F84032002B3FF445AF33685B
S214417210D4F83C22134433603EE72046514B98470E
S2144172200028EFD094F84432022262F3010384F836
S2144172304432E7E7002384F85432089309930C93C9
S2144172400D9333680A930B9394F884218DF8342078
S21441725002228DF8352094F88321082A40F04E8288
S214417260B9F1030F40F258825A1C0A9218F80320CB
S214417270032A40F05482D91C0A9108EB0302927803
S214417280103A092A00F24E82DFE812F010004C0252
S2144172904C023E034C020A004C0241030C000E0015
S2144172A0D12204E0D22202E0D32200E0B8220692A4
S2144172B0C4F8682204330A9318F801502B1D9945E7
S2144172C0C0F03382D4F874A2BAF1000F2CD094F8EF
S2144172D07132002B32D1002211460698224B984734
S2144172E00346D4F8742229460A984044DFF88CA015
S2144172F0D0478246002840F01B820A9B1D440A95CF
S214417300012384F8713284F8543294F88331023B75
S214417310062B00F21082DFE813F033000E02FF0066
S214417320FF00FF000E02330004F51D7225212046A2
S2144173300E4B984782460028CDD0E1E150460C4B93
S2144173409847D4F88422616A50460A4B98470023EE
S21441735084F8713282460028BDD0D1E175404100A3
S214417360356541005D40410049D94000314A410000
S214417370CDCE40007DCE4000B8FEFFFFD1D74000C5
S21441738094F94732002BC0F2C7800B9B0693EB1A49
S21441739099B2079140F20C43994200F2CF812046C0
S2144173A0B14B9847002800F0CC81AB1C069A9A1A3C
S2144173B09145C0F0C98108EB050118F80520082A57
S2144173C000F097808DF8352049788DF834100A936F
S2144173D0042A40F094800698C0F102021A4491456E
S2144173E0C0F0B58108EB030118F803204B7843EA57
S2144173F00223ADF8303004350A952D1A2B449945B1
S214417400C0F0A881079B03F140052B22616A2846FC
S214417410964B9847C4F89800002800F09E81C4F81F
S2144174209C50A36853F814EF5D689968DA68C0F811
S21441743000E045608160C260D3F810E05D699969FB
S214417440DA69C0F810E045618161C261D4F898C03C
S214417450A36853F834EF5D689868D968CCF820E0A3
S214417460CCF82450CCF82800CCF82C10D3F810E0F7
S2144174705D699869D969CCF830E0CCF83450CCF8DD
S2144174803800CCF83C10D4F89800079A0B99414440
S2144174904030774B98479DF83430092B00F0608197
S2144174A00520744B9847C4F8A4004822616A6F4B84
S2144174B098470346C4F8A000002800F05481D4F849
S2144174C0A4200092D4F89C20D4F8981005206A4D48
S2144174D0A847002840F04A819DF83430012B11D04E
S2144174E0032B40F0598194F88232ABB9DFF898A16A
S2144174F006E10A939DF83520042A3FF46CAF6FF0FD
S214417500840AFDE0D4F85C32002B00F0318194F817
S2144175106032002B00F02F81022384F8543294F815
S2144175208331023B062B00F2F781DFE813F00700B8
S214417530F501290029002900F501070094F9473291
S214417540002B1DDB099B6BB39DF83430012B42D0D9
S214417550032B40F02482BDF830200023049303938C
S2144175600293D4F878320193D4F8A4300093D4F837
S214417570A03009992046414DA847002840F0FE809A
S214417580032384F8543294F88331023B062B00F2ED
S214417590CE81DFE813F02E00CC015600560056008F
S2144175A0CC012E002B22616ABDF830002F4B984744
S2144175B00990002800F0F380BDF830200A99414434
S2144175C02B4B98479DF83430012B04D0032BC2D067
S2144175D06FF0840A94E0D4F85C3208AABDF8301003
S2144175E00998274DA8470028C0F29481ADF832008B
S2144175F0C6E794F94732002B23DBBDF830200A9BBF
S21441760013440A939DF83430012B04D0032B18D031
S2144176106FF0840A74E02046134B9847002835D112
S214417620BDF83230242B40F0AE800898002800F098
S214417630AD802422D4F8A010124B9847002840F081
S214417640A880042384F8543294F8403223B1D4F805
S2144176503C220A9B13440A93052384F854320A9A1F
S214417660326084F84D324BE0754041004D9D4100FB
S214417670C18A4300A5D9400095DA4000E143410064
S21441768019224100618A4300C4FEFFFF2B22616A32
S2144176904FF40070C44B98470546002870D0D4F884
S2144176A0A010D4F8A4209DF83530022B24D0042B0A
S2144176B014BF53464FF4CF732846DFF80883C047BC
S2144176C0BDF83230984240F02A81089B002B00F0EA
S2144176D026810246B0F5007F28BF4FF40072294646
S2144176E01846B24B9847002840F019812B22616A10
S2144176F02846AF4B9847A4E75823DDE7DFF8C8A2F2
S214417700099828B12B22616AA94B9847002309930F
S2144177102046A84B9847BCE4DFF8B0A2F0E7DFF874
S214417720B0A2EDE76FF4AF7AEAE7DFF8A0A2E7E7A9
S214417730DFF8A0A2E4E7DFF890A2E1E7DFF88CA249
S214417740DEE76FF0840ADBE7DFF880A2D8E7DFF8F0
S2144177507CA2D5E7DFF874A2D2E76FF07C0ACFE7C8
S2144177606FF0840ACCE76FF07C0AC9E78246C7E728
S214417770DFF864A2C4E7DFF860A2C1E78246BFE74C
S2144177806FF07C0ABCE7DFF854A2B9E7DFF84CA2F9
S214417790B6E7DFF848A2B3E76FF0840AB0E76FF0C8
S2144177A07C0AB5E74B46324641462046824DA847BD
S2144177B082466EE4B9F1030F40F2E8803268531C0A
S2144177C0336008EB030118F803004B781B0243EAC9
S2144177D0004389780B43043232600433994502D022
S2144177E0DFF8E8A169E4712202212046734B9847ED
S2144177F0DFF8D8A161E4062384F84D3294F840328C
S21441780023B13368D4F83C221344336094F84532AC
S21441781013F0040F3FF440AC94F845326FF3820303
S21441782084F8453238E400230193199B00934B4674
S214417830324641462046624DA847824629E4DFF853
S214417840A0A13AE46FF4997A37E44FF0000A34E4A1
S214417850DFF890A131E4DFF890A12EE46FF4997A35
S2144178602BE44FF0000BFFF715BA94F8443213F0AF
S214417870100F40F08F8094F8723143F0040384F87F
S2144178807231FFF75DBA6FF4C57A16E46FF4C57AC4
S21441789013E46FF4C57A10E46FF4C57A0DE46FF41F
S2144178A0C57A0AE46FF4C57A07E46FF4BA7A04E459
S2144178B06FF4C57A01E46FF4C57AFFF7FEBB6FF447
S2144178C0C57AFFF7FABB6FF4BA7AFFF7F6BB6FF4E7
S2144178D0C57AFFF7F2BB6FF4C57AFFF7EEBB6FF4DC
S2144178E0BA7AFFF7EABB94F84F320C2B7FF42DAAF5
S2144178F0002D3FF42AAA0A22022120462F4B984700
S2144179006FF4BA7AFFF7D9BB4FF40272CFE440F274
S2144179100E22CCE48246F3E6DFF8ACA0F0E62B225A
S214417920616A2846224B9847DFF8B0A0E8E6DFF8C0
S21441793098A0E5E6DFF894A0FFF7BFBB6FF0830A97
S214417940FFF7BBBBDFF884A0FFF7B7BBDFF87CA02F
S214417950FFF7B3BBDFF874A0FFF7AFBBDFF86CA04F
S214417960FFF7ABBBDFF864A0FFF7A7BBDFF85CA06F
S214417970FFF7A3BBDFF854A0FFF79FBBDFF84CA08F
S214417980FFF79BBBDFF844A0FFF797BBDFF83CA0AF
S214417990FFF793BB12F0040F3FF4DDAA6BE709989B
S2144179A06FF0840AAEE600BF4D9D4100618A4300F8
S2144179B0599D4100C94A4100695D4100915C4100C1
S2144179C00D5241003D9D40008AFEFFFFB8FEFFFF7D
S2144179D0A2FEFFFFA0FEFFFFC4FEFFFFB6FEFFFFB5
S2144179E0CAFEFFFF60FEFFFF76FEFFFF2DE9F04F68
S2144179F0ADB0D0F84C616EB126F004026FF4A373BB
S214417A009A421BD016F16C0F40F08E804FF0000A60
S214417A10564601E04FF0000A0446DFF89CB30025C5
S214417A20029594F84A32052B00F29B83DFE813F067
S214417A300A00130052006100E000E9004FF0000A1E
S214417A405646E9E794F94532002B19DB05212046D5
S214417A50D847061E68DB94F94532002B10DB216EB1
S214417A60A26D0A441068C4F86A01127984F86E213E
S214417A700531216694F86D1142EA0122A4F8682185
S214417A8094F86B1194F87421914251D094F84422A1
S214417A9012F0100F03D194F85322022A53D9B4F8A6
S214417AA0442202F40472B2F5047F48D0002B80F2DF
S214417AB0728394F86A31162B54D1B4F8682144F293
S214417AC046439A4200F26C8384F84152022384F87A
S214417AD04A32029E94F94532002B05DBB4F8681110
S214417AE02046D847061E1FDB032384F84A32D4F8C3
S214417AF060A094F84032002B77D094F84132002BA6
S214417B0073D1B4F8683194F8852194F8811101292C
S214417B102AD002293CD09342C0F0298394F84522CA
S214417B2012F0400F3CD0A14E30462DB0BDE8F08F4C
S214417B3094F86C1194F875219142A7D103E094F81A
S214417B405222032AB2D8B4F8682144F246439A42F4
S214417B5000F2238394F86A31143B032BB4D96FF4B3
S214417B609B76E1E7924EDFE7B4F87C11B3FBF1F088
S214417B7001FB1030002840F0F78201328A4238BFBC
S214417B800A4694F8450210F0200FC4D00A44C2E7D2
S214417B90B4F87E2194F880110A2918BF0832BAE752
S214417BA0A16D226E84F84C5094F84D000028BAD04E
S214417BB0012084F84C0094F88001012804D0002369
S214417BC084F84C30794EAFE711440A46A06C794EA2
S214417BD0B04784F84C5094F8453213F0200F1CD12E
S214417BE094F88131022B23D02E46042384F84A325E
S214417BF094F8403213B194F8413223B3052384F804
S214417C004A3294F86A31143B032B00F2B382DFE820
S214417C1013F00A0267025D012D0294F88131012BAF
S214417C20DED1B4F87C21236E134423662E46DCE76E
S214417C3094F880310A2B04D0236E083323662E46EF
S214417C40D3E72E46D1E7A26D236ED3180393B4F83B
S214417C50688194F86A1194F8857194F88131012B02
S214417C6017D0002B00F00B812B46049594F8812108
S214417C70022A00F02681049A1A441744C4F83C723A
S214417C80B4F86831C4F83832012384F841322E46BC
S214417C90B4E794F8453213F0200F14BFB4F87C21B2
S214417CA02A46A8EB02020592013A039810F8029080
S214417CB0CDF8109013F0100F36D1A8EB070808F155
S214417CC0FF33994594BF4FF000084FF00108049ADE
S214417CD0994588BF00220492A3EB02090123019330
S214417CE00091E66B4B46039A10A92046B04797B1E0
S214417CF010AE039901EB0902B9448944002116F8F4
S214417D00013B12F801EB83EA0E0319434A45F6D1CB
S214417D10002940F04882002840F04582B8F1000F23
S214417D2040F041820123A1E7B8460598844609EB15
S214417D3007030133984226DBA2EB09030398024668
S214417D401A4409F101063344C618002012F8013BD3
S214417D5089EA03031843B242F8D100282ED0039F84
S214417D60012301930091E56BACEB08033A4608A961
S214417D702046A847B8F1000F03D0002301339845A9
S214417D80FCD10A4ED0E6039F012301930091E56B97
S214417D90A0EB08033A4608A92046A847B8F1000FC9
S214417DA0EFD0002301339845FCD1EAE7C8FEFFFF38
S214417DB0BAFEFFFF05854000494F4100059BA3EBF6
S214417DC00903013BDA1B0692012301930091E66BFE
S214417DD01346039A08A92046B0470790059B0D33E2
S214417DE0DA1BA3EB0903DB1B373A383B12F03F00A3
S214417DF018BF012013F03F0118BF01211646002A83
S214417E00B8BF02F13F06B6111A46002BB8BF03F1C0
S214417E103F02304401EBA211461A18D094F8823141
S214417E20042B14D110A8A44B9847002E0CDD4FF01C
S214417E300008DFF8A892402221460DEB0200C84711
S214417E4008F101084645F6D110A89C4B98478FB1DA
S214417E5008AE039B069A991807EB020E9E44002033
S214417E6016F8013B11F8012B534018437145F7D1E1
S214417E70002886D1079B002B83D10123F6E6A8EB89
S214417E800709012301930091E66B4B46039A10A91B
S214417E902046B0477FB110A9039A914490440026EA
S214417EA011F8013B19F8012B53401E43C845F7D141
S214417EB0002E40F07881002840F075812B460495CD
S214417EC0D4E6B4F87E31C4F83C32D9E694F945326A
S214417ED0002B48DBD4F87401794B9847064608B125
S214417EE0784E21E6D4F8589004F16002D4F85CE06C
S214417EF0A768002F3BD0216EAEEB0108FB68002B34
S214417F004FD0386908EB00029342C0F053813B687A
S214417F104246494418446C4B9847A2681369434407
S214417F201361236E43442366A1680869CB6898426F
S214417F3040F0A6802CAA029B42F8703D91F8A530ED
S214417F400968019004380090043120465F4EB047DE
S214417F500646A3682122616A18685D4B9847A36864
S214417F601D60A368DD60002E00F08A80DCE5236E8C
S214417F7009EB0300191D21668E45C0F06B8119F887
S214417F800330CDF804E046788178090241EA06419B
S214417F90C07801430091494620464C4EB0470646BC
S214417FA0E1E709EB0103081D20668645C0F05281D2
S214417FB093F801C09878000240EA0C40DB781843F9
S214417FC044F61E03984200F2F08019F80130A8F1F9
S214417FD0040181421ED287F8A530A3680430D860D8
S214417FE0A7682122616A3B4B98473860A3681868A6
S214417FF0002800F0DC80236E043B424609EB030177
S214418000314B9847A368C3F81080236E043B434422
S214418010236635E0CDF804E00090494620462B4ED5
S214418020B04706469FE794F8723113F0040F40F0CC
S214418030C38094F8452251B20029C0F20D8143F025
S214418040040384F8723194F8443213F0100F00F0B0
S214418050BA8012F0040F05D194F8713113F0200F55
S21441806000F0EC80002980F2AE80FBE004F1600273
S214418070A16D2046184B9847064600287FF454AD1C
S21441808084F84A52236EE26D93427CD2A3EB0A02F5
S214418090B4F868118A42BFF4C4AC052284F84A2277
S2144180A094F84022002A3FF4BCACD4F83C229342D8
S2144180B06BD39B1A2366B4E4453F4100593F4100C8
S2144180C0A1404100B8FEFFFFC18A4300716C4100E8
S2144180D0599D41004D9D4100BD644100793C4100A0
S2144180E0A06DE76D94F856320133DBB284F8563210
S2144180F0042B00F2A680226E931C9F42C0F0A480FF
S214418100561C2666815C2366825DC4F83C210E4679
S214418110C4F84011022918D02AB994F8460240F012
S214418120040084F8460294F8400230B1D4F83C0288
S21441813003449F42C0F08B802366022928D05AB15F
S214418140332A9DD16FF49C76EEE494F8460240F0D3
S214418150020084F84602DFE76FF4AB76C4F84C6160
S214418160E2E46FF49676DFE46FF4BB76DCE46FF41A
S214418170BB76D9E46FF49B76D6E46FF4AA76D3E463
S2144181806FF0AC06D0E40026CEE46FF49C76CBE4E8
S2144181906FF49C76C8E4374EC6E46FF4AA76C3E41F
S2144181A06FF4AA76C0E4344EBEE4344EBCE46FF0BD
S2144181B07C06B9E4324EB7E46FF4C57694F945329D
S2144181C0002BBFF6B1AC94F8403263B194F850320C
S2144181D04BB1236ED4F83C2213442366B4F868218D
S2144181E0D31AA4F86831B4F86831012BC5D1236E8F
S2144181F001332366012384F8403202212046214B75
S2144182009847064600287FF48FAC94F8443213F022
S214418210100F1D4B1D4A08BF1A46002CB0D094F8CB
S214418220453213F0100F3FF42BAFE1682046184B50
S2144182309847064600283FF423AF75E46FF4BA76B4
S214418240BCE76FF4D5766FE46FF083066CE46FF0AD
S214418250830669E40F4E67E494F8443213F0100F36
S2144182607FF4F7AE94F8723143F0040384F8723128
S214418270A9E700BFBAFEFFFFC8FEFFFF6CFEFFFF87
S214418280B8FEFFFF258E4100FCFF4300000044007E
S21441829031A04100CEFEFFFF2DE9F843D0F84C4116
S2144182A06FF4A175AC420AD014F16C0F07D04CB1F3
S2144182B06FF4A375AC4205D02046BDE8F883002490
S2144182C0C0F84C411F4690468946054690F84F32C5
S2144182D00C2B04D0224B984704460128ECD1214E62
S2144182E0D5F89440C4B92846B0470446C5F84C0171
S2144182F00028F5DA6FF4AB7398422ED010F59A7FCA
S214418300DAD195F8463213F0030FD5D06FF4C67321
S214418310C5F84C310024CFE74445A8BF4446224621
S214418320D5F890104846104B98474FB9D5F8943039
S2144183301B1BC5F89430D5F890302344C5F89030CF
S214418340D5F89430002BB7D195F86830002BB3D0D0
S21441835000212846054B9847AEE70024ACE700BF0E
S214418360259A4100ED794100C18A4300ED4B410019
S21441837090F84B3290F84C22CC2B11D0C02B15D014
S214418380132B28D0CC2B24D0AB2A1BD8A82A05D215
S2144183902C2A03D019D38C3A012A16D8012015E08D
S2144183A0A2F1AB010229E9D801200FE03A2A07D011
S2144183B003D8372A04D0002008E0A43A052AFAD880
S2144183C0012003E0AE3A072AE8D9002080F00100F8
S2144183D070470020FAE70020F8E70000F0B58FB0BC
S2144183E00446002380F854320793089309930A936E
S2144183F00B930C930D9390F88331012B28D0082BC7
S21441840046D0754D002D2DD0A2685368916831B184
S214418410194400205A1C187013469142FAD1A36899
S21441842000229A60089828B14722616A6B4B9847A8
S21441843000230893099828B10D22616A674B984733
S214418440002309932046664B984728460FB0F0BD57
S214418450D0F85C32002B00F06B8190F86032002B34
S21441846000F06881012384F854324FF400700A907A
S2144184704722616A5B4B98470890002800F0668166
S21441848094F88331012B34D0082B4AD0524DBBE7A8
S21441849090F88731F3B1D0F87862002E00F04C8125
S2144184A090F88232002B00F049813369002B00F0AE
S2144184B047812521616304F1300220464A4B9847A3
S2144184C005460028A0D13246216B2046474B9847A7
S2144184D0054697E7D0F87462002E00F0338190F895
S2144184E07132002B00F030813369002BE1D1404DD1
S2144184F08AE7A36859682E220231A0693D4B984706
S2144185000546002880D1A3685B6894F876211A70E6
S214418510A3685B6894F877215A70A36830229A6002
S2144185200BE0A3684FF400729A600AAA411C206BC4
S214418530314B9847002840F00C81022384F854328E
S21441854094F88331012B03D0082B34D0224D5BE7BE
S214418550A36859680023049303930293D4F85C32CA
S21441856001930AAB0093089B30222046234DA8472F
S2144185700546002D7FF448AF032384F8543294F81F
S2144185808331012B08D0082B40F0E5800A9A089BDE
S2144185901A700A9B01330A93042384F8543294F8E0
S2144185A0453213F0100F2DD194F88331022B00F091
S2144185B0D980002627E094F8873153B1D4F8781251
S2144185C0A26802F108035268206B0D4DA847054684
S2144185D0CFE7D4F87412F3E78AFEFFFF599D4100B6
S2144185E0C94A41004D9D4100314A41002144410064
S2144185F0C4FEFFFFBD17410095D64000B54341007C
S2144186009DCC4000022694F88331082B65D0053B6B
S214418610DBB2012B98BF00260A9B093333440C93E7
S21441862094F840220AB146330C930C9920464F4B9E
S2144186309847054600287FF4E7AE606FA36F18445D
S2144186400790234610220A993144494FB847002ED5
S21441865045D00A9A079BC2F3072159729A720B2694
S2144186600A9A089907983044424B984794F8403202
S214418670002B36D1052384F8543294F84032002B2F
S21441868040D00027049703970123029316230193B2
S2144186900D9B0093099B0C9A07992046364EB0478E
S2144186A006460D22616A0998344B98470997BE429F
S2144186B056DB0C96A36F0C9A1344A36794F8483282
S2144186C013F0200F28D020462D4B9847002818BF7E
S2144186D005460A2384F84E3296E600269CE709268C
S2144186E0BEE70A9B053B98190D900D22616A254B02
S2144186F098470990002830D00D9A079905311D4BAF
S2144187009847B7E700230C9A079920461E4EB04774
S2144187100028CFD0054677E620461C4B98470546AD
S2144187200028D0D06FF4A37398427FF46DAECAE7A9
S214418730174D69E6164D67E6154D65E6144D63E639
S214418740134D61E6124D5FE6114D5DE66FF07C0517
S2144187505AE6104D58E6104D56E66FF07C0553E646
S214418760354651E694F88331022650E71D504100C4
S21441877039404100C18A430009534100599D410097
S214418780B19041004D9D4100594B4100354E41004D
S214418790C4FEFFFF9EFEFFFF8AFEFFFFF0B583B0DB
S2144187A0D0F8B830002B50D01B68002B50D00F4665
S2144187B004460A21416300F130063246294B984768
S2144187C0054610B1284603B0F0BD02A9002341F882
S2144187D0043DD4F8B8008368226B0068224DA84750
S2144187E0054650B9206B214B9847002833DBB4F936
S2144187F05832984231DB3880E4E73246616B204696
S2144188001B4B98472521616332462046154B9847B6
S21441881005460028D6D102A9002341F8043DD4F8E4
S214418820B8008368226B0068124DA84705460028A9
S214418830C8D1206B104B9847B4F95A3298420FDB97
S214418840206B0E4B98473880BCE76FF49E75B9E7AE
S2144188506FF49E75B6E70546B4E76FF4CC75B1E79D
S214418860074DAFE7314A410011964000A51B410034
S214418870ED4941003DB6400029D9400035D9400078
S21441888066FEFFFFF0B591B00446002180F8541211
S214418890282206A88D4B984794F8443203F00303E8
S2144188A0022B00F015824FF480630D9394F840320A
S2144188B013B140F246430D930D992046844B984799
S2144188C00546D0B10023C4F8A030C4F8A4300798B8
S2144188D028B12B22616A7F4B98470023079309985A
S2144188E028B10D22616A7B4B9847002309932046A5
S2144188F0794B9847284611B0F0BD636FA26F134479
S2144189000693012384F85432E16834312046734B90
S214418910984705460028D5D10FA92046704B984761
S21441892005460028CED109230A93069B09330893AE
S21441893000230B934FF40070C4F89C002B22616A0D
S214418940684B9847C4F89800002800F0B481E36863
S2144189504833C4F8A0302023C4F8A430636B0A2BF4
S21441896014D0252B2FD0462B59D020465E4B984706
S21441897000283FD0636893F85121089B9DF83E102C
S214418980012900F0AB8103292BD127E001238DF883
S2144189903E302046544B9847002840F09B81242384
S2144189A0C4F89C304FF400730C9320464E4B9847C6
S2144189B000284DD1BDF83C3008990B9A88181E0AFC
S2144189C08E5443701CE003238DF83E302046464BC0
S2144189D09847A8B1636893F85121089B1A700322FF
S2144189E05A7002230B93636893F85131022B1FD0C0
S2144189F0042B25D09DF83E30012BD0D0082B3ED0FD
S214418A00022384F85432636B252B50D02846636B7F
S214418A100A2B71D0002800F08580054652E70923CD
S214418A208DF83E302046304B98470028D9D1E7E7AD
S214418A30E3683433C4F8A0301423C4F8A430D9E72B
S214418A40E3684833C4F8A0302023C4F8A430D1E703
S214418A50D4F89800D4F8A010D4F8A420636893F80A
S214418A605131022B09D0042B14BF2B464FF4CF7340
S214418A701E4EB047C4F89C009CE75823F8E7D4F84C
S214418A80A420D4F8A010D4F89800194B9847D4F8ED
S214418A90A430C4F89C304FF400730C93BDF83C30BE
S214418AA008990B9A88181E0A8E544370A8E7236BC0
S214418AB00193A369009304F19C03D4F89820D4F859
S214418AC0A410D4F8A0000B4EB047A0E7BD8C4300DD
S214418AD01D504100599D4100C94A4100BD524100C7
S214418AE09D8741004D9D4100754041003D9D4000A0
S214418AF0C18A430011D14000206B0A9B069A1A4452
S214418B0008920B9B991CA369019300900C9B0A4405
S214418B10D4F89C10D4F89800724EB04700287FF7DE
S214418B2079AF0C90032384F854320A9A069B134477
S214418B300893626B252A52D0636B462B64D0636BD5
S214418B400A2B77D0042384F854320698002800F084
S214418B50B8800B9B991CBDF83C6023460F223144DC
S214418B60614EB0470B9B0B33BDF83C2013440D932D
S214418B7094F84022002A40F08680052384F8543237
S214418B8094F84032002B00F08C8001230493002798
S214418B9003970293162301930E9B0093099B40F281
S214418BA0464206992046514EB04706460D22616A16
S214418BB009984F4B98470997BE42C0F287800D9659
S214418BC0A36F0D9A1344A36794F8483213F0200F0D
S214418BD07FF478AE2046474B9847054672E6D4F870
S214418BE09C108AB2ADF83C200B981E18120A1A54F3
S214418BF071700B9B0233D4F89C20D4F898100898D7
S214418C0018443D4B984797E7D4F89C2093B2ADF86B
S214418C103C3008980B9946181B0A435472700B9BBC
S214418C200233D4F89C20D4F8981008981844324B54
S214418C30984784E7266B079BB3B10396636893F81E
S214418C40513102939DF83E300193D4F89C30009305
S214418C50D4F898300C9A07992046284EB0470028F9
S214418C603FF470AF05462DE62B22616A0C98244BE3
S214418C709847079010B30B9B02330C9A08991944F6
S214418C801D4B9847D9E7581F0E900D22616A1C4B21
S214418C9098470990B8B10E9A06990531164B9847F0
S214418CA06BE700230D9A06992046164EB0470028DA
S214418CB086D0054606E66FF07C0503E66FF07C0538
S214418CC000E6114DFEE56FF07C05FBE53546F9E51E
S214418CD000250FE6636893F85121089B1A7001221C
S214418CE05A707EE611274100394041000953410040
S214418CF0599D4100354E4100C18A430041434100E0
S214418D004D9D4100594B4100B8FEFFFF10B504464A
S214418D1090F8443213F0100F0DD194F84B32CC2B0F
S214418D206ED0C02B0DD0132B74D194F87431032B15
S214418D304AD0002010BD384B98470128EDD037481F
S214418D4010BD94F84C32072B1FD0112B5AD101225B
S214418D5084F88021002384F88131022184F882112D
S214418D60082184F8831184F88421142284F885210B
S214418D70282284F8862184F887311022A4F87821A5
S214418D80A4F87A31A4F87C31CFE7012384F8803106
S214418D90002384F88131022284F88221082284F853
S214418DA08321032284F88421142284F885212822F1
S214418DB084F8862184F887311022A4F87821A4F813
S214418DC07A31A4F87C31B0E794F87531E3B194F880
S214418DD0452242F0100284F84522114AE263012BF3
S214418DE014D994F8452242F0200284F84522032BF8
S214418DF00ED9D3B243F0400384F84532002010BD6B
S214418E00064810BD054810BD002010BD002010BD0D
S214418E10002010BD014810BD718341000CFEFFFFCC
S214418E206DA341002DE9F84302291FD0032921D023
S214418E30012903D06FF0AC00BDE8F88300F140058E
S214418E400026044690F88031012B18D025B1002326
S214418E50C4F83032C4F83432002E00F0848000204A
S214418E60C4F82802C4F82C02BDE8F88300F148068D
S214418E700025E6E700F1400500F14806E1E790F8F5
S214418E804432C3F30019476AB0F8788115B12B68AC
S214418E90002B31D0002E6DD03368002B39D03DB138
S214418EA06FF0010239462868404B984700285DD14B
S214418EB06FF00102394630683C4B984700284ED146
S214418EC0B9F1000F32D1002D41D0424604F5F4717C
S214418ED02868374B98473EB1424604F5E4713068FE
S214418EE0334B9847002D5ED001236B71002E54D032
S214418EF07371002DB3D0AAE71F2239464FF4847010
S214418F002C4B984728600028C4D16FF07C00BDE800
S214418F10F8831F2239464FF48470264B98473060B9
S214418F200028BCD16FF07C00BDE8F883002D2FD01F
S214418F30424604F5E47128681D4B9847002ED3D06D
S214418F40424604F5F4713068194B9847CAE7002E3B
S214418F50C2D1002DC8D106B3012373717FE76FF0EC
S214418F60B500BDE8F8830020BDE8F8836FF0B50092
S214418F70BDE8F883002DA3D06FF00102394628687A
S214418F800A4B984700289BD06FF0B500BDE8F883A0
S214418F90002ED5D10020BDE8F883002D7FF457AFD1
S214418FA00020BDE8F8830123737158E75F854000D0
S214418FB0A98440004D9D41002DE9F04704460F46E7
S214418FC0154690F88131022B39D090F88581464676
S214418FD012F0010913D112F0020F54D0424600F5A7
S214418FE0D470324DA847B4F87861324607EB080191
S214418FF004F5F470A8474644B4F87A813DE0424609
S21441900000F5C470294B984715F0020F41D1B4F8CA
S2144190107881C2464246B91904F5E470234B984715
S214419020564415F0020514D1B9F1000F2BD0B4F80F
S2144190307A21B91904F502701C4B984723E0B0F821
S2144190407881C24612F0010620D112F002051AD0EC
S214419050B1464246B91904F5F470144B9847564444
S214419060B4F87A81B9F1000F07D04246B91904F530
S21441907002700E4B984746442DB14246B91904F545
S21441908006700A4B98470020BDE8F087B146002697
S214419090C0E7424607EB080104F5D470034B9847F6
S2144190A04FEA4806B4F87881C246B3E7C18A43001E
S2144190B008B5014B984708BDE9A14100A8B110B5D4
S2144190C0B1B1002A17DBB2F5804F28BF4FF480427A
S2144190D00A4CA047002800DB10BD6FF4A1739842EC
S2144190E00CBF18464FF0FF3010BD6FF0AC00704714
S2144190F06FF0AC0010BD6FF0AC00EDE79982410017
S21441910018B108B5014B984708BD7047C9414100A1
S214419110A8B138B505464FF422700B4B9847044624
S21441912078B100222946094B9847002801DB2046A2
S21441913038BD296B2046064B9847002038BD002095
S2144191407047002038BD00BF91F74200B14741004B
S214419150354D410040B108B549B1002A0ADB074BFD
S214419160984740EAE07008BD6FF0AC0070476FF07A
S214419170AC0008BD6FF0AC0008BD00BF355B4100D8
S21441918010B50023014CA04710BD00BFBD90410063
S214419190034668B190F8442212F0100F03D021B173
S2144191A003F5D47070470029FAD003F5C4707047B0
S2144191B00020704700283AD02DE9F84306460B2A8E
S2144191C016D8DFE802F00615151509181515150C01
S2144191D00F124FF0020810E04FF016080DE04FF066
S2144191E015080AE04FF0250807E04FF00A0804E0AA
S2144191F04FF0030801E04FF001081F4615460C46A4
S21441920001F1140948460D4B9847306090B14A46E3
S21441921000210B4B98473068C560C0F81080476006
S21441922000F11403036084600020BDE8F8836FF00A
S214419230AC0070476FF49770BDE8F88391F7420031
S214419240BD8C4300D0B101460068B8B138B5C3689B
S214419250012B07D00C46002505608560084B9847D2
S214419260256038BD03688468002CF3D01C44002573
S2144192705A1C1D701346A242FAD1EBE7704700BF55
S21441928069F8420068B110B50446C26A0B21054B25
S214419290984704F15000044B98472046034B9847A3
S2144192A010BD7047759F4000D93F410069F84200A4
S2144192B038B5054660200E4B9847B8B10446602243
S2144192C000210C4B984704F150000B4B984740B98E
S2144192D08023A4F85C301C23A4F85E30E562204667
S2144192E038BD2046054B9847002038BD002038BD84
S2144192F091F74200BD8C4300D53F41008592410025
S2144193002DE9F04F83B000283AD0804600293AD064
S2144193100D4691F800B04C7891F8029091F803A070
S21441932000F1500738461B4B9847019070BB230409
S21441933043EA0B6343EA0A0343EA0923164AA2FBBC
S2144193400312D20802EB820102EB41029B1A58F843
S214419350234074B14FF01409104E4A4604F13401CB
S2144193602846B04718B1A46C002CF6D101E0012381
S214419370019338460A4B9847019803B0BDE8F08FF1
S21441938000230193F8E700230193F5E700230193B7
S214419390F2E700BFDD3F4100A38B2EBA618A43004E
S2144193A0E13F41002DE9F0410A784B781B0443EA3E
S2144193B00263CA7813438A7843EA0223144CA4FB17
S2144193C00324E40804EB840204EB42041C1BD8B1DA
S2144193D006460D4600F1500840460E4B9847A8B940
S2144193E056F8244054B114270B4E3A4604F1340142
S2144193F02846B04710B1A46C002CF6D14046074B26
S21441940098472046BDE8F0810024FAE70024F8E7B3
S214419410A38B2EBADD3F4100618A4300E13F410004
S2144194202DE9F047E0B181460D4600F1500A50461D
S214419430164B9847B0B9A9F1040809F12809142731
S214419440134E02E0C84505D024B958F8044F74B904
S214419450C845FAD150460F4B98472046BDE8F0879D
S2144194600024FAE70024F8E7A46C002CEAD03A4638
S21441947004F120012846B0470028F5D1A36C002B03
S214419480E0D0002CE6D11C46F1E700BFDD3F4100AD
S214419490618A4300E13F41002DE9F04F85B0054622
S2144194A0884691469B460F684FF45170804B9847CB
S2144194B0002800F0EF800446EB6ABA6839687D4EB2
S2144194C0B0472B465A46052120467B4EB0470646B6
S2144194D004F5317ABBF1000F12D0E36940F206225F
S2144194E0934223D040F28522934209D1B5F95C30AC
S2144194F0002BC0F2D5809BB262689A42C0F0D380FE
S2144195003EB994F8EF32E3B9B9F1010F1CD06FF4CC
S214419510B2762046694B98472046694B9847404665
S214419520684B9847304605B0BDE8F08FB5F95E30D8
S214419530002BC0F2BB809BB262689A42E0D2624E78
S214419540E7E7012B00F08F80514628465F4B98474E
S21441955000287DD1E86A5E4B98470646002800F011
S2144195609C80E3694360A3681BB12368C36063685A
S2144195700360E36E1BB1636E3361236E736194F8CF
S214419580F132B37294F8F032F372E36AB361236B4B
S214419590F361DAF80020DAF804E0DAF80800DAF8DD
S2144195A00C107263C6F838E0F0633164DAF81020C4
